:0300000002609506
:0C609500787FE4F6D8FD7581210260DC04
:106BB90012706F1275E312762D12771312765C122A
:106BC90073FF12761175B10CE4F5B21262EF123B44
:0C6BD90073120046120D5112612180F56C
:0F75F3004F4B535049005350494F4B004F4B00E3
:1019B30041066B0044066E000000004106670041CB
:1019C30006720041066D00430663FF75F34306602C
:1019D300FF75F9430668FF75FF41066C0041066613
:0119E3000003
:030023000259CBB4
:0D59CB00C0E0C0F0C083C082C0D075D0081D
:1059D8009005CDE4F0209803025A7AC298E599F030
:1059E80012771ABF6922900376E0B4011B9005CDA7
:1059F800E0FFB4AA089003767402F08075EF64554E
:105A08007070900376F0806A12771AEF646A706299
:105A18009005CDE0FFB4AA1890066CE070129003D0
:105A28009474AAF09006667401F090066CF08042B7
:105A380090066CE06401703A900666E02494F58262
:105A4800E43403F583EFF0900666E004F0E0B40A6E
:105A580021E4F090066CF0900394E0B4AA0F900350
:105A68009DE0B455089003917401F080057F5512AC
:095A78007667309904C299C20955
:0B5A8100D0D0D082D083D0F0D0E03233
:03004300025EE278
:0D5EE200C0E0C0F0C083C082C0D075D00801
:105EEF00E4FFE59A30E069539AFEAF9B90066BE0B2
:105EFF006401703090066DE0FEB40113900667E008
:105F0F00FD04F0746E2DF582E43406F583EFF0EFA7
:105F1F00B44F11EE700E90066D04F0900667F0907E
:105F2F00066EEFF0900667E0B4022590066BE4F082
:105F3F0090066DF0786E7C067D01900668E0FBA3FD
:105F4F00E0FAA3E0F91223EDEF700590067204F06A
:0A5F5F00E59A30E105539AFDC209EE
:0B5F6900D0D0D082D083D0F0D0E03246
:097667002009FDEFD209F599227A
:106A92009006A7EBF0A3EAF0A3E9F09006A7E0FBCB
:106AA200A3E0FAA3E0F91220B260179006A7A3E4CC
:106AB20075F001122193A9F0FA1220B2FF12766743
:036AC20080D92256
:097670002009FDEFD209F59B226F
:106AC5009006AAEBF0A3EAF0A3E9F09006AAE0FB92
:106AD500A3E0FAA3E0F91220B260179006AAA3E496
:106AE50075F001122193A9F0FA1220B2FF12767007
:036AF50080D92223
:097679002009FDEFD209F5992268
:106AF8009006ADEBF0A3EAF0A3E9F09006ADE0FB59
:106B0800A3E0FAA3E0F91220B260179006ADA3E45F
:106B180075F001122193A9F0FA1220B2FF127679CA
:036B280080D922EF
:10706F00E5A2543FF5A253BAFE759850759A507524
:10707F00D7C875D6FE758E14438E01D2AC75AF018D
:03708F00D2AF225B
:0B6409009003A1EBF0A3EAF0A3E9F080
:106414009003CC7401F0A37403F0A374A4F090036C
:10642400A1E0F9A3E0FAA3E09006A1C9F0A3EAF081
:10643400A3E9F09003CCE0F9A3E0FAA3E09006A46A
:10644400C9F0A3EAF0A3E9F07B017A0379CF1267DC
:0A645400317B017A0379CF026A92CE
:102C10000000000000FF76020102661400FF0006BB
:102C20000203011500FF726C0304021900FF728A8F
:102C30000405031D00FF72A80506041F00FF72C6ED
:102C40000607052000FF72E40708062100FF730253
:102C50000809072600FF7320090A082A00FF733EAF
:102C60000A0B092C00FF735C0B0C0A0B00FF001E03
:102C70000C0D0B0C00FF78400D0E0C0D00FF78457D
:102C80000E660D0E00FF000E0F0F0F1201FF66E71C
:102C90001010100F01FF69B71111111001FF69EF3A
:102CA0001212121401FF704B1313131101FF6C8FDA
:102CB0001414141301FF6B2B1516183502FF74FD45
:102CC0001617153902FF750F1718163D02FF7521EB
:102CD0001815174102FF7533191A1C4503FF754576
:102CE0001A1B194903FF75571B1C1A4D03FF756901
:102CF0001C191B5103FF757B1D1E1E5204FF784AD1
:102D00001E1D1D5304FF784F1F1F1F1F05FF768BCD
:102D10002020202006FF76932122645407FF785458
:102D20002223215507FF78592324225607FF785E76
:102D30002425235707FF78632560245807FF786808
:102D40002627295908FF786D2728265A08FF787208
:102D50002829275B08FF78772926285C08FF787CDC
:102D60002A2B2B2A09FF761F2B2A2A5E09FF78813E
:102D70002C2D2D000AFF78862D2C2C000AFF788B35
:102D80002E2E2E2E0BFF73B32F2F2F2F0CFF769B83
:102D9000303030300DFF76A3313131310EFF65AC6C
:102DA0003232323515FF00263333333515FF718744
:102DB0003434343315FF71A93535353415FF71CBF3
:102DC0003636363916FF70923737373916FF6CB7FB
:102DD0003838383716FF6CDF3939393816FF6D0748
:102DE0003A3A3A3D17FF70B53B3B3B3D17FF6D2F1D
:102DF0003C3C3C3B17FF6D573D3D3D3C17FF6D7F15
:102E00003E3E3E4118FF70D83F3F3F3E18FF6DA742
:102E10004040403F18FF6DCF4141414018FF6DF7E2
:102E20004242424519FF70FB4343434219FF6E1F64
:102E30004444444319FF6E474545454419FF6E6FAE
:102E4000464646491AFF711E474747491AFF6E9783
:102E5000484848471AFF6EBF494949481AFF6EE77C
:102E60004A4A4A4D1BFF71414B4B4B4D1BFF6F0FA5
:102E70004C4C4C4B1BFF6F374D4D4D4C1BFF6F5F48
:102E80004E4E4E511CFF71644F4F4F4E1CFF6F87CB
:102E90005050504F1CFF6FAF515151501CFF6FD716
:102EA000525252521DFF76AB535353531EFF76B30B
:102EB0005454545421FF76BB5555555522FF76C3C3
:102EC0005656565623FF76CB5757575724FF737ADB
:102ED0005858585825FF76D35959595926FF758D9A
:102EE0005A5A5A5A27FF76DB5B5B5B5B28FF76E317
:102EF0005C5C5C5C29FF76EB5D5D5D5D2AFF694390
:102F00005E5E5E5E2BFF6A275F5F5F5F5FFF6699B5
:102F10006062256107FF78906161616160FF76F30F
:102F20006264606307FF78956363636362FF76FBA7
:102F30006421626507FF789A6565656564FF7703BC
:102F400066010E6600FF789F6768686966FF7471A6
:102F50006867676A66FF759F6969696967FF5908ED
:082F60006A6A6A6A68FF5DB944
:1019E4004105D200410604004105D3004505D70056
:1019F400000001004505E100000001004505EC0080
:101A0400000001004505F800000001004505DC0068
:101A1400000001004505E700000001004505F30052
:101A2400000001004505FE00000001004105E6013B
:101A34004105F2014105F1004105FD0041060300A5
:101A4400410606014106090041060C0941060E073C
:101A540041060F0141061000410611004106050B25
:101A64004106080041060B0041060D00410607022D
:101A740041060A004105D001410612014105D10188
:1024A200E4900583F0A3F0A3F0A3F0A3F030B30C03
:1024B20030B60930B70630A5030228A612761130CD
:1024C200B30C30B60930B70630A5030228A612773E
:1024D200D420B309900583E4F0A37438F020B60940
:1024E200900583E4F0A37434F020B709900583E4E7
:1024F200F0A3742CF020A509900583E4F0A3741CCA
:10250200F0900583E07004A3E06438600302283B86
:102512001277C27F011277B630B30302283B9005CF
:1025220086E0600302283B1277A4EF70069005D381
:10253200E060131277A4EF640170489005D3E0FFC6
:102542006004645F703D1277BC900585EFF0C39420
:102552001440C59005D37402F0E4900583F0A3F013
:10256200D2CDC2977F0112722E12775CBF010A7F11
:102572006F7E00126B8C0227857F787E0012697D48
:102582000227859005D3E0FF6442600FEF64436049
:102592000AEF64446005EF6445702F1277BC900522
:1025A20085EFF0C3940A500302251AE4900583F0E4
:1025B200A3F07B017A0579DC12504040077F797ED7
:1025C20000126B8C1276110227859005D3E0FF640E
:1025D20046600FEF6447600AEF64486005EF6449A4
:1025E200702F1277BC900585EFF0C3940A50030256
:1025F200251AE4900583F0A3F07B017A0579E712AE
:102602004F1C40077F797E00126B8C1276110227D5
:10261200859005D3E0FF644A600FEF644B600AEFD8
:10262200644C6005EF644D702F1277BC900585EF06
:10263200F0C3940A500302251AE4900583F0A3F034
:102642007B017A0579F3124BA040077F797E001255
:102652006B8C1276110227859005D3E0FF644E60E1
:102662000FEF644F600AEF64506005EF6451702F02
:102672001277BC900585EFF0C3940A500302251A25
:10268200E4900583F0A3F07B017A0579FE124CCB2E
:1026920040077F797E00126B8C127611022785909B
:1026A20005D3E0B40C2B1277BC900585EFF0C394F0
:1026B20014500302251AE4900583F0A3F09005D389
:1026C200742FF01277A4900587EFF0127418022786
:1026D200859005D3E0B40D2B1277BC900585EFF001
:1026E200C39414500302251AE4900583F0A3F090DA
:1026F20005D37430F012779E900587EFF0127418AC
:102702000227859005D3E0B40E1F1277BC90058591
:10271200EFF0C39414500302251AE4900583F0A34A
:10272200F09005D37431F0805A9005D3E0B466245A
:102732001277BC900585EFF0C39414500302251A5A
:10274200E4900583F0A3F09005D37467F07F011243
:10275200724D802F9005D3E0B42A341277BC9005D5
:1027620085EFF0C39414500302251AE4900583F018
:10277200A3F09005D3745DF0127786900587EFF091
:102782001274189005867401F01277C202251A900D
:1027920005D3E0642D70251277BC900585EFF0C358
:1027A2009414500302251AE4900583F0A3F07F7974
:1027B200FE126B8C12645E125D2180679005D3E07D
:1027C200642C600302251A1277BC900585EFF0C3D2
:1027D2009414500302251AE4900583F0A3F07F7944
:1027E200FE126B8C12645E126907125D217B017A04
:1027F2000379779005BF7410F07D207C157FA012BD
:1028020064C21276117B017A0079469005BF74107A
:10281200F07D307C157FA01264C21276111263AD76
:1028220012761175C760E49005D3F090058604F026
:102832001277C275C13002251A30B3FD30B6FA30B4
:10284200B7F730A5F412761130B3FD30B6FA30B7CF
:10285200F730A5F4E4FF1277B6E4FF1277CE9005C5
:10286200D3E0645E602312775CEF60119005D3E0E1
:10287200D3940E40047F0180067F0080027F01EF27
:1028820060077F787E0012697D900586E070079070
:1028920005D204F08005E49005D2F0900583E0FEB5
:0828A200A3E0FF227E0F7FFF7F
:0128AA00220B
:104A7400E4900581F0A3F0FF1224A2900581EEF0EA
:104A8400A3EFF0127828900581E0640F7003A3E08F
:104A9400F46003024B75EF64016003024B759005EB
:104AA400D3E0FF601C640B6018EF640C6013EF64C8
:104AB4000D600EEF640E6009EF642D6004EFB42CFA
:104AC4002A900649E0540FFFBF0808900604E0044A
:104AD400F08005E4900604F0900604E0D3940340CB
:104AE4000A7F141277DAE4900604F012782E127713
:104AF400E6EF6005E49005D2F0900649E0540FFF1C
:104B0400640860069005D27401F0EF24FE60292445
:104B1400FE603524FC6041240770561277ECEF7078
:104B240050900581F0A3741CF09005D3E0B43106D5
:104B34001274C312761180341277ECEF703390053F
:104B440081F0A37434F080241277ECEF7023900585
:104B540081F0A3742CF080141277E6EF70131277AF
:104B6400ECEF700D900581F0A37438F07F05127797
:104B7400F2900581E0FEA3E0FFEE701DEF24D46007
:104B84001224F8600B24FC600D241C700C7F03229B
:0B4B94007F02227F01227F00227FFFB2
:014B9F0022F3
:10004600E4FF900580F0124A74EF147003020385F2
:1000560014700302088414700302035F2403600310
:10006600020D261277A4EF70069005D3E0601212F7
:1000760077A4EF640170229005D3E0FF6003B45FBC
:10008600181277BC900580EFF0C394145003020D4C
:10009600269005D374020201E99005D3E0FF64427D
:1000A600600FEF6443600AEF64446005EF644570D7
:1000B6002D1277BC900580EFF0C3940A40657B0152
:1000C6007A0579DC1250404057127792BF010C7FB7
:1000D600797E00126B8CE4FF1277980201B49005CA
:1000E600D3E0FF6446600FEF6447600AEF64486040
:1000F60005EF644970301277BC900580EFF0C39429
:100106000A40207B017A0579E7124F1C40121277CC
:1001160092BF010C7F797E00126B8CE4FF127798F8
:100126000201B40201BA9005D3E0FF644A600FEF02
:10013600644B600AEF644C6005EF644D702E1277D5
:10014600BC900580EFF0C3940A401F7B017A0579C5
:10015600F3124BA04012127792BF010C7F797E00FA
:10016600126B8CE4FF127798804480489005D3E0A8
:10017600FF644E600FEF644F600AEF64506005EF56
:10018600645170431277BC900580EFF0C3940A4027
:10019600237B017A0579FE124CCB4012127792BF6F
:1001A600010C7F797E00126B8CE4FF127798127631
:1001B600110203599005D3E075F008A42413F582C3
:1001C600E5F0342C020D1E9005D3E0B40B1E127719
:1001D600BC900580EFF0C394145003020D269005E1
:1001E600D3742EF07F061276510203599005D3E0A0
:1001F600B40C1E1277BC900580EFF0C39414500324
:10020600020D269005D3742FF07F06127651020355
:10021600599005D3E0B40D1E1277BC900580EFF01F
:10022600C394145003020D269005D37430F07F0654
:100236001276510203599005D3E0B40E1E1277BC14
:10024600900580EFF0C394145003020D269005D359
:100256007431F07F061276510203599005D3E0B44B
:10026600661E1277BC900580EFF0C394145003020B
:100276000D269005D37467F07F0612765102035956
:100286009005D3E0B42A1E1277BC900580EFF0C328
:1002960094145003020D269005D3745DF07F061268
:1002A60076510203599005D3E0642D701F1277BC76
:1002B600900580EFF0C394145003020D267F797EDB
:1002C60000126B8C12645E125D21805E9005D3E095
:1002D600642C70671277BC900580EFF0C3941450BD
:1002E60003020D267F797E00126B8C12645E126902
:1002F60007125D217B017A0379779005BF7410F0B0
:100306007D207C157FA01264C21276117B017A00D3
:1003160079469005BF7410F07D307C157FA012647D
:10032600C21276111263AD12761175C7607F06127E
:1003360076511277C275C130020D269005D3E0754D
:10034600F008A42413F582E5F0342CF583E49390A9
:1003560005D3F01277C2020D269005D3E0B45F0CE8
:100366001277A4EF6006125E4E020D269005D3E0CA
:1003760075F008A42414F582E5F0342C020D1E90C5
:1003860005D3E012224304410F0453100462110402
:10039600711204841304961407121F0726200824DA
:1003A6002F08103004A83204BA3304CC3404DE35E6
:1003B60004F03605023705143805263905383A059E
:1003C6004A3B055C3C056E3D05803E05923F05A413
:1003D6004005B64105C84205DA4305EC4405FE452D
:1003E60006104606224706344806464906584A0677
:1003F6006A4B067C4C068E4D06A04E06B24F06C4CE
:100406005006D65106E75206FD53073A54074E5595
:10041600076356077557078958079D5907B15A0745
:10042600C25B07D35C07E45D07F85E080B5F08371D
:1004360061084A63085D6500000871900674E0B4BF
:100446006305E4F0020871900674020806900675CA
:10045600E0B40C02801C900675020806900676E051
:10046600B41F02800D90067602080690067AE0B464
:1004760007067401F002087190067A0208069006D3
:1004860077E0B41705E4F0020871900677020806D3
:10049600900678E0B43B05E4F00208719006780215
:1004A60008069005D7E0B41405E4F002087190053B
:1004B600D70208069005D8E0B41405E4F0020871E6
:1004C6009005D80208069005D9E0B40905E4F002C3
:1004D60008719005D90208069005DAE0B40905E42A
:1004E600F00208719005DA0208069005E1E0B414FE
:1004F60005E4F00208719005E10208069005E2E0C5
:10050600B41405E4F00208719005E20208069005AD
:10051600E3E0B40905E4F00208719005E302080679
:100526009005E4E0B40905E4F00208719005E402E0
:1005360008069005ECE0B41405E4F0020871900595
:10054600EC0208069005EDE0B41405E4F00208712B
:100556009005ED0208069005EEE0B40905E4F00208
:1005660008719005EE0208069005EFE0B40905E46F
:10057600F00208719005EF0208069005F8E0B41441
:1005860005E4F00208719005F80208069005F9E006
:10059600B41405E4F00208719005F9020806900506
:1005A600FAE0B40905E4F00208719005FA020806BB
:1005B6009005FBE0B40905E4F00208719005FB0222
:1005C60008069005DCE0B41405E4F0020871900515
:1005D600DC0208069005DDE0B41405E4F0020871BB
:1005E6009005DD0208069005DEE0B40905E4F00298
:1005F60008719005DE0208069005DFE0B40905E4FF
:10060600F00208719005DF0208069005E7E0B414D1
:1006160005E4F00208719005E70208069005E8E097
:10062600B41405E4F00208719005E8020806900586
:10063600E9E0B40905E4F00208719005E90208064C
:100646009005EAE0B40905E4F00208719005EA02B3
:1006560008069005F3E0B41405E4F002087190056D
:10066600F30208069005F4E0B41405E4F0020871FC
:100676009005F40208069005F5E0B40905E4F002D9
:1006860008719005F50208069005F6E0B40905E440
:10069600F00208719005F60208069005FEE0B41413
:1006A60005E4F00208719005FE0208069005FFE0D9
:1006B600B41405E4F00208719005FF0208069006DE
:1006C60000E0B40905E4F00208719006000208068D
:1006D600900601E0B40904E4F08006900601E00407
:1006E600F09005E6E0B401067402F002086E90058B
:1006F600E67401F002086E9005F2E0B46305740139
:10070600F080069005F2E004F002086E9005F1E034
:10071600B46304E4F080069005F1E004F002086E8C
:100726009005FDE0B46304E4F080069005FDE00466
:10073600F002086E900603E0B40704E4F080069029
:100746000603E004F002086E900606E0B4010574A4
:1007560009F08006900606E014F002086E9006097D
:10076600E0700404F08005E4900609F002086E903B
:10077600060CE0B40904E4F0800690060CE004F0F0
:1007860002086E90060EE0B40704E4F080069006B8
:100796000EE004F002086E900605E0B40A04E4F0E8
:1007A6008006900605E004F002086E900608E0B4A4
:1007B6000B05E4F0020871900608804490060BE0F1
:1007C600B40B05E4F002087190060B803390060D19
:1007D600E0B40B05E4F002087190060D8022900645
:1007E60007E0B401057402F080069006077401F074
:1007F600807690060AE0B42604E4F0806E90060A3D
:10080600E004F08066125A8C8061900612E0B40112
:10081600057402F080069006127401F0804A900575
:10082600D0E0B40104E4F080069005D07401F080B5
:100836003790060FE0B40104E4F0800690060F74CA
:1008460001F08024900610E0B40104E4F0800690E4
:1008560006107401F08011900611E0B40104E4F072
:1008660080069006117401F0125D219005D3E075A3
:10087600F008A42411F582E5F0342C020D1E900533
:10088600D3E012224309400F095210096511097875
:1008960012098B13099D140BB71F0BCB200CC12F0C
:1008A6000CAD3009AF3209BE3309CD3409DC350948
:1008B600EB3609FA370A09380A18390A273A0A3686
:1008C6003B0A453C0A543D0A633E0A723F0A814090
:1008D6000A90410A9F420AAE430ABD440ACC450A21
:1008E600DB460AE9470AF7480B06490B144A0B226E
:1008F6004B0B304C0B3E4D0B4C4E0B5A4F0B6C506A
:100906000B7A510B8C520BA2530BDF540BF3550C85
:1009160008560C1A570C2E580C42590C565A0C6392
:100926005B0C705C0C815D0C955E0CA85F0CD46151
:100936000CE7630CFA6500000D0E900674E0700675
:100946007463F0020D0E900674020CA3900675E017
:10095600B40106740CF0020D0E900675020CA390FD
:100966000676E0B40106741FF0020D0E90067602BC
:100976000CA390067AE0B401067407F0020D0E90FF
:10098600067A020CA3900677E070067417F0020D43
:100996000E900677020CA3900678E07006743BF082
:1009A600020D0E900678020CA39005D7E0700302A4
:1009B6000B609005D7020CA39005D8E07003020BDC
:1009C600609005D8020CA39005D9E07003020B8055
:1009D6009005D9020CA39005DAE07003020B809013
:1009E60005DA020CA39005E1E07003020B609005A6
:1009F600E1020CA39005E2E07003020B609005E2B1
:100A0600020CA39005E3E07003020B809005E3025D
:100A16000CA39005E4E07003020B809005E4020C41
:100A2600A39005ECE07003020B609005EC020CA3AA
:100A36009005EDE07003020B609005ED020CA390AB
:100A460005EEE07003020B809005EE020CA3900504
:100A5600EFE07003020B809005EF020CA39005F8FF
:100A6600E07003020B609005F8020CA39005F9E014
:100A76007003020B609005F9020CA39005FAE07072
:100A860003020B809005FA020CA39005FBE07003AD
:100A9600020B809005FB020CA39005DCE0700302BC
:100AA6000B609005DC020CA39005DDE07003020BE1
:100AB600609005DD020CA39005DEE07003020B805A
:100AC6009005DE020CA39005DFE07003020B809018
:100AD60005DF020CA39005E7E07002807D9005E734
:100AE600020CA39005E8E07002806F9005E8020C06
:100AF600A39005E9E07003020B809005E9020CA3C0
:100B06009005EAE0700280729005EA020CA3900557
:100B1600F3E0700280449005F3020CA39005F4E024
:100B2600700280369005F4020CA39005F5E0700281
:100B360080489005F5020CA39005F6E07002803A15
:100B46009005F6020CA39005FEE07002800C90055D
:100B5600FE020CA39005FFE070067414F0020D0E61
:100B66009005FF020CA3900600E07002800C900630
:100B760000020CA3900601E070067409F0020D0E47
:100B8600900601020CA39005E6E0B401067402F09B
:100B9600020D0B9005E67401F0020D0B9005F2E0D4
:100BA600B401057463F080069005F2E014F0020DBE
:100BB6000B9005F1E070057463F080069005F1E096
:100BC60014F0020D0B9005FDE070057463F08006CD
:100BD6009005FDE014F0020D0B900603E07005741D
:100BE60007F08006900603E014F0020D0B9006064F
:100BF600E0B401057409F08006900606E014F002E0
:100C06000D0B900609E0700404F08005E4900609D7
:100C1600F0020D0B90060CE070057409F08006904A
:100C2600060CE014F0020D0B90060EE0700574073A
:100C3600F0800690060EE014F0020D0B900605E01B
:100C46007005740AF08006900605E014F0020D0B9C
:100C5600900608E070028018900608804090060B07
:100C6600E07002800B90060B803390060DE0700654
:100C7600740BF0020D0E90060D8022900607E0B46C
:100C860001057402F080069006077401F0807690E4
:100C9600060AE070057426F0806E90060AE014F0ED
:100CA60080661252578061900612E0B40105740204
:100CB600F080069006127401F0804A9005D0E0B4E8
:100CC6000104E4F080069005D07401F080379006A8
:100CD6000FE0B40104E4F0800690060F7401F08082
:100CE60024900610E0B40104E4F080069006107427
:100CF60001F08011900611E0B40104E4F080069042
:100D060006117401F0125D219005D3E075F008A478
:100D16002412F582E5F0342CF583E4939005D3F0A4
:100D26009005D3E075F008A42415F582E5F0342C7F
:100D3600F583E493FB740193FA740293F99005D456
:0B0D4600EBF0A3EAF0A3E9F002226941
:0D7611007F047E347DDCDDFEDEFADFF60056
:01761E002249
:04749B00AB07AA068B
:0F749F00E4FCECC39BE49A50061276110C80F3C8
:0174AE0022BB
:05771A009005D3E0FF23
:01771F002247
:067720009005D3EFF022FA
:057726009005E6E0FF04
:01772B00223B
:05772C009005F2E0FFF2
:017731002235
:057732009005F1E0FFED
:01773700222F
:057738009005FDE0FFDB
:01773D002229
:05773E00900603E0FFCE
:017743002223
:05774400900606E0FFC5
:01774900221D
:05774A00900609E0FFBC
:01774F002217
:0577500090060CE0FFB3
:017755002211
:0577560090060EE0FFAB
:01775B00220B
:05775C0090060FE0FFA4
:017761002205
:05776200900610E0FF9D
:0177670022FF
:05776800900611E0FF96
:01776D0022F9
:05776E00900605E0FF9C
:0177730022F3
:05777400900608E0FF93
:0177790022ED
:05777A0090060BE0FF8A
:01777F0022E7
:0577800090060DE0FF82
:0177850022E1
:05778600900607E0FF82
:01778B0022DB
:05778C0090060AE0FF79
:0177910022D5
:057792009005D2E0FFAC
:0177970022CF
:067798009005D2EFF02283
:05779E00900612E0FF5F
:0177A30022C3
:0577A4009005D0E0FF9C
:0177A90022BD
:105D21009005E6E0900683F09005F2E0900684F09D
:105D31009005F1E0900685F09005FDE0900686F073
:105D4100900603E0900687F0900606E0900688F042
:105D5100900609E0900689F090060CE090068AF022
:105D610090060EE090068BF090060FE090068CF006
:105D7100900610E090068DF0900611E090068EF0EE
:105D8100900605E090068FF0900607E0900690F0EF
:105D91009005D0E0900691F0900612E0900692F006
:105DA1007B017A0679839005BF7410F07D407C15E4
:085DB1007FA01264C20276110A
:103B73007B017A0379779005CA7410F07D207C1558
:103B83007FA012621F1276117B017A00794690059D
:103B9300CA7410F07D307C157FA012621F1276115B
:103BA3007B017A0679839005CA7410F07D407C15F9
:103BB3007FA012621F127611900683E0FF9005E644
:103BC300F0900684E09005F2F0900685E09005F110
:103BD300F0900686E09005FDF0900687E0900603DE
:103BE300F0900688E0900606F0900689E0900609BA
:103BF300F090068AE090060CF090068BE090060E9B
:103C0300F090068CE090060FF090068DE090061081
:103C1300F090068EE0900611F090068FE090060576
:103C2300F0900690E0900607F0900691E09005D0A2
:103C3300F0900692E0900612F0EFD39402400690C3
:103C430005E67401F0900684E0D394634006900582
:103C5300F27401F0900685E0D3946340069005F179
:103C63007401F0900686E0D3946340069005FD74DA
:103C730001F0900687E0D394074005E4900603F033
:103C8300900689E0D394014005E4900609F090067C
:103C93008AE0D39409400690060C7409F090068BD1
:103CA300E0D39407400690060E7407F090068CE06C
:103CB300D394014005E490060FF090068DE0D39471
:103CC300014005E4900610F090068EE0D394014085
:103CD30005E4900611F090068FE0D3940A40069015
:103CE3000605740AF0900690E0D39402400690060D
:103CF300077402F0900691E0D3940140069005D03A
:103D03007401F0900692E0D3940240069006127478
:0E3D130001F090060CE075F003A4FF0271EDC4
:10645E009005E67401F09005F2F0E49005F1F090ED
:10646E0005FDF0900603F090060604F0E490060990
:10647E00F090060C7409F090060E7407F0A37401E8
:10648E00F0E4A3F0A3F0900605740AF0E490060879
:10649E00F090060BF090060DF09006077402F0E4F3
:0564AE0090060AF02237
:106907007F109003777401F0A3DFFC9000467401B9
:10691700F0E4A3F0A37403F0A37405F0A37402F0EA
:10692700A314F0A3F0A37406F0A37401F0A3F0A3DB
:0B693700F0A3F0A3F0A3F0A3F0A3F086
:016942002232
:10720E000000000000000000000000000000000070
:10721E000000000000000000000000000000000060
:101A84005500313F065B4F666D7D077F6F777C396C
:101A94005E797176385C733E48038701020408104E
:101AA40020408042038F40006030000100000000AD
:101AB4000000000000000000000000000000000022
:101AC4000000000000000000000000000000000012
:101AD4000000000000000000000000006320005629
:101AE40000000000000000000000000000000000F2
:101AF40000000000000000000000000000000000E2
:101B040000000000000000000000000000000000D1
:101B140000000000000000000000000000000000C1
:101E0400410000004103A0005003770101010101DA
:101E1400010101010101010101010150004601001C
:101E2400030502010106010101010101010142034F
:101E34009200004103760042039E0000410391009A
:106BE500C282E4FDFCC280EF30E004D2818002C2A3
:106BF5008100000000D280EFC313FF0DBD00010C22
:0A6C0500ED64084C70DFC280C2810C
:016C0F002262
:106C1000C283E4FDFCC280EF30E004D2818002C276
:106C20008100000000D280EFC313FF0DBD00010CF6
:0A6C3000ED64084C70DFC280C281E1
:016C3A002237
:106C3B00C2CCE4FDFCC280EF30E004D2818002C202
:106C4B008100000000D280EFC313FF0DBD00010CCB
:0A6C5B00ED64084C70DFC280C281B6
:016C6500220C
:09742F00AE077F401274387FC0E3
:0D743800D282000000000000C282026BE55D
:0C73CD00127438D2827F401273D97FC046
:0D73D900D283000000000000C283026C108F
:0C73E6001273D9D2837F401273F27FC073
:0D73F200D2CC000000000000C2CC026C3BB9
:055F7400E4900001F0C3
:105F790012775612742FE4FB74012BF582E4340076
:105F8900F583E0FF126BE574092BF582E43400F523
:105F990083E0FF126BE50BEBB408DDEE2488FF12FA
:105FA90073CDE4FB74112BF582E43400F583E0FF33
:105FB900126C1074192BF582E43400F583E0FF129A
:105FC9006C100BEBB408DDEE2488FF1273E6E4FBDA
:105FD90074212BF582E43400F583E0FF126C3B74E5
:105FE900292BF582E43400F583E0FF126C3B0BEBBF
:0C5FF900B408DDEE2488FF1273F2D2CC55
:016005002278
:10677B0012742FE4FBAF06126BE5AF06126BE50B41
:10678B00EBB408F17F8F1273CDE4FBAF06126C10E4
:10679B00AF06126C100BEBB408F17F8F1273E6E4AB
:1067AB00FBAF06126C3BAF06126C3B0BEBB408F164
:0767BB007F8F1273F2D2CCB4
:0167C20022B4
:1062EF00E4900580F0E4FFE4FE900580E02487F55C
:1062FF0082E43403F583E0FDEF75F008A42401F583
:10630F0082E43400F583E5822EF582E43583F5834C
:10631F00EDF00EEEB408D20FEFB406CB125F79900A
:10632F000580E0B401077F7B7E00126B8C7F1E120D
:0E633F0074EB900580E004F0E0C3940840A7E2
:01634D00222D
:1074EB00EFD39400400B7EFF7DFFDDFEDEFA1F80A5
:0174FB00EFA1
:0174FC00226D
:106C6600E4FFE4FEEF75F008A42401F582E43400A5
:106C7600F583E5822EF582E43583F583E4F00EEEA6
:086C8600B408E10FEFB406DAD7
:016C8E0022E3
:0A763B007F78900056E4F0A3DFFC16
:017645002222
:106A5D00E4FF1277AAEF6401702A126C66900000B1
:106A6D00E05403FF2401F582E43400F5837440F013
:106A7D00125F79E4FF1277B0900000E004F0E0B40B
:046A8D000402E4F02B
:016A910022E2
:103D2100127762EF6003023DC6126C6612619990D0
:103D31000033E0900008F0900031E0900007F0902F
:103D41000674E0FF75F00A842431F582E43400F54D
:103D510083E0900006F0EF75F00A84743125F0F5E8
:103D610082E43400F583E0900005F0900675E0FFF1
:103D710075F00A842431F582E43400F583E0900083
:103D81000AF0EF75F00A84743125F0F582E434000D
:103D9100F583E0900009F0900676E0FF75F00A8463
:103DA1002431F582E43400F583E090000CF0EF75E6
:103DB100F00A84743125F0F582E43400F583E09053
:103DC100000B023E5F126C66126199900033E09025
:103DD100000CF0900031E090000BF0900674E0FFD1
:103DE10075F00A842431F582E43400F583E0900013
:103DF1000AF0EF75F00A84743125F0F582E434009D
:103E0100F583E0900009F0900675E0FF75F00A84F3
:103E11002431F582E43400F583E0900008F0EF7579
:103E2100F00A84743125F0F582E43400F583E090E2
:103E31000007F0900676E0FF75F00A842431F582E0
:103E4100E43400F583E0900006F0EF75F00A847425
:103E51003125F0F582E43400F583E0900005F0901F
:103E6100067AE02431F582E43400F583E090000D18
:103E7100F0900677E0FF75F00A842431F582E4348E
:103E810000F583E0900004F0EF75F00A84743125A9
:103E9100F0F582E43400F583E0900003F0900678B9
:103EA100E0FF75F00A842431F582E43400F583E003
:103EB100900002F0EF75F00A84743125F0F582E488
:093EC1003400F583E0125F752264
:10722E00AD07126C66900040E0900003F074312DB3
:0F723E00F582E43400F583E0900002F0025F79FE
:10724D00AD07126C6690003FE0900003F074312D95
:0F725D00F582E43400F583E0900002F0025F79DF
:1074AF00126C66900031E0900003F0900002743788
:0474BF00F0025F79FF
:10744500126C66900031E0900003F0900040E090EF
:067455000002F0025F7965
:10741800AD07126C6674312DF582E43400F583E013
:07742800900002F0025F7901
:106B5C00AD07126C66ED75F00A842431F582E434CD
:106B6C0000F583E0900003F0ED75F00A8474312594
:106B7C00F0F582E43400F583E0900002F0025F79D6
:10634E00AB07AA06126C667C007D64AF03AE021228
:10635E00213E74312FF58274003EF583E0900004E7
:10636E00F07C007D0AAF03AE0212213E7C007D0A56
:10637E0012213E74312DF58274003CF583E09000BD
:10638E0003F0AE02AF037C007D0A12213E74312D64
:0F639E00F58274003CF583E0900002F0025F7915
:0667C3007B017A0579D785
:1067C900126C669000011220CB2431F582E434006A
:1067D900F583E0900004F09000021220CB2431F5FB
:1067E90082E43400F583E0900003F0900003122066
:1067F900CB2431F582E43400F583E0900002F00205
:026809005F79B5
:1041B600126C669000AEE060179005B97401F0A32A
:1041C6007400F0A374AEF07B017A007930122F6888
:1041D6009000A6E060179005B97401F0A37400F092
:1041E600A374A6F07B017A00792C122F6890009EAA
:1041F600E060179005B97401F0A37400F0A3749EF3
:10420600F07B017A007928122F68900096E06017FB
:104216009005B97401F0A37400F0A37496F07B01C5
:104226007A007924122F6890008EE060179005B905
:104236007401F0A37400F0A3748EF07B017A007908
:1042460020122F68900086E060179005B97401F07F
:10425600A37400F0A37486F07B017A00791C122FF8
:104266006890007EE060179005B97401F0A37400B1
:10427600F0A3747EF07B017A007918122F68900003
:1042860076E060179005B97401F0A37400F0A3748A
:1042960076F07B017A007914122F6890006EE06048
:1042A600179005B97401F0A37400F0A3746EF07B47
:1042B600017A007910122F68900066E06017900569
:1042C600B97401F0A37400F0A37466F07B017A0060
:1042D600790C122F6890005EE060179005B97401A2
:1042E600F0A37400F0A3745EF07B017A00790812E3
:1042F6002F68900056E060179005B97401F0A3741A
:1043060000F0A37456F07B017A007904122F68221C
:0B2F68009005B6EBF0A3EAF0A3E9F03F
:102F7300E4FF12779EEF640160030230B49005B959
:102F8300E0FBA3E0FAA3E0F99000021220CB243186
:102F9300F582E43400F583E0FF9005B6E0FBA3E09F
:102FA300FAA3E0F9EF1220F89005B9E0FBA3E0FAE9
:102FB300A3E0F99000031220CB2431F582E434001E
:102FC300F583E0FF9005B6E0FBA3E0FAA3E0F990F8
:102FD300FFFFEF12210A9005B9E0FBA3E0FAA3E09B
:102FE300F99000041220CB2431F582E43400F583F8
:102FF300E0FF9005B6E0FBA3E0FAA3E0F990FFFE43
:10300300EF12210A9005B9E0FBA3E0FAA3E0F990DF
:1030130000051220CB540F24FD602B14604224FDC5
:10302300605814606F2406600302326A9005B6E0AC
:10303300FBA3E0FAA3E024FDF9EA34FFFA1220B27D
:10304300FF90003C80669005B6E0FBA3E0FAA3E0A6
:1030530024FDF9EA34FFFA1220B2FF90003F804CBE
:103063009005B6E0FBA3E0FAA3E024FDF9EA34FF00
:10307300FA1220B2FF90003E80329005B6E0FBA327
:10308300E0FAA3E024FDF9EA34FFFA1220B2FF903C
:10309300003B80189005B6E0FBA3E0FAA3E024FD13
:1030A300F9EA34FFFA1220B2FF90003DE04F0232FA
:1030B300679005B9E0FBA3E0FAA3E0F990000212E0
:1030C30020CB2431F582E43400F583E0FF9005B68C
:1030D300E0FBA3E0FAA3E0F9EF1220F89005B9E0D2
:1030E300FBA3E0FAA3E0F99000031220CB2431F50F
:1030F30082E43400F583E0FF9005B6E0FBA3E0FA39
:10310300A3E0F990FFFFEF12210A9005B9E0FBA3BA
:10311300E0FAA3E0F99000041220CB2431F582E415
:103123003400F583E0FF9005B6E0FBA3E0FAA3E0EB
:10313300F990FFFEEF12210A9005B9E0FBA3E0FA34
:10314300A3E0F99000051220CB540F24FD604C142A
:1031530070030231F524FD70030232391470030247
:1031630032512406600302326A9005B6E0FBA3E005
:10317300FAA3E024FEF9EA34FFFA1220B2448012E3
:1031830020F89005B6E0FBA3E0FAA3E024FFF9EAF8
:1031930034FFFA1220B244800232679005B6E0FB96
:1031A300A3E0FAA3E0F91220B244801220F89005BC
:1031B300B6E0FBA3E0FAA3E024FEF9EA34FFFA1237
:1031C30020B244801220F89005B6E0FBA3E0FAA3F6
:1031D300E024FFF9EA34FFFA1220B244801220F807
:1031E3009005B6E0FBA3E0FAA3E0F91220B2448015
:1031F30080729005B6E0FBA3E0FAA3E0F91220B2D7
:1032030044801220F89005B6E0FBA3E0FAA3E02483
:10321300FEF9EA34FFFA1220B244801220F8900536
:10322300B6E0FBA3E0FAA3E024FFF9EA34FFFA12C5
:1032330020B24480802E9005B6E0FBA3E0FAA3E021
:1032430024FFF9EA34FFFA1220B244808016900575
:10325300B6E0FBA3E0FAA3E024FEF9EA34FFFA1296
:0732630020B244801220F8A4
:01326A002241
:105350009005A8EBF0A3EAF0A3E9F0A3E0FBA3E03B
:10536000FAA3E0F91220B2FF9005A8E0FBA3E0FA4F
:10537000A3E0F9EF1220F89005ABE0FBA3E0FAA35D
:10538000E0F99000011220CBFF9005A8E0FBA3E01C
:10539000FAA3E0F9900001EF12210A9005ABE0FBBF
:1053A000A3E0FAA3E0F99000021220CBFF9005A839
:1053B000E0FBA3E0FAA3E0F9900002EF12210A90CB
:1053C00005ABE0FBA3E0FAA3E0F99000031220CBC9
:1053D000FF9005A8E0FBA3E0FAA3E0F9900003EF3B
:1053E00012210A9005ABE0FBA3E0FAA3E0F99000DC
:1053F000041220CBFF9005A8E0FBA3E0FAA3E0F99C
:10540000900004EF12210A9005ABE0FBA3E0FAA3A1
:10541000E0F99000071220CBFF9005A8E0FBA3E085
:0B542000FAA3E0F9900005EF02210A5A
:09664B002456F974003EFA7B01AB
:106654001220B290000812210A9000011220CB905F
:10666400000912210A9000021220CB90000A122184
:106674000A9000031220CB90000B12210A90000410
:106684001220CB90000C12210A9000051220CB900E
:05669400000D02210AC7
:0E65080075F008A42456F9740035F0FA7B01F2
:106516009000081220CB1220F89000091220CB9090
:10652600000112210A90000A1220CB9000021221CB
:106536000A90000B1220CB90000312210A90000C47
:106546001220CB90000412210A90000D1220CB904D
:05655600000502210A0E
:103ECA0078AC7C057D017BFF7A72790E7E007F08D3
:103EDA0012208CE49005B4F0A3F012774A9005B44E
:103EEA00EFF012773E9005B5EFF01277389005AAF9
:103EFA00EFF01277329005ABEFF01277C89005AB6E
:103F0A00E0FE9005AAE0FDC39E500AEF9D4006EE32
:103F1A006003E0701B9005ABE0600302404590052A
:103F2A00AAE0FE7003024045EFD39E5003024045CB
:103F3A00E49005A8F09005A8E0FFC3940A5022EF88
:103F4A0075F008A42456F582740035F0F583E07004
:103F5A00089005A8E0A3F080089005A8E004F08086
:103F6A00D4E49005A8F09005A9E024FFFFE434FF0B
:103F7A00FEEF7803C333CE33CED8F9FF9005A8E01D
:103F8A00FD7A002FFFEA3EFE74562FF58274003E3A
:103F9A00F583E0FF74AC2DF582E43405F583EFF088
:103FAA009005A8E004F0E0B406BC9005A9E09005ED
:103FBA00A8F09005A8E0FFD39401401DEF24FEFF6E
:103FCA00E434FFFEEF7803C333CE33CED8F912665A
:103FDA004B9005A8E014F080D9E49005A8F090056C
:103FEA00A8E0FF24ACF582E43405F583E0FE7456BC
:103FFA002FF582E43400F583EEF09005A8E004F092
:10400A00E0B406DA1241B6125F79E4FF1277CE9075
:10401A0005B4E0B401257B017A007956900056E098
:10402A00FD9005BAE4F0A3EDF090005BE0540F9028
:0B403A0005BCF09005B5E0FF12351941
:014045002258
:1056A400E49005AEF0A3F01277389005A9EFF0125C
:1056B40077329005AAEFF01277C89005ABEFF0129D
:1056C400772C9005ACEFF01277269005ADEFF01231
:1056D40077449005AFEFF09005A9E0FFA3E0FEC387
:1056E4009F500EA3E09E4009EF60069005AAE0706B
:1056F400119005A9E07078A3E0FF6073A3E0D39F45
:10570400406DE49005A8F09005ACE014FD9005A868
:10571400E0FFC39D500CEF1265089005A8E004F06B
:1057240080E5ED33333354F89005A8F09005ACE0F0
:1057340075F008A4FF9005A8E0FDC39FE5F0648020
:10574400F8748098501474562DF582E43400F5836F
:10575400E4F09005A8E004F080D21241B6125F791B
:0F576400E4FF1277CE900056E07004FF1277201A
:015773002213
:105E4E00E4900581F012772C900581EFF0E4FDFCD3
:105E5E00900581E024FFFFE434FFFEC3ED9FEC9E2E
:105E6E00501FEDAE047803C333CE33CED8F924568B
:105E7E00F974003EFA7B011265160DBD00010C800F
:105E8E00CF900581E024FFFFE434FFFEEF7803C3DB
:105E9E0033CE33CED8F9FDAC06900581E075F0080F
:105EAE00A4FFC3ED9FEC95F0501374562DF582743C
:105EBE00003CF583E4F00DBD00010C80DC9004CFB6
:105ECE00E014F01241B6125F79900056E07004FFB4
:035EDE0012772018
:015EE100229E
:105A8C0078827C057D017BFF7A7279167E007F0619
:105A9C0012208C12772C900581EFF012772CAD0729
:105AAC00E4FCECC39D501CEC75F008A42456F58264
:105ABC00740035F0F583E07007900581ECF08003FD
:105ACC000C80DFE4FC74562CF582E43400F583E0A2
:105ADC00FF74822CF582E43405F583EFF00CECB402
:105AEC0006E3E4FC900581E0FFECC39F5007EC1249
:105AFC0065080C80EFE4FC74822CF582E43405F527
:105B0C0083E0FD900581E024FFFFE434FFFEEF7895
:105B1C0003C333CE33CED8F9FFEC7A002FFFEA3E25
:105B2C00FE74562FF58274003EF583EDF00CECB448
:085B3C0006C51241B6025F79B3
:1052570078837C057D017BFF7A72791C7E007F064F
:1052670012208C12772C900582EFF012772CAD0765
:10527700E4900581F0900581E0FFC39D5022EF7512
:10528700F008A42456F582740035F0F583E0700821
:10529700900581E0A3F08008900581E004F080D5B7
:1052A700E4900581F0900582E024FFFFE434FFFEDF
:1052B700EF7803C333CE33CED8F9FF900581E0FDF5
:1052C7007A002FFFEA3EFE74562FF58274003EF5F2
:1052D70083E0FF74832DF582E43405F583EFF090C6
:1052E7000581E004F0E0B406BC900582E0900581FA
:1052F700F0900581E0FFD39401401DEF24FEFFE409
:1053070034FFFEEF7803C333CE33CED8F912664BA2
:10531700900581E014F080D9E4900581F090058133
:10532700E0FF2483F582E43405F583E0FE74562F0D
:10533700F582E43400F583EEF0900581E004F0E0B7
:09534700B406DA1241B6025F79E6
:0B3780009005A8EBF0A3EAF0A3E9F02D
:10378B0078B47C057D017BFF7A7279227E007F06FF
:10379B0012208C12772C9005B0E4F0A3EFF0127787
:1037AB002C9005B2E4F0A3EFF0E49005AEF0A3F09B
:1037BB009005B2E0FEA3E0FF9005AEE0FCA3E0FDB8
:1037CB00C39FEC9E40030238C6EDAE047803C333AF
:1037DB00CE33CED8F9FF9005ABE0FBA3E0FAA3E024
:1037EB002FF9EA3EFA9000011220CBFD9005A8E0DC
:1037FB00FBA3E0FAA3E0F99000011220CB6D60036C
:10380B000238B29005ABE0FBA3E0FAA3E02FF9EA94
:10381B003EFA9000021220CBFF9005A8E0FBA3E03C
:10382B00FAA3E0F99000021220CB6F707A9005AEEC
:10383B00E0FEA3E07803C333CE33CED8F9FF900577
:10384B00ABE0FBA3E0FAA3E02FF9EA3EFA9000030A
:10385B001220CBFD9005A8E0FBA3E0FAA3E0F990C2
:10386B0000031220CBB5053F9005ABE0FBA3E0FABC
:10387B00A3E02FF9EA3EFA9000041220CBFF90054B
:10388B00A8E0FBA3E0FAA3E0F99000041220CBB56B
:10389B0007159004CFE014F09005AEE0FFA3E0A372
:1038AB00CFF0A3EFF080149005AFE004F0600302BB
:1038BB0037BB9005AEE004F00237BB9005B0E0706B
:1038CB0002A3E070031274C39005B0E0FFA3E09075
:1038DB0005AECFF0A3EFF09005B2E0FEA3E0FF90B2
:1038EB0005AEE0FCA3E0FDC39FEC9E502FEDAE04B4
:1038FB007803C333CE33CED8F9FF9005ABE0FBA3EF
:10390B00E0FAA3E02FF9EA3EFA1265169005AFE054
:10391B0004F070C39005AEE004F080BB9005B2E0FC
:10392B00FEA3E0FF9005B0E06E7003A3E06F60595B
:10393B00E49005AEF0A3F09005AEE0FCA3E0FDC370
:10394B009406EC940050429005B3E024FFFF9005E1
:10395B00B2E034FFFEEF7803C333CE33CED8F9FF9A
:10396B009005ABE0FBA3E0FAA3E02FF9EA3EFAE9FE
:10397B002DF9EA3CFAE41220F89005AFE004F07060
:10398B00B69005AEE004F080AE9005ABE0FBA3E093
:0D399B00FAA3E0F91220B27004FF127720A9
:0139A80022FC
:0B40460090058DEBF0A3EAF0A3E9F079
:1040510078947C057D017BFF7A7279287E007F064A
:1040610012208C12772C900593EFF012772CAD076C
:10407100E4FCECC39D4003024153EC75F008A4FF3E
:10408100900590E0FBA3E0FAA3E02FF9EA35F0FAFE
:104091009000011220CBFF90058DE0FBA3E0FAA375
:1040A100E0F99000011220CB6F600302414FEC75E3
:1040B100F008A4FF900590E0FBA3E0FAA3E02FF93C
:1040C100EA35F0FA9000021220CBFF90058DE0FB5B
:1040D100A3E0FAA3E0F99000021220CB6F706FEC1D
:1040E10075F008A4FF900590E0FBA3E0FAA3E02F90
:1040F100F9EA35F0FA9000031220CBFF90058DE02C
:10410100FBA3E0FAA3E0F99000031220CB6F703E0D
:10411100EC75F008A4FF900590E0FBA3E0FAA3E0A2
:104121002FF9EA35F0FA9000041220CBFF90058DAB
:10413100E0FBA3E0FAA3E0F99000041220CBB5075D
:104141000D9004CFE014F0900593ECF080040C0284
:104151004073900593E0FCECC39D501CEC75F00896
:10416100A4FF900590E0FBA3E0FAA3E02FF9EA3564
:10417100F0FA1265160C80DF900593E06D6035E46E
:10418100FCED24FFFFE434FFFEEF7803C333CE33AD
:10419100CED8F9FF900590E0FBA3E0FAA3E02FF958
:1041A100EA3EFAEC7E0029F9EE3AFAE41220F80C24
:0441B100ECB406CD97
:0141B50022E7
:0F760200126A5D1277A4BF010312763BC2972272
:05000600E4FF02722E70
:10726C007F0112722E127792BF011212775CBF014E
:0E727C000C7F6F7E00126B8CE4FF127798225D
:10728A007F0212722E127792BF011212775CBF012F
:0E729A000C7F707E0012697DE4FF127798224F
:1072A8007F0312722E127792BF011212775CBF0110
:0E72B8000C7F717E0012697DE4FF1277982230
:1072C6007F0412722E127792BF011212775CBF01F1
:0E72D6000C7F727E0012697DE4FF1277982211
:1072E4007F0512722E127792BF011212775CBF01D2
:0E72F4000C7F737E0012697DE4FF12779822F2
:107302007F0612722E127792BF011212775CBF01B2
:0E7312000C7F747E0012697DE4FF12779822D2
:107320007F0712722E127792BF011212775CBF0193
:0E7330000C7F757E0012697DE4FF12779822B3
:10733E007F0812722E127792BF011212775CBF0174
:0E734E000C7F767E0012697DE4FF1277982294
:10735C007F0912722E127792BF011212775CBF0155
:0E736C000C7F777E0012697DE4FF1277982275
:05001E007F0A02722EB2
:057840007F0B02722E17
:057845007F0C02722E11
:0D000E007F0D12722EE4FF127646D2CD2235
:1066E7001277AABF0108123D217F021277B01277F5
:1066F700AAEF64037031127762EF7012900008F00E
:10670700900007F0900006F0900005F08011E490EB
:10671700000CF090000BF090000AF0900009F012C6
:0A6727005F79E4FF1277B00260060C
:1069B7001277AABF0108123D217F021277B0127722
:1069C700AABF0321127762EF700A90000AF09000C5
:1069D70009F08009E4900008F0900007F0125F7951
:0869E700E4FF1277B002600624
:1069EF001277AABF0108123D217F021277B01277EA
:1069FF00AABF0321127762EF700A90000CF090008B
:106A0F000BF08009E4900006F0900005F0125F791A
:086A1F00E4FF1277B0026006EB
:10704B001277AABF0108123D217F021277B0127787
:10705B00AABF030DE490000DF0125F79E4FF1277E5
:04706B00B002600609
:106C8F001277AABF0108123D217F021277B0127747
:106C9F00AABF0311E4900004F0900003F0125F7993
:086CAF00E4FF1277B002600659
:106B2B0012779EEFB401057F010277201277AABF7F
:106B3B000108123D217F021277B01277AABF030D15
:106B4B00E4900002F0125F75E4FF1277B01260065A
:016B5B002217
:1074FD007F0112724DE49005D7F0A3F0A3F0A30421
:02750D00F0226A
:10750F007F0212724DE49005E1F0A3F0A3F0A30403
:02751F00F02258
:107521007F0312724DE49005ECF0A3F0A3F0A304E5
:02753100F02246
:107533007F0412724DE49005F8F0A3F0A3F0A304C6
:02754300F02234
:107545007F0112724DE49005DCF0A3F0A3F0A304D3
:02755500F02222
:107557007F0212724DE49005E7F0A3F0A3F0A304B5
:02756700F02210
:107569007F0312724DE49005F3F0A3F0A3F0A30496
:02757900F022FE
:10757B007F0412724DE49005FEF0A3F0A3F0A30478
:02758B00F022EC
:05784A007F0102724DF8
:05784F007F0202724DF2
:08768B00E4FF127732026B5C90
:08769300E4FF127738026B5C82
:057854007F0102724DEE
:057859007F0202724DE8
:05785E007F0302724DE2
:057863007F0402724DDC
:057868007F0502724DD6
:05786D007F0102724DD5
:057872007F0202724DCF
:057877007F0302724DC9
:05787C007F0402724DC3
:0E761F007F0112724D1277869003A0EFF022C9
:057881007F0202724DC0
:057886007F0102724DBC
:05788B007F0202724DB6
:1073B300E4FFFEFDFC127682AC06AD077E277F104C
:0A73C30012213EAC06AD0702634E36
:08769B00E4FF1277A402741849
:0876A300E4FF12779E02741847
:1065AC001277E0900581EFF0D394145031E0FAC3E8
:1065BC00940450028019EAD394125013900581E090
:1065CC00C3132485F582E43403F583E0FF80027F56
:1065DC00FF12677B30A4077F3C7E00126B8C90050A
:0F65EC0081E0D394144006126C66125F79C2CD21
:0165FB00227D
:100026001277AABF01081267C37F021277B0127750
:0D003600AABF0308125F74E4FF1277B02226
:107187001277AABF01081267C37F021277B012777E
:10719700AABF030DE4900004F0125F79E4FF1277B1
:0271A700B02214
:1071A9001277AABF01081267C37F021277B012775C
:1071B900AABF030DE4900003F0125F79E4FF127790
:0271C900B022F2
:1071CB001277AABF01081267C37F021277B012773A
:1071DB00AABF030DE4900002F0125F79E4FF12776F
:0271EB00B022D0
:107092001277AABF010E7B017A0579E11267C97FD7
:1070A200021277B01277AABF0308125F74E4FF12CC
:0370B20077B02292
:106CB7001277AABF010E7B017A0579E11267C97FB6
:106CC700021277B01277AABF030DE4900004F01206
:086CD7005F79E4FF1277B0229F
:106CDF001277AABF010E7B017A0579E11267C97F8E
:106CEF00021277B01277AABF030DE4900003F012DF
:086CFF005F79E4FF1277B02277
:106D07001277AABF010E7B017A0579E11267C97F65
:106D1700021277B01277AABF030DE4900002F012B7
:086D27005F79E4FF1277B0224E
:1070B5001277AABF010E7B017A0579EC1267C97FA9
:1070C500021277B01277AABF0308125F74E4FF12A9
:0370D50077B0226F
:106D2F001277AABF010E7B017A0579EC1267C97F32
:106D3F00021277B01277AABF030DE4900004F0128D
:086D4F005F79E4FF1277B02226
:106D57001277AABF010E7B017A0579EC1267C97F0A
:106D6700021277B01277AABF030DE4900003F01266
:086D77005F79E4FF1277B022FE
:106D7F001277AABF010E7B017A0579EC1267C97FE2
:106D8F00021277B01277AABF030DE4900002F0123F
:086D9F005F79E4FF1277B022D6
:1070D8001277AABF010E7B017A0579F81267C97F7A
:1070E800021277B01277AABF0308125F74E4FF1286
:0370F80077B0224C
:106DA7001277AABF010E7B017A0579F81267C97FAE
:106DB700021277B01277AABF030DE4900004F01215
:086DC7005F79E4FF1277B022AE
:106DCF001277AABF010E7B017A0579F81267C97F86
:106DDF00021277B01277AABF030DE4900003F012EE
:086DEF005F79E4FF1277B02286
:106DF7001277AABF010E7B017A0579F81267C97F5E
:106E0700021277B01277AABF030DE4900002F012C6
:086E17005F79E4FF1277B0225D
:1070FB001277AABF010E7B017A0579DC1267C97F73
:10710B00021277B01277AABF0308125F74E4FF1262
:03711B0077B02228
:106E1F001277AABF010E7B017A0579DC1267C97F51
:106E2F00021277B01277AABF030DE4900004F0129C
:086E3F005F79E4FF1277B02235
:106E47001277AABF010E7B017A0579DC1267C97F29
:106E5700021277B01277AABF030DE4900003F01275
:086E67005F79E4FF1277B0220D
:106E6F001277AABF010E7B017A0579DC1267C97F01
:106E7F00021277B01277AABF030DE4900002F0124E
:086E8F005F79E4FF1277B022E5
:10711E001277AABF010E7B017A0579E71267C97F44
:10712E00021277B01277AABF0308125F74E4FF123F
:03713E0077B02205
:106E97001277AABF010E7B017A0579E71267C97FCE
:106EA700021277B01277AABF030DE4900004F01224
:086EB7005F79E4FF1277B022BD
:106EBF001277AABF010E7B017A0579E71267C97FA6
:106ECF00021277B01277AABF030DE4900003F012FD
:086EDF005F79E4FF1277B02295
:106EE7001277AABF010E7B017A0579E71267C97F7E
:106EF700021277B01277AABF030DE4900002F012D6
:086F07005F79E4FF1277B0226C
:107141001277AABF010E7B017A0579F31267C97F15
:10715100021277B01277AABF0308125F74E4FF121C
:0371610077B022E2
:106F0F001277AABF010E7B017A0579F31267C97F49
:106F1F00021277B01277AABF030DE4900004F012AB
:086F2F005F79E4FF1277B02244
:106F37001277AABF010E7B017A0579F31267C97F21
:106F4700021277B01277AABF030DE4900003F01284
:086F57005F79E4FF1277B0221C
:106F5F001277AABF010E7B017A0579F31267C97FF9
:106F6F00021277B01277AABF030DE4900002F0125D
:086F7F005F79E4FF1277B022F4
:107164001277AABF010E7B017A0579FE1267C97FE7
:10717400021277B01277AABF0308125F74E4FF12F9
:0371840077B022BF
:106F87001277AABF010E7B017A0579FE1267C97FC6
:106F9700021277B01277AABF030DE4900004F01233
:086FA7005F79E4FF1277B022CC
:106FAF001277AABF010E7B017A0579FE1267C97F9E
:106FBF00021277B01277AABF030DE4900003F0120C
:086FCF005F79E4FF1277B022A4
:106FD7001277AABF010E7B017A0579FE1267C97F76
:106FE700021277B01277AABF030DE4900002F012E5
:086FF7005F79E4FF1277B0227C
:0876AB00E4FF127726027418B7
:0876B300E4FF12772C026B5C6E
:0876BB00E4FF12773E0274188F
:0876C300E4FF12774402741881
:0876CB00E4FF12774A02741873
:10737A00E4900581F0127750900581EFF075F003E3
:0D738A00A4FF1271ED900581E0FF02741860
:0876D300E4FF1277560274185F
:10758D00E4FF12776EEFC3940A500302741812745D
:01759D0045A8
:01759E0022CA
:0876DB00E4FF12777402741839
:0876E300E4FF12777A0274182B
:0876EB00E4FF1277800274181D
:10694300E4900581F0127786900581EFF0127418B8
:106953009003A0E0FF900581E06F601D1263AD908E
:106963000581E09003A0F0127792BF010C7F797E3E
:0969730000126B8CE4FF1277980E
:01697C0022F8
:106A2700E4900581F012778C900581EFF0126B5C92
:106A3700127792BF010D900581E02442FFE433FEF7
:106A470012697D127834BF010C7F797E0012697D4F
:056A5700E4FF12783A93
:016A5C002217
:10669900E4900581F0A3F012773E900581EFF012A6
:1066A9007768900582EFF0900056E0B4340A30A480
:1066B900077F687E00126B8CD2CD900582E0700353
:1066C900D297221277AABF0107D2977F021277B019
:0D66D9001277AABF0307C297E4FF1277B043
:0166E6002291
:057890007F0602724DAD
:0876F300E4FF12775C02741839
:057895007F0702724DA7
:0876FB00E4FF1277620274182B
:05789A007F0802724DA1
:08770300E4FF1277680274181C
:05789F007F0E02722EB5
:107471007F0112724DE4900392F0A3F0900376F035
:0574810090066CF022F2
:10759F007F0212724DE490039EF0A3F0900391F0DE
:0175AF0022B9
:10590800900376E0707A1277AABF0113126C669042
:1059180000027480F0A3F0125F797F021277B01250
:1059280077AABF030B126C66125F79E4FF1277B097
:10593800900392E0FCA3E0FD7B017A057981900554
:10594800CA7408F07FA012621F7FAA127667E490DB
:105958000589F0900589E0FFC39408501774812FDA
:10596800F582E43405F583E0FF127667900589E057
:1059780004F080DF7F551276679003767401F02279
:10598800900376E0FFB40224900393E02408F0909B
:105998000392E03400F0E0B4150CA3E0B460079083
:1059A80003767403F022E4900376F022EFB4031236
:1059B800126C669000017480F0A3F0A3F0A3F012BB
:0259C8005F7905
:0159CA0022BA
:105DB900900391E0B4013190039EE0FCA3E0FD7BE8
:105DC900017A0379959005BF7408F07FA01264C227
:105DD90090039FE02408F090039EE03400F0E490E3
:105DE9000391F07FAA12766790039EE07002A3E008
:105DF900700A126C669000017480801A90039EE00C
:105E0900B41517A3E0B46012126C66900001748097
:105E1900F0A3F0A3F0A3F0025F791277AABF0113F0
:105E2900126C669000027480F0A3F0125F797F0211
:105E39001277B01277AABF030B126C66125F79E46E
:055E4900FF1277B022FA
:101E44004106950041069E0041069B0041069C0008
:101E540041069600410693004106A0004106980001
:101E64004106940041069A004106990041069700F4
:081E740041069F0041069D009C
:1075E300438901758C3C758AB0D2AFD2A9D28C2263
:0E762D00438910758DFF758B9CD2AFD2AB22B6
:03000B000244614B
:10446100C0E0C0F0C083C082C0D075D000C000C021
:0D44710001C002C003C004C005C006C007A2
:10447E009005CEE4F0A3F0C28D758C3C758AB01217
:10448E00771A9005CEEFF012779E9005CFEFF09051
:10449E000695E004F0E0B40A1990069EE004F09050
:1044AE00069AE004F0900695E4F0900699E060021A
:1044BE0014F090069EE0C394044002E4F090069A35
:1044CE00E0C394184002E4F0900697E0600214F006
:1044DE0090069BE0B40104A3E004F012781CBF0127
:1044EE0014900696E004F0E0D394784008127822F7
:1044FE00900696E4F090069DE0B4011590069FE0BC
:10450E0004F0E0D39478400990069DE4F090069F65
:10451E00F09005CEE0FFB45F15900693E004F0E056
:10452E00B4140B9006A0E004F0900693E4F0EF6450
:10453E005F60259005CEE0FF6431601CEF6469601A
:10454E0017EF646A6012900698E004F0E0D394C806
:10455E004006E4F0FF1277209005CEE07015A3E040
:10456E00B40210900694E004F0E0C3940A4004B242
:03457E00CDE4F099
:10458100D007D006D005D004D003D002D001D0008E
:0B459100D0D0D082D083D0F0D0E03238
:03001B0002655B20
:10655B00C0E0C0F0C083C082C0D075D000C000C006
:0D656B0001C002C003C004C005C006C00787
:10657800E4FF12771AC28F758DFF758B9CEFB42ECE
:096588000512326B800312480C6D
:10659100D007D006D005D004D003D002D001D0005E
:0B65A100D0D0D082D083D0F0D0E03208
:0577AA0090069EE0FFC7
:0177AF0022B7
:0677B00090069EEFF0229E
:0677B60090069BEFF0229B
:0577BC0090069CE0FFB7
:0177C10022A5
:0677C200E490069CF02299
:0577C8009006A0E0FFA7
:0177CD002299
:0677CE009006A0EFF0227E
:0677D400E4900698F0228B
:0677DA0090069CEFF02276
:0577E00090069AE0FF95
:0177E5002281
:0B76460090069AEFF0E4900695F02209
:0577E600900699E0FF90
:0177EB00227B
:0B765100900699EFF0E4900695F022FF
:0577EC00900697E0FF8C
:0177F1002275
:0677F200900697EFF02263
:0677F800E4900696F02269
:0677FE00E490069FF0225A
:0678040090069DEFF0224A
:05780A0090069DE0FF67
:01780F002256
:0B1E7C00480673140F09040C22000636
:04684C00E0FD7F8A62
:10685000D2A0EF54FEFFE4FEEF30E004D2A18002AC
:10686000C2A1D2A2C2A2EFC313FF0EEEB408E9E4A4
:10687000FEED30E004D2A18002C2A1D2A2C2A2EDFC
:0A688000C313FD0EEEB408E9C2A038
:01688A0022EB
:10688B00D2A0EF4401FFE4FDEF30E004D2A180027F
:10689B00C2A1D2A2C2A2EFC313FF0DEDB408E9E46B
:1068AB00FDEEC313FE30A1054480FE8004EE547F41
:0E68BB00FED2A2C2A20DEDB408E7C2A0AF0645
:0168C90022AC
:10600600E4FF74732FF582E43406F583E0FE75F041
:106016000A84FDEE75F00A84747B2FF582E434065B
:10602600F583E5F0F0EDC454F0FE747B2FF582E4C1
:106036003406F583E02EF00FEFB408C6E4FD7F8E3C
:106046001268507D807F8012685090067CE0FD7F4C
:106056008C126850A3E0FD7F88126850A3E0FD7F94
:106066008612685090068212684C90067FE0FD7F8B
:1060760084126850A3E0FD7F82126850A3E0FD7F82
:0F60860080126850A312684C7D807F8E02685094
:106199007F8C12688B90067CEFF07F8812688BA346
:1061A900EFF07F8612688BA3EFF07F8412688BA3D0
:1061B900EFF07F8212688BA3EFF07F8012688BEF7C
:1061C900547FA3F07F8A12688BA3EFF0E4FF747BFE
:1061D9002FF582E43406F583E0FEC4540FFDEE5436
:1061E9000FFE74732FF582E43406F583EEF0ED7536
:1061F900F00AA4FE74732FF582E43406F583E02EC9
:06620900F00FEFB408C81D
:01620F00226C
:0B765C00C2A0C2A2E4FD7F80026850C3
:101E870041064D0041064C004106520041065500EF
:101E970041065C00410641004106400043065900E7
:101EA70000004206530046420657007842063D00AE
:101EB7000042063B000042064A000042064E00462A
:101EC700420650007842065E000041063F00410688
:101ED7005D004106560041064200410646004306A2
:0A1EE700430000004306470000001E
:07771300D2AFD2A8D28822F8
:0300030002770B76
:08770B00C2A8208E02D28E32CA
:10739700E490064DF090064CF0900655F09006529A
:0C73A700F090065CF0900640F0A3F0228D
:10480C0030B2059006558003900652E004F09006F5
:10481C0041E004F0E0D394A07480948F4007C28EE2
:10482C00D2A8027397900640E014603514606914A6
:10483C0070030248CB2403600302493B900655E009
:10484C00D39400400302493B900652E0D394465067
:10485C0003024942900640E004F0E4900655F080D3
:10486C0032900655E0FFFD900652E02DFDE433FC3E
:10487C00D3ED948CEC64809480400302493BEFD3DD
:10488C009401500302494230A802C2A8900640E0AD
:10489C0004F0E4900652F022900652E0D3940140CA
:1048AC0013900655E090064DF0E4900655F09006F6
:1048BC0040E004F0900655E0D39419407980709054
:1048CC000655E0D39401405C900652E0FF90064CF4
:1048DC00F0E4900652F09006407402F090065CE012
:1048EC00131313541FFE2459F582E43406F583E0A8
:1048FC00FD25E0F090064DE0D39F400E74592EF547
:10490C0082E43406F583E04401F090065CE004F0A8
:10491C00E0D39417400EC28E12739790063F740129
:10492C00F0D2A822900652E0D394194009800012CC
:07493C007397D2A8C28E227E
:10431600E49005A8F012771A9005A8EFF090063FF2
:10432600E064016003024460F0C2A8900656E014FF
:10433600602704600302445E900659E0900643F04D
:1043460090065AE0900644F090065BE0900645F031
:104356009006567401F002445E900659E0FF9006FE
:1043660043E06F600302444690065AE0FE9006441E
:10437600E06E600302444690065BE0FD900645E071
:104386006D6003024446900647E06F7012A3E06E2C
:10439600700DA3E0B50508900642E07023800090FA
:1043A6000659E0900647F090065AE0900648F090CD
:1043B600065BE0900649F090065D7401F01277F80E
:1043C6009006427401F01277D4900648E0FFE4FCB0
:1043D600FDFE78081221BAC004C005C006C00790C9
:1043E6000647E0FFE4FCFDFE78101221BAD003D0A8
:1043F60002D001D000EF4BFBEE4AFAED49F9EC484A
:10440600F8900649E0FFEB4FFFEAFEE9FDE8FC7B8A
:10441600017A0579A912542BEF600D9006467401B6
:10442600F0FF1277981277D4E4900659F0A3F0A320
:10443600F0900643F0A3F0A3F0E4900656F080183F
:10444600900659E0900643F090065AE0900644F034
:0A44560090065BE0900645F0D2A846
:014460002239
:10326B0030B2059006558003900652E004F09006AC
:10327B0041E004F0E0D394A07480948F4006C28E9A
:10328B00D2A88027900640E014605A1470030233D2
:10329B007F1470030233CA240360030235119006B6
:1032AB0055E0D394004007D2A8C28E0273979006C4
:1032BB003DE0FEA3E0FF7C007D0F12212CEF243CB0
:1032CB00FFE43EFE900652E0D39FEC9E5003023586
:1032DB0018900640E004F0900653EEF0A3EFF0E4F4
:1032EB00A3F002337A90063BE0FEA3E0FF7C007D67
:1032FB000F12212CEF2478FFE43EFE900655E0F9E7
:10330B00FD900652E02DFDE433FCD3ED9FEC9E4087
:10331B0022E9701C90063CE004F0700690063BE03E
:10332B0004F090063EE004F0700690063DE004F0D9
:10333B00023511E9D39401500302351890063BE096
:10334B00FEA3E0FF7C007D0F12212CEF2478FFE41D
:10335B003E900657F0A3EFF0E490063BF0A3F0A3EA
:10336B00F0A3F030A802C2A8900640E004F0E4906D
:10337B000652F022900652E0D3940040139006556B
:10338B00E090064DF0E4900655F0900640E004F016
:10339B00900653E0FEA3E0FF900658E02FFF900647
:1033AB0057E03EFEEF7803CEC313CE13D8F9FF9050
:1033BB000655E0D39FE49E50030235180235119059
:1033CB000655E0D3940050030234E6900652E0FF1A
:1033DB0090064CF0E4900652F09006407402F09088
:1033EB00065CE0131313541FFE2459F582E43406D4
:1033FB00F583E025E0F090064DE0FDD39F400E7481
:10340B00592EF582E43406F583E04401F090065C16
:10341B00E004F0E0D3941750030234E6C28E90061A
:10342B004CE02DFEE43390064AF0A3CEF0127397D6
:10343B0090065FE004F0700690065EE004F09006E4
:10344B0057E0FEA3E0FF900651E02FF0900650E00E
:10345B003EF0E0C313FEA3E013FF900657EEF0A37C
:10346B00EFF0900650EEF0A3EFF0D390065FE094F0
:10347B000190065EE09400405F90064EE0FEA3E0F4
:10348B00FF900653E0FCA3E0FD9FFFEC9EFED3EF05
:10349B00941EEE9400401590064FE09DFF90064E53
:1034AB00E09CFED3EF941EEE9400502C900653E05C
:1034BB00FEA3E0FF90064FE02FF090064EE03EF0AB
:1034CB00E0C313FEA3E013FF900653EEF0A3EFF05F
:1034DB0090064EEEF0A3EFF0D2A822900653E0FE3A
:1034EB00A3E0FF900658E02FFF900657E03EFEEF5B
:1034FB007803CEC313CE13D8F9FF900652E0D39FB7
:0E350B00E49E40098000127397D2A8C28E225F
:0578100090065DE0FFA1
:017815002250
:06781600E490065DF02283
:05781C00900642E0FFB0
:017821002244
:06782200E4900642F02292
:05782800900646E0FFA0
:01782D002238
:06782E00E4900646F02282
:0876820090064AE0FEA3E0FFC0
:01768A0022DD
:101EF1004804D2000000000000000041057F0044BA
:101F0100057B000000004104CF0060A004DB00005D
:101F110000000000000000000000000000000000C0
:101F210000000000000000000000000000000000B0
:101F310000000000000000000000000000000000A0
:101F41000000000000000000000000000000000090
:101F51000000000000000000000000000000000080
:101F61000000000000000000000000000000000070
:101F71000000000000000000000000000000000060
:101F81000000000000000000000000000000000050
:101F91000000000000000000000000000000000040
:101FA10000000000000000000000000000004104EB
:0A1FB100D1004104D0004104DA0021
:100D5100E4900594F0A3F0900597F09005A0F0A31E
:100D6100F0A3F0A3F0A3F0A3F0A3F0A3F012771A7D
:100D71009005A0EFF01277869005A1EFF012778C25
:100D81009005A2EFF01277269005A3EFF012772CD1
:100D91009005A4EFF012772C900597EFF012776E83
:100DA1009005A5EFF012773E9005A6EFF01277447B
:100DB1009005A7EFF0124316127810EF640160035B
:100DC1000219AD900648E0FFE4FCFDFE780812210F
:100DD100BAC004C005C006C007900647E0FFE4FCA6
:100DE100FDFE78101221BAD003D002D001D000EF5D
:100DF1004BFBEE4AFAED49F9EC48F8900649E0FF61
:100E0100EB4FFFEAFEE9FDE8FC90059012223790D6
:100E110005A0E024CE24FC400302163824FC400344
:100E21000216F824FC40030217B824FC4003021800
:100E31007824E470030219491470030210D6245F68
:100E410060030219AAE4FF1277CE900649E0FF542D
:100E5100F06003020F60900647E0C4540FFE900556
:100E6100A5E06E6003020F60EEC3940A4003020F17
:100E7100609005A1E0B4010CEF540F2477F582E4F2
:100E81003403800D900649E0540F2446F582E43482
:100E910000F583E0900598F0900647E0FFC4540FF9
:100EA100900599F0EF540FA3F0900648E0FFC45469
:100EB1000F90059BF0EF540FA3F0900647E09005CB
:100EC1009DF0900648E090059EF0900649E090055F
:100ED1009FF0900598E0FF64336008EF6005125CB5
:100EE10085802F9005AB7401F0A37400F0A37456B4
:100EF100F07B017A0579981237807B017A05799820
:100F0100900649E0540F9005ACF07F921239A90286
:100F110014EF9005A4E0FF9004CFE0C39F5003E0DD
:100F210004F0126C667B017A057998900649E054C9
:100F31000F9005ACF07F911239A99005AB7401F0C7
:100F4100A37405F0A37498F07B017A0079561253CB
:100F5100501241B6125F797F5F1277200219AA7B86
:100F6100017A057988900590E0FCA3E0FDA3E0FEFD
:100F7100A3E0FF126286EF3395E0FE900594F0A3A3
:100F8100EFF04E70030219AA900590E0FCA3E0FD7A
:100F9100A3E0FEA3E0FF90057BE0F8A3E0F9A3E066
:100FA100FAA3E0FBC31221A9700912780AEF601FAE
:100FB1000219AA900590E0FCA3E0FDA3E0FEA3E0E6
:100FC100FF90057B1222371277FE7F011278049081
:100FD1000594E0FEA3E0FF64014E7008900598744B
:100FE10033F08018EF64024E70089005987434F065
:100FF100800A900649E0540F900598F078997C0595
:101001007D017B017A0579887E007F0412208C9016
:101011000649E0FF90059FF0900598E0C394325097
:10102100279005A1E0B4010CEF540F2477F582E479
:101031003403800D900649E0540F2446F582E434D0
:1010410000F583E0900598F0900598E0FF64336027
:1010510008EF6005125C85803F9005A4E0FF9004D5
:10106100CFE0C39F5003E004F07B017A05799890AB
:101071000649E0540F9005ACF07F921239A9900512
:10108100AB7401F0A37400F0A37456F07B017A05F0
:1010910079981237800214EF126C667B017A057918
:1010A10098900649E0540F9005ACF07F911239A950
:1010B1009005AB7401F0A37405F0A37498F07B0163
:1010C1007A0079561253501241B6125F797F5F123E
:1010D1007720021632E4FF1277CE900649E0FF54E2
:1010E100F06003021354900647E0C4540FFE9005CC
:1010F100A5E06E6003021354EEC3940A4003021389
:10110100549005A1E0B4010CEF540F2477F582E46B
:101111003403800D900649E0540F2446F582E434EF
:1011210000F583E0900598F0900647E0FFC4540F66
:10113100900599F0EF540FA3F0900648E0FFC454D6
:101141000F90059BF0EF540FA3F0900647E0900538
:101151009DF0900648E090059EF0900649E09005CC
:101161009FF09005A3E064017068900598E0FF642A
:10117100336008EF6005125C85802F7B017A057969
:1011810098900649E0540F9005ACF07F921239A96E
:101191009005AB7401F0A37400F0A37456F07B01C9
:1011A1007A0579981237800214EF9005A4E0FF9038
:1011B10004CFE0C39F5003E004F07B017A057998E6
:1011C100900649E0540F9005ACF07F911239A902C5
:1011D10019AA9005A3E0640260030219AA90059878
:1011E100E0FF64336003EF702F7B017A05799890FB
:1011F1000649E0540F9005ACF07F921239A9900591
:10120100AB7401F0A37400F0A37456F07B017A056E
:1012110079981237800214EFE4900596F09005A4B6
:10122100E0FF900596E0FEC39F40030212CDEE75EC
:10123100F008A4FFAEF02457F58274003EF583E078
:10124100FD900599E0FCED6C707974582FF582746E
:10125100003EF583E0FF90059AE0FEEF6E7064902A
:101261000596E075F008A4FFAEF02459F5827400EC
:101271003EF583E0FD90059BE0FCED6C7045745AF2
:101281002FF58274003EF583E0FF90059CE0FEEFB0
:10129100B50630900596E0A3F075F008A42456F940
:1012A100740035F0FA7B01C0039005ABEBF0A37439
:1012B10005F0A37498F0D0031253501241B6125F97
:1012C100798009900596E004F002121E9005A4E0D1
:1012D100FF900597E06F60030219AA900596F090C0
:1012E10005A4E0FD900596E0FFC39D40030219AA05
:1012F100EF75F008A42456F582740035F0F583E00B
:1013010070499004CFE0C39D5003E004F07B017A63
:10131100057998900649E0540F9005ACF07F911241
:1013210039A9900596E075F008A42456F9740035A2
:10133100F0FA7B01C0039005ABEBF0A37405F0A3B9
:101341007498F0D0031253500214EF900596E00404
:10135100F0808C7B017A057988900590E0FCA3E010
:10136100FDA3E0FEA3E0FF126286EF3395E0FE905D
:101371000594F0A3EFF04E70030219AA900590E0D6
:10138100FCA3E0FDA3E0FEA3E0FF90057BE0F8A352
:10139100E0F9A3E0FAA3E0FBC31221A970091278D6
:1013A1000AEF601F0219AA900590E0FCA3E0FDA3DB
:1013B100E0FEA3E0FF90057B1222371277FE7F014A
:1013C100127804900594E0FEA3E0FF64014E7008DA
:1013D1009005987433F08018EF64024E7008900500
:1013E100987434F0800A900649E0540F900598F003
:1013F10078997C057D017B017A0579887E007F04DF
:1014010012208C900649E0FF90059FF0900598E02E
:10141100C3943250279005A1E0B4010CEF540F247E
:1014210077F582E43403800D900649E0540F244699
:10143100F582E43400F583E0900598F09005A3E08F
:1014410064017067900598E0FF64336008EF600500
:10145100125C85802E7B017A057998900649E054CB
:101461000F9005ACF07F921239A99005AB7401F091
:10147100A37400F0A37456F07B017A0579981237B2
:1014810080806B9005A4E0FF9004CFE0C39F5003E0
:10149100E004F07B017A057998900649E0540F90B9
:1014A10005ACF07F911239A90216329005A3E064D0
:1014B100026003021632900598E0FF64336003EF87
:1014C10070357B017A057998900649E0540F9005B3
:1014D100ACF07F921239A99005AB7401F0A37400AE
:1014E100F0A37456F07B017A057998123780124186
:1014F100B6125F790219AAE4900596F09005A4E06E
:10150100FF900596E0FEC39F40030215ACEE75F017
:1015110008A4FFAEF02457F58274003EF583E0FD88
:10152100900599E0FCED6C707974582FF582740088
:101531003EF583E0FF90059AE0FEEF6E7064900542
:1015410096E075F008A4FFAEF02459F58274003ED0
:10155100F583E0FD90059BE0FCED6C7045745A2F1E
:10156100F58274003EF583E0FF90059CE0FEEFB547
:101571000630900596E0A3F075F008A42456F9749E
:101581000035F0FA7B01C0039005ABEBF0A37405C5
:10159100F0A37498F0D0031253501241B6125F7940
:1015A1008009900596E004F00214FD9005A4E0FF87
:1015B100900597E06F707A900596F09005A4E0FD94
:1015C100900596E0FFC39D5068EF75F008A424567E
:1015D100F582740035F0F583E0704E9004CFE0C3DE
:1015E1009D5003E004F07B017A057998900649E06B
:1015F100540F9005ACF07F911239A9900596E075D2
:10160100F008A42456F9740035F0FA7B01C0039068
:1016110005ABEBF0A37405F0A37498F0D00312535B
:10162100501241B6125F798008900596E004F0806F
:101631008A1278160219AA7F3512772078807C05E4
:101641007D017B017A0579D77E007F0412208C9081
:101651000648E0FFE4FCFDFE78081221BAC004C090
:1016610005C006C007900647E0FFE4FCFDFE7810C8
:101671001221BAD003D002D001D000EF4BFBEE4AC9
:10168100FAED49F9EC48F8900649E0FFEB4FFFEA23
:10169100FEE9FDE8FC9005841222377B017A057989
:1016A10080124DF650030219AA1276119005DAE064
:1016B1006409703D9005D9E06409702F9005D8E068
:1016C100B409229005D7E004F0E4A3F0A3F090055B
:1016D100D7E0B4150AE4F09005DA04F00219AA90F3
:1016E10005DA0219239005D802192C9005D902199F
:1016F100399005DA0219447F3912772078807C0508
:101701007D017B017A0579E17E007F0412208C90B6
:101711000648E0FFE4FCFDFE78081221BAC004C0CF
:1017210005C006C007900647E0FFE4FCFDFE781007
:101731001221BAD003D002D001D000EF4BFBEE4A08
:10174100FAED49F9EC48F8900649E0FFEB4FFFEA62
:10175100FEE9FDE8FC9005841222377B017A0579C8
:101761008012494350030219AA1276119005E4E050
:101771006409703D9005E3E06409702F9005E2E093
:10178100B409229005E1E004F0E4A3F0A3F0900590
:10179100E1E0B4150AE4F09005E404F00219AA901E
:1017A10005E40219239005E202192C9005E30219C0
:1017B100399005E40219447F3D12772078807C0539
:1017C1007D017B017A0579EC7E007F0412208C90EB
:1017D1000648E0FFE4FCFDFE78081221BAC004C00F
:1017E10005C006C007900647E0FFE4FCFDFE781047
:1017F1001221BAD003D002D001D000EF4BFBEE4A48
:10180100FAED49F9EC48F8900649E0FFEB4FFFEAA1
:10181100FEE9FDE8FC9005841222377B017A057907
:101821008012459C50030219AA1276119005EFE02F
:101831006409703D9005EEE06409702F9005EDE0BC
:10184100B409229005ECE004F0E4A3F0A3F09005C4
:10185100ECE0B4150AE4F09005EF04F00219AA9047
:1018610005EF0219239005ED02192C9005EE0219DE
:10187100399005EF0219447F4112772078807C0569
:101881007D017B017A0579F87E007F0412208C901E
:101891000648E0FFE4FCFDFE78081221BAC004C04E
:1018A10005C006C007900647E0FFE4FCFDFE781086
:1018B1001221BAD003D002D001D000EF4BFBEE4A87
:1018C100FAED49F9EC48F8900649E0FFEB4FFFEAE1
:1018D100FEE9FDE8FC9005841222377B017A057947
:1018E100801246D450030219AA1276119005FBE02A
:1018F1006409704C9005FAE0640970399005F9E0CB
:10190100B409259005F8E004F0E4A3F0A3F09005F4
:10191100F8E0B4150AE4F09005FB04F00219AA906E
:1019210005FB7401F00219AA9005F9E004F0E4A3A3
:10193100F0A3F080749005FAE004F0E4A3F080696C
:101941009005FBE004F08061E4FF12779890057F39
:101951007401F09005A1E0B40124A3E0FF900649D1
:10196100E0540F2477F582E43403F583EFF07B0133
:101971007A0379779005BF7410F07D20802490055B
:10198100A2E0FF900649E0540F2446F582E43400BA
:10199100F583EFF07B017A0079469005BF7410F072
:1019A1007D307C157FA01264C21278161256A402F3
:0219B1003ECA2C
:0578340090057FE0FF5C
:01783900222C
:06783A0090057FEFF02233
:10612100E4900588F012773E900588EFF030A4677F
:106131009004DBE06061127810EF705B9004D0E0B6
:1061410060411265FC7F0A7E0012749B7B017A0517
:106151007980900580E0FD9005BAE4F0A3EDF09020
:106161000587E0540F9005BCF0900588E0FF1235DB
:10617100199004D0E014F0E0701D7B017A0479DB02
:106181000258401277449004D0EFF01265FC7B0175
:076191007A057980125B44DE
:0161980022E4
:105C85009005AB7401F0A37404F0A374DBF07B0101
:045C95007A0579987B
:0B5C99009005A8EBF0A3EAF0A3E9F0EF
:105CA400E49005AEF0FDA37414F0E49005AEF0901A
:105CB40005AEE0FFC394145063EF75F008A4FF90A1
:105CC40005ABE0FBA3E0FAA3E0F98F8285F0831231
:105CD40020CB7040FD9005A8E0FBA3E0FAA3E0F917
:105CE4008D827583001220CBFC9005AEE075F00820
:105CF400A4FF9005ABE0FBA3E0FAA3E02FF9EA359B
:105D0400F0FAED7E0029F9EE3AFAEC1220F80DEDE6
:0C5D1400B408C2229005AEE004F08093B9
:015D20002260
:1065FC0090058C7401F0A37404F0A374DBF07B01A0
:04660C007A05798012
:0B661000900589EBF0A3EAF0A3E9F08D
:10661B00E4FF90058CE0FBA3E0FAA3E0F98F827511
:10662B0083001220CBFE900589E0FBA3E0FAA3E0E8
:0F663B00F98F82758300EE12210A0FEFB408D396
:01664A00222D
:0B680B0090058EEBF0A3EAF0A3E9F08B
:10681600E4FF90058EE0FBA3E0FAA3E0F9EFFD7C30
:1068260000E92DF9EC3AFA9000081220CBFE90050B
:106836008EA3E0FAA3E0F98F82758300EE12210A97
:056846000FEFB408CDC6
:01684B00222A
:0B584000900589EBF0A3EAF0A3E9F06B
:10584B00E4A3F0A37414F0E490058CF090058CE0C5
:10585B00FFC39414502BEF75F008A4FF900589E05B
:10586B00FBA3E0FAA3E0F98F8285F0831220CB70C3
:10587B000890058CE0A3F0800890058CE004F08084
:10588B00CBE490058CF090058DE014FF90058CE037
:10589B00FEC39F5021EE75F008A4FF900589E0FB35
:1058AB00A3E0FAA3E02FF9EA35F0FA12680B9005A2
:1058BB008CE004F080D0E490058CF090058CE0FD3A
:1058CB00C394085037A3E024FFFFE434FFFEEF78C6
:1058DB0003C333CE33CED8F9FF900589E0FBA3E0A9
:1058EB00FAA3E02FF9EA3EFAED7E0029F9EE3AFA37
:0C58FB00E41220F890058CE004F080BF5F
:01590700227D
:0B5B4400900589EBF0A3EAF0A3E9F064
:105B4F00E4A3F0C00390059004F0A37400F0A374D5
:105B5F0056F0D00312404612772C90058CEFF09040
:105B6F00058CE0FFD394014026EF24FEFFE434FFC1
:105B7F00FEEF7803C333CE33CED8F92456F9740031
:105B8F003EFA7B0112665490058CE014F080D0E44D
:105B9F0090058CF090058CE0FFC39406501474565A
:105BAF002FF582E43400F583E4F090058CE004F0E7
:105BBF0080E2900589E0F9A3E0FAA3E09005ABC974
:105BCF00F0A3EAF0A3E9F07B017A00795612535063
:065BDF001241B6025F79DD
:105BE500FFFFFFFFFFFFFFFFFFFFFFFFFFFFFFFFC0
:105BF500FFFFFFFFFFFFFFFFFFFFFFFFFFFFFFFFB0
:105C0500FFFFFFFFFFFFFFFFFFFFFFFFFFFFFFFF9F
:105C1500FFFFFFFFFFFFFFFFFFFFFFFFFFFFFFFF8F
:105C2500FFFFFFFFFFFFFFFFFFFFFFFFFFFFFFFF7F
