:0300000002612476
:0C612400787FE4F6D8FD75812102616BE4
:106B880012703E1275B21275FC1276E212762B1252
:106B980073CE1275E075B10CE4F5B2126306123DBE
:0C6BA80065120FC21200461267D380F580
:0F75C2004F4B535049005350494F4B004F4B0014
:101CD5004105D7004405DA000000004105D3004165
:101CE50005DE004105D9004305CFFF75C24305CC8C
:101CF500FF75C84305D4FF75CE4105D8004105D20F
:011D050000DD
:03002300025B97E6
:0D5B9700C0E0C0F0C083C082C0D075D0084F
:105BA40090051DE4F0209803025C46C298E599F044
:105BB4001276E9BF6922900376E0B4011B90051DBB
:105BC400E0FFB4AA089003767402F08075EF645580
:105BD4007070900376F0806A1276E9EF646A7062FE
:105BE40090051DE0FFB4AA189005D8E07012900348
:105BF4009474AAF09005D27401F09005D8F0804214
:105C04009005D8E06401703A9005D2E02494F582BE
:105C1400E43403F583EFF09005D2E004F0E0B40A35
:105C240021E4F09005D8F0900394E0B4AA0F900317
:105C34009DE0B455089003917401F080057F5512DE
:095C44007636309904C299C209B8
:0B5C4D00D0D0D082D083D0F0D0E03265
:03004300025F71E8
:0D5F7100C0E0C0F0C083C082C0D075D00871
:105F7E00E4FFE59A30E069539AFEAF9B9005D7E0B7
:105F8E00640170309005D9E0FEB401139005D3E0A2
:105F9E00FD04F074DA2DF582E43405F583EFF0EFAD
:105FAE00B44F11EE700E9005D904F09005D3F09019
:105FBE0005DAEFF09005D3E0B402259005D7E4F0B2
:105FCE009005D9F078DA7C057D019005D4E0FBA32D
:105FDE00E0FAA3E0F9122667EF70059005DE04F0F3
:0A5FEE00E59A30E105539AFDC2095F
:0B5FF800D0D0D082D083D0F0D0E032B7
:097636002009FDEFD209F59922AB
:106A6100900613EBF0A3EAF0A3E9F0900613E0FB24
:106A7100A3E0FAA3E0F912232C6017900613A3E414
:106A810075F00112240DA9F0FA12232CFF127636AB
:036A910080D92287
:09763F002009FDEFD209F59B22A0
:106A9400900616EBF0A3EAF0A3E9F0900616E0FBEB
:106AA400A3E0FAA3E0F912232C6017900616A3E4DE
:106AB40075F00112240DA9F0FA12232CFF12763F6F
:036AC40080D92254
:097648002009FDEFD209F5992299
:106AC700900619EBF0A3EAF0A3E9F0900619E0FBB2
:106AD700A3E0FAA3E0F912232C6017900619A3E4A8
:106AE70075F00112240DA9F0FA12232CFF12764833
:036AF70080D92221
:10703E00E5A2543FF5A253BAFE759850759A507555
:10704E00D7C875D6FE758E14438E01D2AC75AF01BE
:03705E00D2AF228C
:0B6420009003A1EBF0A3EAF0A3E9F069
:10642B009003CC7401F0A37403F0A374A4F0900355
:10643B00A1E0F9A3E0FAA3E090060DC9F0A3EAF0FE
:10644B00A3E9F09003CCE0F9A3E0FAA3E0900610E7
:10645B00C9F0A3EAF0A3E9F07B017A0379CF1266C6
:0A646B00F97B017A0379CF026A6120
:102E8A000000000000FF75D10102661400FF000671
:102E9A000203011500FF723B0304021900FF725975
:102EAA000405031D00FF72770506041F00FF7295D3
:102EBA000607052000FF72B30708062100FF72D13A
:102ECA000809072600FF72EF090A082A00FF730D96
:102EDA000A0B092C00FF732B0B0C0A0B00FF001EB8
:102EEA000C0D0B0C00FF780F0D0E0C0D00FF781463
:102EFA000E660D0E00FF000E0F0F0F1201FF66AFD8
:102F0A001010100F01FF69861111111001FF69BE1F
:102F1A001212121401FF701A1313131101FF6C5EBF
:102F2A001414141301FF6AFA1516183502FF74CC2B
:102F3A001617153902FF74DE1718163D02FF74F0D2
:102F4A001815174102FF7502191A1C4503FF75145B
:102F5A001A1B194903FF75261B1C1A4D03FF7538E6
:102F6A001C191B5103FF754A1D1E1E5204FF7819B6
:102F7A001E1D1D5304FF781E1F1F1F1F05FF765AB3
:102F8A002020202006FF76622122645407FF78233E
:102F9A002223215507FF78282324225607FF782D5C
:102FAA002425235707FF78322560245807FF7837EE
:102FBA002627295908FF783C2728265A08FF7841EE
:102FCA002829275B08FF78462926285C08FF784BC2
:102FDA002A2B2B2A09FF75EE2B2A2A5E09FF785025
:102FEA002C2D2D000AFF78552D2C2C000AFF785A1B
:102FFA002E2E2E2E0BFF73822F2F2F2F0CFF766A69
:10300A00303030300DFF7672313131310EFF65C309
:10301A003232323515FF00263333333515FF7156F8
:10302A003434343315FF71783535353415FF719AD8
:10303A003636363916FF70613737373916FF6C86E0
:10304A003838383716FF6CAE3939393816FF6CD62E
:10305A003A3A3A3D17FF70843B3B3B3D17FF6CFE03
:10306A003C3C3C3B17FF6D263D3D3D3C17FF6D4EFA
:10307A003E3E3E4118FF70A73F3F3F3E18FF6D7628
:10308A004040403F18FF6D9E4141414018FF6DC6C8
:10309A004242424519FF70CA4343434219FF6DEE4B
:1030AA004444444319FF6E164545454419FF6E3E94
:1030BA00464646491AFF70ED474747491AFF6E666A
:1030CA00484848471AFF6E8E494949481AFF6EB662
:1030DA004A4A4A4D1BFF71104B4B4B4D1BFF6EDE8C
:1030EA004C4C4C4B1BFF6F064D4D4D4C1BFF6F2E2E
:1030FA004E4E4E511CFF71334F4F4F4E1CFF6F56B1
:10310A005050504F1CFF6F7E515151501CFF6FA6FB
:10311A00525252521DFF767A535353531EFF7682F0
:10312A005454545421FF768A5555555522FF7692A8
:10313A005656565623FF769A5757575724FF7349C0
:10314A005858585825FF76A25959595926FF755C7F
:10315A005A5A5A5A27FF76AA5B5B5B5B28FF76B2FC
:10316A005C5C5C5C29FF76BA5D5D5D5D2AFF691275
:10317A005E5E5E5E2BFF69F65F5F5F5F5FFF6661A3
:10318A006062256107FF785F6161616160FF76C2F5
:10319A006264606307FF78646363636362FF76CA8D
:1031AA006421626507FF78696565656564FF76D2A3
:1031BA0066010E6600FF786E6768686966FF74408C
:1031CA006867676A66FF756E6969696967FF5AD4D5
:0831DA006A6A6A6A68FF5E4838
:101D060041052200410554004105230045052700F1
:101D160000000100450531000000010045053C00BA
:101D260000000100450548000000010045052C00A3
:101D3600000001004505370000000100450543008D
:101D46000000010045054E00000001004105360176
:101D5600410542014105410041054D004105530041
:101D6600410556014105590041055C0941055E07DB
:101D760041055F0141056000410561004105550BC4
:101D86004105580041055B0041055D0041055702CC
:101D960041055A0041052001410562014105210125
:10271C00E49004D2F0A3F0A3F0A3F0A3F030B30C38
:10272C0030B60930B70630A503022B201275E03005
:10273C00B30C30B60930B70630A503022B20127744
:10274C00A320B3099004D2E4F0A37438F020B609A6
:10275C009004D2E4F0A37434F020B7099004D2E4CE
:10276C00F0A3742CF020A5099004D2E4F0A3741CFF
:10277C00F09004D2E07004A3E064386003022AB540
:10278C001277917F0112778530B303022AB590043A
:10279C00D5E06003022AB5127773EF70069005231B
:1027AC00E06013127773EF64017048900523E0FF2B
:1027BC006004645F703D12778B9004D4EFF0C39487
:1027CC001440C59005237402F0E49004D2F0A3F0F9
:1027DC00D2CDC2977F011271FD12772BBF010A7FF8
:1027EC006F7E00126B5B0229FF7F787E0012694CB2
:1027FC000229FF900523E0FF6442600FEF64436001
:10280C000AEF64446005EF6445702F12778B9004D7
:10281C00D4EFF0C3940A5003022794E49004D2F04E
:10282C00A3F07B017A05792C1253A440077F797EA3
:10283C0000126B5B1275E00229FF900523E0FF6428
:10284C0046600FEF6447600AEF64486005EF644927
:10285C00702F12778B9004D4EFF0C3940A500302BC
:10286C002794E49004D2F0A3F07B017A0579371217
:10287C00528040077F797E00126B5B1275E0022953
:10288C00FF900523E0FF644A600FEF644B600AEF92
:10289C00644C6005EF644D702F12778B9004D4EF6D
:1028AC00F0C3940A5003022794E49004D2F0A3F0EE
:1028BC007B017A057943124F0440077F797E001221
:1028CC006B5B1275E00229FF900523E0FF644E60FC
:1028DC000FEF644F600AEF64506005EF6451702F86
:1028EC0012778B9004D4EFF0C3940A500302279410
:1028FC00E49004D2F0A3F07B017A05794E12502FAC
:10290C0040077F797E00126B5B1275E00229FF9005
:10291C000523E0B40C2B12778B9004D4EFF0C39406
:10292C00145003022794E49004D2F0A3F0900523F2
:10293C00742FF01277739004D6EFF01273E702291C
:10294C00FF900523E0B40D2B12778B9004D4EFF09D
:10295C00C394145003022794E49004D2F0A3F09093
:10296C0005237430F012776D9004D6EFF01273E7F4
:10297C000229FF900523E0B40E1F12778B9004D42C
:10298C00EFF0C394145003022794E49004D2F0A304
:10299C00F09005237431F0805A900523E0B466243E
:1029AC0012778B9004D4EFF0C39414500302279445
:1029BC00E49004D2F0A3F09005237467F07F011229
:1029CC00721C802F900523E0B42A3412778B90046C
:1029DC00D4EFF0C394145003022794E49004D2F083
:1029EC00A3F0900523745DF01277559004D6EFF0A8
:1029FC001273E79004D57401F0127791022794902A
:102A0C000523E0642D702512778B9004D4EFF0C36E
:102A1C0094145003022794E49004D2F0A3F07F792D
:102A2C00FE126B5B126475125DB08067900523E03B
:102A3C00642C600302279412778B9004D4EFF0C3BC
:102A4C0094145003022794E49004D2F0A3F07F79FD
:102A5C00FE126B5B1264751268D6125DB07B017A44
:102A6C0003797790050F7410F07D207C157FA012F0
:102A7C0064D91275E07B017A00794690050F7410C9
:102A8C00F07D307C157FA01264D91275E01263C4FE
:102A9C001275E075C760E4900523F09004D504F03E
:102AAC0012779175C13002279430B3FD30B6FA30ED
:102ABC00B7F730A5F41275E030B3FD30B6FA30B785
:102ACC00F730A5F4E4FF127785E4FF12779D9005AB
:102ADC0023E0645E602312772BEF6011900523E0F6
:102AEC00D3940E40047F0180067F0080027F01EFAB
:102AFC0060077F787E0012694C9004D5E0700790D7
:102B0C00052204F08005E4900522F09004D2E0FE4A
:082B1C00A3E0FF227E0F7FFF02
:012B2400228E
:104DD800E49004D0F0A3F0FF12271C9004D0EEF06A
:104DE800A3EFF01277F79004D0E0640F7003A3E00C
:104DF800F46003024ED9EF64016003024ED99005B6
:104E080023E0FF601C640B6018EF640C6013EF6410
:104E18000D600EEF640E6009EF642D6004EFB42C92
:104E28002A900599E0540FFFBF0808900554E00444
:104E3800F08005E4900554F0900554E0D3940340C5
:104E48000A7F141277A9E4900554F01277FD1277BF
:104E5800B5EF6005E4900522F0900599E0540FFF46
:104E6800640860069005227401F0EF24FE6029248E
:104E7800FE603524FC6041240770561277BBEF7042
:104E8800509004D0F0A3741CF0900523E0B43106D0
:104E98001274921275E080341277BBEF703390046D
:104EA800D0F0A37434F080241277BBEF7023900401
:104EB800D0F0A3742CF080141277B5EF701312772A
:104EC800BBEF700D9004D0F0A37438F07F05127713
:104ED800C19004D0E0FEA3E0FFEE701DEF24D46083
:104EE8001224F8600B24FC600D241C700C7F032234
:0B4EF8007F02227F01227F00227FFF4B
:014F0300228B
:100FC200E4FF9004CFF0124DD8EF1470030213091E
:100FD2001470030218081470030212DB2403600366
:100FE200021CAA127773EF7006900523E0601212BA
:100FF2007773EF64017022900523E0FF6003B45F12
:101002001812778B9004CFEFF0C394145003021C94
:10101200AA9005237402021165900523E0FF644241
:10102200600FEF6443600AEF64446005EF6445704B
:101032002D12778B9004CFEFF0C3940A40657B01A9
:101042007A05792C1253A44057127761BF010C7FA5
:10105200797E00126B5BE4FF127767021130900514
:1010620023E0FF6446600FEF6447600AEF64486064
:1010720005EF6449703012778B9004CFEFF0C39480
:101082000A40207B017A057937125280401212778A
:1010920061BF010C7F797E00126B5BE4FF12776700
:1010A200021130021136900523E0FF644A600FEF0F
:1010B200644B600AEF644C6005EF644D702E12774A
:1010C2008B9004CFEFF0C3940A401F7B017A05791D
:1010D20043124F044012127761BF010C7F797E00E8
:1010E200126B5BE4FF12776780448048900523E02F
:1010F200FF644E600FEF644F600AEF64506005EFCB
:101102006451704312778B9004CFEFF0C3940A407E
:10111200237B017A05794E12502F4012127761BF5C
:10112200010C7F797E00126B5BE4FF127767127508
:10113200E00212D5900523E075F008A4248DF58213
:10114200E5F0342E021CA2900523E0B40B1E1277A8
:101152008B9004CFEFF0C394145003021CAA9005A5
:1011620023742EF07F061276200212D5900523E01A
:10117200B40C1E12778B9004CFEFF0C3941450037B
:10118200021CAA900523742FF07F06127620021209
:10119200D5900523E0B40D1E12778B9004CFEFF0AB
:1011A200C394145003021CAA9005237430F07F06E6
:1011B2001276200212D5900523E0B40E1E12778B10
:1011C2009004CFEFF0C394145003021CAA9005239D
:1011D2007431F07F061276200212D5900523E0B416
:1011E200661E12778B9004CFEFF0C3941450030263
:1011F2001CAA9005237467F07F061276200212D58E
:10120200900523E0B42A1E12778B9004CFEFF0C32F
:1012120094145003021CAA900523745DF07F0612F9
:1012220076200212D5900523E0642D701F12778B71
:101232009004CFEFF0C394145003021CAA7F797E6E
:1012420000126B5B126475125DB0805E900523E044
:10125200642C706712778B9004CFEFF0C394145014
:1012620003021CAA7F797E00126B5B1264751268FE
:10127200D6125DB07B017A03797790050F7410F076
:101282007D207C157FA01264D91275E07B017A0063
:10129200794690050F7410F07D307C157FA01264A2
:1012A200D91275E01263C41275E075C7607F061229
:1012B200762012779175C130021CAA900523E07541
:1012C200F008A4248DF582E5F0342EF583E49390A2
:1012D2000523F0127791021CAA900523E0B45F1453
:1012E200127773EF600E125EDDE49005B0F01274B7
:1012F20092021CAA900523E075F008A4248EF582C0
:10130200E5F0342E021CA2900523E01224BD13C581
:101312000F13D71013E61113F512140813141A142D
:1013220016961F16AA2017A82F179430142C3214C1
:101332003E331450341462351474361486371498BC
:101342003814AA3914BC3A14CE3B14E03C14F23DD2
:1013520015043E15163F152840153A41154C421505
:101362005E4315704415824515944615A64715B877
:101372004815CA4915DC4A15EE4B16004C16124D9B
:1013820016244E16364F164850165A51166B5216E0
:10139200815316BE5416D25516E75616F957170D35
:1013A2005817215917355A17465B17575C17685D4E
:1013B200177C5E178F5F17BB6117CE6317E165005D
:1013C2000017F59005E0E0B46305E4F00217F5902C
:1013D20005E002178A9005E1E0B40C02801C90053A
:1013E200E102178A9005E2E0B41F02800D9005E247
:1013F20002178A9005E6E0B407067401F00217F5B9
:101402009005E602178A9005E3E0B41705E4F002BE
:1014120017F59005E302178A9005E4E0B43B05E472
:10142200F00217F59005E402178A900527E0B4143C
:1014320005E4F00217F590052702178A900528E0C7
:10144200B41405E4F00217F590052802178A9005F6
:1014520029E0B40905E4F00217F590052902178A7C
:1014620090052AE0B40905E4F00217F590052A0276
:10147200178A900531E0B41405E4F00217F59005DF
:101482003102178A900532E0B41405E4F00217F530
:1014920090053202178A900533E0B40905E4F002A0
:1014A20017F590053302178A900534E0B40905E474
:1014B200F00217F590053402178A90053CE0B41447
:1014C20005E4F00217F590053C02178A90053DE00D
:1014D200B41405E4F00217F590053D02178A900551
:1014E2003EE0B40905E4F00217F590053E02178AC2
:1014F20090053FE0B40905E4F00217F590053F02BC
:10150200178A900548E0B41405E4F00217F5900537
:101512004802178A900549E0B41405E4F00217F571
:1015220090054902178A90054AE0B40905E4F002E1
:1015320017F590054A02178A90054BE0B40905E4B5
:10154200F00217F590054B02178A90052CE0B414AF
:1015520005E4F00217F590052C02178A90052DE09C
:10156200B41405E4F00217F590052D02178A9005D0
:101572002EE0B40905E4F00217F590052E02178A51
:1015820090052FE0B40905E4F00217F590052F024B
:10159200178A900537E0B41405E4F00217F59005B8
:1015A2003702178A900538E0B41405E4F00217F503
:1015B20090053802178A900539E0B40905E4F00273
:1015C20017F590053902178A90053AE0B40905E447
:1015D200F00217F590053A02178A900543E0B41419
:1015E20005E4F00217F590054302178A900544E0DE
:1015F200B41405E4F00217F590054402178A900529
:1016020045E0B40905E4F00217F590054502178A92
:10161200900546E0B40905E4F00217F5900546028C
:10162200178A90054EE0B41405E4F00217F5900510
:101632004E02178A90054FE0B41405E4F00217F544
:1016420090054F02178A900550E0B40905E4F002B4
:1016520017F590055002178A900551E0B40904E489
:10166200F08006900551E004F0900536E0B40106E2
:101672007402F00217F29005367401F00217F2902C
:101682000542E0B463057401F08006900542E0046F
:10169200F00217F2900541E0B46304E4F080069092
:1016A2000541E004F00217F290054DE0B46304E452
:1016B200F0800690054DE004F00217F2900553E029
:1016C200B40704E4F08006900553E004F00217F238
:1016D200900556E0B409057401F08006900556E0C5
:1016E20004F00217F2900559E0700404F08005E45A
:1016F200900559F00217F290055CE0B40904E4F099
:10170200800690055CE004F00217F290055EE0B4FA
:101712000704E4F0800690055EE004F00217F29000
:101722000555E0B40A04E4F08006900555E004F0A3
:101732000217F2900558E0B40B05E4F00217F59099
:101742000558804490055BE0B40B05E4F00217F500
:1017520090055B803390055DE0B40B05E4F0021761
:10176200F590055D8022900557E0B401057402F002
:1017720080069005577401F0807690055AE0B426F1
:1017820004E4F0806E90055AE004F08066125C5822
:101792008061900562E0B401057402F08006900554
:1017A200627401F0804A900520E0B40104E4F08004
:1017B200069005207401F0803790055FE0B40104C3
:1017C200E4F0800690055F7401F08024900560E0EB
:1017D200B40104E4F080069005607401F080119079
:1017E2000561E0B40104E4F080069005617401F043
:1017F200125DB0900523E075F008A4248BF582E514
:10180200F0342E021CA2900523E01224BD18C40F4E
:1018120018D61018E91118FC12190F131921141BEC
:101822003B1F1B4F201C452F1C31301933321942EC
:1018320033195134196035196F36197E37198D38BD
:10184200199C3919AB3A19BA3B19C93C19D83D1937
:10185200E73E19F63F1A05401A14411A23421A327A
:10186200431A41441A50451A5F461A6D471A7B487B
:101872001A8A491A984A1AA64B1AB44C1AC24D1A15
:10188200D04E1ADE4F1AF0501AFE511B10521B2670
:10189200531B63541B77551B8C561B9E571BB25808
:1018A2001BC6591BDA5A1BE75B1BF45C1C055D1C4B
:1018B200195E1C2C5F1C58611C6B631C7E6500004A
:1018C2001C929005E0E070067463F0021C92900591
:1018D200E0021C279005E1E0B40106740CF0021C42
:1018E200929005E1021C279005E2E0B40106741F04
:1018F200F0021C929005E2021C279005E6E0B4017A
:10190200067407F0021C929005E6021C279005E37C
:10191200E070067417F0021C929005E3021C2790F7
:1019220005E4E07006743BF0021C929005E4021C90
:1019320027900527E07003021AE4900527021C276E
:10194200900528E07003021AE4900528021C2790F3
:101952000529E07003021B04900529021C2790054B
:101962002AE07003021B0490052A021C279005310D
:10197200E07003021AE4900531021C27900532E060
:101982007003021AE4900532021C27900533E070BE
:1019920003021B04900533021C27900534E07003F8
:1019A200021B04900534021C2790053CE0700302E0
:1019B2001AE490053C021C2790053DE07003021AD0
:1019C200E490053D021C2790053EE07003021B04D3
:1019D20090053E021C2790053FE07003021B049015
:1019E200053F021C27900548E07003021AE49005A7
:1019F20048021C27900549E07003021AE490054949
:101A0200021C2790054AE07003021B0490054A025B
:101A12001C2790054BE07003021B0490054B021C2F
:101A22002790052CE07003021AE490052C021C2773
:101A320090052DE07003021AE490052D021C2790F8
:101A4200052EE07003021B0490052E021C27900550
:101A52002FE07003021B0490052F021C279005370C
:101A6200E07002807D900537021C27900538E070F7
:101A720002806F900538021C27900539E07003023E
:101A82001B04900539021C2790053AE0700280720F
:101A920090053A021C27900543E0700280449005AD
:101AA20043021C27900544E07002803690054402F0
:101AB2001C27900545E070028048900545021C27CE
:101AC200900546E07002803A900546021C27900578
:101AD2004EE07002800C90054E021C2790054FE0EC
:101AE20070067414F0021C9290054F021C27900598
:101AF20050E07002800C900550021C27900551E0C6
:101B020070067409F0021C92900551021C27900580
:101B120036E0B401067402F0021C8F90053674019F
:101B2200F0021C8F900542E0B401057463F0800658
:101B3200900542E014F0021C8F900541E07005749C
:101B420063F08006900541E014F0021C8F90054D71
:101B5200E070057463F0800690054DE014F0021CFD
:101B62008F900553E070057407F08006900553E0EE
:101B720014F0021C8F900556E0B401057409F08040
:101B820006900556E014F0021C8F900559E070048F
:101B920004F08005E4900559F0021C8F90055CE08A
:101BA20070057409F0800690055CE014F0021C8F49
:101BB20090055EE070057407F0800690055EE01403
:101BC200F0021C8F900555E07005740AF0800690B3
:101BD2000555E014F0021C8F900558E07002801841
:101BE200900558804090055BE07002800B90055B89
:101BF200803390055DE07006740BF0021C92900534
:101C02005D8022900557E0B401057402F0800690D1
:101C120005577401F0807690055AE070057426F03D
:101C2200806E90055AE014F080661255BB80619078
:101C32000562E0B401057402F08006900562740149
:101C4200F0804A900520E0B40104E4F0800690059B
:101C5200207401F0803790055FE0B40104E4F08065
:101C62000690055F7401F08024900560E0B40104E1
:101C7200E4F080069005607401F08011900561E047
:101C8200B40104E4F080069005617401F0125DB0C5
:101C9200900523E075F008A4248CF582E5F0342E3B
:101CA200F583E493900523F0900523E075F008A4F2
:101CB200248FF582E5F0342EF583E493FB740193CF
:101CC200FA740293F9900524EBF0A3EAF0A3E9F089
:031CD2000224E306
:0D75E0007F047E347DDCDDFEDEFADFF60088
:0175ED00227B
:04746A00AB07AA06BC
:0F746E00E4FCECC39BE49A50061275E00C80F32B
:01747D0022EC
:0576E900900523E0FF05
:0176EE002279
:0676EF00900523EFF022DC
:0576F500900536E0FFE6
:0176FA00226D
:0576FB00900542E0FFD4
:017700002266
:05770100900541E0FFCE
:017706002260
:0577070090054DE0FFBC
:01770C00225A
:05770D00900553E0FFB0
:017712002254
:05771300900556E0FFA7
:01771800224E
:05771900900559E0FF9E
:01771E002248
:05771F0090055CE0FF95
:017724002242
:0577250090055EE0FF8D
:01772A00223C
:05772B0090055FE0FF86
:017730002236
:05773100900560E0FF7F
:017736002230
:05773700900561E0FF78
:01773C00222A
:05773D00900555E0FF7E
:017742002224
:05774300900558E0FF75
:01774800221E
:0577490090055BE0FF6C
:01774E002218
:05774F0090055DE0FF64
:017754002212
:05775500900557E0FF64
:01775A00220C
:05775B0090055AE0FF5B
:017760002206
:05776100900522E0FF8D
:017766002200
:06776700900522EFF02264
:05776D00900562E0FF41
:0177720022F4
:05777300900520E0FF7D
:0177780022EE
:105DB000900536E09005EFF0900542E09005F0F098
:105DC000900541E09005F1F090054DE09005F2F06E
:105DD000900553E09005F3F0900556E09005F4F03F
:105DE000900559E09005F5F090055CE09005F6F01F
:105DF00090055EE09005F7F090055FE09005F8F003
:105E0000900560E09005F9F0900561E09005FAF0EA
:105E1000900555E09005FBF0900557E09005FCF0EB
:105E2000900520E09005FDF0900562E09005FEF001
:105E30007B017A0579EF90050F7410F07D407C1599
:085E40007FA01264D90275E095
:103D65007B017A03797790051A7410F07D207C1514
:103D75007FA01262361275E07B017A0079469005C4
:103D85001A7410F07D307C157FA01262361275E032
:103D95007B017A0579EF90051A7410F07D407C154A
:103DA5007FA01262361275E09005EFE0FF900536B0
:103DB500F09005F0E0900542F09005F1E0900541A6
:103DC500F09005F2E090054DF09005F3E090055375
:103DD500F09005F4E0900556F09005F5E090055952
:103DE500F09005F6E090055CF09005F7E090055E33
:103DF500F09005F8E090055FF09005F9E09005601A
:103E0500F09005FAE0900561F09005FBE09005550E
:103E1500F09005FCE0900557F09005FDE090052039
:103E2500F09005FEE0900562F0EFD3940240069015
:103E350005367401F09005F0E0D3946340069005D3
:103E4500427401F09005F1E0D3946340069005417A
:103E55007401F09005F2E0D39463400690054D742B
:103E650001F09005F3E0D394074005E4900553F085
:103E75009005F4E0D3940940069005567401F0903E
:103E850005F5E0D394014005E4900559F09005F659
:103E9500E0D39409400690055C7409F09005F7E0BD
:103EA500D39407400690055E7407F09005F8E0D3BB
:103EB50094014005E490055FF09005F9E0D3940185
:103EC5004005E4900560F09005FAE0D394014005C3
:103ED500E4900561F09005FBE0D3940A4006900557
:103EE50055740AF09005FCE0D394024006900557FE
:103EF5007402F09005FDE0D394014006900520740E
:103F050001F09005FEE0D39402400690056274012D
:0D3F1500F090055CE075F003A4FF0271BCA4
:106475009005367401F0900542F0E4900541F090E6
:10648500054DF0900553F090055604F0E49005593C
:10649500F090055C7409F090055E7407F0A3740133
:1064A500F0E4A3F0A3F0900555740AF0E4900558C4
:1064B500F090055BF090055DF09005577402F0E4EF
:0564C50090055AF022D1
:1068D6007F109003777401F0A3DFFC9000467401EB
:1068E600F0E4A3F0A37403F0A37405F0A37402F01C
:1068F600A314F0A3F0A37406F0A37401F0A3F0A30D
:0B690600F0A3F0A3F0A3F0A3F0A3F0B7
:016911002263
:1071DD0000000000000000000000000000000000A2
:1071ED000000000000000000000000000000000092
:101DA6005500313F065B4F666D7D077F6F777C3947
:101DB6005E797176385C733E480387010204081029
:101DC60020408042038F4000603000010000000088
:101DD60000000000000000000000000000000000FD
:101DE60000000000000000000000000000000000ED
:101DF6000000000000000000000000006320005604
:101E060000000000000000000000000000000000CC
:101E160000000000000000000000000000000000BC
:101E260000000000000000000000000000000000AC
:101E3600000000000000000000000000000000009C
:10212600410000004103A0005003770101010101B5
:1021360001010101010101010101015000460100F7
:10214600030502010106010101010101010142032A
:102156009200004103760042039E00004103910075
:106BB400C282E4FDFCC280EF30E004D2818002C2D4
:106BC4008100000000D280EFC313FF0DBD00010C53
:0A6BD400ED64084C70DFC280C2813E
:016BDE002294
:106BDF00C283E4FDFCC280EF30E004D2818002C2A8
:106BEF008100000000D280EFC313FF0DBD00010C28
:0A6BFF00ED64084C70DFC280C28113
:016C09002268
:106C0A00C2CCE4FDFCC280EF30E004D2818002C233
:106C1A008100000000D280EFC313FF0DBD00010CFC
:0A6C2A00ED64084C70DFC280C281E7
:016C3400223D
:0973FE00AE077F401274077FC046
:0D740700D282000000000000C282026BB4BF
:0C739C00127407D2827F401273A87FC0D9
:0D73A800D283000000000000C283026BDFF2
:0C73B5001273A8D2837F401273C17FC006
:0D73C100D2CC000000000000C2CC026C0A1B
:05600300E4900001F033
:106008001277251273FEE4FB74012BF582E4340049
:10601800F583E0FF126BB474092BF582E43400F5C4
:1060280083E0FF126BB40BEBB408DDEE2488FF129B
:10603800739CE4FB74112BF582E43400F583E0FFD4
:10604800126BDF74192BF582E43400F583E0FF123C
:106058006BDF0BEBB408DDEE2488FF1273B5E4FBAD
:1060680074212BF582E43400F583E0FF126C0A7486
:10607800292BF582E43400F583E0FF126C0A0BEB60
:0C608800B408DDEE2488FF1273C1D2CCF6
:0160940022E9
:106743001273FEE4FBAF06126BB4AF06126BB40B0D
:10675300EBB408F17F8F12739CE4FBAF06126BDF7F
:10676300AF06126BDF0BEBB408F17F8F1273B5E446
:10677300FBAF06126C0AAF06126C0A0BEBB408F1FE
:076783007F8F1273C1D2CC1D
:01678A0022EC
:10630600E49004CFF0E4FFE4FE9004CFE02487F5A8
:1063160082E43403F583E0FDEF75F008A42401F56B
:1063260082E43400F583E5822EF582E43583F58335
:10633600EDF00EEEB408D20FEFB406CB1260089063
:1063460004CFE0B401077F7B7E00126B5B7F1E12D9
:0E63560074BA9004CFE004F0E0C3940840A7AE
:016364002216
:1074BA00EFD39400400B7EFF7DFFDDFEDEFA1F80D6
:0174CA00EFD2
:0174CB00229E
:106C3500E4FFE4FEEF75F008A42401F582E43400D6
:106C4500F583E5822EF582E43583F583E4F00EEED7
:086C5500B408E10FEFB406DA08
:016C5D002214
:0A760A007F78900056E4F0A3DFFC47
:017614002253
:106A2C00E4FF127779EF6401702A126C3590000044
:106A3C00E05403FF2401F582E43400F5837440F044
:106A4C00126008E4FF12777F900000E004F0E0B4DD
:046A5C000402E4F05C
:016A60002213
:103F2200127731EF6003023FC7126C351261B09015
:103F32000033E0900008F0900031E0900007F0902C
:103F420005E0E0FF75F00A842431F582E43400F5DF
:103F520083E0900006F0EF75F00A84743125F0F5E5
:103F620082E43400F583E0900005F09005E1E0FF83
:103F720075F00A842431F582E43400F583E0900080
:103F82000AF0EF75F00A84743125F0F582E434000A
:103F9200F583E0900009F09005E2E0FF75F00A84F5
:103FA2002431F582E43400F583E090000CF0EF75E3
:103FB200F00A84743125F0F582E43400F583E09050
:103FC200000B024060126C351261B0900033E09039
:103FD200000CF0900031E090000BF09005E0E0FF63
:103FE20075F00A842431F582E43400F583E0900010
:103FF2000AF0EF75F00A84743125F0F582E434009A
:10400200F583E0900009F09005E1E0FF75F00A8485
:104012002431F582E43400F583E0900008F0EF7576
:10402200F00A84743125F0F582E43400F583E090DF
:104032000007F09005E2E0FF75F00A842431F58272
:10404200E43400F583E0900006F0EF75F00A847422
:104052003125F0F582E43400F583E0900005F0901C
:1040620005E6E02431F582E43400F583E090000DAA
:10407200F09005E3E0FF75F00A842431F582E43420
:1040820000F583E0900004F0EF75F00A84743125A6
:10409200F0F582E43400F583E0900003F09005E44B
:1040A200E0FF75F00A842431F582E43400F583E000
:1040B200900002F0EF75F00A84743125F0F582E485
:0940C2003400F583E012600422D1
:1071FD00AD07126C35900040E0900003F074312D16
:0F720D00F582E43400F583E0900002F00260089F
:10721C00AD07126C3590003FE0900003F074312DF7
:0F722C00F582E43400F583E0900002F002600880
:10747E00126C35900031E0900003F09000027437EA
:04748E00F0026008A0
:10741400126C35900031E0900003F0900040E09051
:067424000002F002600806
:1073E700AD07126C3574312DF582E43400F583E076
:0773F700900002F0026008A3
:106B2B00AD07126C35ED75F00A842431F582E4342F
:106B3B0000F583E0900003F0ED75F00A84743125C5
:106B4B00F0F582E43400F583E0900002F002600877
:10636500AB07AA06126C357C007D64AF03AE021242
:1063750023B874312FF58274003EF583E090000454
:10638500F07C007D0AAF03AE021223B87C007D0AC3
:106395001223B874312DF58274003CF583E090002A
:1063A50003F0AE02AF037C007D0A1223B874312DD1
:0F63B500F58274003CF583E0900002F00260086E
:06678B007B017A0579276D
:10679100126C359000011223452431F582E4340056
:1067A100F583E0900004F09000021223452431F5B6
:1067B10082E43400F583E0900003F090000312239B
:1067C100452431F582E43400F583E0900002F002C3
:0267D10060085E
:10451A00126C359000AEE060179005097401F0A3A3
:10452A007400F0A374AEF07B017A0079301231E2A4
:10453A009000A6E060179005097401F0A37400F0DA
:10454A00A374A6F07B017A00792C1231E290009EC6
:10455A00E060179005097401F0A37400F0A3749E3B
:10456A00F07B017A0079281231E2900096E0601718
:10457A009005097401F0A37400F0A37496F07B010E
:10458A007A0079241231E290008EE06017900509D2
:10459A007401F0A37400F0A3748EF07B017A0079A1
:1045AA00201231E2900086E060179005097401F04C
:1045BA00A37400F0A37486F07B017A00791C12318F
:1045CA00E290007EE060179005097401F0A3740080
:1045DA00F0A3747EF07B017A0079181231E2900020
:1045EA0076E060179005097401F0A37400F0A374D3
:1045FA0076F07B017A0079141231E290006EE06065
:10460A00179005097401F0A37400F0A3746EF07B8F
:10461A00017A0079101231E2900066E06017900585
:10462A00097401F0A37400F0A37466F07B017A00A8
:10463A00790C1231E290005EE0601790050974016E
:10464A00F0A37400F0A3745EF07B017A007908127B
:10465A0031E2900056E060179005097401F0A374E6
:10466A0000F0A37456F07B017A0079041231E22239
:0B31E200900506EBF0A3EAF0A3E9F073
:1031ED00E4FF12776DEF6401600302332E90050941
:1031FD00E0FBA3E0FAA3E0F990000212234524318D
:10320D00F582E43400F583E0FF900506E0FBA3E0D2
:10321D00FAA3E0F9EF122372900509E0FBA3E0FA9F
:10322D00A3E0F99000031223452431F582E4340024
:10323D00F583E0FF900506E0FBA3E0FAA3E0F9902B
:10324D00FFFFEF122384900509E0FBA3E0FAA3E052
:10325D00F99000041223452431F582E43400F583FE
:10326D00E0FF900506E0FBA3E0FAA3E0F990FFFE76
:10327D00EF122384900509E0FBA3E0FAA3E0F99097
:10328D000005122345540F24FD602B14604224FDCC
:10329D00605814606F240660030234E4900506E064
:1032AD00FBA3E0FAA3E024FDF9EA34FFFA12232C84
:1032BD00FF90003C8066900506E0FBA3E0FAA3E0DA
:1032CD0024FDF9EA34FFFA12232CFF90003F804CC5
:1032DD00900506E0FBA3E0FAA3E024FDF9EA34FF34
:1032ED00FA12232CFF90003E8032900506E0FBA3DE
:1032FD00E0FAA3E024FDF9EA34FFFA12232CFF9043
:10330D00003B8018900506E0FBA3E0FAA3E024FD46
:10331D00F9EA34FFFA12232CFF90003DE04F0234FE
:10332D00E1900509E0FBA3E0FAA3E0F99000021299
:10333D0023452431F582E43400F583E0FF90050642
:10334D00E0FBA3E0FAA3E0F9EF122372900509E088
:10335D00FBA3E0FAA3E0F99000031223452431F515
:10336D0082E43400F583E0FF900506E0FBA3E0FA6C
:10337D00A3E0F990FFFFEF122384900509E0FBA372
:10338D00E0FAA3E0F99000041223452431F582E41C
:10339D003400F583E0FF900506E0FBA3E0FAA3E01F
:1033AD00F990FFFEEF122384900509E0FBA3E0FAEC
:1033BD00A3E0F9900005122345540F24FD604C1431
:1033CD00700302346F24FD70030234B314700302D2
:1033DD0034CB240660030234E4900506E0FBA3E041
:1033ED00FAA3E024FEF9EA34FFFA12232C448012EA
:1033FD002372900506E0FBA3E0FAA3E024FFF9EAAF
:10340D0034FFFA12232C44800234E1900506E0FBD0
:10341D00A3E0FAA3E0F912232C4480122372900545
:10342D0006E0FBA3E0FAA3E024FEF9EA34FFFA126A
:10343D00232C4480122372900506E0FBA3E0FAA32F
:10344D00E024FFF9EA34FFFA12232C448012237290
:10345D00900506E0FBA3E0FAA3E0F912232C4480CB
:10346D008072900506E0FBA3E0FAA3E0F912232C8D
:10347D004480122372900506E0FBA3E0FAA3E0243A
:10348D00FEF9EA34FFFA12232C44801223729005C0
:10349D0006E0FBA3E0FAA3E024FFF9EA34FFFA12F9
:1034AD00232C4480802E900506E0FBA3E0FAA3E0D8
:1034BD0024FFF9EA34FFFA12232C4480801690057C
:1034CD0006E0FBA3E0FAA3E024FEF9EA34FFFA12CA
:0734DD00232C44801223722E
:0134E40022C5
:1056B4009004F8EBF0A3EAF0A3E9F0A3E0FBA3E085
:1056C400FAA3E0F912232CFF9004F8E0FBA3E0FA1C
:1056D400A3E0F9EF1223729004FBE0FBA3E0FAA32A
:1056E400E0F9900001122345FF9004F8E0FBA3E0E9
:1056F400FAA3E0F9900001EF1223849004FBE0FB8D
:10570400A3E0FAA3E0F9900002122345FF9004F805
:10571400E0FBA3E0FAA3E0F9900002EF12238490E7
:1057240004FBE0FBA3E0FAA3E0F990000312234595
:10573400FF9004F8E0FBA3E0FAA3E0F9900003EF84
:105744001223849004FBE0FBA3E0FAA3E0F99000A9
:1057540004122345FF9004F8E0FBA3E0FAA3E0F968
:10576400900004EF1223849004FBE0FBA3E0FAA36F
:10577400E0F9900007122345FF9004F8E0FBA3E052
:0B578400FAA3E0F9900005EF02238477
:096613002456F974003EFA7B01E3
:10661C0012232C9000081223849000011223459021
:10662C00000912238490000212234590000A1223C1
:10663C008490000312234590000B122384900004D5
:10664C0012234590000C12238490000512234590D0
:05665C00000D02238483
:0E651F0075F008A42456F9740035F0FA7B01DB
:10652D009000081223451223729000091223459002
:10653D00000112238490000A1223459000021223B9
:10654D008490000B12234590000312238490000CBD
:10655D0012234590000412238490000D12234590C0
:05656D0000050223847B
:1040CB0078FC7C047D017BFF7A7179DD7E007F08B3
:1040DB00122306E4900504F0A3F01277199005045F
:1040EB00EFF012770D900505EFF01277079004FAB9
:1040FB00EFF01277019004FBEFF01277979004FB2F
:10410B00E0FE9004FAE0FDC39E500AEF9D4006EEE0
:10411B006003E0701B9004FBE060030242469004D6
:10412B00FAE0FE7003024246EFD39E500302424672
:10413B00E49004F8F09004F8E0FFC3940A5022EFE7
:10414B0075F008A42456F582740035F0F583E07001
:10415B00089004F8E0A3F080089004F8E004F080E5
:10416B00D4E49004F8F09004F9E024FFFFE434FF6A
:10417B00FEEF7803C333CE33CED8F9FF9004F8E0CB
:10418B00FD7A002FFFEA3EFE74562FF58274003E37
:10419B00F583E0FF74FC2DF582E43404F583EFF036
:1041AB009004F8E004F0E0B406BC9004F9E090044D
:1041BB00F8F09004F8E0FFD39401401DEF24FEFFCC
:1041CB00E434FFFEEF7803C333CE33CED8F9126657
:1041DB00139004F8E014F080D9E49004F8F0900404
:1041EB00F8E0FF24FCF582E43404F583E0FE74561A
:1041FB002FF582E43400F583EEF09004F8E004F040
:10420B00E0B406DA12451A126008E4FF12779D90AB
:10421B000504E0B401257B017A007956900056E045
:10422B00FD90050AE4F0A3EDF090005BE0540F90D5
:0B423B00050CF0900505E0FF1239C1F2
:014246002255
:1043B700E49004FEF0A3F01277079004F9EFF012EF
:1043C70077019004FAEFF01277979004FBEFF01261
:1043D70076FB9004FCEFF01276F59004FDEFF012F7
:1043E70077139004FFEFF09004F9E0FFA3E0FEC31A
:1043F7009F500EA3E09E4009EF60069004FAE0701C
:104407001A9004F9E06003024519A3E0FF70030264
:104417004519A3E0D39F5003024519E49004F8F02F
:104427009004FCE014FD9004F8E0FFC39D500CEFEE
:1044370012651F9004F8E004F080E5ED3333335440
:10444700F89004F8F09004FCE075F008A4FF9004DD
:10445700F8E0FDC39FE5F06480F874809850147409
:10446700562DF582E43400F583E4F09004F8E00477
:10447700F080D212451A126008E4FF12779D90006F
:1044870056E07004FF0276EF9004FDE064026003DB
:104497000245199004FFE0FFD3940140509005B006
:1044A700EFF0900056E0FF9005BAE4F0A3EFF0902C
:1044B700005BE0540F9005BCF09004FEE09005B15E
:1044C700F0E49004F8F09004F8E0FF2456F582E455
:1044D7003400F583E0FE74B22FF582E43405F583EA
:1044E700EEF09004F8E004F0E0B408DA227B017AF9
:1044F700007956900056E0FD90050AE4F0A3EDF030
:1045070090005BE0540F90050CF09004FEE0FF1262
:0245170039C1A8
:01451900227F
:105EDD00E49004D0F01276FB9004D0EFF0E4FDFCDA
:105EED009004D0E024FFFFE434FFFEC3ED9FEC9E51
:105EFD00501FEDAE047803C333CE33CED8F92456FC
:105F0D00F974003EFA7B0112652D0DBD00010C8068
:105F1D00CF9004D0E024FFFFE434FFFEEF7803C3FD
:105F2D0033CE33CED8F9FDAC069004D0E075F00831
:105F3D00A4FFC3ED9FEC95F0501374562DF58274AC
:105F4D00003CF583E4F00DBD00010C80DC9005BD37
:105F5D00E014F012451A126008900056E07004FF2C
:035F6D001276EFBA
:015F7000220E
:105C580078D17C047D017BFF7A7179E57E007F062F
:105C68001223061276FB9004D0EFF01276FBAD07F4
:105C7800E4FCECC39D501CEC75F008A42456F58296
:105C8800740035F0F583E070079004D0ECF08003E1
:105C98000C80DFE4FC74562CF582E43400F583E0D4
:105CA800FF74D12CF582E43404F583EFF00CECB4E6
:105CB80006E3E4FC9004D0E0FFECC39F5007EC122D
:105CC800651F0C80EFE4FC74D12CF582E43404F5F4
:105CD80083E0FD9004D0E024FFFFE434FFFEEF787A
:105CE80003C333CE33CED8F9FFEC7A002FFFEA3E58
:105CF800FE74562FF58274003EF583EDF00CECB47B
:085D080006C512451A026008ED
:1055BB0078D27C047D017BFF7A7179EB7E007F06CC
:1055CB001223061276FB9004D1EFF01276FBAD0797
:1055DB00E49004D0F09004D0E0FFC39D5022EF750F
:1055EB00F008A42456F582740035F0F583E07008BA
:1055FB009004D0E0A3F080089004D0E004F080D5B4
:10560B00E49004D0F09004D1E024FFFFE434FFFEDB
:10561B00EF7803C333CE33CED8F9FF9004D0E0FD3F
:10562B007A002FFFEA3EFE74562FF58274003EF58A
:10563B0083E0FF74D22DF582E43404F583EFF09010
:10564B0004D0E004F0E0B406BC9004D1E09004D0A8
:10565B00F09004D0E0FFD39401401DEF24FEFFE453
:10566B0034FFFEEF7803C333CE33CED8F912661373
:10567B009004D0E014F080D9E49004D0F09004D0E2
:10568B00E0FF24D2F582E43404F583E0FE74562F58
:10569B00F582E43400F583EEF09004D0E004F0E002
:0956AB00B406DA12451A02600887
:0B3793009004F8EBF0A3EAF0A3E9F0CB
:10379E0078047C057D017BFF7A7179F17E007F06CE
:1037AE001223061276FB900500E4F0A3EFF01276DA
:1037BE00FB900502E4F0A3EFF0E49004FEF0A3F01A
:1037CE00900502E0FEA3E0FF9004FEE0FCA3E0FD06
:1037DE00C39FEC9E40030238D9EDAE047803C33389
:1037EE00CE33CED8F9FF9004FBE0FBA3E0FAA3E0C2
:1037FE002FF9EA3EFA900001122345FD9004F8E0FD
:10380E00FBA3E0FAA3E0F99000011223456D6003DB
:10381E000238C59004FBE0FBA3E0FAA3E02FF9EA1F
:10382E003EFA900002122345FF9004F8E0FBA3E05D
:10383E00FAA3E0F99000021223456F707A9004FE0D
:10384E00E0FEA3E07803C333CE33CED8F9FF900465
:10385E00FBE0FBA3E0FAA3E02FF9EA3EFA900003A7
:10386E00122345FD9004F8E0FBA3E0FAA3E0F990E3
:10387E000003122345B5053F9004FBE0FBA3E0FADD
:10388E00A3E02FF9EA3EFA900004122345FF9004BC
:10389E00F8E0FBA3E0FAA3E0F9900004122345B58B
:1038AE0007159005BDE014F09004FEE0FFA3E0A321
:1038BE00CFF0A3EFF080149004FFE004F060030259
:1038CE0037CE9004FEE004F00237CE900500E07093
:1038DE0002A3E07008127492E49005B0F090050017
:1038EE00E0FFA3E09004FECFF0A3EFF0900502E01E
:1038FE00FEA3E0FF9004FEE0FCA3E0FDC39FEC9E60
:10390E00502FEDAE047803C333CE33CED8F9FF90EB
:10391E0004FBE0FBA3E0FAA3E02FF9EA3EFA1265FE
:10392E002D9004FFE004F070C39004FEE004F080DC
:10393E00BB900502E0FEA3E0FF900500E06E700371
:10394E00A3E06F6059E49004FEF0A3F09004FEE053
:10395E00FCA3E0FDC39406EC94005042900503E0F6
:10396E0024FFFF900502E034FFFEEF7803C333CE51
:10397E0033CED8F9FF9004FBE0FBA3E0FAA3E02FCF
:10398E00F9EA3EFAE92DF9EA3CFAE41223729004C0
:10399E00FFE004F070B69004FEE004F080AE9004F8
:1039AE00FBE0FBA3E0FAA3E0F912232C7004FF1254
:0239BE0076EFA2
:0139C00022E4
:0B4247009004F8EBF0A3EAF0A3E9F00C
:1042520078FF7C047D017BFF7A7179F77E007F060F
:104262001223061276FB9004FEEFF01276FBAD07E6
:10427200E4FCECC39D4003024354EC75F008A4FF38
:104282009004FBE0FBA3E0FAA3E02FF9EA35F0FA91
:10429200900001122345FF9004F8E0FBA3E0FAA38B
:1042A200E0F99000011223456F6003024350EC7560
:1042B200F008A4FF9004FBE0FBA3E0FAA3E02FF9CF
:1042C200EA35F0FA900002122345FF9004F8E0FB71
:1042D200A3E0FAA3E0F99000021223456F706FEC9D
:1042E20075F008A4FF9004FBE0FBA3E0FAA3E02F23
:1042F200F9EA35F0FA900003122345FF9004F8E042
:10430200FBA3E0FAA3E0F99000031223456F703E8D
:10431200EC75F008A4FF9004FBE0FBA3E0FAA3E035
:104322002FF9EA35F0FA900004122345FF9004F8C1
:10433200E0FBA3E0FAA3E0F9900004122345B507DD
:104342000D9005BDE014F09004FEECF080040C0228
:1043520042749004FEE0FCECC39D501CEC75F00826
:10436200A4FF9004FBE0FBA3E0FAA3E02FF9EA35F7
:10437200F0FA12652D0C80DF9004FEE06D6035E4EA
:10438200FCED24FFFFE434FFFEEF7803C333CE33AA
:10439200CED8F9FF9004FBE0FBA3E0FAA3E02FF9EB
:1043A200EA3EFAEC7E0029F9EE3AFAE41223720CA4
:0443B200ECB406CD94
:0143B60022E4
:0F75D100126A2C127773BF010312760AC2972237
:05000600E4FF0271FDA2
:10723B007F011271FD127761BF011212772BBF0113
:0E724B000C7F6F7E00126B5BE4FF12776722F0
:107259007F021271FD127761BF011212772BBF01F4
:0E7269000C7F707E0012694CE4FF12776722E2
:107277007F031271FD127761BF011212772BBF01D5
:0E7287000C7F717E0012694CE4FF12776722C3
:107295007F041271FD127761BF011212772BBF01B6
:0E72A5000C7F727E0012694CE4FF12776722A4
:1072B3007F051271FD127761BF011212772BBF0197
:0E72C3000C7F737E0012694CE4FF1277672285
:1072D1007F061271FD127761BF011212772BBF0178
:0E72E1000C7F747E0012694CE4FF1277672266
:1072EF007F071271FD127761BF011212772BBF0159
:0E72FF000C7F757E0012694CE4FF1277672247
:10730D007F081271FD127761BF011212772BBF0139
:0E731D000C7F767E0012694CE4FF1277672227
:10732B007F091271FD127761BF011212772BBF011A
:0E733B000C7F777E0012694CE4FF1277672208
:05001E007F0A0271FDE4
:05780F007F0B0271FD7A
:057814007F0C0271FD74
:0D000E007F0D1271FDE4FF127615D2CD2298
:1066AF00127779BF0108123F227F0212777F12778C
:1066BF0079EF64037031127731EF7012900008F0A8
:1066CF00900007F0900006F0900005F08011E49024
:1066DF00000CF090000BF090000AF0900009F012FF
:0A66EF006008E4FF12777F02609557
:10698600127779BF0108123F227F0212777F1277B2
:1069960079BF0321127731EF700A90000AF0900058
:1069A60009F08009E4900008F0900007F0126008F2
:0869B600E4FF12777F026095F7
:1069BE00127779BF0108123F227F0212777F12777A
:1069CE0079BF0321127731EF700A90000CF090001E
:1069DE000BF08009E4900006F0900005F0126008BC
:0869EE00E4FF12777F026095BF
:10701A00127779BF0108123F227F0212777F127717
:10702A0079BF030DE490000DF0126008E4FF1277B7
:04703A007F026095DC
:106C5E00127779BF0108123F227F0212777F1277D7
:106C6E0079BF0311E4900004F0900003F012600865
:086C7E00E4FF12777F0260952C
:106AFA0012776DEFB401057F010276EF127779BF45
:106B0A000108123F227F0212777F127779BF030DA5
:106B1A00E4900002F0126004E4FF12777F1260959D
:016B2A002248
:1074CC007F0112721CE4900527F0A3F0A3F0A30433
:0274DC00F0229C
:1074DE007F0212721CE4900531F0A3F0A3F0A30416
:0274EE00F0228A
:1074F0007F0312721CE490053CF0A3F0A3F0A304F8
:02750000F02277
:107502007F0412721CE4900548F0A3F0A3F0A304D8
:02751200F02265
:107514007F0112721CE490052CF0A3F0A3F0A304E5
:02752400F02253
:107526007F0212721CE4900537F0A3F0A3F0A304C7
:02753600F02241
:107538007F0312721CE4900543F0A3F0A3F0A304A8
:02754800F0222F
:10754A007F0412721CE490054EF0A3F0A3F0A3048A
:02755A00F0221D
:057819007F0102721C5A
:05781E007F0202721C54
:08765A00E4FF127701026B2B23
:08766200E4FF127707026B2B15
:057823007F0102721C50
:057828007F0202721C4A
:05782D007F0302721C44
:057832007F0402721C3E
:057837007F0502721C38
:05783C007F0102721C37
:057841007F0202721C31
:057846007F0302721C2B
:05784B007F0402721C25
:0E75EE007F0112721C1277559003A0EFF0225D
:057850007F0202721C22
:057855007F0102721C1E
:05785A007F0202721C18
:10738200E4FFFEFDFC127651AC06AD077E277F10AE
:0A7392001223B8AC06AD07026365D4
:08766A00E4FF1277730273E7DD
:08767200E4FF12776D0273E7DB
:1065C3001277AF9004D0EFF0D394145031E0FAC3B4
:1065D300940450028019EAD3941250139004D0E02B
:1065E300C3132485F582E43403F583E0FF80027F3F
:1065F300FF12674330A4077F3C7E00126B5B90045D
:0F660300D0E0D394144006126C35126008C2CD5B
:016612002265
:10002600127779BF010812678B7F0212777F1277EA
:0D00360079BF0308126003E4FF12777F22F8
:10715600127779BF010812678B7F0212777F127749
:1071660079BF030DE4900004F0126008E4FF127783
:027176007F2276
:10717800127779BF010812678B7F0212777F127727
:1071880079BF030DE4900003F0126008E4FF127762
:027198007F2254
:10719A00127779BF010812678B7F0212777F127705
:1071AA0079BF030DE4900002F0126008E4FF127741
:0271BA007F2232
:10706100127779BF010E7B017A0579311267917F21
:107071000212777F127779BF0308126003E4FF12CF
:03708100777F22F4
:106C8600127779BF010E7B017A0579311267917F00
:106C96000212777F127779BF030DE4900004F01299
:086CA6006008E4FF12777F2271
:106CAE00127779BF010E7B017A0579311267917FD8
:106CBE000212777F127779BF030DE4900003F01272
:086CCE006008E4FF12777F2249
:106CD600127779BF010E7B017A0579311267917FB0
:106CE6000212777F127779BF030DE4900002F0124B
:086CF6006008E4FF12777F2221
:10708400127779BF010E7B017A05793C1267917FF3
:107094000212777F127779BF0308126003E4FF12AC
:0370A400777F22D1
:106CFE00127779BF010E7B017A05793C1267917F7D
:106D0E000212777F127779BF030DE4900004F01220
:086D1E006008E4FF12777F22F8
:106D2600127779BF010E7B017A05793C1267917F54
:106D36000212777F127779BF030DE4900003F012F9
:086D46006008E4FF12777F22D0
:106D4E00127779BF010E7B017A05793C1267917F2C
:106D5E000212777F127779BF030DE4900002F012D2
:086D6E006008E4FF12777F22A8
:1070A700127779BF010E7B017A0579481267917FC4
:1070B7000212777F127779BF0308126003E4FF1289
:0370C700777F22AE
:106D7600127779BF010E7B017A0579481267917FF8
:106D86000212777F127779BF030DE4900004F012A8
:086D96006008E4FF12777F2280
:106D9E00127779BF010E7B017A0579481267917FD0
:106DAE000212777F127779BF030DE4900003F01281
:086DBE006008E4FF12777F2258
:106DC600127779BF010E7B017A0579481267917FA8
:106DD6000212777F127779BF030DE4900002F0125A
:086DE6006008E4FF12777F2230
:1070CA00127779BF010E7B017A05792C1267917FBD
:1070DA000212777F127779BF0308126003E4FF1266
:0370EA00777F228B
:106DEE00127779BF010E7B017A05792C1267917F9C
:106DFE000212777F127779BF030DE4900004F01230
:086E0E006008E4FF12777F2207
:106E1600127779BF010E7B017A05792C1267917F73
:106E26000212777F127779BF030DE4900003F01208
:086E36006008E4FF12777F22DF
:106E3E00127779BF010E7B017A05792C1267917F4B
:106E4E000212777F127779BF030DE4900002F012E1
:086E5E006008E4FF12777F22B7
:1070ED00127779BF010E7B017A0579371267917F8F
:1070FD000212777F127779BF0308126003E4FF1243
:03710D00777F2267
:106E6600127779BF010E7B017A0579371267917F18
:106E76000212777F127779BF030DE4900004F012B7
:086E86006008E4FF12777F228F
:106E8E00127779BF010E7B017A0579371267917FF0
:106E9E000212777F127779BF030DE4900003F01290
:086EAE006008E4FF12777F2267
:106EB600127779BF010E7B017A0579371267917FC8
:106EC6000212777F127779BF030DE4900002F01269
:086ED6006008E4FF12777F223F
:10711000127779BF010E7B017A0579431267917F5F
:107120000212777F127779BF0308126003E4FF121F
:03713000777F2244
:106EDE00127779BF010E7B017A0579431267917F94
:106EEE000212777F127779BF030DE4900004F0123F
:086EFE006008E4FF12777F2217
:106F0600127779BF010E7B017A0579431267917F6B
:106F16000212777F127779BF030DE4900003F01217
:086F26006008E4FF12777F22EE
:106F2E00127779BF010E7B017A0579431267917F43
:106F3E000212777F127779BF030DE4900002F012F0
:086F4E006008E4FF12777F22C6
:10713300127779BF010E7B017A05794E1267917F31
:107143000212777F127779BF0308126003E4FF12FC
:03715300777F2221
:106F5600127779BF010E7B017A05794E1267917F10
:106F66000212777F127779BF030DE4900004F012C6
:086F76006008E4FF12777F229E
:106F7E00127779BF010E7B017A05794E1267917FE8
:106F8E000212777F127779BF030DE4900003F0129F
:086F9E006008E4FF12777F2276
:106FA600127779BF010E7B017A05794E1267917FC0
:106FB6000212777F127779BF030DE4900002F01278
:086FC6006008E4FF12777F224E
:08767A00E4FF1276F50273E74C
:08768200E4FF1276FB026B2B02
:08768A00E4FF12770D0273E723
:08769200E4FF1277130273E715
:08769A00E4FF1277190273E707
:10734900E49004D0F012771F9004D0EFF075F003A9
:0D735900A4FF1271BC9004D0E0FF0273E7A6
:0876A200E4FF1277250273E7F3
:10755C00E4FF12773DEFC3940A50030273E71274F1
:01756C00140A
:01756D0022FB
:0876AA00E4FF1277430273E7CD
:0876B200E4FF1277490273E7BF
:0876BA00E4FF12774F0273E7B1
:10691200E49004D0F01277559004D0EFF01273E7B0
:106922009003A0E0FF9004D0E06F601D1263C4905A
:1069320004D0E09003A0F0127761BF010C7F797E52
:0969420000126B5BE4FF127767A1
:01694B002229
:1069F600E49004D0F012775B9004D0EFF0126B2B8A
:106A0600127761BF010D9004D0E02442FFE433FE0B
:106A160012694C127803BF010C7F797E0012694C13
:056A2600E4FF127809F5
:016A2B002248
:10666100E49004D0F0A3F012770D9004D0EFF01273
:1066710077379004D1EFF0900056E0B4340A30A49B
:10668100077F687E00126B5BD2CD9004D1E070036E
:10669100D29722127779BF0107D2977F0212777FB3
:0D66A100127779BF0307C297E4FF12777FDD
:0166AE0022C9
:05785F007F0602721C0F
:0876C200E4FF12772B0273E7CD
:057864007F0702721C09
:0876CA00E4FF1277310273E7BF
:057869007F0802721C03
:0876D200E4FF1277370273E7B1
:05786E007F0E0271FD18
:107440007F0112721CE4900392F0A3F0900376F097
:057450009005D8F022B8
:10756E007F0212721CE490039EF0A3F0900391F040
:01757E0022EA
:105AD400900376E0707A127779BF0113126C3590D7
:105AE40000027480F0A3F01260087F0212777F1224
:105AF4007779BF030B126C35126008E4FF12777FCD
:105B0400900392E0FCA3E0FD7B017A0479D0900538
:105B14001A7408F07FA01262367FAA127636E490D7
:105B240004D8F09004D8E0FFC39408501774D02F21
:105B3400F582E43404F583E0FF1276369004D8E06D
:105B440004F080DF7F551276369003767401F022DC
:105B5400900376E0FFB40224900393E02408F090CD
:105B64000392E03400F0E0B4150CA3E0B4600790B5
:105B740003767403F022E4900376F022EFB4031268
:105B8400126C359000017480F0A3F0A3F0A3F0121E
:025B94006008A7
:015B960022EC
:105E4800900391E0B4013190039EE0FCA3E0FD7B58
:105E5800017A03799590050F7408F07FA01264D930
:105E680090039FE02408F090039EE03400F0E49053
:105E78000391F07FAA12763690039EE07002A3E0A9
:105E8800700A126C359000017480801A90039EE0AD
:105E9800B41517A3E0B46012126C35900001748039
:105EA800F0A3F0A3F0A3F0026008127779BF011302
:105EB800126C359000027480F0A3F01260087F0223
:105EC80012777F127779BF030B126C35126008E4E2
:055ED800FF12777F229C
:102166004106010041060A00410607004106080033
:10217600410602004105FF0041060C00410604002D
:10218600410600004106060041060500410603001F
:0821960041060B00410609009F
:1075B200438901758C3C758AB0D2AFD2A9D28C2294
:0E75FC00438910758DFF758B9CD2AFD2AB22E8
:03000B000247C5E4
:1047C500C0E0C0F0C083C082C0D075D000C000C0BA
:0D47D50001C002C003C004C005C006C0073B
:1047E20090051EE4F0A3F0C28D758C3C758AB01260
:1047F20076E990051EEFF012776D90051FEFF090AD
:104802000601E004F0E0B40A1990060AE004F09010
:104812000606E004F0900601E4F0900605E060026E
:1048220014F090060AE0C394044002E4F0900606F5
:10483200E0C394184002E4F0900603E0600214F032
:10484200900607E0B40104A3E004F01277EBBF0185
:1048520014900602E004F0E0D3947840081277F155
:10486200900602E4F0900609E0B4011590060BE010
:1048720004F0E0D394784009900609E4F090060B26
:10488200F090051EE0FFB45F159005FFE004F0E034
:10489200B4140B90060CE004F09005FFE4F0EF6412
:1048A2005F602590051EE0FF6431601CEF64696063
:1048B20017EF646A6012900604E004F0E0D394C833
:1048C2004006E4F0FF1276EF90051EE07015A3E0BB
:1048D200B40210900600E004F0E0C3940A4004B26F
:0348E200CDE4F032
:1048E500D007D006D005D004D003D002D001D00027
:0B48F500D0D0D082D083D0F0D0E032D1
:03001B0002657209
:10657200C0E0C0F0C083C082C0D075D000C000C0EF
:0D65820001C002C003C004C005C006C00770
:10658F00E4FF1276E9C28F758DFF758B9CEFB42EE9
:09659F00051234E58003124B7073
:1065A800D007D006D005D004D003D002D001D00047
:0B65B800D0D0D082D083D0F0D0E032F1
:0577790090060AE0FF8C
:01777E0022E8
:06777F0090060AEFF02263
:06778500900607EFF02260
:05778B00900608E0FF7C
:0177900022D6
:06779100E4900608F0225E
:0577970090060CE0FF6C
:01779C0022CA
:06779D0090060CEFF02243
:0677A300E4900604F02250
:0677A900900608EFF0223B
:0577AF00900606E0FF5A
:0177B40022B2
:0B761500900606EFF0E4900601F02262
:0577B500900605E0FF55
:0177BA0022AC
:0B762000900605EFF0E4900601F02258
:0577BB00900603E0FF51
:0177C00022A6
:0677C100900603EFF02228
:0677C700E4900602F0222E
:0677CD00E490060BF0221F
:0677D300900609EFF02210
:0577D900900609E0FF2D
:0177DE002288
:0B219E004805DF140F09040C220006A6
:04681B00E0FD7F8A93
:10681F00D2A0EF54FEFFE4FEEF30E004D2A18002DD
:10682F00C2A1D2A2C2A2EFC313FF0EEEB408E9E4D5
:10683F00FEED30E004D2A18002C2A1D2A2C2A2ED2D
:0A684F00C313FD0EEEB408E9C2A069
:01685900221C
:10685A00D2A0EF4401FFE4FDEF30E004D2A18002B0
:10686A00C2A1D2A2C2A2EFC313FF0DEDB408E9E49C
:10687A00FDEEC313FE30A1054480FE8004EE547F72
:0E688A00FED2A2C2A20DEDB408E7C2A0AF0676
:0168980022DD
:10609500E4FF74DF2FF582E43405F583E0FE75F047
:1060A5000A84FDEE75F00A8474E72FF582E4340561
:1060B500F583E5F0F0EDC454F0FE74E72FF582E4C6
:1060C5003405F583E02EF00FEFB408C6E4FD7F8EAE
:1060D50012681F7D807F8012681F9005E8E0FD7FB4
:1060E5008C12681FA3E0FD7F8812681FA3E0FD7F67
:1060F5008612681F9005EE12681B9005EBE0FD7F88
:106105008412681FA3E0FD7F8212681FA3E0FD7F54
:0F6115008012681FA312681B7D807F8E02681F97
:1061B0007F8C12685A9005E8EFF07F8812685AA326
:1061C000EFF07F8612685AA3EFF07F8412685AA31B
:1061D000EFF07F8212685AA3EFF07F8012685AEFC7
:1061E000547FA3F07F8A12685AA3EFF0E4FF74E7AC
:1061F0002FF582E43405F583E0FEC4540FFDEE5420
:106200000FFE74DF2FF582E43405F583EEF0ED75B3
:10621000F00AA4FE74DF2FF582E43405F583E02E46
:06622000F00FEFB408C806
:016226002255
:0B762B00C2A0C2A2E4FD7F8002681F25
:1021A90041059D0041059C004105A2004105A5008E
:1021B9004105AC0041059100410590004305A90086
:1021C90000004205A300464205A7007842058D009C
:1021D9000042058B000042059A000042059E004618
:1021E9004205A000784205AE000041058F00410577
:1021F900AD004105A6004105920041059600430541
:0A2209009300000043059700000059
:0776E200D2AFD2A8D288222A
:030003000276DAA8
:0876DA00C2A8208E02D28E32FC
:10736600E490059DF090059CF09005A5F09005A28F
:0C737600F09005ACF0900590F0A3F02220
:104B700030B2059005A580039005A2E004F09005F1
:104B800091E004F0E0D394A07480948F4007C28E2B
:104B9000D2A8027366900590E01460351460691421
:104BA0007003024C2F24036003024C9F9005A5E084
:104BB000D394004003024C9F9005A2E0D39446504A
:104BC00003024CA6900590E004F0E49005A5F08067
:104BD000329005A5E0FFFD9005A2E02DFDE433FC39
:104BE000D3ED948CEC648094804003024C9FEFD30F
:104BF00094015003024CA630A802C2A8900590E090
:104C000004F0E49005A2F0229005A2E0D3940140C4
:104C1000139005A5E090059DF0E49005A5F09005A2
:104C200090E004F09005A5E0D3941940798070904D
:104C300005A5E0D39401405C9005A2E0FF90059C9F
:104C4000F0E49005A2F09005907402F09005ACE0BD
:104C5000131313541FFE24A9F582E43405F583E0F1
:104C6000FD25E0F090059DE0D39F400E74A92EF540
:104C700082E43405F583E04401F09005ACE004F0F3
:104C8000E0D39417400EC28E12736690058F7401A4
:104C9000F0D2A8229005A2E0D39419400980001216
:074CA0007366D2A8C28E2248
:10467A00E49004F8F01276E99004F8EFF090058FD0
:10468A00E0640160030247C4F0C2A89005A6E014E2
:10469A0060270460030247C29005A9E0900593F0E1
:1046AA009005AAE0900594F09005ABE0900595F08E
:1046BA009005A67401F00247C29005A9E0FF900593
:1046CA0093E06F60030247AA9005AAE0FE90059462
:1046DA00E06E60030247AA9005ABE0FD900595E005
:1046EA006D60030247AA900597E06F7012A3E06E0F
:1046FA00700DA3E0B50508900592E0702380009044
:10470A0005A9E0900597F09005AAE0900598F09029
:10471A0005ABE0900599F09005AD7401F01277C7EA
:10472A009005927401F01277A3900598E0FFE4FCDB
:10473A00FDFE7808122434C004C005C006C00790E4
:10474A000597E0FFE4FCFDFE7810122434D003D074
:10475A0002D001D000EF4BFBEE4AFAED49F9EC48E2
:10476A00F8900599E0FFEB4FFFEAFEE9FDE8FC7BD4
:10477A00017A0479F912578FEF600D90059674014A
:10478A00F0FF1277671277A3E49005A9F0A3F0A3CC
:10479A00F0900593F0A3F0A3F0E49005A6F080183A
:1047AA009005A9E0900593F09005AAE0900594F091
:0A47BA009005ABE0900595F0D2A841
:0147C40022D2
:1034E50030B2059005A580039005A2E004F0900593
:1034F50091E004F0E0D394A07480948F4006C28ECE
:10350500D2A88027900590E014605A147003023504
:10351500F91470030236442403600302378B9005C7
:10352500A5E0D394004007D2A8C28E027366900529
:103535008DE0FEA3E0FF7C007D0F1223A6EF243C67
:10354500FFE43EFE9005A2E0D39FEC9E50030237B8
:1035550092900590E004F09005A3EEF0A3EFF0E45F
:10356500A3F00235F490058BE0FEA3E0FF7C007D1F
:103575000F1223A6EF2478FFE43EFE9005A5E0F99F
:10358500FD9005A2E02DFDE433FCD3ED9FEC9E40BC
:1035950022E9701C90058CE004F0700690058BE024
:1035A50004F090058EE004F0700690058DE004F0BF
:1035B50002378BE9D39401500302379290058BE0D3
:1035C500FEA3E0FF7C007D0F1223A6EF2478FFE425
:1035D5003E9005A7F0A3EFF0E490058BF0A3F0A3D0
:1035E500F0A3F030A802C2A8900590E004F0E490A2
:1035F50005A2F0229005A2E0D3940040139005A502
:10360500E090059DF0E49005A5F0900590E004F0AC
:103615009005A3E0FEA3E0FF9005A8E02FFF90052D
:10362500A7E03EFEEF7803CEC313CE13D8F9FF9083
:1036350005A5E0D39FE49E500302379202378B9095
:1036450005A5E0D3940050030237609005A2E0FF82
:1036550090059CF0E49005A2F09005907402F0901E
:1036650005ACE0131313541FFE24A9F582E43405B9
:10367500F583E025E0F090059DE0FDD39F400E74B5
:10368500A92EF582E43405F583E04401F09005ACFC
:10369500E004F0E0D394175003023760C28E900522
:1036A5009CE02DFEE43390059AF0A3CEF0127366EC
:1036B5009005AFE004F070069005AEE004F09005CB
:1036C500A7E0FEA3E0FF9005A1E02FF09005A0E0A4
:1036D5003EF0E0C313FEA3E013FF9005A7EEF0A3B1
:1036E500EFF09005A0EEF0A3EFF0D39005AFE094D6
:1036F500019005AEE09400405F90059EE0FEA3E0DA
:10370500FF9005A3E0FCA3E0FD9FFFEC9EFED3EF39
:10371500941EEE9400401590059FE09DFF90059E38
:10372500E09CFED3EF941EEE9400502C9005A3E090
:10373500FEA3E0FF90059FE02FF090059EE03EF090
:10374500E0C313FEA3E013FF9005A3EEF0A3EFF093
:1037550090059EEEF0A3EFF0D2A8229005A3E0FE1F
:10376500A3E0FF9005A8E02FFF9005A7E03EFEEF40
:103775007803CEC313CE13D8F9FF9005A2E0D39FEB
:0E378500E49E40098000127366D2A8C28E2214
:0577DF009005ADE0FF84
:0177E4002282
:0677E500E49005ADF02266
:0577EB00900592E0FF93
:0177F0002276
:0677F100E4900592F02275
:0577F700900596E0FF83
:0177FC00226A
:0677FD00E4900596F02265
:0876510090059AE0FEA3E0FFA2
:01765900220E
:102213004805BE00000000000000004105CB00445B
:1022230005C7000000004105BD004105B0004105A0
:02223300C600E3
:10004600E49004E3F0A3F09004E7F09004F0F0A34A
:10005600F0A3F0A3F0A3F0A3F0A3F0A3F01276E9C7
:100066009004F0EFF01277559004F1EFF012775B01
:100076009004F2EFF01276F59004F3EFF01276FBAF
:100086009004F4EFF01276FB9004E7EFF012773D60
:100096009004F5EFF012770D9004F6EFF012771357
:1000A6009004F7EFF012467A1277DFEF64016003EF
:1000B600020FBC900598E0FFE4FCFDFE78081224D0
:1000C60034C004C005C006C007900597E0FFE4FCF5
:1000D600FDFE7810122434D003D002D001D000EFF8
:1000E6004BFBEE4AFAED49F9EC48F8900599E0FF2A
:1000F600EB4FFFEAFEE9FDE8FC9004DF1224B19025
:1001060004F0E024CE24FC4003020C4724FC400308
:10011600020D0724FC4003020DC724FC4003020E17
:100126008724E47003020F581470030204CD245F81
:100136006003020FB9E4FF12779D900599E0FF5422
:10014600F060030202D4900597E0C4540FFE9004B9
:10015600F5E06E60030202D4EEC3940A4003020285
:10016600D49004F1E0B4010CEF540F2477F582E447
:100176003403800D900599E0540F2446F582E4344B
:1001860000F583E09004E8F0900597E0FFC4540F73
:100196009004E9F0EF540FA3F0900598E0FFC454E3
:1001A6000F9004EBF0EF540FA3F0900597E0900446
:1001B600EDF0900598E09004EEF0900599E0FF9040
:1001C60004EFF09004E8E0FE64337003020258EE98
:1001D60070030202589004F7E0FED39401404C905D
:1001E60005B0EEF09004E8E0FD9005BAE4F0A3ED6A
:1001F600F0EF540FA3F09004F6E09005B1F0E49010
:1002060004E5F09004E5E0FF24E8F582E43404F523
:1002160083E0FE74B22FF582E43405F583EEF090A8
:1002260004E5E004F0E0B408DA80567B017A04794C
:10023600E89004E8E0FD90050AE4F0A3EDF09005EF
:1002460099E0540F90050CF09004F6E0FF1239C1C6
:10025600802F9004FB7401F0A37400F0A37456F091
:100266007B017A0479E81237937B017A0479E89066
:100276000599E0540F9004FCF07F92123B9B020A12
:10028600FE9004F4E0FF9005BDE0C39F5003E00438
:10029600F0126C357B017A0479E8900599E0540FE9
:1002A6009004FCF07F91123B9B9004FB7401F0A339
:1002B6007404F0A374E8F07B017A0079561256B400
:1002C60012451A1260087F5F1276EF020FB97B01A2
:1002D6007A0479D79004DFE0FCA3E0FDA3E0FEA357
:1002E600E0FF12629DEF3395E0FE9004E3F0A3EF8A
:1002F600F04E7003020FB99004DFE0FCA3E0FDA30B
:10030600E0FEA3E0FF9005C7E0F8A3E0F9A3E0FA5A
:10031600A3E0FBC312242370091277D9EF601F02F2
:100326000FB99004DFE0FCA3E0FDA3E0FEA3E0FF2D
:100336009005C71224B11277CD7F011277D39004AE
:10034600E3E0FEA3E0FF64014E70089004E8743316
:10035600F08018EF64024E70089004E87434F08060
:100366000A900599E0540F9004E8F078E97C047D42
:10037600017B017A0479D77E007F0412230690055B
:1003860099E0FF9004EFF09004E8E0C39432502720
:100396009004F1E0B4010CEF540F2477F582E434B5
:1003A60003800D900599E0540F2446F582E434004D
:1003B600F583E09004E8F09004E8E0FF643370030E
:1003C600020451EF70030204519004F7E0FFD39446
:1003D6000140519005B0EFF09004E8E0FF9005BAB7
:1003E600E4F0A3EFF0900599E0540F9005BCF0906F
:1003F60004F6E09005B1F0E49004E5F09004E5E041
:10040600FF24E8F582E43404F583E0FE74B22FF5A8
:1004160082E43405F583EEF09004E5E004F0E0B400
:1004260008DA80667B017A0479E89004E8E0FD90BA
:10043600050AE4F0A3EDF0900599E0540F90050C41
:10044600F09004F6E0FF1239C1803F9004F4E0FF1B
:100456009005BDE0C39F5003E004F07B017A047968
:10046600E8900599E0540F9004FCF07F92123B9BB4
:100476009004FB7401F0A37400F0A37456F07B01A2
:100486007A0479E8123793020AFE126C357B017AF8
:100496000479E8900599E0540F9004FCF07F9112DE
:1004A6003B9B9004FB7401F0A37404F0A374E8F082
:1004B6007B017A0079561256B412451A1260087FEB
:1004C6005F1276EF020C41E4FF12779D900599E0EA
:1004D600FF54F06003020856900597E0C4540FFEDF
:1004E6009004F5E06E6003020856EEC3940A4003DA
:1004F6000208569004F1E0B4010CEF540F2477F58E
:1005060082E43403800D900599E0540F2446F58269
:10051600E43400F583E09004E8F0900597E0FFC42A
:10052600540F9004E9F0EF540FA3F0900598E0FF04
:10053600C4540F9004EBF0EF540FA3F0900597E02E
:100546009004EDF0900598E09004EEF0900599E0A7
:10055600FF9004EFF09004F3E0640160030206D517
:100566009004E8E0FE643370030205F5EE700302C2
:1005760005F59004F7E0FED39401404C9005B0EEEB
:10058600F09004E8E0FD9005BAE4F0A3EDF0EF5436
:100596000FA3F09004F6E09005B1F0E49004E5F0C6
:1005A6009004E5E0FF24E8F582E43404F583E0FEF8
:1005B60074B22FF582E43405F583EEF09004E5E09D
:1005C60004F0E0B408DA80567B017A0479E89004F6
:1005D600E8E0FD90050AE4F0A3EDF0900599E054FB
:1005E6000F90050CF09004F6E0FF1239C1802F7BC6
:1005F600017A0479E8900599E0540F9004FCF07FA5
:1006060092123B9B9004FB7401F0A37400F0A37458
:1006160056F07B017A0479E8123793020AFE9004B9
:10062600F4E0FF9005BDE0C39F5003E004F07B01BA
:100636007A0479E8900599E0540F9004FCF07F91D4
:10064600123B9B9004FB7401F0A37400F0A3745654
:10065600F07B017A0479E81242479004F4E09004B2
:10066600E5F09004E5E0FFD394014026EF24FEFF79
:10067600E434FFFEEF7803C333CE33CED8F92456E5
:10068600F974003EFA7B0112661C9004E5E014F052
:1006960080D0E49004E5F09004E5E0FFC3940650B2
:1006A6001474562FF582E43400F583E4F09004E5E3
:1006B600E004F080E29004FB7401F0A37404F0A35C
:1006C60074E8F07B017A0079561256B4020AFE905D
:1006D60004F3E064026003020FB99004E8E0FF64EB
:1006E600336003EF702F7B017A0479E8900599E077
:1006F600540F9004FCF07F92123B9B9004FB740114
:10070600F0A37400F0A37456F07B017A0479E81222
:100716003793020AFEE49004E6F09004F4E0FF90BA
:1007260004E6E0FEC39F40030207CFEE75F008A47F
:10073600FFAEF02457F58274003EF583E0FD900489
:10074600E9E0FCED6C707974582FF58274003EF583
:1007560083E0FF9004EAE0FEEF6E70649004E6E04A
:1007660075F008A4FFAEF02459F58274003EF583B7
:10077600E0FD9004EBE0FCED6C7045745A2FF582B9
:1007860074003EF583E0FF9004ECE0FEEFB5063022
:100796009004E6E0A3F075F008A42456F974003539
:1007A600F0FA7B01C0039004FBEBF0A37404F0A302
:1007B60074E8F0D0031256B412451A126008800984
:1007C6009004E6E004F00207209004F4E0FF9004B1
:1007D600E7E06F6003020FB99004E6F09004F4E0DE
:1007E600FD9004E6E0FFC39D4003020FB9EF75F0EC
:1007F60008A42456F582740035F0F583E07049901C
:1008060005BDE0C39D5003E004F07B017A0479E85E
:10081600900599E0540F9004FCF07F91123B9B9059
:1008260004E6E075F008A42456F9740035F0FA7B66
:1008360001C0039004FBEBF0A37404F0A374E8F08A
:10084600D0031256B4020AFE9004E6E004F0808C4F
:100856007B017A0479D79004DFE0FCA3E0FDA3E0F6
:10086600FEA3E0FF12629DEF3395E0FE9004E3F0F5
:10087600A3EFF04E7003020FB99004DFE0FCA3E093
:10088600FDA3E0FEA3E0FF9005C7E0F8A3E0F9A30F
:10089600E0FAA3E0FBC312242370091277D9EF60B4
:1008A6001F020FB99004DFE0FCA3E0FDA3E0FEA366
:1008B600E0FF9005C71224B11277CD7F011277D3DE
:1008C6009004E3E0FEA3E0FF64014E70089004E8A4
:1008D6007433F08018EF64024E70089004E87434A4
:1008E600F0800A900599E0540F9004E8F078E97CCE
:1008F600047D017B017A0479D77E007F04122306EA
:10090600900599E0FF9004EFF09004E8E0C394327C
:1009160050279004F1E0B4010CEF540F2477F582D0
:10092600E43403800D900599E0540F2446F582E4E3
:100936003400F583E09004E8F09004F3E06401608D
:1009460003020ABB9004E8E0FF643370030209DE89
:10095600EF70030209DE9004F7E0FFD394014051E3
:100966009005B0EFF09004E8E0FF9005BAE4F0A33C
:10097600EFF0900599E0540F9005BCF09004F6E076
:100986009005B1F0E49004E5F09004E5E0FF24E87A
:10099600F582E43404F583E0FE74B22FF582E43484
:1009A60005F583EEF09004E5E004F0E0B408DA80A3
:1009B600567B017A0479E89004E8E0FD90050AE4A4
:1009C600F0A3EDF0900599E0540F90050CF090041B
:1009D600F6E0FF1239C1802F7B017A0479E8900591
:1009E60099E0540F9004FCF07F92123B9B9004FB1D
:1009F6007401F0A37400F0A37456F07B017A0479B5
:100A0600E8123793020AFE9004F4E0FF9005BDE079
:100A1600C39F5003E004F07B017A0479E8900599BE
:100A2600E0540F9004FCF07F91123B9B9004FB7402
:100A360001F0A37400F0A37456F07B017A0479E800
:100A46001242479004F4E09004E5F09004E5E0FFDC
:100A5600D394014026EF24FEFFE434FFFEEF780333
:100A6600C333CE33CED8F92456F974003EFA7B014F
:100A760012661C9004E5E014F080D0E49004E5F0E2
:100A86009004E5E0FFC39406501474562FF582E4F3
:100A96003400F583E4F09004E5E004F080E290048D
:100AA600FB7401F0A37404F0A374E8F07B017A00F0
:100AB6007956020C2E9004F3E064026003020C41A6
:100AC6009004E8E0FF64336003EF70357B017A043D
:100AD60079E8900599E0540F9004FCF07F92123B60
:100AE6009B9004FB7401F0A37400F0A37456F07B92
:100AF600017A0479E812379312451A126008020F38
:100B0600B9E49004E6F09004F4E0FF9004E6E0FE19
:100B1600C39F4003020BBBEE75F008A4FFAEF024A2
:100B260057F58274003EF583E0FD9004E9E0FCEDA4
:100B36006C707974582FF58274003EF583E0FF904F
:100B460004EAE0FEEF6E70649004E6E075F008A437
:100B5600FFAEF02459F58274003EF583E0FD900463
:100B6600EBE0FCED6C7045745A2FF58274003EF58F
:100B760083E0FF9004ECE0FEEFB506309004E6E07B
:100B8600A3F075F008A42456F9740035F0FA7B0139
:100B9600C0039004FBEBF0A37404F0A374E8F0D058
:100BA600031256B412451A12600880099004E6E052
:100BB60004F0020B0C9004F4E0FF9004E7E06F7081
:100BC6007A9004E6F09004F4E0FD9004E6E0FFC3BA
:100BD6009D5068EF75F008A42456F582740035F030
:100BE600F583E0704E9005BDE0C39D5003E004F030
:100BF6007B017A0479E8900599E0540F9004FCF0A3
:100C06007F91123B9B9004E6E075F008A42456F908
:100C1600740035F0FA7B01C0039004FBEBF0A3747B
:100C260004F0A374E8F0D0031256B412451A126009
:100C36000880089004E6E004F0808A1277E5020F47
:100C4600B97F351276EF78CF7C047D017B017A057A
:100C560079277E007F04122306900598E0FFE4FCC6
:100C6600FDFE7808122434C004C005C006C00790F3
:100C76000597E0FFE4FCFDFE7810122434D003D083
:100C860002D001D000EF4BFBEE4AFAED49F9EC48F1
:100C9600F8900599E0FFEB4FFFEAFEE9FDE8FC90CE
:100CA60004D31224B17B017A0479CF12515A50032E
:100CB600020FB91275E090052AE06409703D9005AF
:100CC60029E06409702F900528E0B40922900527D1
:100CD600E004F0E4A3F0A3F0900527E0B4150AE4DD
:100CE600F090052A04F0020FB990052A020F3290FF
:100CF6000528020F3B900529020F4890052A020F8E
:100D0600537F391276EF78CF7C047D017B017A051B
:100D160079317E007F04122306900598E0FFE4FCFB
:100D2600FDFE7808122434C004C005C006C0079032
:100D36000597E0FFE4FCFDFE7810122434D003D0C2
:100D460002D001D000EF4BFBEE4AFAED49F9EC4830
:100D5600F8900599E0FFEB4FFFEAFEE9FDE8FC900D
:100D660004D31224B17B017A0479CF124CA7500325
:100D7600020FB91275E0900534E06409703D9005E4
:100D860033E06409702F900532E0B40922900531F2
:100D9600E004F0E4A3F0A3F0900531E0B4150AE412
:100DA600F090053404F0020FB9900534020F32902A
:100DB6000532020F3B900533020F48900534020FAF
:100DC600537F3D1276EF78CF7C047D017B017A0557
:100DD600793C7E007F04122306900598E0FFE4FC30
:100DE600FDFE7808122434C004C005C006C0079072
:100DF6000597E0FFE4FCFDFE7810122434D003D002
:100E060002D001D000EF4BFBEE4AFAED49F9EC486F
:100E1600F8900599E0FFEB4FFFEAFEE9FDE8FC904C
:100E260004D31224B17B017A0479CF12490050030E
:100E3600020FB91275E090053FE06409703D900518
:100E46003EE06409702F90053DE0B4092290053C10
:100E5600E004F0E4A3F0A3F090053CE0B4150AE446
:100E6600F090053F04F0020FB990053F020F329053
:100E7600053D020F3B90053E020F4890053F020FCD
:100E8600537F411276EF78CF7C047D017B017A0592
:100E960079487E007F04122306900598E0FFE4FC63
:100EA600FDFE7808122434C004C005C006C00790B1
:100EB6000597E0FFE4FCFDFE7810122434D003D041
:100EC60002D001D000EF4BFBEE4AFAED49F9EC48AF
:100ED600F8900599E0FFEB4FFFEAFEE9FDE8FC908C
:100EE60004D31224B17B017A0479CF124A38500315
:100EF600020FB91275E090054BE06409704C90053D
:100F06004AE064097039900549E0B409259005481E
:100F1600E004F0E4A3F0A3F0900548E0B4150AE479
:100F2600F090054B04F0020FB990054B7401F002E6
:100F36000FB9900549E004F0E4A3F0A3F0807490A3
:100F4600054AE004F0E4A3F0806990054BE004F064
:100F56008061E4FF1277679005CB7401F09004F18D
:100F6600E0B40124A3E0FF900599E0540F2477F53F
:100F760082E43403F583EFF07B017A0379779005F9
:100F86000F7410F07D2080249004F2E0FF90059904
:100F9600E0540F2446F582E43400F583EFF07B013C
:100FA6007A00794690050F7410F07D307C157FA08D
:0C0FB6001264D91277E51243B70240CB59
:057803009005CBE0FF41
:01780800225D
:067809009005CBEFF02218
:1067D3009005B1E09004CFF07B017A0579B2900582
:1067E300BAE0FEA3E0FDAC06A3E0FE30A4299005C9
:1067F300B0E0D3940040209004CFE0FF90050AEC72
:10680300F0A3EDF0A3EEF01239C17F0A7E001274FB
:076813006A9005B0E014F0EB
:01681A00225B
:105D1000FFFFFFFFFFFFFFFFFFFFFFFFFFFFFFFF93
