:03000000025FC9D3
:0C5FC900787FE4F6D8FD7581210260109D
:106B0400126FDE12755212758D1276731275BC12E5
:106B1400736E12757175B10CE4F5B2126223123AF8
:0C6B240039120046120D5212605580F527
:0F7562004F4B535049005350494F4B004F4B0074
:1019B40041066B0044066E000000004106670041CA
:1019C40006720041066D00430663FF7562430660BC
:1019D400FF7568430668FF756E41066C0041066634
:0119E4000002
:030023000258D5AB
:0D58D500C0E0C0F0C083C082C0D075D00814
:1058E2009005CDE4F0209803025984C298E599F01E
:1058F20012767ABF6922900376E0B4011B9005CD3F
:10590200E0FFB4AA089003767402F08075EF645544
:105912007070900376F0806A12767AEF646A706231
:105922009005CDE0FFB4AA1890066CE070129003C7
:105932009474AAF09006667401F090066CF08042AE
:1059420090066CE06401703A900666E02494F58259
:10595200E43403F583EFF0900666E004F0E0B40A65
:1059620021E4F090066CF0900394E0B4AA0F900347
:105972009DE0B455089003917401F080057F5512A3
:0959820075C7309904C299C209ED
:0B598B00D0D0D082D083D0F0D0E0322A
:03004300025EA8B2
:0D5EA800C0E0C0F0C083C082C0D075D0083B
:105EB500E4FFE59A30E069539AFEAF9B90066BE0EC
:105EC5006401703090066DE0FEB40113900667E042
:105ED500FD04F0746E2DF582E43406F583EFF0EFE2
:105EE500B44F11EE700E90066D04F0900667F090B9
:105EF500066EEFF0900667E0B4022590066BE4F0BD
:105F050090066DF0786E7C067D01900668E0FBA337
:105F1500E0FAA3E0F91223EEEF700590067204F0A3
:0A5F2500E59A30E105539AFDC20928
:0B5F2F00D0D0D082D083D0F0D0E03280
:0975C7002009FDEFD209F599221B
:1069D7009006A7EBF0A3EAF0A3E9F09006A7E0FB87
:1069E700A3E0FAA3E0F91220B360179006A7A3E487
:1069F70075F001122194A9F0FA1220B3FF1275C79E
:036A070080D92211
:0975D0002009FDEFD209F59B2210
:106A0A009006AAEBF0A3EAF0A3E9F09006AAE0FB4D
:106A1A00A3E0FAA3E0F91220B360179006AAA3E450
:106A2A0075F001122194A9F0FA1220B3FF1275D061
:036A3A0080D922DE
:0975D9002009FDEFD209F5992209
:106A3D009006ADEBF0A3EAF0A3E9F09006ADE0FB14
:106A4D00A3E0FAA3E0F91220B360179006ADA3E41A
:106A5D0075F001122194A9F0FA1220B3FF1275D925
:036A6D0080D922AB
:106FDE00E5A2543FF5A253BAFE759850759A5075B6
:106FEE00D7C875D6FE758E14438E01D2AC75AF011F
:036FFE00D2AF22ED
:0B6396009003A1EBF0A3EAF0A3E9F0F4
:1063A1009003CC7401F0A37403F0A374A4F09003E0
:1063B100A1E0F9A3E0FAA3E09006A1C9F0A3EAF0F5
:1063C100A3E9F09003CCE0F9A3E0FAA3E09006A4DE
:1063D100C9F0A3EAF0A3E9F07B017A0379CF126651
:0A63E100BE7B017A0379CF0269D771
:102C11000000000000FF6F960102661400FF00062D
:102C21000203011500FF71DB0304021900FF71F9B2
:102C31000405031D00FF72170506041F00FF72350E
:102C41000607052000FF72530708062100FF727175
:102C51000809072600FF728F090A082A00FF72ADD2
:102C61000A0B092C00FF72CB0B0C0A0B00FF001E94
:102C71000C0D0B0C00FF77A00D0E0C0D00FF77A5BE
:102C81000E660D0E00FF000E0F0F0F1201FF66748E
:102C91001010100F01FF68FC1111111001FF6934B0
:102CA1001212121401FF6FBA1313131101FF6BDA21
:102CB1001414141301FF6AA31516183502FF746C5E
:102CC1001617153902FF747E1718163D02FF74900E
:102CD1001815174102FF74A2191A1C4503FF74B499
:102CE1001A1B194903FF74C61B1C1A4D03FF74D824
:102CF1001C191B5103FF74EA1D1E1E5204FF77AA03
:102D01001E1D1D5304FF77AF1F1F1F1F05FF75EB0E
:102D11002020202006FF75F32122645407FF77B499
:102D21002223215507FF77B92324225607FF77BEB7
:102D31002425235707FF77C32560245807FF77C849
:102D41002627295908FF77CD2728265A08FF77D249
:102D51002829275B08FF77D72926285C08FF77DC1D
:102D61002A2B2B2A09FF757F2B2A2A5E09FF77E17F
:102D71002C2D2D000AFF77E62D2C2C000AFF77EB76
:102D81002E2E2E2E0BFF73222F2F2F2F0CFF75FBB4
:102D9100303030300DFF7603313131310EFF65397E
:102DA1003232323515FF70F63333333215FF711875
:102DB1003434343315FF713A3535353415FF002677
:102DC1003636363916FF6C023737373616FF6C2A1E
:102DD1003838383716FF6C523939393816FF7001D7
:102DE1003A3A3A3D17FF6C7A3B3B3B3A17FF6CA2EC
:102DF1003C3C3C3B17FF6CCA3D3D3D3C17FF7024FA
:102E01003E3E3E4118FF6CF23F3F3F3E18FF6D1AB8
:102E11004040403F18FF6D424141414018FF70471B
:102E21004242424519FF6D6A4343434219FF6D9285
:102E31004444444319FF6DBA4545454419FF706A3E
:102E4100464646491AFF6DE2474747461AFF6E0A52
:102E5100484848471AFF6E32494949481AFF708D60
:102E61004A4A4A4D1BFF6E5A4B4B4B4A1BFF6E821F
:102E71004C4C4C4B1BFF6EAA4D4D4D4C1BFF70B083
:102E81004E4E4E511CFF6ED24F4F4F4E1CFF6EFAED
:102E91005050504F1CFF6F22515151501CFF70D3A5
:102EA100525252521DFF760B535353531EFF76134A
:102EB1005454545421FF761B5555555522FF762302
:102EC1005656565623FF762B5757575724FF72E90C
:102ED1005858585825FF76335959595926FF74FCCB
:102EE1005A5A5A5A27FF763B5B5B5B5B28FF764356
:102EF1005C5C5C5C29FF764B5D5D5D5D2AFF6888EB
:102F01005E5E5E5E2BFF696C5F5F5F5F5FFF6626E3
:102F11006062256107FF77F06161616160FF76534F
:102F21006264606307FF77F56363636362FF765BE7
:102F31006421626507FF77FA6565656564FF7663FD
:102F410066010E6600FF77FF6768686966FF73E0D8
:102F51006867676A66FF750E6969696967FF581274
:082F61006A6A6A6A68FF5D7F7D
:1019E5004105D200410604004105D3004505D70055
:1019F500000001004505E100000001004505EC007F
:101A0500000001004505F800000001004505DC0067
:101A1500000001004505E700000001004505F30051
:101A2500000001004505FE00000001004105E6013A
:101A35004105F2014105F1004105FD0041060300A4
:101A4500410606014106090041060C0941060E073B
:101A550041060F0141061000410611004106050B24
:101A65004106080041060B0041060D00410607022C
:101A750041060A004105D001410612014105D10187
:1024A300E4900583F0A3F0A3F0A3F0A3F030B30C02
:1024B30030B60930B70630A5030228A7127571306C
:1024C300B30C30B60930B70630A5030228A712773C
:1024D3003420B309900583E4F0A37438F020B609DF
:1024E300900583E4F0A37434F020B709900583E4E6
:1024F300F0A3742CF020A509900583E4F0A3741CC9
:10250300F0900583E07004A3E06438600302283C84
:102513001277227F0112771630B30302283C90050D
:1025230086E0600302283C127704EF70069005D31F
:10253300E06013127704EF640170489005D3E0FF65
:102543006004645F703D12771C900585EFF0C394BF
:102553001440C59005D37402F0E4900583F0A3F012
:10256300D2CDC2977F0112719D1276BCBF010A7F43
:102573006F7E00126A760227867F787E001268C219
:102583000227869005D3E0FF6442600FEF64436047
:102593000AEF64446005EF6445702F12771C9005C1
:1025A30085EFF0C3940A500302251BE4900583F0E2
:1025B300A3F07B017A0579DC12504D40077F797EC9
:1025C30000126A761275710227869005D3E0FF64C4
:1025D30046600FEF6447600AEF64486005EF6449A3
:1025E300702F12771C900585EFF0C3940A500302F5
:1025F300251BE4900583F0A3F07B017A0579E712AC
:102603004F2940077F797E00126A7612757102277F
:10261300869005D3E0FF644A600FEF644B600AEFD6
:10262300644C6005EF644D702F12771C900585EFA5
:10263300F0C3940A500302251BE4900583F0A3F032
:102643007B017A0579F3124BAD40077F797E001247
:102653006A761275710227869005D3E0FF644E6097
:102663000FEF644F600AEF64506005EF6451702F01
:1026730012771C900585EFF0C3940A500302251BC3
:10268300E4900583F0A3F07B017A0579FE124CD820
:1026930040077F797E00126A761275710227869051
:1026A30005D3E0B40C2B12771C900585EFF0C3948F
:1026B30014500302251BE4900583F0A3F09005D387
:1026C300742FF0127704900587EFF01273870227B7
:1026D300869005D3E0B40D2B12771C900585EFF09F
:1026E300C39414500302251BE4900583F0A3F090D8
:1026F30005D37430F01276FE900587EFF0127387DE
:102703000227869005D3E0B40E1F12771C9005852F
:10271300EFF0C39414500302251BE4900583F0A348
:10272300F09005D37431F0805A9005D3E0B4662459
:1027330012771C900585EFF0C39414500302251BF8
:10274300E4900583F0A3F09005D37467F07F011242
:1027530071BC802F9005D3E0B42A3412771C900506
:1027630085EFF0C39414500302251BE4900583F016
:10277300A3F09005D3745DF01276E6900587EFF031
:102783001273879005867401F012772202251B903D
:1027930005D3E0642D702512771C900585EFF0C3F7
:1027A3009414500302251BE4900583F0A3F07F7972
:1027B300FE126A761263EB125CE780679005D3E042
:1027C300642C600302251B12771C900585EFF0C370
:1027D3009414500302251BE4900583F0A3F07F7942
:1027E300FE126A761263EB12684C125CE77B017A85
:1027F3000379779005BF7410F07D207C157FA012BC
:10280300644F1275717B017A0079469005BF74108D
:10281300F07D307C157FA012644F1275711262E156
:1028230012757175C760E49005D3F090058604F0C6
:1028330012772275C13002251B30B3FD30B6FA3052
:10284300B7F730A5F412757130B3FD30B6FA30B76F
:10285300F730A5F4E4FF127716E4FF12772E900504
:10286300D3E0645E60231276BCEF60119005D3E081
:10287300D3940E40047F0180067F0080027F01EF26
:1028830060077F787E001268C2900586E07007902B
:1028930005D204F08005E49005D2F0900583E0FEB4
:0828A300A3E0FF227E0F7FFF7E
:0128AB00220A
:104A8100E4900581F0A3F0FF1224A3900581EEF0DC
:104A9100A3EFF0127788900581E0640F7003A3E023
:104AA100F46003024B82EF64016003024B829005C4
:104AB100D3E0FF601C640B6018EF640C6013EF64BB
:104AC1000D600EEF640E6009EF642D6004EFB42CED
:104AD1002A900649E0540FFFBF0808900604E0043D
:104AE100F08005E4900604F0900604E0D3940340BE
:104AF1000A7F1412773AE4900604F012778E127747
:104B010046EF6005E49005D2F0900649E0540FFFAE
:104B1100640860069005D27401F0EF24FE60292438
:104B2100FE603524FC60412407705612774CEF700B
:104B310050900581F0A3741CF09005D3E0B43106C8
:104B4100127432127571803412774CEF7033900504
:104B510081F0A37434F0802412774CEF7023900518
:104B610081F0A3742CF08014127746EF7013127742
:104B71004CEF700D900581F0A37438F07F0512772A
:104B810052900581E0FEA3E0FFEE701DEF24D4609A
:104B91001224F8600B24FC600D241C700C7F03228E
:0B4BA1007F02227F01227F00227FFFA5
:014BAC0022E6
:10004600E4FF900580F0124A81EF147003020385E5
:1000560014700302088414700302035F2403600310
:10006600020D27127704EF70069005D3E060121296
:100076007704EF640170229005D3E0FF6003B45F5C
:100086001812771C900580EFF0C394145003020DEC
:10009600279005D374020201E99005D3E0FF64427C
:1000A600600FEF6443600AEF64446005EF644570D7
:1000B6002D12771C900580EFF0C3940A40657B01F2
:1000C6007A0579DC12504D40571276F2BF010C7F4B
:1000D600797E00126A76E4FF1276F80201B4900582
:1000E600D3E0FF6446600FEF6447600AEF64486040
:1000F60005EF6449703012771C900580EFF0C394C9
:100106000A40207B017A0579E7124F2940121276C0
:10011600F2BF010C7F797E00126A76E4FF1276F850
:100126000201B40201BA9005D3E0FF644A600FEF02
:10013600644B600AEF644C6005EF644D702E1277D5
:100146001C900580EFF0C3940A401F7B017A057965
:10015600F3124BAD40121276F2BF010C7F797E008E
:10016600126A76E4FF1276F8804480489005D3E060
:10017600FF644E600FEF644F600AEF64506005EF56
:100186006451704312771C900580EFF0C3940A40C7
:10019600237B017A0579FE124CD840121276F2BF03
:1001A600010C7F797E00126A76E4FF1276F81275EA
:1001B600710203599005D3E075F008A42414F58262
:1001C600E5F0342C020D1F9005D3E0B40B1E127718
:1001D6001C900580EFF0C394145003020D27900580
:1001E600D3742EF07F061275B10203599005D3E041
:1001F600B40C1E12771C900580EFF0C394145003C4
:10020600020D279005D3742FF07F061275B10203F5
:10021600599005D3E0B40D1E12771C900580EFF0BF
:10022600C394145003020D279005D37430F07F0653
:100236001275B10203599005D3E0B40E1E12771C55
:10024600900580EFF0C394145003020D279005D358
:100256007431F07F061275B10203599005D3E0B4EC
:10026600661E12771C900580EFF0C39414500302AB
:100276000D279005D37467F07F061275B1020359F6
:100286009005D3E0B42A1E12771C900580EFF0C3C8
:1002960094145003020D279005D3745DF07F061267
:1002A60075B10203599005D3E0642D701F12771CB7
:1002B600900580EFF0C394145003020D277F797EDA
:1002C60000126A761263EB125CE7805E9005D3E05B
:1002D600642C706712771C900580EFF0C39414505D
:1002E60003020D277F797E00126A761263EB12688D
:1002F6004C125CE77B017A0379779005BF7410F0A6
:100306007D207C157FA012644F1275717B017A00E7
:1003160079469005BF7410F07D307C157FA012647D
:100326004F1275711262E112757175C7607F061200
:1003360075B112772275C130020D279005D3E0758D
:10034600F008A42414F582E5F0342CF583E49390A8
:1003560005D3F0127722020D279005D3E0B45F0C87
:10036600127704EF6006125E14020D279005D3E0A3
:1003760075F008A42415F582E5F0342C020D1F90C3
:1003860005D3E012224404410F0453100462110401
:10039600711204841304961407121F0726200824DA
:1003A6002F08103004A83204BA3304CC3404DE35E6
:1003B60004F03605023705143805263905383A059E
:1003C6004A3B055C3C056E3D05803E05923F05A413
:1003D6004005B64105C84205DA4305EC4405FE452D
:1003E60006104606224706344806464906584A0677
:1003F6006A4B067C4C068E4D06A04E06B24F06C4CE
:100406005006D65106E75206FD53073A54074E5595
:10041600076356077557078958079D5907B15A0745
:10042600C25B07D35C07E45D07F85E080B5F08371D
:1004360061084A63085D6500000871900674E0B4BF
:100446006305E4F0020871900674020806900675CA
:10045600E0B40C02801C900675020806900676E051
:10046600B41F02800D90067602080690067AE0B464
:1004760007067401F002087190067A0208069006D3
:1004860077E0B41705E4F0020871900677020806D3
:10049600900678E0B43B05E4F00208719006780215
:1004A60008069005D7E0B41405E4F002087190053B
:1004B600D70208069005D8E0B40905E4F0020871F1
:1004C6009005D80208069005D9E0B40905E4F002C3
:1004D60008719005D90208069005DAE0B40905E42A
:1004E600F00208719005DA0208069005E1E0B414FE
:1004F60005E4F00208719005E10208069005E2E0C5
:10050600B40905E4F00208719005E20208069005B8
:10051600E3E0B40905E4F00208719005E302080679
:100526009005E4E0B40905E4F00208719005E402E0
:1005360008069005ECE0B41405E4F0020871900595
:10054600EC0208069005EDE0B40905E4F002087136
:100556009005ED0208069005EEE0B40905E4F00208
:1005660008719005EE0208069005EFE0B40905E46F
:10057600F00208719005EF0208069005F8E0B41441
:1005860005E4F00208719005F80208069005F9E006
:10059600B40905E4F00208719005F9020806900511
:1005A600FAE0B40905E4F00208719005FA020806BB
:1005B6009005FBE0B40905E4F00208719005FB0222
:1005C60008069005DCE0B41405E4F0020871900515
:1005D600DC0208069005DDE0B40905E4F0020871C6
:1005E6009005DD0208069005DEE0B40905E4F00298
:1005F60008719005DE0208069005DFE0B40905E4FF
:10060600F00208719005DF0208069005E7E0B414D1
:1006160005E4F00208719005E70208069005E8E097
:10062600B40905E4F00208719005E8020806900591
:10063600E9E0B40905E4F00208719005E90208064C
:100646009005EAE0B40905E4F00208719005EA02B3
:1006560008069005F3E0B41405E4F002087190056D
:10066600F30208069005F4E0B40905E4F002087107
:100676009005F40208069005F5E0B40905E4F002D9
:1006860008719005F50208069005F6E0B40905E440
:10069600F00208719005F60208069005FEE0B41413
:1006A60005E4F00208719005FE0208069005FFE0D9
:1006B600B40905E4F00208719005FF0208069006E9
:1006C60000E0B40905E4F00208719006000208068D
:1006D600900601E0B40904E4F08006900601E00407
:1006E600F09005E6E0B401067402F002086E90058B
:1006F600E67401F002086E9005F2E0B46305740139
:10070600F080069005F2E004F002086E9005F1E034
:10071600B46304E4F080069005F1E004F002086E8C
:100726009005FDE0B46304E4F080069005FDE00466
:10073600F002086E900603E0B40704E4F080069029
:100746000603E004F002086E900606E0B4010574A4
:1007560009F08006900606E014F002086E9006097D
:10076600E0700404F08005E4900609F002086E903B
:10077600060CE0B40904E4F0800690060CE004F0F0
:1007860002086E90060EE0B40704E4F080069006B8
:100796000EE004F002086E900605E0B40A04E4F0E8
:1007A6008006900605E004F002086E900608E0B4A4
:1007B6000B05E4F0020871900608804490060BE0F1
:1007C600B40B05E4F002087190060B803390060D19
:1007D600E0B40B05E4F002087190060D8022900645
:1007E60007E0B401057402F080069006077401F074
:1007F600807690060AE0B42604E4F0806E90060A3D
:10080600E004F08066125A528061900612E0B4014C
:10081600057402F080069006127401F0804A900575
:10082600D0E0B40104E4F080069005D07401F080B5
:100836003790060FE0B40104E4F0800690060F74CA
:1008460001F08024900610E0B40104E4F0800690E4
:1008560006107401F08011900611E0B40104E4F072
:1008660080069006117401F0125CE79005D3E075DE
:10087600F008A42412F582E5F0342C020D1F900531
:10088600D3E012224409400F095210096511097874
:1008960012098B13099D140BB81F0BCC200CC22F09
:1008A6000CAE3009AF3209BE3309CD3409DC350947
:1008B600EB3609FA370A09380A18390A273A0A3686
:1008C6003B0A453C0A543D0A633E0A723F0A814090
:1008D6000A90410A9F420AAE430ABD440ACC450A21
:1008E600DB460AE9470AF8480B07490B154A0B236A
:1008F6004B0B314C0B3F4D0B4D4E0B5F4F0B6D5061
:100906000B7B510B8D520BA3530BE0540BF4550C80
:1009160009560C1B570C2F580C43590C575A0C648C
:100926005B0C715C0C825D0C965E0CA95F0CD5614C
:100936000CE8630CFB6500000D0F900674E0700672
:100946007463F0020D0F900674020CA4900675E015
:10095600B40106740CF0020D0F900675020CA490FB
:100966000676E0B40106741FF0020D0F90067602BB
:100976000CA490067AE0B401067407F0020D0F90FD
:10098600067A020CA4900677E070067417F0020D42
:100996000F900677020CA4900678E07006743BF080
:1009A600020D0F900678020CA49005D7E0700302A2
:1009B6000B539005D7020CA49005D8E07003020BE8
:1009C600819005D8020CA49005D9E07003020B8132
:1009D6009005D9020CA49005DAE07003020B819011
:1009E60005DA020CA49005E1E07003020B539005B2
:1009F600E1020CA49005E2E07003020B819005E28F
:100A0600020CA49005E3E07003020B819005E3025B
:100A16000CA49005E4E07003020B819005E4020C3F
:100A2600A49005ECE07003020B539005EC020CA4B5
:100A36009005EDE07003020B819005ED020CA49089
:100A460005EEE07003020B819005EE020CA4900502
:100A5600EFE07003020B819005EF020CA49005F8FD
:100A6600E07003020B539005F8020CA49005F9E020
:100A76007003020B819005F9020CA49005FAE07050
:100A860003020B819005FA020CA49005FBE07003AB
:100A9600020B819005FB020CA49005DCE0700302BA
:100AA6000B539005DC020CA49005DDE07003020BED
:100AB600819005DD020CA49005DEE07003020B8137
:100AC6009005DE020CA49005DFE07003020B819016
:100AD60005DF020CA49005E7E0700280709005E740
:100AE600020CA49005E8E07003020B819005E80271
:100AF6000CA49005E9E07003020B819005E9020C55
:100B0600A49005EAE0700280729005EA020CA490B7
:100B160005F3E0700280369005F3020CA49005F40C
:100B2600E0700280569005F4020CA49005F5E07082
:100B36000280489005F5020CA49005F6E07002804C
:100B46003A9005F6020CA49005FEE070067414F0C7
:100B5600020D0F9005FE020CA49005FFE0700280C6
:100B66001A9005FF020CA4900600E07002800C901B
:100B76000600020CA4900601E070067409F0020D4E
:100B86000F900601020CA49005E6E0B4010674027B
:100B9600F0020D0C9005E67401F0020D0C9005F2C2
:100BA600E0B401057463F080069005F2E014F002EB
:100BB6000D0C9005F1E070057463F080069005F168
:100BC600E014F0020D0C9005FDE070057463F080F2
:100BD600069005FDE014F0020D0C900603E070058A
:100BE6007407F08006900603E014F0020D0C9006E0
:100BF60006E0B401057409F08006900606E014F0DC
:100C0600020D0C900609E0700404F08005E49006DD
:100C160009F0020D0C90060CE070057409F08006D0
:100C260090060CE014F0020D0C90060EE0700574B0
:100C360007F0800690060EE014F0020D0C900605F3
:100C4600E07005740AF08006900605E014F0020DC7
:100C56000C900608E0700280189006088040900606
:100C66000BE07002800B90060B803390060DE0704F
:100C760006740BF0020D0F90060D8022900607E019
:100C8600B401057402F080069006077401F08076C0
:100C960090060AE070057426F0806E90060AE0144D
:100CA600F080661251618061900612E0B40105740D
:100CB60002F080069006127401F0804A9005D0E09A
:100CC600B40104E4F080069005D07401F0803790FA
:100CD600060FE0B40104E4F0800690060F7401F0FC
:100CE6008024900610E0B40104E4F080069006101B
:100CF6007401F08011900611E0B40104E4F080065E
:100D06009006117401F0125CE79005D3E075F008C7
:100D1600A42413F582E5F0342CF583E4939005D3EF
:100D2600F09005D3E075F008A42416F582E5F034BA
:100D36002CF583E493FB740193FA740293F99005FE
:0C0D4600D4EBF0A3EAF0A3E9F002226A6B
:0D7571007F047E347DDCDDFEDEFADFF600F7
:01757E0022EA
:04740A00AB07AA061C
:0F740E00E4FCECC39BE49A50061275710C80F3FA
:01741D00224C
:05767A009005D3E0FFC4
:01767F0022E8
:067680009005D3EFF0229B
:057686009005E6E0FFA5
:01768B0022DC
:05768C009005F2E0FF93
:0176910022D6
:057692009005F1E0FF8E
:0176970022D0
:057698009005FDE0FF7C
:01769D0022CA
:05769E00900603E0FF6F
:0176A30022C4
:0576A400900606E0FF66
:0176A90022BE
:0576AA00900609E0FF5D
:0176AF0022B8
:0576B00090060CE0FF54
:0176B50022B2
:0576B60090060EE0FF4C
:0176BB0022AC
:0576BC0090060FE0FF45
:0176C10022A6
:0576C200900610E0FF3E
:0176C70022A0
:0576C800900611E0FF37
:0176CD00229A
:0576CE00900605E0FF3D
:0176D3002294
:0576D400900608E0FF34
:0176D900228E
:0576DA0090060BE0FF2B
:0176DF002288
:0576E00090060DE0FF23
:0176E5002282
:0576E600900607E0FF23
:0176EB00227C
:0576EC0090060AE0FF1A
:0176F1002276
:0576F2009005D2E0FF4D
:0176F7002270
:0676F8009005D2EFF02224
:0576FE00900612E0FF00
:017703002263
:057704009005D0E0FF3C
:01770900225D
:105CE7009005E6E0900683F09005F2E0900684F0D8
:105CF7009005F1E0900685F09005FDE0900686F0AE
:105D0700900603E0900687F0900606E0900688F07C
:105D1700900609E0900689F090060CE090068AF05C
:105D270090060EE090068BF090060FE090068CF040
:105D3700900610E090068DF0900611E090068EF028
:105D4700900605E090068FF0900607E0900690F029
:105D57009005D0E0900691F0900612E0900692F040
:105D67007B017A0679839005BF7410F07D407C151E
:085D77007FA012644F02757158
:103A39007B017A0379779005CA7410F07D207C1593
:103A49007FA01261531275717B017A007946900546
:103A5900CA7410F07D307C157FA012615312757104
:103A69007B017A0679839005CA7410F07D407C1534
:103A79007FA0126153127571900683E0FF9005E6ED
:103A8900F0900684E09005F2F0900685E09005F14B
:103A9900F0900686E09005FDF0900687E090060319
:103AA900F0900688E0900606F0900689E0900609F5
:103AB900F090068AE090060CF090068BE090060ED6
:103AC900F090068CE090060FF090068DE0900610BD
:103AD900F090068EE0900611F090068FE0900605B2
:103AE900F0900690E0900607F0900691E09005D0DE
:103AF900F0900692E0900612F0EFD39402400690FF
:103B090005E67401F0900684E0D3946340069005BD
:103B1900F27401F0900685E0D3946340069005F1B4
:103B29007401F0900686E0D3946340069005FD7415
:103B390001F0900687E0D394074005E4900603F06E
:103B4900900689E0D394014005E4900609F09006B7
:103B59008AE0D39409400690060C7409F090068B0C
:103B6900E0D39407400690060E7407F090068CE0A7
:103B7900D394014005E490060FF090068DE0D394AC
:103B8900014005E4900610F090068EE0D3940140C0
:103B990005E4900611F090068FE0D3940A40069050
:103BA9000605740AF0900690E0D394024006900648
:103BB900077402F0900691E0D3940140069005D075
:103BC9007401F0900692E0D39402400690061274B4
:0E3BD90001F090060CE075F003A4FF02715C91
:1063EB009005E67401F09005F2F0E49005F1F09061
:1063FB0005FDF0900603F090060604F0E490060904
:10640B00F090060C7409F090060E7407F0A374015B
:10641B00F0E4A3F0A3F0900605740AF0E4900608EC
:10642B00F090060BF090060DF09006077402F0E466
:05643B0090060AF022AA
:10684C007F109003777401F0A3DFFC900046740175
:10685C00F0E4A3F0A37403F0A37405F0A37402F0A6
:10686C00A314F0A3F0A37406F0A37401F0A3F0A397
:0B687C00F0A3F0A3F0A3F0A3F0A3F042
:0168870022EE
:10717D000000000000000000000000000000000002
:10718D0000000000000000000000000000000000F2
:101A85005500313F065B4F666D7D077F6F777C396B
:101A95005E797176385C733E48038701020408104D
:101AA50020408042038F40006030000100000000AC
:101AB5000000000000000000000000000000000021
:101AC5000000000000000000000000000000000011
:101AD5000000000000000000000000006320005628
:101AE50000000000000000000000000000000000F1
:101AF50000000000000000000000000000000000E1
:101B050000000000000000000000000000000000D0
:101B150000000000000000000000000000000000C0
:101E0500410000004103A0005003770101010101D9
:101E1500010101010101010101010150004601001B
:101E2500030502010106010101010101010142034E
:101E35009200004103760042039E00004103910099
:106B3000C282E4FDFCC280EF30E004D2818002C258
:106B40008100000000D280EFC313FF0DBD00010CD7
:0A6B5000ED64084C70DFC280C281C2
:016B5A002218
:106B5B00C283E4FDFCC280EF30E004D2818002C22C
:106B6B008100000000D280EFC313FF0DBD00010CAC
:0A6B7B00ED64084C70DFC280C28197
:016B850022ED
:106B8600C2CCE4FDFCC280EF30E004D2818002C2B8
:106B96008100000000D280EFC313FF0DBD00010C81
:0A6BA600ED64084C70DFC280C2816C
:016BB00022C2
:09739E00AE077F401273A77FC007
:0D73A700D282000000000000C282026B30A4
:0C733C001273A7D2827F401273487FC0FA
:0D734800D283000000000000C283026B5BD6
:0C735500127348D2837F401273617FC026
:0D736100D2CC000000000000C2CC026B8600
:05599600E4900001F0A7
:10599B001276B612739E90000CE0900010F09000FF
:1059AB000BE090000FF090000AE090000EF09000DA
:1059BB0009E0FF90000DE0900009F090000DEFF072
:1059CB00E4FB74012BF582E43400F583E0FF126BEA
:1059DB003074092BF582E43400F583E0FF126B3051
:1059EB000BEBB408DDEE2488FF12733CE4FB74115F
:1059FB002BF582E43400F583E0FF126B5B74192BFB
:105A0B00F582E43400F583E0FF126B5B0BEBB4081B
:105A1B00DDEE2488FF127355E4FB74212BF582E431
:105A2B003400F583E0FF126B8674292BF582E43486
:105A3B0000F583E0FF126B860BEBB408DDEE2488D8
:065A4B00FF127361D2CCD2
:015A51002232
:1067080012739EE4FBAF06126B30AF06126B300BB0
:10671800EBB408F17F8F12733CE4FBAF06126B5B9E
:10672800AF06126B5B0BEBB408F17F8F127355E465
:10673800FBAF06126B86AF06126B860BEBB408F143
:076748007F8F127361D2CCB8
:01674F002227
:10622300E4900580F0E4FFE4FE900580E02487F528
:1062330082E43403F583E0FDEF75F008A42401F54F
:1062430082E43400F583E5822EF582E43583F58319
:10625300EDF00EEEB408D20FEFB406CB12599B90BB
:106263000580E0B401077F7B7E00126A767F1E12F1
:0E627300745A900580E004F0E0C3940840A740
:0162810022FA
:10745A00EFD39400400B7EFF7DFFDDFEDEFA1F8036
:01746A00EF32
:01746B0022FE
:106BB100E4FFE4FEEF75F008A42401F582E434005B
:106BC100F583E5822EF582E43583F583E4F00EEE5C
:086BD100B408E10FEFB406DA8D
:016BD9002299
:0A759B007F78900056E4F0A3DFFCB7
:0175A50022C3
:1069A200E4FF12770AEF6401702A126BB1900000C3
:1069B200E05403FF2401F582E43400F5837440F0CF
:1069C20012599BE4FF127710900000E004F0E0B44B
:0469D2000402E4F0E7
:0169D600229E
:103BE7001276C2EF6003023C8C126BB11260CD906B
:103BF7000033E0900008F0900031E0900007F0906B
:103C07000674E0FF75F00A842431F582E43400F588
:103C170083E0900006F0EF75F00A84743125F0F523
:103C270082E43400F583E0900005F0900675E0FF2C
:103C370075F00A842431F582E43400F583E09000BE
:103C47000AF0EF75F00A84743125F0F582E4340048
:103C5700F583E0900009F0900676E0FF75F00A849E
:103C67002431F582E43400F583E090000CF0EF7521
:103C7700F00A84743125F0F582E43400F583E0908E
:103C8700000B023D25126BB11260CD900033E0901E
:103C9700000CF0900031E090000BF0900674E0FF0C
:103CA70075F00A842431F582E43400F583E090004E
:103CB7000AF0EF75F00A84743125F0F582E43400D8
:103CC700F583E0900009F0900675E0FF75F00A842F
:103CD7002431F582E43400F583E0900008F0EF75B5
:103CE700F00A84743125F0F582E43400F583E0901E
:103CF7000007F0900676E0FF75F00A842431F5821C
:103D0700E43400F583E0900006F0EF75F00A847460
:103D17003125F0F582E43400F583E0900005F0905A
:103D2700067AE02431F582E43400F583E090000D53
:103D3700F0900677E0FF75F00A842431F582E434C9
:103D470000F583E0900004F0EF75F00A84743125E4
:103D5700F0F582E43400F583E0900003F0900678F4
:103D6700E0FF75F00A842431F582E43400F583E03E
:103D7700900002F0EF75F00A84743125F0F582E4C3
:093D87003400F583E01259972283
:10719D00AD07126BB1900040E0900002F074312DFC
:0F71AD00F582E43400F583E0900001F002599B75
:1071BC00AD07126BB190003FE0900002F074312DDE
:0F71CC00F582E43400F583E0900001F002599B56
:10741E00126BB1900031E0900002F09000017437D1
:04742E00F002599B74
:1073B400126BB1900031E0900002F0900040E09038
:0673C4000001F002599BDC
:10738700AD07126BB174312DF582E43400F583E05B
:07739700900001F002599B78
:106AD400AD07126BB1ED75F00A842431F582E4340C
:106AE40000F583E0900002F0ED75F00A847431251E
:106AF400F0F582E43400F583E0900001F002599B44
:10628200AB07AA06126BB17C007D64AF03AE0212AB
:10629200213F74312FF58274003EF583E0900003B4
:1062A200F07C007D0AAF03AE0212213F7C007D0A22
:1062B20012213F74312DF58274003CF583E0900089
:1062C20002F0AE02AF037C007D0A12213F74312D31
:0F62D200F58274003CF583E0900001F002599BC7
:06633D007B017A0579D70F
:10634300126BB11220B32431F582E43400F583E0FB
:10635300900004F09000011220CC2431F582E43443
:1063630000F583E0900003F09000021220CC24316A
:10637300F582E43400F583E0900002F0900003120C
:1063830020CC2431F582E43400F583E0900001F061
:0363930002599B11
:10407C00126BB19000AEE060179005B97401F0A31B
:10408C007400F0A374AEF07B017A00793012369A8A
:10409C009000A6E060179005B97401F0A37400F0CD
:1040AC00A374A6F07B017A00792C12369A90009EAC
:1040BC00E060179005B97401F0A37400F0A3749E2E
:1040CC00F07B017A00792812369A900096E06017FE
:1040DC009005B97401F0A37400F0A37496F07B0101
:1040EC007A00792412369A90008EE060179005B908
:1040FC007401F0A37400F0A3748EF07B017A007944
:10410C002012369A900086E060179005B97401F081
:10411C00A37400F0A37486F07B017A00791C12362C
:10412C009A90007EE060179005B97401F0A37400BA
:10413C00F0A3747EF07B017A00791812369A900005
:10414C0076E060179005B97401F0A37400F0A374C5
:10415C0076F07B017A00791412369A90006EE0604A
:10416C00179005B97401F0A37400F0A3746EF07B82
:10417C00017A00791012369A900066E0601790056B
:10418C00B97401F0A37400F0A37466F07B017A009B
:10419C00790C12369A90005EE060179005B97401A4
:1041AC00F0A37400F0A3745EF07B017A007908121E
:1041BC00369A900056E060179005B97401F0A3741C
:1041CC0000F0A37456F07B017A00790412369A221F
:10369A009005B6EBF0A3EAF0A3E9F0A3E0FBA3E000
:1036AA00FAA3E0F99000011220CC2431F582E43427
:1036BA0000F583E0FF9005B6E0FBA3E0FAA3E0F98A
:1036CA00EF1220F99005B9E0FBA3E0FAA3E0F99024
:1036DA0000021220CC2431F582E43400F583E0FFA5
:1036EA009005B6E0FBA3E0FAA3E0F990FFFFEF1222
:1036FA00210B9005B9E0FBA3E0FAA3E0F9900003DF
:10370A001220CC2431F582E43400F583E0FF9005E1
:10371A00B6E0FBA3E0FAA3E0F990FFFEEF12210B5B
:10372A009005B9E0FBA3E0FAA3E0F99000041220A7
:10373A00CC2431F582E43400F583E0FF9005B6E04D
:10374A00FBA3E0FAA3E0F990FFFDEF12210B90052D
:10375A00B9E0FBA3E0FAA3E0F99000051220CC54EB
:10376A000F24FD60361470030237FD24FD70030236
:10377A0038421470030238552406600302386E90EA
:10378A0005B6E0FBA3E0FAA3E024FDF9EA34FFFA68
:10379A001220B344801220F90238429005B6E0FBA9
:1037AA00A3E0FAA3E024FDF9EA34FFFA1220B344B5
:1037BA00801220F99005B6E0FBA3E0FAA3E024FE0C
:1037CA00F9EA34FFFA1220B344801220F99005B6C0
:1037DA00E0FBA3E0FAA3E024FFF9EA34FFFA12209F
:1037EA00B344801220F99005B6E0FBA3E0FAA3E007
:1037FA00F980699005B6E0FBA3E0FAA3E024FDF99D
:10380A00EA34FFFA1220B344801220F99005B6E098
:10381A00FBA3E0FAA3E024FEF9EA34FFFA1220B38C
:10382A0044801220F99005B6E0FBA3E0FAA3E02455
:10383A00FFF9EA34FFFA80249005B6E0FBA3E0FA28
:10384A00A3E024FEF9EA34FFFA80119005B6E0FB02
:10385A00A3E0FAA3E024FDF9EA34FFFA1220B34404
:05386A00801220F9228C
:10525A009005A8EBF0A3EAF0A3E9F0A3E0FBA3E032
:10526A00FAA3E0F91220B3FF9005A8E0FBA3E0FA45
:10527A00A3E0F9EF1220F99005ABE0FBA3E0FAA353
:10528A00E0F99000011220CCFF9005A8E0FBA3E012
:10529A00FAA3E0F9900001EF12210B9005ABE0FBB5
:1052AA00A3E0FAA3E0F99000021220CCFF9005A82F
:1052BA00E0FBA3E0FAA3E0F9900002EF12210B90C1
:1052CA0005ABE0FBA3E0FAA3E0F99000031220CCBF
:1052DA00FF9005A8E0FBA3E0FAA3E0F9900003EF32
:1052EA0012210B9005ABE0FBA3E0FAA3E0F99000D2
:1052FA00041220CCFF9005A8E0FBA3E0FAA3E0F992
:10530A00900004EF12210B9005ABE0FBA3E0FAA397
:10531A00E0F99000071220CCFF9005A8E0FBA3E07B
:0B532A00FAA3E0F9900005EF02210B50
:0965D8002456F974003EFA7B011F
:1065E1001220B390000812210B9000011220CC90D0
:1065F100000912210B9000021220CC90000A1221F6
:106601000B9000031220CC90000B12210B90000480
:106611001220CC90000C12210B9000051220CC907E
:05662100000D02210B39
:0E64950075F008A42456F9740035F0FA7B0166
:1064A3009000081220CC1220F99000091220CC9001
:1064B300000112210B90000A1220CC90000212213D
:1064C3000B90000B1220CC90000312210B90000CB8
:1064D3001220CC90000412210B90000D1220CC90BE
:0564E300000502210B81
:103D900078AC7C057D017BFF7A71797D7E007F08A0
:103DA00012208DE49005B4F0A3F01276AA9005B429
:103DB000EFF012769E9005B5EFF01276989005AA76
:103DC000EFF01276929005ABEFF01277289005ABEA
:103DD000E0FE9005AAE0FDC39E500AEF9D4006EE6E
:103DE0006003E0701B9005ABE06003023F0B9005A1
:103DF000AAE0FE7003023F0BEFD39E5003023F0B7D
:103E0000E49005A8F09005A8E0FFC3940A5022EFC3
:103E100075F008A42456F582740035F0F583E0703F
:103E2000089005A8E0A3F080089005A8E004F080C1
:103E3000D4E49005A8F09005A9E024FFFFE434FF46
:103E4000FEEF7803C333CE33CED8F9FF9005A8E058
:103E5000FD7A002FFFEA3EFE74562FF58274003E75
:103E6000F583E0FF74AC2DF582E43405F583EFF0C3
:103E70009005A8E004F0E0B406BC9005A9E0900528
:103E8000A8F09005A8E0FFD39401401DEF24FEFFA9
:103E9000E434FFFEEF7803C333CE33CED8F9126596
:103EA000D89005A8E014F080D9E49005A8F090051A
:103EB000A8E0FF24ACF582E43405F583E0FE7456F7
:103EC0002FF582E43400F583EEF09005A8E004F0CD
:103ED000E0B406DA12407C12599BE4FF12772E9070
:103EE00005B4E0B401257B017A007956900056E0D4
:103EF000FD9005BAE4F0A3EDF090005BE0540F9064
:0B3F000005BCF09005B5E0FF12321781
:013F0B002293
:1055AE00E49005AEF0A3F01276989005A9EFF012F4
:1055BE0076929005AAEFF01277289005ABEFF012D5
:1055CE00768C9005ACEFF01276869005ADEFF0126A
:1055DE0076A49005AFEFF09005A9E0FFA3E0FEC31F
:1055EE009F500EA3E09E4009EF60069005AAE07062
:1055FE00119005A9E07078A3E0FF6073A3E0D39F3C
:10560E00406DE49005A8F09005ACE014FD9005A85F
:10561E00E0FFC39D500CEF1264959005A8E004F0D6
:10562E0080E5ED33333354F89005A8F09005ACE0E7
:10563E0075F008A4FF9005A8E0FDC39FE5F0648017
:10564E00F8748098501474562DF582E43400F58366
:10565E00E4F09005A8E004F080D212407C12599B31
:0F566E00E4FF12772E900056E07004FF12768052
:01567D00220A
:105E1400E4900581F012768C900581EFF0E4FDFCAE
:105E2400900581E024FFFFE434FFFEC3ED9FEC9E68
:105E3400501FEDAE047803C333CE33CED8F92456C5
:105E4400F974003EFA7B011264A30DBD00010C80BD
:105E5400CF900581E024FFFFE434FFFEEF7803C315
:105E640033CE33CED8F9FDAC06900581E075F00849
:105E7400A4FFC3ED9FEC95F0501374562DF5827476
:105E8400003CF583E4F00DBD00010C80DC9004CFF0
:105E9400E014F012407C12599B900056E07004FF0D
:035EA400127680F3
:015EA70022D8
:105A520078827C057D017BFF7A7179857E007F06E5
:105A620012208D12768C900581EFF012768CAD07A4
:105A7200E4FCECC39D501CEC75F008A42456F5829E
:105A8200740035F0F583E07007900581ECF0800337
:105A92000C80DFE4FC74562CF582E43400F583E0DC
:105AA200FF74822CF582E43405F583EFF00CECB43C
:105AB20006E3E4FC900581E0FFECC39F5007EC1283
:105AC20064950C80EFE4FC74822CF582E43405F5D5
:105AD20083E0FD900581E024FFFFE434FFFEEF78D0
:105AE20003C333CE33CED8F9FFEC7A002FFFEA3E60
:105AF200FE74562FF58274003EF583EDF00CECB483
:085B020006C512407C02599B0C
:1051610078837C057D017BFF7A71798B7E007F06D8
:1051710012208D12768C900582EFF012768CAD079D
:10518100E4900581F0900581E0FFC39D5022EF7509
:10519100F008A42456F582740035F0F583E0700818
:1051A100900581E0A3F08008900581E004F080D5AE
:1051B100E4900581F0900582E024FFFFE434FFFED6
:1051C100EF7803C333CE33CED8F9FF900581E0FDEC
:1051D1007A002FFFEA3EFE74562FF58274003EF5E9
:1051E10083E0FF74832DF582E43405F583EFF090BD
:1051F1000581E004F0E0B406BC900582E0900581F1
:10520100F0900581E0FFD39401401DEF24FEFFE4FF
:1052110034FFFEEF7803C333CE33CED8F91265D80D
:10522100900581E014F080D9E4900581F09005812A
:10523100E0FF2483F582E43405F583E0FE74562F04
:10524100F582E43400F583EEF0900581E004F0E0AE
:09525100B406DA12407C02599BFC
:0B3471009005A8EBF0A3EAF0A3E9F03F
:10347C0078B47C057D017BFF7A7179917E007F06A3
:10348C0012208D12768C9005B0E4F0A3EFF012763A
:10349C008C9005B2E4F0A3EFF0E49005AEF0A3F04D
:1034AC009005B2E0FEA3E0FF9005AEE0FCA3E0FDCA
:1034BC00C39FEC9E40030235B7EDAE047803C333D3
:1034CC00CE33CED8F9FF9005ABE0FBA3E0FAA3E036
:1034DC002FF9EA3EFA9000011220CCFD9005A8E0ED
:1034EC00FBA3E0FAA3E0F99000011220CC6D60037D
:1034FC000235A39005ABE0FBA3E0FAA3E02FF9EAB9
:10350C003EFA9000021220CCFF9005A8E0FBA3E04D
:10351C00FAA3E0F99000021220CC6F707A9005AEFD
:10352C00E0FEA3E07803C333CE33CED8F9FF900589
:10353C00ABE0FBA3E0FAA3E02FF9EA3EFA9000031C
:10354C001220CCFD9005A8E0FBA3E0FAA3E0F990D3
:10355C0000031220CCB5053F9005ABE0FBA3E0FACD
:10356C00A3E02FF9EA3EFA9000041220CCFF90055C
:10357C00A8E0FBA3E0FAA3E0F99000041220CCB57C
:10358C0007159004CFE014F09005AEE0FFA3E0A384
:10359C00CFF0A3EFF080149005AFE004F0600302CD
:1035AC0034AC9005AEE004F00234AC9005B0E070A1
:1035BC0002A3E070031274329005B0E0FFA3E09018
:1035CC0005AECFF0A3EFF09005B2E0FEA3E0FF90C4
:1035DC0005AEE0FCA3E0FDC39FEC9E502FEDAE04C6
:1035EC007803C333CE33CED8F9FF9005ABE0FBA301
:1035FC00E0FAA3E02FF9EA3EFA1264A39005AFE0DB
:10360C0004F070C39005AEE004F080BB9005B2E00E
:10361C00FEA3E0FF9005B0E06E7003A3E06F60596D
:10362C00E49005AEF0A3F09005AEE0FCA3E0FDC382
:10363C009406EC940050429005B3E024FFFF9005F3
:10364C00B2E034FFFEEF7803C333CE33CED8F9FFAC
:10365C009005ABE0FBA3E0FAA3E02FF9EA3EFAE910
:10366C002DF9EA3CFAE41220F99005AFE004F07071
:10367C00B69005AEE004F080AE9005ABE0FBA3E0A5
:0D368C00FAA3E0F91220B37004FF1276805B
:01369900220E
:0B3F0C0090058DEBF0A3EAF0A3E9F0B4
:103F170078947C057D017BFF7A7179977E007F0617
:103F270012208D12768C900593EFF012768CAD07E8
:103F3700E4FCECC39D4003024019EC75F008A4FFB4
:103F4700900590E0FBA3E0FAA3E02FF9EA35F0FA39
:103F57009000011220CCFF90058DE0FBA3E0FAA3AF
:103F6700E0F99000011220CC6F6003024015EC7558
:103F7700F008A4FF900590E0FBA3E0FAA3E02FF977
:103F8700EA35F0FA9000021220CCFF90058DE0FB95
:103F9700A3E0FAA3E0F99000021220CC6F706FEC57
:103FA70075F008A4FF900590E0FBA3E0FAA3E02FCB
:103FB700F9EA35F0FA9000031220CCFF90058DE066
:103FC700FBA3E0FAA3E0F99000031220CC6F703E48
:103FD700EC75F008A4FF900590E0FBA3E0FAA3E0DE
:103FE7002FF9EA35F0FA9000041220CCFF90058DE6
:103FF700E0FBA3E0FAA3E0F99000041220CCB50798
:104007000D9004CFE014F0900593ECF080040C02BF
:104017003F39900593E0FCECC39D501CEC75F0080C
:10402700A4FF900590E0FBA3E0FAA3E02FF9EA359F
:10403700F0FA1264A30C80DF900593E06D6035E41D
:10404700FCED24FFFFE434FFFEEF7803C333CE33E8
:10405700CED8F9FF900590E0FBA3E0FAA3E02FF993
:10406700EA3EFAEC7E0029F9EE3AFAE41220F90C5E
:04407700ECB406CDD2
:01407B002222
:106F9600E4FF1276FEE49004CFF0EFB40107D2CD01
:106FA6001269A28003123BE7127704BF0103127530
:036FB6009BC297E4
:016FB90022B5
:05000600E4FF02719D02
:1071DB007F0112719D1276F2BF01121276BCBF01B4
:0E71EB000C7F6F7E00126A76E4FF1276F822A7
:1071F9007F0212719D1276F2BF01121276BCBF0195
:0E7209000C7F707E001268C2E4FF1276F8223D
:107217007F0312719D1276F2BF01121276BCBF0175
:0E7227000C7F717E001268C2E4FF1276F8221E
:107235007F0412719D1276F2BF01121276BCBF0156
:0E7245000C7F727E001268C2E4FF1276F822FF
:107253007F0512719D1276F2BF01121276BCBF0137
:0E7263000C7F737E001268C2E4FF1276F822E0
:107271007F0612719D1276F2BF01121276BCBF0118
:0E7281000C7F747E001268C2E4FF1276F822C1
:10728F007F0712719D1276F2BF01121276BCBF01F9
:0E729F000C7F757E001268C2E4FF1276F822A2
:1072AD007F0812719D1276F2BF01121276BCBF01DA
:0E72BD000C7F767E001268C2E4FF1276F82283
:1072CB007F0912719D1276F2BF01121276BCBF01BB
:0E72DB000C7F777E001268C2E4FF1276F82264
:05001E007F0A02719D44
:0577A0007F0B02719D4A
:0577A5007F0C02719D44
:0D000E007F0D12719DE4FF1275A6D2CD2268
:1066740012770ABF0108123BE77F021277101277E4
:106684000AEF640370311276C2EF7012900008F0C2
:10669400900007F0900006F0900005F08011E4905F
:1066A400000CF090000BF090000AF0900009F0123A
:0A66B400599BE4FF127710025F3AD1
:1068FC0012770ABF0108123BE77F0212771012775A
:10690C000ABF03211276C2EF700A90000AF09000C1
:10691C0009F08009E4900008F0900007F012599BF0
:08692C00E4FF127710025F3A4C
:1069340012770ABF0108123BE77F02127710127721
:106944000ABF03211276C2EF700A90000CF0900087
:106954000BF08009E4900006F0900005F012599BBA
:08696400E4FF127710025F3A14
:106FBA0012770ABF0108123BE77F02127710127795
:106FCA000ABF030DE490000DF012599BE4FF1277FB
:046FDA0010025F3A08
:106BDA0012770ABF0108123BE77F02127710127779
:106BEA000ABF0311E4900004F0900003F012599BCD
:086BFA00E4FF127710025F3A7C
:106AA3001276FEEFB401057F0102768012770ABFEA
:106AB3000108123BE77F0212771012770ABF030D1A
:106AC300E4900002F0125997E4FF127710125F3A34
:016AD30022A0
:10746C007F011271BCE49005D7F0A3F0A3F0A30444
:02747C00F022FC
:10747E007F021271BCE49005E1F0A3F0A3F0A30427
:02748E00F022EA
:107490007F031271BCE49005ECF0A3F0A3F0A30409
:0274A000F022D8
:1074A2007F041271BCE49005F8F0A3F0A3F0A304EA
:0274B200F022C6
:1074B4007F011271BCE49005DCF0A3F0A3F0A304F7
:0274C400F022B4
:1074C6007F021271BCE49005E7F0A3F0A3F0A304D9
:0274D600F022A2
:1074D8007F031271BCE49005F3F0A3F0A3F0A304BA
:0274E800F02290
:1074EA007F041271BCE49005FEF0A3F0A3F0A3049C
:0274FA00F0227E
:0577AA007F010271BC2B
:0577AF007F020271BC25
:0875EB00E4FF127692026AD45B
:0875F300E4FF127698026AD44D
:0577B4007F010271BC21
:0577B9007F020271BC1B
:0577BE007F030271BC15
:0577C3007F040271BC0F
:0577C8007F050271BC09
:0577CD007F010271BC08
:0577D2007F020271BC02
:0577D7007F030271BCFC
:0577DC007F040271BCF6
:0E757F007F011271BC1276E69003A0EFF0229D
:0577E1007F020271BCF3
:0577E6007F010271BCEF
:0577EB007F020271BCE9
:10732200E4FFFEFDFC1275E2AC06AD077E277F107E
:0A73320012213FAC06AD0702628293
:0875FB00E4FF1277040273871C
:08760300E4FF1276FE0273871A
:10653900127740900581EFF0D394145031E0FAC3FB
:10654900940450028019EAD394125013900581E003
:10655900C3132485F582E43403F583E0FF80027FC9
:10656900FF12670830A4077F3C7E00126A76900507
:0F65790081E0D394144006126BB112599BC2CD2E
:0165880022F0
:1070F60012770ABF010812633D7F021277101277DA
:107106000ABF030DE4900004F012599BE4FF1277C6
:02711600102245
:1071180012770ABF010812633D7F021277101277B7
:107128000ABF030DE4900003F012599BE4FF1277A5
:02713800102223
:10713A0012770ABF010812633D7F02127710127795
:10714A000ABF030DE4900002F012599BE4FF127784
:02715A00102201
:1000260012770ABF010812633D7F0212771012771A
:0D0036000ABF0308125996E4FF127710224A
:106C020012770ABF010E7B017A0579E11263437F95
:106C12000212771012770ABF030DE4900004F012FB
:086C2200599BE4FF12771022D8
:106C2A0012770ABF010E7B017A0579E11263437F6D
:106C3A000212771012770ABF030DE4900003F012D4
:086C4A00599BE4FF12771022B0
:106C520012770ABF010E7B017A0579E11263437F45
:106C62000212771012770ABF030DE4900002F012AD
:086C7200599BE4FF1277102288
:1070010012770ABF010E7B017A0579E11263437F92
:107011000212771012770ABF0308125996E4FF1281
:03702100771022C3
:106C7A0012770ABF010E7B017A0579EC1263437F12
:106C8A000212771012770ABF030DE4900004F01283
:086C9A00599BE4FF1277102260
:106CA20012770ABF010E7B017A0579EC1263437FEA
:106CB2000212771012770ABF030DE4900003F0125C
:086CC200599BE4FF1277102238
:106CCA0012770ABF010E7B017A0579EC1263437FC2
:106CDA000212771012770ABF030DE4900002F01235
:086CEA00599BE4FF1277102210
:1070240012770ABF010E7B017A0579EC1263437F64
:107034000212771012770ABF0308125996E4FF125E
:03704400771022A0
:106CF20012770ABF010E7B017A0579F81263437F8E
:106D02000212771012770ABF030DE4900004F0120A
:086D1200599BE4FF12771022E7
:106D1A0012770ABF010E7B017A0579F81263437F65
:106D2A000212771012770ABF030DE4900003F012E3
:086D3A00599BE4FF12771022BF
:106D420012770ABF010E7B017A0579F81263437F3D
:106D52000212771012770ABF030DE4900002F012BC
:086D6200599BE4FF1277102297
:1070470012770ABF010E7B017A0579F81263437F35
:107057000212771012770ABF0308125996E4FF123B
:037067007710227D
:106D6A0012770ABF010E7B017A0579DC1263437F31
:106D7A000212771012770ABF030DE4900004F01292
:086D8A00599BE4FF127710226F
:106D920012770ABF010E7B017A0579DC1263437F09
:106DA2000212771012770ABF030DE4900003F0126B
:086DB200599BE4FF1277102247
:106DBA0012770ABF010E7B017A0579DC1263437FE1
:106DCA000212771012770ABF030DE4900002F01244
:086DDA00599BE4FF127710221F
:10706A0012770ABF010E7B017A0579DC1263437F2E
:10707A000212771012770ABF0308125996E4FF1218
:03708A007710225A
:106DE20012770ABF010E7B017A0579E71263437FAE
:106DF2000212771012770ABF030DE4900004F0121A
:086E0200599BE4FF12771022F6
:106E0A0012770ABF010E7B017A0579E71263437F85
:106E1A000212771012770ABF030DE4900003F012F2
:086E2A00599BE4FF12771022CE
:106E320012770ABF010E7B017A0579E71263437F5D
:106E42000212771012770ABF030DE4900002F012CB
:086E5200599BE4FF12771022A6
:10708D0012770ABF010E7B017A0579E71263437F00
:10709D000212771012770ABF0308125996E4FF12F5
:0370AD0077102237
:106E5A0012770ABF010E7B017A0579F31263437F29
:106E6A000212771012770ABF030DE4900004F012A1
:086E7A00599BE4FF127710227E
:106E820012770ABF010E7B017A0579F31263437F01
:106E92000212771012770ABF030DE4900003F0127A
:086EA200599BE4FF1277102256
:106EAA0012770ABF010E7B017A0579F31263437FD9
:106EBA000212771012770ABF030DE4900002F01253
:086ECA00599BE4FF127710222E
:1070B00012770ABF010E7B017A0579F31263437FD1
:1070C0000212771012770ABF0308125996E4FF12D2
:0370D00077102214
:106ED20012770ABF010E7B017A0579FE1263437FA6
:106EE2000212771012770ABF030DE4900004F01229
:086EF200599BE4FF1277102206
:106EFA0012770ABF010E7B017A0579FE1263437F7E
:106F0A000212771012770ABF030DE4900003F01201
:086F1A00599BE4FF12771022DD
:106F220012770ABF010E7B017A0579FE1263437F55
:106F32000212771012770ABF030DE4900002F012DA
:086F4200599BE4FF12771022B5
:1070D30012770ABF010E7B017A0579FE1263437FA3
:1070E3000212771012770ABF0308125996E4FF12AF
:0370F300771022F1
:08760B00E4FF1276860273878A
:08761300E4FF12768C026AD438
:08761B00E4FF12769E02738762
:08762300E4FF1276A402738754
:08762B00E4FF1276AA02738746
:1072E900E4900581F01276B0900581EFF075F00316
:0D72F900A4FF12715C900581E0FF02738715
:08763300E4FF1276B602738732
:1074FC00E4FF1276CEEFC3940A5003027387127323
:01750C00B4CA
:01750D00225B
:08763B00E4FF1276D40273870C
:08764300E4FF1276DA027387FE
:08764B00E4FF1276E0027387F0
:10688800E4900581F01276E6900581EFF0127387A7
:106898009003A0E0FF900581E06F601D1262E19017
:1068A8000581E09003A0F01276F2BF010C7F797E9B
:0968B80000126A76E4FF1276F882
:0168C10022B4
:10696C00E4900581F01276EC900581EFF0126AD478
:10697C001276F2BF010D900581E02442FFE433FE54
:10698C001268C2127794BF010C7F797E001268C224
:05699C00E4FF12779AF0
:0169A10022D3
:10662600E4900581F0A3F012769E900581EFF012BA
:1066360076C8900582EFF0900056E0B4340A30A494
:10664600077F687E00126A76D2CD900582E07003DD
:10665600D2972212770ABF0107D2977F02127710CC
:0D66660012770ABF0307C297E4FF127710F6
:016673002204
:0577F0007F060271BCE0
:08765300E4FF1276BC0273870C
:0577F5007F070271BCDA
:08765B00E4FF1276C2027387FE
:0577FA007F080271BCD4
:08766300E4FF1276C8027387F0
:0577FF007F0E02719DE8
:1073E0007F011271BCE4900392F0A3F0900376F059
:0573F00090066CF02284
:10750E007F021271BCE490039EF0A3F0900391F001
:01751E00224A
:10581200900376E0707A12770ABF0113126BB1908F
:1058220000027480F0A3F012599B7F0212771012CB
:10583200770ABF030B126BB112599BE4FF12771068
:10584200900392E0FCA3E0FD7B017A05798190054B
:10585200CA7408F07FA01261537FAA1275C7E49040
:105862000589F0900589E0FFC39408501774812FD1
:10587200F582E43405F583E0FF1275C7900589E0EF
:1058820004F080DF7F551275C79003767401F02211
:10589200900376E0FFB40224900393E02408F09092
:1058A2000392E03400F0E0B4150CA3E0B46007907A
:1058B20003767403F022E4900376F022EFB403122D
:1058C200126BB19000017480F0A3F0A3F0A3F01268
:0258D200599BE0
:0158D40022B1
:105D7F00900391E0B4013190039EE0FCA3E0FD7B22
:105D8F00017A0379959005BF7408F07FA012644FD4
:105D9F0090039FE02408F090039EE03400F0E4901D
:105DAF000391F07FAA1275C790039EE07002A3E0E3
:105DBF00700A126BB19000017480801A90039EE0FC
:105DCF00B41517A3E0B46012126BB1900001748088
:105DDF00F0A3F0A3F0A3F002599B12770ABF0113AF
:105DEF00126BB19000027480F0A3F012599B7F02E6
:105DFF0012771012770ABF030B126BB112599BE483
:055E0F00FF12771022D4
:101E45004106950041069E0041069B0041069C0007
:101E550041069600410693004106A0004106980000
:101E65004106940041069A004106990041069700F3
:081E750041069F0041069D009B
:10755200438901758C3C758AB0D2AFD2A9D28C22F4
:0E758D00438910758DFF758B9CD2AFD2AB2257
:03000B0002446E3E
:10446E00C0E0C0F0C083C082C0D075D000C000C014
:0D447E0001C002C003C004C005C006C00795
:10448B009005CEE4F0A3F0C28D758C3C758AB0120A
:10449B00767A9005CEEFF01276FE9005CFEFF09086
:1044AB000695E004F0E0B40A1990069EE004F09043
:1044BB00069AE004F0900695E4F0900699E060020D
:1044CB0014F090069EE0C394044002E4F090069A28
:1044DB00E0C394184002E4F0900697E0600214F0F9
:1044EB0090069BE0B40104A3E004F012777CBF01BB
:1044FB0014900696E004F0E0D3947840081277828B
:10450B00900696E4F090069DE0B4011590069FE0AE
:10451B0004F0E0D39478400990069DE4F090069F58
:10452B00F09005CEE0FFB45F15900693E004F0E049
:10453B00B4140B9006A0E004F0900693E4F0EF6443
:10454B005F60259005CEE0FF6431601CEF6469600D
:10455B0017EF646A6012900698E004F0E0D394C8F9
:10456B004006E4F0FF1276809005CEE07015A3E0D4
:10457B00B40210900694E004F0E0C3940A4004B235
:03458B00CDE4F08C
:10458E00D007D006D005D004D003D002D001D00081
:0B459E00D0D0D082D083D0F0D0E0322B
:03001B000264E894
:1064E800C0E0C0F0C083C082C0D075D000C000C07A
:0D64F80001C002C003C004C005C006C007FB
:10650500E4FF12767AC28F758DFF758B9CEFB42EE2
:0965150005122F698003124819D8
:10651E00D007D006D005D004D003D002D001D000D1
:0B652E00D0D0D082D083D0F0D0E0327B
:05770A0090069EE0FF67
:01770F002257
:0677100090069EEFF0223E
:0677160090069BEFF0223B
:05771C0090069CE0FF57
:017721002245
:06772200E490069CF02239
:057728009006A0E0FF47
:01772D002239
:06772E009006A0EFF0221E
:06773400E4900698F0222B
:06773A0090069CEFF02216
:0577400090069AE0FF35
:017745002221
:0B75A60090069AEFF0E4900695F022AA
:05774600900699E0FF30
:01774B00221B
:0B75B100900699EFF0E4900695F022A0
:05774C00900697E0FF2C
:017751002215
:06775200900697EFF02203
:06775800E4900696F02209
:06775E00E490069FF022FA
:0677640090069DEFF022EB
:05776A0090069DE0FF08
:01776F0022F7
:0B1E7D00480673140F09040C22000635
:04679100E0FD7F8A1E
:10679500D2A0EF54FEFFE4FEEF30E004D2A1800268
:1067A500C2A1D2A2C2A2EFC313FF0EEEB408E9E460
:1067B500FEED30E004D2A18002C2A1D2A2C2A2EDB8
:0A67C500C313FD0EEEB408E9C2A0F4
:0167CF0022A7
:1067D000D2A0EF4401FFE4FDEF30E004D2A180023B
:1067E000C2A1D2A2C2A2EFC313FF0DEDB408E9E427
:1067F000FDEEC313FE30A1054480FE8004EE547FFD
:0E680000FED2A2C2A20DEDB408E7C2A0AF0600
:01680E002267
:105F3A00E4FF74732FF582E43406F583E0FE75F00E
:105F4A000A84FDEE75F00A84747B2FF582E4340628
:105F5A00F583E5F0F0EDC454F0FE747B2FF582E48E
:105F6A003406F583E02EF00FEFB408C6E4FD7F8E09
:105F7A001267957D807F8012679590067CE0FD7F91
:105F8A008C126795A3E0FD7F88126795A3E0FD7FD9
:105F9A008612679590068212679190067FE0FD7FD0
:105FAA0084126795A3E0FD7F82126795A3E0FD7FC7
:0F5FBA0080126795A31267917D807F8E02679595
:1060CD007F8C1267D090067CEFF07F881267D0A38B
:1060DD00EFF07F861267D0A3EFF07F841267D0A315
:1060ED00EFF07F821267D0A3EFF07F801267D0EFC1
:1060FD00547FA3F07F8A1267D0A3EFF0E4FF747B87
:10610D002FF582E43406F583E0FEC4540FFDEE5402
:10611D000FFE74732FF582E43406F583EEF0ED7502
:10612D00F00AA4FE74732FF582E43406F583E02E95
:06613D00F00FEFB408C8EA
:016143002239
:0B75BC00C2A0C2A2E4FD7F8002679520
:101E880041064D0041064C004106520041065500EE
:101E980041065C00410641004106400043065900E6
:101EA80000004206530046420657007842063D00AD
:101EB8000042063B000042064A000042064E004629
:101EC800420650007842065E000041063F00410687
:101ED8005D004106560041064200410646004306A1
:0A1EE800430000004306470000001D
:07767300D2AFD2A8D2882299
:0300030002766B17
:08766B00C2A8208E02D28E326B
:10730600E490064DF090064CF0900655F09006522B
:0C731600F090065CF0900640F0A3F0221E
:1048190030B2059006558003900652E004F09006E8
:1048290041E004F0E0D394A07480948F4007C28ED5
:10483900D2A8027306900640E0146035146069142A
:1048490070030248D824036003024948900655E0E2
:10485900D394004003024948900652E0D39446504D
:104869000302494F900640E004F0E4900655F080B9
:1048790032900655E0FFFD900652E02DFDE433FC31
:10488900D3ED948CEC648094804003024948EFD3C3
:104899009401500302494F30A802C2A8900640E093
:1048A90004F0E4900652F022900652E0D3940140BD
:1048B90013900655E090064DF0E4900655F09006E9
:1048C90040E004F0900655E0D39419407980709047
:1048D9000655E0D39401405C900652E0FF90064CE7
:1048E900F0E4900652F09006407402F090065CE005
:1048F900131313541FFE2459F582E43406F583E09B
:10490900FD25E0F090064DE0D39F400E74592EF539
:1049190082E43406F583E04401F090065CE004F09B
:10492900E0D39417400EC28E12730690063F7401AD
:10493900F0D2A822900652E0D394194009800012BF
:074949007306D2A8C28E2202
:1041DC00E49005A8F012767A9005A8EFF090063FCF
:1041EC00E064016003024326F0C2A8900656E01476
:1041FC006027046003024324900659E0900643F0C4
:10420C0090065AE0900644F090065BE0900645F06C
:10421C009006567401F0024324900659E0FF900674
:10422C0043E06F600302430C90065AE0FE90064494
:10423C00E06E600302430C90065BE0FD900645E0E7
:10424C006D600302430C900647E06F7012A3E06EA2
:10425C00700DA3E0B50508900642E0702380009035
:10426C000659E0900647F090065AE0900648F09008
:10427C00065BE0900649F090065D7401F0127758E9
:10428C009006427401F0127734900648E0FFE4FC8B
:10429C00FDFE78081221BBC004C005C006C0079003
:1042AC000647E0FFE4FCFDFE78101221BBD003D0E2
:1042BC0002D001D000EF4BFBEE4AFAED49F9EC4885
:1042CC00F8900649E0FFEB4FFFEAFEE9FDE8FC7BC6
:1042DC00017A0579A9125335EF600D9006467401E9
:1042EC00F0FF1276F8127734E4900659F0A3F0A39D
:1042FC00F0900643F0A3F0A3F0E4900656F080187B
:10430C00900659E0900643F090065AE0900644F06F
:0A431C0090065BE0900645F0D2A881
:014326002274
:102F690030B2059006558003900652E004F09006B1
:102F790041E004F0E0D394A07480948F4006C28E9F
:102F8900D2A88027900640E014605A1470030230DA
:102F99007D1470030230C82403600302320F9006C7
:102FA90055E0D394004007D2A8C28E02730690065A
:102FB9003DE0FEA3E0FF7C007D0F12212DEF243CB4
:102FC900FFE43EFE900652E0D39FEC9E500302328E
:102FD90016900640E004F0900653EEF0A3EFF0E4FB
:102FE900A3F002307890063BE0FEA3E0FF7C007D71
:102FF9000F12212DEF2478FFE43EFE900655E0F9EB
:10300900FD900652E02DFDE433FCD3ED9FEC9E408C
:1030190022E9701C90063CE004F0700690063BE043
:1030290004F090063EE004F0700690063DE004F0DE
:1030390002320FE9D39401500302321690063BE0A5
:10304900FEA3E0FF7C007D0F12212DEF2478FFE421
:103059003E900657F0A3EFF0E490063BF0A3F0A3EF
:10306900F0A3F030A802C2A8900640E004F0E49072
:103079000652F022900652E0D39400401390065570
:10308900E090064DF0E4900655F0900640E004F01B
:10309900900653E0FEA3E0FF900658E02FFF90064C
:1030A90057E03EFEEF7803CEC313CE13D8F9FF9055
:1030B9000655E0D39FE49E500302321602320F9068
:1030C9000655E0D3940050030231E4900652E0FF24
:1030D90090064CF0E4900652F09006407402F0908D
:1030E900065CE0131313541FFE2459F582E43406D9
:1030F900F583E025E0F090064DE0FDD39F400E7486
:10310900592EF582E43406F583E04401F090065C1B
:10311900E004F0E0D3941750030231E4C28E900624
:103129004CE02DFEE43390064AF0A3CEF01273066C
:1031390090065FE004F0700690065EE004F09006E9
:1031490057E0FEA3E0FF900651E02FF0900650E013
:103159003EF0E0C313FEA3E013FF900657EEF0A381
:10316900EFF0900650EEF0A3EFF0D390065FE094F5
:103179000190065EE09400405F90064EE0FEA3E0F9
:10318900FF900653E0FCA3E0FD9FFFEC9EFED3EF0A
:10319900941EEE9400401590064FE09DFF90064E58
:1031A900E09CFED3EF941EEE9400502C900653E061
:1031B900FEA3E0FF90064FE02FF090064EE03EF0B0
:1031C900E0C313FEA3E013FF900653EEF0A3EFF064
:1031D90090064EEEF0A3EFF0D2A822900653E0FE3F
:1031E900A3E0FF900658E02FFF900657E03EFEEF60
:1031F9007803CEC313CE13D8F9FF900652E0D39FBC
:0E320900E49E40098000127306D2A8C28E22F5
:0577700090065DE0FF42
:0177750022F1
:06777600E490065DF02224
:05777C00900642E0FF51
:0177810022E5
:06778200E4900642F02233
:05778800900646E0FF41
:01778D0022D9
:06778E00E4900646F02223
:0875E20090064AE0FEA3E0FF61
:0175EA00227E
:101EF2004804D2000000000000000041057F0044B9
:101F0200057B000000004104CF0060A004DB00005C
:101F120000000000000000000000000000000000BF
:101F220000000000000000000000000000000000AF
:101F3200000000000000000000000000000000009F
:101F4200000000000000000000000000000000008F
:101F5200000000000000000000000000000000007F
:101F6200000000000000000000000000000000006F
:101F7200000000000000000000000000000000005F
:101F8200000000000000000000000000000000004F
:101F9200000000000000000000000000000000003F
:101FA20000000000000000000000000000004104EA
:0A1FB200D1004104D0004104DA0020
:100D5200E4900594F0A3F0900597F09005A0F0A31D
:100D6200F0A3F0A3F0A3F0A3F0A3F0A3F012767A1D
:100D72009005A0EFF01276E69005A1EFF01276EC66
:100D82009005A2EFF01276869005A3EFF012768C12
:100D92009005A4EFF012768C900597EFF01276CEC4
:100DA2009005A5EFF012769E9005A6EFF01276A4BC
:100DB2009005A7EFF01241DC127770EF6401600337
:100DC2000219AE900648E0FFE4FCFDFE780812210D
:100DD200BBC004C005C006C007900647E0FFE4FCA4
:100DE200FDFE78101221BBD003D002D001D000EF5B
:100DF2004BFBEE4AFAED49F9EC48F8900649E0FF60
:100E0200EB4FFFEAFEE9FDE8FC90059012223890D4
:100E120005A0E024CE24FC400302163924FC400342
:100E22000216F924FC40030217B924FC40030218FD
:100E32007924E4700302194A1470030210D7245F64
:100E420060030219ABE4FF12772E900649E0FF54CB
:100E5200F06003020F61900647E0C4540FFE900554
:100E6200A5E06E6003020F61EEC3940A4003020F15
:100E7200619005A1E0B4010CEF540F2477F582E4F0
:100E82003403800D900649E0540F2446F582E43481
:100E920000F583E0900598F0900647E0FFC4540FF8
:100EA200900599F0EF540FA3F0900648E0FFC45468
:100EB2000F90059BF0EF540FA3F0900647E09005CA
:100EC2009DF0900648E090059EF0900649E090055E
:100ED2009FF0900598E0FF64336008EF6005125CB4
:100EE2004B802F9005AB7401F0A37400F0A37456ED
:100EF200F07B017A0579981234717B017A05799831
:100F0200900649E0540F9005ACF07F9212386F02C0
:100F120014F09005A4E0FF9004CFE0C39F5003E0DB
:100F220004F0126BB17B017A057998900649E0547E
:100F32000F9005ACF07F9112386F9005AB7401F001
:100F4200A37405F0A37498F07B017A0079561252CB
:100F52005A12407C12599B7F5F1276800219AB7B3A
:100F6200017A057988900590E0FCA3E0FDA3E0FEFC
:100F7200A3E0FF1261BAEF3395E0FE900594F0A36F
:100F8200EFF04E70030219AB900590E0FCA3E0FD78
:100F9200A3E0FEA3E0FF90057BE0F8A3E0F9A3E065
:100FA200FAA3E0FBC31221AA700912776AEF601F4D
:100FB2000219AB900590E0FCA3E0FDA3E0FEA3E0E4
:100FC200FF90057B12223812775E7F0112776490C0
:100FD2000594E0FEA3E0FF64014E7008900598744A
:100FE20033F08018EF64024E70089005987434F064
:100FF200800A900649E0540F900598F078997C0594
:101002007D017B017A0579887E007F0412208D9014
:101012000649E0FF90059FF0900598E0C394325096
:10102200279005A1E0B4010CEF540F2477F582E478
:101032003403800D900649E0540F2446F582E434CF
:1010420000F583E0900598F0900598E0FF64336026
:1010520008EF6005125C4B803F9005A4E0FF90040E
:10106200CFE0C39F5003E004F07B017A05799890AA
:101072000649E0540F9005ACF07F9212386F90054C
:10108200AB7401F0A37400F0A37456F07B017A05EF
:1010920079981234710214F0126BB17B017A0579DE
:1010A20098900649E0540F9005ACF07F9112386F8A
:1010B2009005AB7401F0A37405F0A37498F07B0162
:1010C2007A00795612525A12407C12599B7F5F1253
:1010D2007680021633E4FF12772E900649E0FF5421
:1010E200F06003021355900647E0C4540FFE9005CA
:1010F200A5E06E6003021355EEC3940A4003021387
:10110200559005A1E0B4010CEF540F2477F582E469
:101112003403800D900649E0540F2446F582E434EE
:1011220000F583E0900598F0900647E0FFC4540F65
:10113200900599F0EF540FA3F0900648E0FFC454D5
:101142000F90059BF0EF540FA3F0900647E0900537
:101152009DF0900648E090059EF0900649E09005CB
:101162009FF09005A3E064017068900598E0FF6429
:10117200336008EF6005125C4B802F7B017A0579A2
:1011820098900649E0540F9005ACF07F9212386FA8
:101192009005AB7401F0A37400F0A37456F07B01C8
:1011A2007A0579981234710214F09005A4E0FF9048
:1011B20004CFE0C39F5003E004F07B017A057998E5
:1011C200900649E0540F9005ACF07F9112386F02FF
:1011D20019AB9005A3E0640260030219AB90059875
:1011E200E0FF64336003EF702F7B017A05799890FA
:1011F2000649E0540F9005ACF07F9212386F9005CB
:10120200AB7401F0A37400F0A37456F07B017A056D
:1012120079981234710214F0E4900596F09005A4C6
:10122200E0FF900596E0FEC39F40030212CEEE75EA
:10123200F008A4FFAEF02457F58274003EF583E077
:10124200FD900599E0FCED6C707974582FF582746D
:10125200003EF583E0FF90059AE0FEEF6E70649029
:101262000596E075F008A4FFAEF02459F5827400EB
:101272003EF583E0FD90059BE0FCED6C7045745AF1
:101282002FF58274003EF583E0FF90059CE0FEEFAF
:10129200B50630900596E0A3F075F008A42456F93F
:1012A200740035F0FA7B01C0039005ABEBF0A37438
:1012B20005F0A37498F0D00312525A12407C1259CE
:1012C2009B8009900596E004F002121F9005A4E0AD
:1012D200FF900597E06F60030219AB900596F090BE
:1012E20005A4E0FD900596E0FFC39D40030219AB03
:1012F200EF75F008A42456F582740035F0F583E00A
:1013020070499004CFE0C39D5003E004F07B017A62
:10131200057998900649E0540F9005ACF07F911240
:10132200386F900596E075F008A42456F9740035DC
:10133200F0FA7B01C0039005ABEBF0A37405F0A3B8
:101342007498F0D00312525A0214F0900596E004F9
:10135200F0808C7B017A057988900590E0FCA3E00F
:10136200FDA3E0FEA3E0FF1261BAEF3395E0FE9029
:101372000594F0A3EFF04E70030219AB900590E0D4
:10138200FCA3E0FDA3E0FEA3E0FF90057BE0F8A351
:10139200E0F9A3E0FAA3E0FBC31221AA70091277D5
:1013A2006AEF601F0219AB900590E0FCA3E0FDA379
:1013B200E0FEA3E0FF90057B12223812775E7F01E8
:1013C200127764900594E0FEA3E0FF64014E70087A
:1013D2009005987433F08018EF64024E70089005FF
:1013E200987434F0800A900649E0540F900598F002
:1013F20078997C057D017B017A0579887E007F04DE
:1014020012208D900649E0FF90059FF0900598E02C
:10141200C3943250279005A1E0B4010CEF540F247D
:1014220077F582E43403800D900649E0540F244698
:10143200F582E43400F583E0900598F09005A3E08E
:1014420064017067900598E0FF64336008EF6005FF
:10145200125C4B802E7B017A057998900649E05404
:101462000F9005ACF07F9212386F9005AB7401F0CB
:10147200A37400F0A37456F07B017A0579981234B4
:1014820071806B9005A4E0FF9004CFE0C39F5003EE
:10149200E004F07B017A057998900649E0540F90B8
:1014A20005ACF07F9112386F0216339005A3E06409
:1014B200026003021633900598E0FF64336003EF85
:1014C20070357B017A057998900649E0540F9005B2
:1014D200ACF07F9212386F9005AB7401F0A37400E8
:1014E200F0A37456F07B017A057998123471124098
:1014F2007C12599B0219ABE4900596F09005A4E08A
:10150200FF900596E0FEC39F40030215ADEE75F015
:1015120008A4FFAEF02457F58274003EF583E0FD87
:10152200900599E0FCED6C707974582FF582740087
:101532003EF583E0FF90059AE0FEEF6E7064900541
:1015420096E075F008A4FFAEF02459F58274003ECF
:10155200F583E0FD90059BE0FCED6C7045745A2F1D
:10156200F58274003EF583E0FF90059CE0FEEFB546
:101572000630900596E0A3F075F008A42456F9749D
:101582000035F0FA7B01C0039005ABEBF0A37405C4
:10159200F0A37498F0D00312525A12407C12599B55
:1015A2008009900596E004F00214FE9005A4E0FF85
:1015B200900597E06F707A900596F09005A4E0FD93
:1015C200900596E0FFC39D5068EF75F008A424567D
:1015D200F582740035F0F583E0704E9004CFE0C3DD
:1015E2009D5003E004F07B017A057998900649E06A
:1015F200540F9005ACF07F9112386F900596E0750C
:10160200F008A42456F9740035F0FA7B01C0039067
:1016120005ABEBF0A37405F0A37498F0D00312525B
:101622005A12407C12599B8008900596E004F08083
:101632008A1277760219AB7F3512768078807C0524
:101642007D017B017A0579D77E007F0412208D907F
:101652000648E0FFE4FCFDFE78081221BBC004C08E
:1016620005C006C007900647E0FFE4FCFDFE7810C7
:101672001221BBD003D002D001D000EF4BFBEE4AC7
:10168200FAED49F9EC48F8900649E0FFEB4FFFEA22
:10169200FEE9FDE8FC9005841222387B017A057987
:1016A20080124E0350030219AB1275719005DAE0F5
:1016B2006409703D9005D9E06409702F9005D8E067
:1016C200B409229005D7E004F0E4A3F0A3F090055A
:1016D200D7E0B4150AE4F09005DA04F00219AB90F1
:1016E20005DA0219249005D802192D9005D902199C
:1016F2003A9005DA0219457F3912768078807C05A6
:101702007D017B017A0579E17E007F0412208D90B4
:101712000648E0FFE4FCFDFE78081221BBC004C0CD
:1017220005C006C007900647E0FFE4FCFDFE781006
:101732001221BBD003D002D001D000EF4BFBEE4A06
:10174200FAED49F9EC48F8900649E0FFEB4FFFEA61
:10175200FEE9FDE8FC9005841222387B017A0579C6
:101762008012495050030219AB1275719005E4E0E2
:101772006409703D9005E3E06409702F9005E2E092
:10178200B409229005E1E004F0E4A3F0A3F090058F
:10179200E1E0B4150AE4F09005E404F00219AB901C
:1017A20005E40219249005E202192D9005E30219BD
:1017B2003A9005E40219457F3D12768078807C05D7
:1017C2007D017B017A0579EC7E007F0412208D90E9
:1017D2000648E0FFE4FCFDFE78081221BBC004C00D
:1017E20005C006C007900647E0FFE4FCFDFE781046
:1017F2001221BBD003D002D001D000EF4BFBEE4A46
:10180200FAED49F9EC48F8900649E0FFEB4FFFEAA0
:10181200FEE9FDE8FC9005841222387B017A057905
:10182200801245A950030219AB1275719005EFE0C1
:101832006409703D9005EEE06409702F9005EDE0BB
:10184200B409229005ECE004F0E4A3F0A3F09005C3
:10185200ECE0B4150AE4F09005EF04F00219AB9045
:1018620005EF0219249005ED02192D9005EE0219DB
:101872003A9005EF0219457F4112768078807C0507
:101882007D017B017A0579F87E007F0412208D901C
:101892000648E0FFE4FCFDFE78081221BBC004C04C
:1018A20005C006C007900647E0FFE4FCFDFE781085
:1018B2001221BBD003D002D001D000EF4BFBEE4A85
:1018C200FAED49F9EC48F8900649E0FFEB4FFFEAE0
:1018D200FEE9FDE8FC9005841222387B017A057945
:1018E200801246E150030219AB1275719005FBE0BC
:1018F2006409704C9005FAE0640970399005F9E0CA
:10190200B409259005F8E004F0E4A3F0A3F09005F3
:10191200F8E0B4150AE4F09005FB04F00219AB906C
:1019220005FB7401F00219AB9005F9E004F0E4A3A1
:10193200F0A3F080749005FAE004F0E4A3F080696B
:101942009005FBE004F08061E4FF1276F890057FD9
:101952007401F09005A1E0B40124A3E0FF900649D0
:10196200E0540F2477F582E43403F583EFF07B0132
:101972007A0379779005BF7410F07D20802490055A
:10198200A2E0FF900649E0540F2446F582E43400B9
:10199200F583EFF07B017A0079469005BF7410F071
:1019A2007D307C157FA012644F1277761255AE02FD
:0219B2003D9066
:0577940090057FE0FFFD
:0177990022CD
:06779A0090057FEFF022D4
:10605500E4900588F012769E900588EFF030A467ED
:106065009004DBE06061127770EF705B9004D0E024
:1060750060411265897F0A7E0012740A7B017A05E8
:106085007980900580E0FD9005BAE4F0A3EDF090ED
:106095000587E0540F9005BCF0900588E0FF1232AB
:1060A500179004D0E014F0E0701D7B017A0479DBD1
:1060B50002574A1276A49004D0EFF01265897B014D
:0760C5007A057980125B0AE5
:0160CC0022B1
:105C4B009005AB7401F0A37404F0A374DBF07B013B
:045C5B007A057998B5
:0B5C5F009005A8EBF0A3EAF0A3E9F029
:105C6A00E49005AEF0FDA37414F0E49005AEF09054
:105C7A0005AEE0FFC394145063EF75F008A4FF90DB
:105C8A0005ABE0FBA3E0FAA3E0F98F8285F083126B
:105C9A0020CC7040FD9005A8E0FBA3E0FAA3E0F950
:105CAA008D827583001220CCFC9005AEE075F00859
:105CBA00A4FF9005ABE0FBA3E0FAA3E02FF9EA35D5
:105CCA00F0FAED7E0029F9EE3AFAEC1220F90DED20
:0C5CDA00B408C2229005AEE004F08093F4
:015CE600229B
:1065890090058C7401F0A37404F0A374DBF07B0113
:046599007A05798086
:0B659D00900589EBF0A3EAF0A3E9F001
:1065A800E4FF90058CE0FBA3E0FAA3E0F98F827585
:1065B80083001220CCFE900589E0FBA3E0FAA3E05B
:0F65C800F98F82758300EE12210B0FEFB408D309
:0165D70022A1
:0B67500090058EEBF0A3EAF0A3E9F047
:10675B00E4FF90058EE0FBA3E0FAA3E0F9EFFD7CEC
:10676B0000E92DF9EC3AFA9000081220CCFE9005C6
:10677B008EA3E0FAA3E0F98F82758300EE12210B52
:05678B000FEFB408CD82
:0167900022E6
:0B574A00900589EBF0A3EAF0A3E9F062
:10575500E4A3F0A37414F0E490058CF090058CE0BC
:10576500FFC39414502BEF75F008A4FF900589E052
:10577500FBA3E0FAA3E0F98F8285F0831220CC70B9
:105785000890058CE0A3F0800890058CE004F0807B
:10579500CBE490058CF090058DE014FF90058CE02E
:1057A500FEC39F5021EE75F008A4FF900589E0FB2C
:1057B500A3E0FAA3E02FF9EA35F0FA126750900555
:1057C5008CE004F080D0E490058CF090058CE0FD31
:1057D500C394085037A3E024FFFFE434FFFEEF78BD
:1057E50003C333CE33CED8F9FF900589E0FBA3E0A0
:1057F500FAA3E02FF9EA3EFAED7E0029F9EE3AFA2E
:0C580500E41220F990058CE004F080BF54
:015811002274
:0B5B0A00900589EBF0A3EAF0A3E9F09E
:105B1500E4A3F0C00390059004F0A37400F0A3740F
:105B250056F0D003123F0C12768C90058CEFF09056
:105B3500058CE0FFD394014026EF24FEFFE434FFFB
:105B4500FEEF7803C333CE33CED8F92456F974006B
:105B55003EFA7B011265E190058CE014F080D0E4FB
:105B650090058CF090058CE0FFC394065014745694
:105B75002FF582E43400F583E4F090058CE004F021
:105B850080E2900589E0F9A3E0FAA3E09005ABC9AE
:105B9500F0A3EAF0A3E9F07B017A00795612525A94
:065BA50012407C02599B36
:105BAB00FFFFFFFFFFFFFFFFFFFFFFFFFFFFFFFFFA
:105BBB00FFFFFFFFFFFFFFFFFFFFFFFFFFFFFFFFEA
:105BCB00FFFFFFFFFFFFFFFFFFFFFFFFFFFFFFFFDA
:105BDB00FFFFFFFFFFFFFFFFFFFFFFFFFFFFFFFFCA
:105BEB00FFFFFFFFFFFFFFFFFFFFFFFFFFFFFFFFBA
:105BFB00FFFFFFFFFFFFFFFFFFFFFFFFFFFFFFFFAA
:105C0B00FFFFFFFFFFFFFFFFFFFFFFFFFFFFFFFF99
:105C1B00FFFFFFFFFFFFFFFFFFFFFFFFFFFFFFFF89
:105C2B00FFFFFFFFFFFFFFFFFFFFFFFFFFFFFFFF79
:105C3B00FFFFFFFFFFFFFFFFFFFFFFFFFFFFFFFF69
:03780400DFFE2282
:1073F500AE07AF061EEF600C7FF51278047FF5121D
:05740500780480EE2276
:1073CA00D2B400D2B50000000000C2B40000000030
:0673DA0000C2B500002214
:10751F00C2B400D2B50000000000D2B400000000D9
:01752F002239
:10680F00E4FEEFA806088002C333D8FC30E704D2B9
:10681F00B48002C2B400D2B50000000000C2B50EB1
:10682F00EEB408DE0000D2B40000D2B50000003094
:0C683F00B404C20A8002D20AC2B50000F4
