:03000000025FE2BA
:0C5FE200787FE4F6D8FD7581210260296B
:106A6A00126F441274A41274DF1275C512750E12D5
:106A7A0072D41274C375B10CE4F5B21261C4123B3C
:0C6A8A00EC120FA41200461263E180F52C
:0F74B4004F4B535049005350494F4B004F4B0023
:101CB0004105D7004405DA000000004105D300418A
:101CC00005DE004105D9004305CFFF74B44305CCC0
:101CD000FF74BA4305D4FF74C04105D8004105D252
:011CE0000003
:03002300025A5529
:0D5A5500C0E0C0F0C083C082C0D075D00892
:105A620090051DE4F0209803025B04C298E599F0CA
:105A72001275CCBF6922900376E0B4011B90051D1C
:105A8200E0FFB4AA089003767402F08075EF6455C3
:105A92007070900376F0806A1275CCEF646A70625F
:105AA20090051DE0FFB4AA189005D8E0701290038B
:105AB2009474AAF09005D27401F09005D8F0804257
:105AC2009005D8E06401703A9005D2E02494F58202
:105AD200E43403F583EFF09005D2E004F0E0B40A79
:105AE20021E4F09005D8F0900394E0B4AA0F90035B
:105AF2009DE0B455089003917401F080057F551222
:095B02007519309904C299C20919
:0B5B0B00D0D0D082D083D0F0D0E032A8
:03004300025E2F2B
:0D5E2F00C0E0C0F0C083C082C0D075D008B4
:105E3C00E4FFE59A30E069539AFEAF9B9005D7E0FA
:105E4C00640170309005D9E0FEB401139005D3E0E5
:105E5C00FD04F074DA2DF582E43405F583EFF0EFF0
:105E6C00B44F11EE700E9005D904F09005D3F0905C
:105E7C0005DAEFF09005D3E0B402259005D7E4F0F5
:105E8C009005D9F078DA7C057D019005D4E0FBA370
:105E9C00E0FAA3E0F9122642EF70059005DE04F05B
:0A5EAC00E59A30E105539AFDC209A2
:0B5EB600D0D0D082D083D0F0D0E032FA
:097519002009FDEFD209F59922C9
:10693D00900613EBF0A3EAF0A3E9F0900613E0FB49
:10694D00A3E0FAA3E0F91223076017900613A3E45E
:10695D0075F0011223E8A9F0FA122307FF12751939
:03696D0080D922AC
:097522002009FDEFD209F59B22BE
:10697000900616EBF0A3EAF0A3E9F0900616E0FB10
:10698000A3E0FAA3E0F91223076017900616A3E428
:1069900075F0011223E8A9F0FA122307FF127522FD
:0369A00080D92279
:09752B002009FDEFD209F59922B7
:1069A300900619EBF0A3EAF0A3E9F0900619E0FBD7
:1069B300A3E0FAA3E0F91223076017900619A3E4F2
:1069C30075F0011223E8A9F0FA122307FF12752BC1
:0369D30080D92246
:106F4400E5A2543FF5A253BAFE759850759A507550
:106F5400D7C875D6FE758E14438E01D2AC75AF01B9
:036F6400D2AF2287
:0B6337009003A1EBF0A3EAF0A3E9F053
:106342009003CC7401F0A37403F0A374A4F090033F
:10635200A1E0F9A3E0FAA3E090060DC9F0A3EAF0E8
:10636200A3E9F09003CCE0F9A3E0FAA3E0900610D1
:10637200C9F0A3EAF0A3E9F07B017A0379CF1266B0
:0A638200657B017A0379CF02693DC3
:102E65000000000000FF6EFC0102661400FF000672
:102E75000203011500FF71410304021900FF715F90
:102E85000405031D00FF717D0506041F00FF719BEE
:102E95000607052000FF71B90708062100FF71D755
:102EA5000809072600FF71F5090A082A00FF7213B1
:102EB5000A0B092C00FF72310B0C0A0B00FF001ED8
:102EC5000C0D0B0C00FF76F20D0E0C0D00FF76F7C6
:102ED5000E660D0E00FF000E0F0F0F1201FF661B91
:102EE5001010100F01FF68621111111001FF689A8F
:102EF5001212121401FF6F201313131101FF6B40FF
:102F05001414141301FF6A091516183502FF73BE50
:102F15001617153902FF73D01718163D02FF73E215
:102F25001815174102FF73F4191A1C4503FF74069F
:102F35001A1B194903FF74181B1C1A4D03FF742A29
:102F45001C191B5103FF743C1D1E1E5204FF76FC09
:102F55001E1D1D5304FF77011F1F1F1F05FF753D14
:102F65002020202006FF75452122645407FF77069F
:102F75002223215507FF770B2324225607FF7710BD
:102F85002425235707FF77152560245807FF771A4F
:102F95002627295908FF771F2728265A08FF77244F
:102FA5002829275B08FF77292926285C08FF772E23
:102FB5002A2B2B2A09FF74D12B2A2A5E09FF773386
:102FC5002C2D2D000AFF77382D2C2C000AFF773D7C
:102FD5002E2E2E2E0BFF72882F2F2F2F0CFF754DA7
:102FE500303030300DFF7555313131310EFF652FE1
:102FF5003232323515FF705C3333333215FF707E54
:103005003434343315FF70A03535353415FF0026BB
:103015003636363916FF6B683737373616FF6B90FD
:103025003838383716FF6BB83939393816FF6F67B6
:103035003A3A3A3D17FF6BE03B3B3B3A17FF6C08CA
:103045003C3C3C3B17FF6C303D3D3D3C17FF6F8AD8
:103055003E3E3E4118FF6C583F3F3F3E18FF6C8097
:103065004040403F18FF6CA84141414018FF6FADFB
:103075004242424519FF6CD04343434219FF6CF865
:103085004444444319FF6D204545454419FF6FD01D
:10309500464646491AFF6D48474747461AFF6D7031
:1030A500484848471AFF6D98494949481AFF6FF340
:1030B5004A4A4A4D1BFF6DC04B4B4B4A1BFF6DE8FF
:1030C5004C4C4C4B1BFF6E104D4D4D4C1BFF701661
:1030D5004E4E4E511CFF6E384F4F4F4E1CFF6E60CB
:1030E5005050504F1CFF6E88515151501CFF703984
:1030F500525252521DFF755D535353531EFF756552
:103105005454545421FF756D5555555522FF757509
:103115005656565623FF757D5757575724FF724FFE
:103125005858585825FF75855959595926FF744ED1
:103135005A5A5A5A27FF758D5B5B5B5B28FF75955D
:103145005C5C5C5C29FF759D5D5D5D5D2AFF67EEDE
:103155005E5E5E5E2BFF68D25F5F5F5F5FFF65CD82
:103165006062256107FF77426161616160FF75A556
:103175006264606307FF77476363636362FF75ADEE
:103185006421626507FF774C6565656564FF75B504
:1031950066010E6600FF77516768686966FF7346CA
:1031A5006867676A66FF74606969696967FF59924C
:0831B5006A6A6A6A68FF5D06A0
:101CE1004105220041055400410523004505270017
:101CF10000000100450531000000010045053C00E0
:101D010000000100450548000000010045052C00C8
:101D110000000100450537000000010045054300B2
:101D21000000010045054E0000000100410536019B
:101D3100410542014105410041054D004105530066
:101D4100410556014105590041055C0641055E0307
:101D510041055F0141056000410561004105550BE9
:101D61004105580041055B0041055D0041055702F1
:101D710041055A004105200141056201410521014A
:1026F700E49004D2F0A3F0A3F0A3F0A3F030B30C5E
:1027070030B60930B70630A503022AFB1274C3306E
:10271700B30C30B60930B70630A503022AFB127690
:102727008620B3099004D2E4F0A37438F020B609E8
:102737009004D2E4F0A37434F020B7099004D2E4F3
:10274700F0A3742CF020A5099004D2E4F0A3741C24
:10275700F09004D2E07004A3E064386003022A908A
:102767001276747F0112766830B303022A909004C0
:10277700D5E06003022A90127656EF700690052383
:10278700E06013127656EF64017048900523E0FF6E
:102797006004645F703D12766E9004D4EFF0C394CA
:1027A7001440C59005237402F0E49004D2F0A3F01E
:1027B700D2CDC2977F0112710312760EBF010A7F35
:1027C7006F7E001269DC0229DA7F787E00126828A2
:1027D7000229DA900523E0FF6442600FEF6443604B
:1027E7000AEF64446005EF6445702F12766E90041B
:1027F700D4EFF0C3940A500302276FE49004D2F099
:10280700A3F07B017A05792C12536540077F797E07
:10281700001269DC1274C30229DA900523E0FF6411
:1028270046600FEF6447600AEF64486005EF64494C
:10283700702F12766E9004D4EFF0C3940A500302FF
:10284700276FE49004D2F0A3F07B017A0579371261
:10285700524140077F797E001269DC1274C3022956
:10286700DA900523E0FF644A600FEF644B600AEFDC
:10287700644C6005EF644D702F12766E9004D4EFB0
:10288700F0C3940A500302276FE49004D2F0A3F038
:102897007B017A057943124EC540077F797E001286
:1028A70069DC1274C30229DA900523E0FF644E60E5
:1028B7000FEF644F600AEF64506005EF6451702FAB
:1028C70012766E9004D4EFF0C3940A500302276F78
:1028D700E49004D2F0A3F07B017A05794E124FF011
:1028E70040077F797E001269DC1274C30229DA90EF
:1028F7000523E0B40C2B12766E9004D4EFF0C3944A
:1029070014500302276FE49004D2F0A3F09005233C
:10291700742FF01276569004D6EFF01272ED02295A
:10292700DA900523E0B40D2B12766E9004D4EFF005
:10293700C39414500302276FE49004D2F0A3F090DD
:1029470005237430F01276509004D6EFF01272ED32
:102957000229DA900523E0B40E1F12766E9004D494
:10296700EFF0C39414500302276FE49004D2F0A34E
:10297700F09005237431F0805A900523E0B4662463
:1029870012766E9004D4EFF0C39414500302276FAD
:10299700E49004D2F0A3F09005237467F07F01124E
:1029A7007122802F900523E0B42A3412766E9004AA
:1029B700D4EFF0C39414500302276FE49004D2F0CD
:1029C700A3F0900523745DF01276389004D6EFF0EB
:1029D7001272ED9004D57401F012767402276F908D
:1029E7000523E0642D702512766E9004D4EFF0C3B2
:1029F7009414500302276FE49004D2F0A3F07F7978
:102A0700FE1269DC12638C125C6E8067900523E00E
:102A1700642C600302276F12766E9004D4EFF0C324
:102A27009414500302276FE49004D2F0A3F07F7947
:102A3700FE1269DC12638C1267B2125C6E7B017A3C
:102A470003797790050F7410F07D207C157FA01215
:102A570064451274C37B017A00794690050F7410A0
:102A6700F07D307C157FA01264451274C312628218
:102A77001274C375C760E4900523F09004D504F081
:102A870012767475C13002276F30B3FD30B6FA3055
:102A9700B7F730A5F41274C330B3FD30B6FA30B7C8
:102AA700F730A5F4E4FF127668E4FF12768090050C
:102AB70023E0645E602312760EEF6011900523E039
:102AC700D3940E40047F0180067F0080027F01EFD0
:102AD70060077F787E001268289004D5E070079021
:102AE700052204F08005E4900522F09004D2E0FE70
:082AF700A3E0FF227E0F7FFF28
:012AFF0022B4
:104D9900E49004D0F0A3F0FF1226F79004D0EEF0CF
:104DA900A3EFF01276DA9004D0E0640F7003A3E069
:104DB900F46003024E9AEF64016003024E9A900573
:104DC90023E0FF601C640B6018EF640C6013EF6450
:104DD9000D600EEF640E6009EF642D6004EFB42CD2
:104DE9002A900599E0540FFFBF0808900554E00484
:104DF900F08005E4900554F0900554E0D394034005
:104E09000A7F1412768CE4900554F01276E012763B
:104E190098EF6005E4900522F0900599E0540FFFA2
:104E2900640860069005227401F0EF24FE602924CD
:104E3900FE603524FC60412407705612769EEF709F
:104E4900509004D0F0A3741CF0900523E0B431060F
:104E59001273841274C3803412769EEF70339004F7
:104E6900D0F0A37434F0802412769EEF702390045E
:104E7900D0F0A3742CF08014127698EF7013127688
:104E89009EEF700D9004D0F0A37438F07F05127670
:104E9900A49004D0E0FEA3E0FFEE701DEF24D460DF
:104EA9001224F8600B24FC600D241C700C7F032273
:0B4EB9007F02227F01227F00227FFF8A
:014EC40022CB
:100FA400E4FF9004CFF0124D99EF1470030212E3A2
:100FB4001470030217E21470030212BD24036003C9
:100FC400021C85127656EF7006900523E06012121B
:100FD4007656EF64017022900523E0FF6003B45F4E
:100FE4001812766E9004CFEFF0C394145003021CD1
:100FF400859005237402021147900523E0FF6442A3
:10100400600FEF6443600AEF64446005EF64457069
:101014002D12766E9004CFEFF0C3940A40657B01E5
:101024007A05792C1253654057127644BF010C7F20
:10103400797E001269DCE4FF12764A0211129005EF
:1010440023E0FF6446600FEF6447600AEF64486082
:1010540005EF6449703012766E9004CFEFF0C394BC
:101064000A40207B017A05793712524140121276E8
:1010740044BF010C7F797E001269DCE4FF12764ADA
:10108400021112021118900523E0FF644A600FEF69
:10109400644B600AEF644C6005EF644D702E127669
:1010A4006E9004CFEFF0C3940A401F7B017A057958
:1010B40043124EC54012127644BF010C7F797E0064
:1010C4001269DCE4FF12764A80448048900523E0EC
:1010D400FF644E600FEF644F600AEF64506005EFE9
:1010E4006451704312766E9004CFEFF0C3940A40BB
:1010F400237B017A05794E124FF04012127644BFD9
:10110400010C7F797E001269DCE4FF12764A1274C6
:10111400C30212B7900523E075F008A42468F58291
:10112400E5F0342E021C7D900523E0B40B1E1276EC
:101134006E9004CFEFF0C394145003021C85900505
:1011440023742EF07F061275030212B7900523E074
:10115400B40C1E12766E9004CFEFF0C394145003B7
:10116400021C85900523742FF07F0612750302126A
:10117400B7900523E0B40D1E12766E9004CFEFF005
:10118400C394145003021C859005237430F07F0629
:101194001275030212B7900523E0B40E1E12766E88
:1011A4009004CFEFF0C394145003021C85900523E0
:1011B4007431F07F061275030212B7900523E0B470
:1011C400661E12766E9004CFEFF0C394145003029F
:1011D4001C859005237467F07F061275030212B70D
:1011E400900523E0B42A1E12766E9004CFEFF0C36C
:1011F40094145003021C85900523745DF07F06123D
:1012040075030212B7900523E0642D701F12766EE9
:101214009004CFEFF0C394145003021C857F797EB1
:10122400001269DC12638C125C6E805E900523E010
:10123400642C706712766E9004CFEFF0C394145050
:1012440003021C857F797E001269DC12638C1267AD
:10125400B2125C6E7B017A03797790050F7410F0FB
:101264007D207C157FA01264451274C37B017A0033
:10127400794690050F7410F07D307C157FA01264C0
:10128400451274C31262821274C375C7607F06125A
:10129400750312767475C130021C85900523E075C0
:1012A400F008A42468F582E5F0342EF583E49390E5
:1012B4000523F0127674021C85900523E0B45F0CBC
:1012C400127656EF6006125D9B021C85900523E0A2
:1012D40075F008A42469F582E5F0342E021C7D9093
:1012E4000523E0122498139F0F13B11013C0111398
:1012F400CF1213E21313F41416701F1684201782EE
:101304002F176E30140632141833142A34143C3553
:10131400144E3614603714723814843914963A14FF
:10132400A83B14BA3C14CC3D14DE3E14F03F150225
:1013340040151441152642153843154A44155C4599
:10134400156E4615804715924815A44915B64A15D9
:10135400C84B15DA4C15EC4D15FE4E16104F1622DF
:1013640050163451164552165B5316985416AC5504
:1013740016C15616D35716E75816FB59170F5A17A6
:10138400205B17315C17425D17565E17695F17952E
:101394006117A86317BB65000017CF9005E0E0B4A0
:1013A4006305E4F00217CF9005E00217649005E1AD
:1013B400E0B40C02801C9005E10217649005E2E0A1
:1013C400B41F02800D9005E20217649005E6E0B4B4
:1013D40007067401F00217CF9005E6021764900522
:1013E400E3E0B41705E4F00217CF9005E3021764B5
:1013F4009005E4E0B43B05E4F00217CF9005E40265
:101404001764900527E0B41405E4F00217CF9005A3
:1014140027021764900528E0B40905E4F00217CF09
:10142400900528021764900529E0B40905E4F00248
:1014340017CF90052902176490052AE0B40905E442
:10144400F00217CF90052A021764900531E0B41416
:1014540005E4F00217CF900531021764900532E0DD
:10146400B40905E4F00217CF900532021764900521
:1014740033E0B40905E4F00217CF90053302176492
:10148400900534E0B40905E4F00217CF9005340266
:10149400176490053CE0B41405E4F00217CF9005FE
:1014A4003C02176490053DE0B40905E4F00217CF4F
:1014B40090053D02176490053EE0B40905E4F0028E
:1014C40017CF90053E02176490053FE0B40905E488
:1014D400F00217CF90053F021764900548E0B4145A
:1014E40005E4F00217CF900548021764900549E01F
:1014F400B40905E4F00217CF90054902176490057A
:101504004AE0B40905E4F00217CF90054A021764D3
:1015140090054BE0B40905E4F00217CF90054B02A7
:10152400176490052CE0B41405E4F00217CF90057D
:101534002C02176490052DE0B40905E4F00217CFDE
:1015440090052D02176490052EE0B40905E4F0021D
:1015540017CF90052E02176490052FE0B40905E417
:10156400F00217CF90052F021764900537E0B414EA
:1015740005E4F00217CF900537021764900538E0B0
:10158400B40905E4F00217CF9005380217649005FA
:1015940039E0B40905E4F00217CF90053902176465
:1015A40090053AE0B40905E4F00217CF90053A0239
:1015B4001764900543E0B41405E4F00217CF9005D6
:1015C40043021764900544E0B40905E4F00217CF20
:1015D400900544021764900545E0B40905E4F0025F
:1015E40017CF900545021764900546E0B40905E459
:1015F400F00217CF90054602176490054EE0B4142C
:1016040005E4F00217CF90054E02176490054FE0F1
:10161400B40905E4F00217CF90054F021764900552
:1016240050E0B40905E4F00217CF900550021764A6
:10163400900551E0B40904E4F08006900551E004FB
:10164400F0900536E0B401067402F00217CC900560
:10165400367401F00217CC900542E0B463057401BE
:10166400F08006900542E004F00217CC900541E0BA
:10167400B46304E4F08006900541E004F00217CC62
:1016840090054DE0B46304E4F0800690054DE00459
:10169400F00217CC900553E0B40704E4F080069000
:1016A4000553E004F00217CC900556E0B409057424
:1016B40001F08006900556E004F00217CC9005591D
:1016C400E0700404F08005E4900559F00217CC9012
:1016D400055CE0B40904E4F0800690055CE004F0E5
:1016E4000217CC90055EE0B40704E4F08006900590
:1016F4005EE004F00217CC900555E0B40A04E4F06F
:101704008006900555E004F00217CC900558E0B42B
:101714000B05E4F00217CF900558804490055BE078
:10172400B40B05E4F00217CF90055B803390055DA0
:10173400E0B40B05E4F00217CF90055D802290051C
:1017440057E0B401057402F080069005577401F067
:10175400807690055AE0B42604E4F0806E90055A31
:10176400E004F08066125B168061900562E0B401CB
:10177400057402F080069005627401F0804A9005B9
:1017840020E0B40104E4F080069005207401F080A8
:101794003790055FE0B40104E4F0800690055F74BF
:1017A40001F08024900560E0B40104E4F080069028
:1017B40005607401F08011900561E0B40104E4F067
:1017C40080069005617401F0125C6E900523E0754B
:1017D400F008A42466F582E5F0342E021C7D900501
:1017E40023E0122498189E0F18B01018C31118D6AD
:1017F4001218E91318FB141B161F1B2A201C202F78
:101804001C0C30190D32191C33192B34193A3519A3
:10181400493619583719673819763919853A199498
:101824003B19A33C19B23D19C13E19D03F19DF4001
:1018340019EE4119FD421A0C431A1B441A2A451A7F
:1018440039461A47471A56481A65491A734A1A817B
:101854004B1A8F4C1A9D4D1AAB4E1ABD4F1ACB50D2
:101864001AD9511AEB521B01531B3E541B52551BE0
:1018740067561B79571B8D581BA1591BB55A1BC2A0
:101884005B1BCF5C1BE05D1BF45E1C075F1C3361BC
:101894001C46631C596500001C6D9005E0E0700651
:1018A4007463F0021C6D9005E0021C029005E1E0F7
:1018B400B40106740CF0021C6D9005E1021C029048
:1018C40005E2E0B40106741FF0021C6D9005E2020B
:1018D4001C029005E6E0B401067407F0021C6D904A
:1018E40005E6021C029005E3E070067417F0021C82
:1018F4006D9005E3021C029005E4E07006743BF071
:10190400021C6D9005E4021C02900527E07003029E
:101914001AB1900527021C02900528E07003021AF0
:10192400DF900528021C02900529E07003021ADFEB
:10193400900529021C0290052AE07003021ADF9028
:10194400052A021C02900531E07003021AB19005C9
:1019540031021C02900532E07003021ADF90053256
:10196400021C02900533E07003021ADF9005330273
:101974001C02900534E07003021ADF900534021C47
:101984000290053CE07003021AB190053C021C026F
:1019940090053DE07003021ADF90053D021C0290A1
:1019A400053EE07003021ADF90053E021C0290051A
:1019B4003FE07003021ADF90053F021C02900548C5
:1019C400E07003021AB1900548021C02900549E038
:1019D4007003021ADF900549021C0290054AE07068
:1019E40003021ADF90054A021C0290054BE07003C3
:1019F400021ADF90054B021C0290052CE0700302D2
:101A04001AB190052C021C0290052DE07003021AF5
:101A1400DF90052D021C0290052EE07003021ADFF0
:101A240090052E021C0290052FE07003021ADF902D
:101A3400052F021C02900537E07002807090053774
:101A4400021C02900538E07003021ADF9005380288
:101A54001C02900539E07003021ADF900539021C5C
:101A64000290053AE07002807290053A021C0290DE
:101A74000543E070028036900543021C0290054441
:101A8400E070028056900544021C02900545E07007
:101A9400028048900545021C02900546E0700280D1
:101AA4003A900546021C0290054EE070067414F04C
:101AB400021C6D90054E021C0290054FE0700280DE
:101AC4001A90054F021C02900550E07002800C90A1
:101AD4000550021C02900551E070067409F0021CC6
:101AE4006D900551021C02900536E0B401067402A3
:101AF400F0021C6A9005367401F0021C6A900542DB
:101B0400E0B401057463F08006900542E014F0022D
:101B14001C6A900541E070057463F08006900541ED
:101B2400E014F0021C6A90054DE070057463F080C7
:101B34000690054DE014F0021C6A900553E0700510
:101B44007407F08006900553E014F0021C6A9005B7
:101B540056E0B401057409F08006900556E014F0CF
:101B6400021C6A900559E0700404F08005E49005B5
:101B740059F0021C6A90055CE070057409F0800657
:101B840090055CE014F0021C6A90055EE070057438
:101B940007F0800690055EE014F0021C6A9005557B
:101BA400E07005740AF08006900555E014F0021CFC
:101BB4006A900558E070028018900558804090059E
:101BC4005BE07002800B90055B803390055DE070F4
:101BD40006740BF0021C6D90055D8022900557E0A1
:101BE400B401057402F080069005577401F0807604
:101BF40090055AE070057426F0806E90055AE01442
:101C0400F080661254798061900562E0B401057435
:101C140002F080069005627401F0804A900520E08D
:101C2400B40104E4F080069005207401F08037903C
:101C3400055FE0B40104E4F0800690055F7401F0F0
:101C44008024900560E0B40104E4F080069005600F
:101C54007401F08011900561E0B40104E4F08006A1
:101C64009005617401F0125C6E900523E075F00834
:101C7400A42467F582E5F0342EF583E493900523DC
:101C8400F0900523E075F008A4246AF582E5F034A9
:101C94002EF583E493FB740193FA740293F990058F
:0C1CA40024EBF0A3EAF0A3E9F00224BE58
:0D74C3007F047E347DDCDDFEDEFADFF600A6
:0174D0002299
:0575CC00900523E0FF23
:0175D1002297
:0675D200900523EFF022FA
:0575D800900536E0FF04
:0175DD00228B
:0575DE00900542E0FFF2
:0175E3002285
:0575E400900541E0FFED
:0175E900227F
:0575EA0090054DE0FFDB
:0175EF002279
:0575F000900553E0FFCF
:0175F5002273
:0575F600900556E0FFC6
:0175FB00226D
:0575FC00900559E0FFBD
:017601002266
:0576020090055CE0FFB3
:017607002260
:0576080090055EE0FFAB
:01760D00225A
:05760E0090055FE0FFA4
:017613002254
:05761400900560E0FF9D
:01761900224E
:05761A00900561E0FF96
:01761F002248
:05762000900555E0FF9C
:017625002242
:05762600900558E0FF93
:01762B00223C
:05762C0090055BE0FF8A
:017631002236
:0576320090055DE0FF82
:017637002230
:05763800900557E0FF82
:01763D00222A
:05763E0090055AE0FF79
:017643002224
:05764400900522E0FFAB
:01764900221E
:06764A00900522EFF02282
:05765000900562E0FF5F
:017655002212
:05765600900520E0FF9B
:01765B00220C
:105C6E00900536E09005EFF0900542E09005F0F0DB
:105C7E00900541E09005F1F090054DE09005F2F0B1
:105C8E00900553E09005F3F0900556E09005F4F082
:105C9E00900559E09005F5F090055CE09005F6F062
:105CAE0090055EE09005F7F090055FE09005F8F046
:105CBE00900560E09005F9F0900561E09005FAF02E
:105CCE00900555E09005FBF0900557E09005FCF02F
:105CDE00900520E09005FDF0900562E09005FEF045
:105CEE007B017A0579EF90050F7410F07D407C15DD
:085CFE007FA01264450274C38B
:103BEC007B017A03797790051A7410F07D207C158F
:103BFC007FA01260F41274C37B017A0079469005A1
:103C0C001A7410F07D307C157FA01260F41274C30E
:103C1C007B017A0579EF90051A7410F07D407C15C4
:103C2C007FA01260F41274C39005EFE0FF9005368C
:103C3C00F09005F0E0900542F09005F1E090054120
:103C4C00F09005F2E090054DF09005F3E0900553EF
:103C5C00F09005F4E0900556F09005F5E0900559CC
:103C6C00F09005F6E090055CF09005F7E090055EAD
:103C7C00F09005F8E090055FF09005F9E090056094
:103C8C00F09005FAE0900561F09005FBE090055589
:103C9C00F09005FCE0900557F09005FDE0900520B4
:103CAC00F09005FEE0900562F0EFD3940240069090
:103CBC0005367401F09005F0E0D39463400690054E
:103CCC00427401F09005F1E0D394634006900541F5
:103CDC007401F09005F2E0D39463400690054D74A6
:103CEC0001F09005F3E0D394074005E4900553F000
:103CFC009005F4E0D3940940069005567401F090B9
:103D0C0005F5E0D394014005E4900559F09005F6D3
:103D1C00E0D39409400690055C7406F09005F7E03A
:103D2C00D39407400690055E7403F09005F8E0D339
:103D3C0094014005E490055FF09005F9E0D39401FF
:103D4C004005E4900560F09005FAE0D3940140053D
:103D5C00E4900561F09005FBE0D3940A40069005D1
:103D6C0055740AF09005FCE0D39402400690055778
:103D7C007402F09005FDE0D3940140069005207488
:103D8C0001F09005FEE0D3940240069005627401A8
:023D9C00F02213
:10638C009005367401F0900542F0E4900541F090D0
:10639C00054DF0900553F090055604F0E490055926
:1063AC00F090055C7406F090055E7403F0A3740124
:1063BC00F0E4A3F0A3F0900555740AF0E4900558AE
:1063CC00F090055BF090055DF09005577402F0E4D9
:0563DC0090055AF022BB
:1067B2007F109003777401F0A3DFFC900046740110
:1067C200F0E4A3F0A37403F0A37405F0A37402F041
:1067D200A314F0A3F0A37406F0A37401F0A3F0A332
:0B67E200F0A3F0A3F0A3F0A3F0A3F0DD
:0167ED002289
:1070E300000000000000000000000000000000009D
:1070F300000000000000000000000000000000008D
:101D81005500313F065B4F666D7D077F6F777C396C
:101D91005E797176385C733E48038701020408104E
:101DA10020408042038F40006030000100000000AD
:101DB1000000000000000000000000000000000022
:101DC1000000000000000000000000000000000012
:101DD1000000000000000000000000006320005629
:101DE10000000000000000000000000000000000F2
:101DF10000000000000000000000000000000000E2
:101E010000000000000000000000000000000000D1
:101E110000000000000000000000000000000000C1
:10210100410000004103A0005003770101010101DA
:10211100010101010101010101010150004601001C
:10212100030502010106010101010101010142034F
:102131009200004103760042039E0000410391009A
:106A9600C282E4FDFCC280EF30E004D2818002C2F3
:106AA6008100000000D280EFC313FF0DBD00010C72
:0A6AB600ED64084C70DFC280C2815D
:016AC00022B3
:106AC100C283E4FDFCC280EF30E004D2818002C2C7
:106AD1008100000000D280EFC313FF0DBD00010C47
:0A6AE100ED64084C70DFC280C28132
:016AEB002288
:106AEC00C2CCE4FDFCC280EF30E004D2818002C253
:106AFC008100000000D280EFC313FF0DBD00010C1C
:0A6B0C00ED64084C70DFC280C28106
:016B1600225C
:09730400AE077F4012730D7FC03B
:0D730D00D282000000000000C282026A96D9
:0C72A20012730DD2827F401272AE7FC0CA
:0D72AE00D283000000000000C283026AC10C
:0C72BB001272AED2837F401272C77FC0F7
:0D72C700D2CC000000000000C2CC026AEC36
:055EC100E4900001F077
:105EC600127608127304E4FB74012BF582E43400A5
:105ED600F583E0FF126A9674092BF582E43400F527
:105EE60083E0FF126A960BEBB408DDEE2488FF12FE
:105EF60072A2E4FB74112BF582E43400F583E0FF13
:105F0600126AC174192BF582E43400F583E0FF129E
:105F16006AC10BEBB408DDEE2488FF1272BBE4FB0A
:105F260074212BF582E43400F583E0FF126AEC74E9
:105F3600292BF582E43400F583E0FF126AEC0BEBC3
:0C5F4600B408DDEE2488FF1272C7D2CC34
:015F5200222C
:1066AF00127304E4FBAF06126A96AF06126A960BDA
:1066BF00EBB408F17F8F1272A2E4FBAF06126AC12E
:1066CF00AF06126AC10BEBB408F17F8F1272BBE4F5
:1066DF00FBAF06126AECAF06126AEC0BEBB408F1D3
:0766EF007F8F1272C7D2CCAD
:0166F6002281
:1061C400E49004CFF0E4FFE4FE9004CFE02487F5EC
:1061D40082E43403F583E0FDEF75F008A42401F5AF
:1061E40082E43400F583E5822EF582E43583F58379
:1061F400EDF00EEEB408D20FEFB406CB125EC690EB
:1062040004CFE0B401077F7B7E001269DC7F1E129D
:0E62140073AC9004CFE004F0E0C3940840A700
:016222002259
:1073AC00EFD39400400B7EFF7DFFDDFEDEFA1F80E5
:0173BC00EFE1
:0173BD0022AD
:106B1700E4FFE4FEEF75F008A42401F582E43400F5
:106B2700F583E5822EF582E43583F583E4F00EEEF6
:086B3700B408E10FEFB406DA27
:016B3F002233
:0A74ED007F78900056E4F0A3DFFC66
:0174F7002272
:10690800E4FF12765CEF6401702A126B17900000A6
:10691800E05403FF2401F582E43400F5837440F069
:10692800125EC6E4FF127662900000E004F0E0B464
:046938000402E4F081
:01693C002238
:103D9E00127614EF6003023E43126B1712606E90A0
:103DAE000033E0900008F0900031E0900007F090B2
:103DBE0005E0E0FF75F00A842431F582E43400F565
:103DCE0083E0900006F0EF75F00A84743125F0F56B
:103DDE0082E43400F583E0900005F09005E1E0FF09
:103DEE0075F00A842431F582E43400F583E0900006
:103DFE000AF0EF75F00A84743125F0F582E4340090
:103E0E00F583E0900009F09005E2E0FF75F00A847A
:103E1E002431F582E43400F583E090000CF0EF7568
:103E2E00F00A84743125F0F582E43400F583E090D5
:103E3E00000B023EDC126B1712606E900033E090A6
:103E4E00000CF0900031E090000BF09005E0E0FFE8
:103E5E0075F00A842431F582E43400F583E0900095
:103E6E000AF0EF75F00A84743125F0F582E434001F
:103E7E00F583E0900009F09005E1E0FF75F00A840B
:103E8E002431F582E43400F583E0900008F0EF75FC
:103E9E00F00A84743125F0F582E43400F583E09065
:103EAE000007F09005E2E0FF75F00A842431F582F8
:103EBE00E43400F583E0900006F0EF75F00A8474A8
:103ECE003125F0F582E43400F583E0900005F090A2
:103EDE0005E6E02431F582E43400F583E090000D30
:103EEE00F09005E3E0FF75F00A842431F582E434A6
:103EFE0000F583E0900004F0EF75F00A847431252C
:103F0E00F0F582E43400F583E0900003F09005E4D0
:103F1E00E0FF75F00A842431F582E43400F583E085
:103F2E00900002F0EF75F00A84743125F0F582E40A
:093F3E003400F583E0125EC2229A
:10710300AD07126B17900040E0900002F074312D30
:0F711300F582E43400F583E0900001F0025EC6DF
:10712200AD07126B1790003FE0900002F074312D12
:0F713200F582E43400F583E0900001F0025EC6C0
:10737000126B17900031E0900002F090000174371A
:04738000F0025EC6F3
:10731A00126B17900031E0900002F0900040E0906C
:06732A000001F0025EC646
:1072ED00AD07126B1774312DF582E43400F583E090
:0772FD00900001F0025EC6E3
:106A3A00AD07126B17ED75F00A842431F582E43440
:106A4A0000F583E0900002F0ED75F00A84743125B8
:106A5A00F0F582E43400F583E0900001F0025EC6AE
:10622300AB07AA06126B177C007D64AF03AE0212A4
:10623300239374312FF58274003EF583E0900003BD
:10624300F07C007D0AAF03AE021223937C007D0A2B
:1062530012239374312DF58274003CF583E0900092
:1062630002F0AE02AF037C007D0A12239374312D3A
:0F627300F58274003CF583E0900001F0025EC6F6
:0662DE007B017A0579271F
:1062E400126B171223072431F582E43400F583E09E
:1062F400900004F09000011223202431F582E4344C
:1063040000F583E0900003F0900002122320243172
:10631400F582E43400F583E0900002F0900003126B
:1063240023202431F582E43400F583E0900001F069
:03633400025EC640
:10439400126B179000AEE060179005097401F0A34A
:1043A4007400F0A374AEF07B017A00793012369970
:1043B4009000A6E060179005097401F0A37400F062
:1043C400A374A6F07B017A00792C12369990009E92
:1043D400E060179005097401F0A37400F0A3749EC3
:1043E400F07B017A007928123699900096E06017E4
:1043F4009005097401F0A37400F0A37496F07B0196
:104404007A00792412369990008EE060179005099D
:104414007401F0A37400F0A3748EF07B017A007928
:1044240020123699900086E060179005097401F017
:10443400A37400F0A37486F07B017A00791C123611
:104444009990007EE060179005097401F0A3740050
:10445400F0A3747EF07B017A0079181236999000EB
:1044640076E060179005097401F0A37400F0A3745A
:1044740076F07B017A00791412369990006EE06030
:10448400179005097401F0A37400F0A3746EF07B17
:10449400017A007910123699900066E06017900551
:1044A400097401F0A37400F0A37466F07B017A0030
:1044B400790C12369990005EE0601790050974013A
:1044C400F0A37400F0A3745EF07B017A0079081203
:1044D4003699900056E060179005097401F0A374B2
:1044E40000F0A37456F07B017A0079041236992205
:10369900900506EBF0A3EAF0A3E9F0A3E0FBA3E0B1
:1036A900FAA3E0F99000011223202431F582E434D1
:1036B90000F583E0FF900506E0FBA3E0FAA3E0F93B
:1036C900EF12234D900509E0FBA3E0FAA3E0F9907E
:1036D90000021223202431F582E43400F583E0FF4F
:1036E900900506E0FBA3E0FAA3E0F990FFFFEF12D3
:1036F900235F900509E0FBA3E0FAA3E0F99000033A
:103709001223202431F582E43400F583E0FF90058B
:1037190006E0FBA3E0FAA3E0F990FFFEEF12235FB6
:10372900900509E0FBA3E0FAA3E0F9900004122355
:10373900202431F582E43400F583E0FF900506E0AA
:10374900FBA3E0FAA3E0F990FFFDEF12235F9005D8
:1037590009E0FBA3E0FAA3E0F99000051223205445
:103769000F24FD60361470030237FC24FD70030238
:1037790038411470030238542406600302386D90EE
:103789000506E0FBA3E0FAA3E024FDF9EA34FFFA19
:10379900122307448012234D023841900506E0FBAD
:1037A900A3E0FAA3E024FDF9EA34FFFA122307445F
:1037B9008012234D900506E0FBA3E0FAA3E024FE66
:1037C900F9EA34FFFA122307448012234D900506C3
:1037D900E0FBA3E0FAA3E024FFF9EA34FFFA12239D
:1037E90007448012234D900506E0FBA3E0FAA3E00D
:1037F900F98069900506E0FBA3E0FAA3E024FDF94E
:10380900EA34FFFA122307448012234D900506E09B
:10381900FBA3E0FAA3E024FEF9EA34FFFA12230736
:10382900448012234D900506E0FBA3E0FAA3E024AF
:10383900FFF9EA34FFFA8024900506E0FBA3E0FAD9
:10384900A3E024FEF9EA34FFFA8011900506E0FBB3
:10385900A3E0FAA3E024FDF9EA34FFFA12230744AE
:053869008012234D2236
:105572009004F8EBF0A3EAF0A3E9F0A3E0FBA3E0C8
:10558200FAA3E0F9122307FF9004F8E0FBA3E0FA84
:10559200A3E0F9EF12234D9004FBE0FBA3E0FAA392
:1055A200E0F9900001122320FF9004F8E0FBA3E051
:1055B200FAA3E0F9900001EF12235F9004FBE0FBF5
:1055C200A3E0FAA3E0F9900002122320FF9004F86E
:1055D200E0FBA3E0FAA3E0F9900002EF12235F9050
:1055E20004FBE0FBA3E0FAA3E0F9900003122320FE
:1055F200FF9004F8E0FBA3E0FAA3E0F9900003EFC8
:1056020012235F9004FBE0FBA3E0FAA3E0F9900011
:1056120004122320FF9004F8E0FBA3E0FAA3E0F9D0
:10562200900004EF12235F9004FBE0FBA3E0FAA3D7
:10563200E0F9900007122320FF9004F8E0FBA3E0BA
:0B564200FAA3E0F9900005EF02235FDF
:09657F002456F974003EFA7B0178
:1065880012230790000812235F9000011223209025
:10659800000912235F90000212232090000A1223A0
:1065A8005F90000312232090000B12235F900004D9
:1065B80012232090000C12235F90000512232090D4
:0565C800000D02235F3D
:0E648B0075F008A42456F9740035F0FA7B0170
:1064990090000812232012234D9000091223209006
:1064A900000112235F90000A122320900002122398
:1064B9005F90000B12232090000312235F90000CC1
:1064C90012232090000412235F90000D12232090C4
:0564D900000502235F35
:103F470078FC7C047D017BFF7A7079E37E007F0833
:103F57001222E1E4900504F0A3F01275FC90050429
:103F6700EFF01275F0900505EFF01275EA9004FA7C
:103F7700EFF01275E49004FBEFF012767A9004FBF1
:103F8700E0FE9004FAE0FDC39E500AEF9D4006EE66
:103F97006003E0701B9004FBE060030240C29004E2
:103FA700FAE0FE70030240C2EFD39E50030240C204
:103FB700E49004F8F09004F8E0FFC3940A5022EF6D
:103FC70075F008A42456F582740035F0F583E07087
:103FD700089004F8E0A3F080089004F8E004F0806B
:103FE700D4E49004F8F09004F9E024FFFFE434FFF0
:103FF700FEEF7803C333CE33CED8F9FF9004F8E051
:10400700FD7A002FFFEA3EFE74562FF58274003EBC
:10401700F583E0FF74FC2DF582E43404F583EFF0BB
:104027009004F8E004F0E0B406BC9004F9E09004D2
:10403700F8F09004F8E0FFD39401401DEF24FEFF51
:10404700E434FFFEEF7803C333CE33CED8F91265DD
:104057007F9004F8E014F080D9E49004F8F090041D
:10406700F8E0FF24FCF582E43404F583E0FE74569F
:104077002FF582E43400F583EEF09004F8E004F0C5
:10408700E0B406DA124394125EC6E4FF127680901B
:104097000504E0B401257B017A007956900056E0CB
:1040A700FD90050AE4F0A3EDF090005BE0540F905B
:0B40B700050CF0900505E0FF123A3800
:0140C20022DB
:10423300E49004FEF0A3F01275EA9004F9EFF01293
:1042430075E49004FAEFF012767A9004FBEFF01223
:1042530075DE9004FCEFF01275D89004FDEFF012B8
:1042630075F69004FFEFF09004F9E0FFA3E0FEC3BE
:104273009F500EA3E09E4009EF60069004FAE070A1
:104283001A9004F9E06003024393A3E0FF70030272
:104293004393A3E0D39F5003024393E49004F8F0C5
:1042A3009004FCE014FD9004F8E0FFC39D500CEF74
:1042B30012648B9004F8E004F080E5ED333333545B
:1042C300F89004F8F09004FCE075F008A4FF900463
:1042D300F8E0FDC39FE5F06480F87480985014748F
:1042E300562DF582E43400F583E4F09004F8E004FD
:1042F300F080D2124394125EC6E4FF1276809000DF
:1043030056E07004FF0275D29004FDE0640260037E
:104313000243939004FFE09005B0F0D39401404B27
:10432300900056E0FF9005BAE4F0A3EFF090005B35
:10433300E0540F9005BCF09004FEE09005B1F0E46A
:104343009004F8F09004F8E0FF2456F582E434007A
:10435300F583E0FE74B22FF582E43405F583EEF0C5
:104363009004F8E004F0E0B408DA227B017A0079E3
:1043730056900056E0FD90050AE4F0A3EDF090009E
:104383005BE0540F90050CF09004FEE0FF123A3806
:014393002207
:105D9B00E49004D0F01275DE9004D0EFF0E4FDFC3B
:105DAB009004D0E024FFFFE434FFFEC3ED9FEC9E94
:105DBB00501FEDAE047803C333CE33CED8F924563F
:105DCB00F974003EFA7B011264990DBD00010C8041
:105DDB00CF9004D0E024FFFFE434FFFEEF7803C341
:105DEB0033CE33CED8F9FDAC069004D0E075F00875
:105DFB00A4FFC3ED9FEC95F0501374562DF58274F0
:105E0B00003CF583E4F00DBD00010C80DC9005BD7A
:105E1B00E014F0124394125EC6900056E07004FF3B
:035E2B001275D21B
:015E2E002251
:105B160078D17C047D017BFF7A7079EB7E007F066D
:105B26001222E11275DE9004D0EFF01275DEAD0799
:105B3600E4FCECC39D501CEC75F008A42456F582D9
:105B4600740035F0F583E070079004D0ECF0800324
:105B56000C80DFE4FC74562CF582E43400F583E017
:105B6600FF74D12CF582E43404F583EFF00CECB429
:105B760006E3E4FC9004D0E0FFECC39F5007EC1270
:105B8600648B0C80EFE4FC74D12CF582E43404F5CC
:105B960083E0FD9004D0E024FFFFE434FFFEEF78BD
:105BA60003C333CE33CED8F9FFEC7A002FFFEA3E9B
:105BB600FE74562FF58274003EF583EDF00CECB4BE
:085BC60006C5124394025EC6FD
:1054790078D27C047D017BFF7A7079F17E007F060A
:105489001222E11275DE9004D1EFF01275DEAD073C
:10549900E49004D0F09004D0E0FFC39D5022EF7552
:1054A900F008A42456F582740035F0F583E07008FD
:1054B9009004D0E0A3F080089004D0E004F080D5F7
:1054C900E49004D0F09004D1E024FFFFE434FFFE1F
:1054D900EF7803C333CE33CED8F9FF9004D0E0FD83
:1054E9007A002FFFEA3EFE74562FF58274003EF5CE
:1054F90083E0FF74D22DF582E43404F583EFF09054
:1055090004D0E004F0E0B406BC9004D1E09004D0EB
:10551900F09004D0E0FFD39401401DEF24FEFFE496
:1055290034FFFEEF7803C333CE33CED8F912657F4B
:105539009004D0E014F080D9E49004D0F09004D025
:10554900E0FF24D2F582E43404F583E0FE74562F9B
:10555900F582E43400F583EEF09004D0E004F0E045
:09556900B406DA124394025EC696
:0B346B009004F8EBF0A3EAF0A3E9F0F6
:1034760078047C057D017BFF7A7079F77E007F06F4
:103486001222E11275DE900500E4F0A3EFF012754A
:10349600DE900502E4F0A3EFF0E49004FEF0A3F062
:1034A600900502E0FEA3E0FF9004FEE0FCA3E0FD31
:1034B600C39FEC9E40030235B1EDAE047803C333DF
:1034C600CE33CED8F9FF9004FBE0FBA3E0FAA3E0ED
:1034D6002FF9EA3EFA900001122320FD9004F8E04D
:1034E600FBA3E0FAA3E0F99000011223206D60032C
:1034F60002359D9004FBE0FBA3E0FAA3E02FF9EA76
:103506003EFA900002122320FF9004F8E0FBA3E0AD
:10351600FAA3E0F99000021223206F707A9004FE5D
:10352600E0FEA3E07803C333CE33CED8F9FF900490
:10353600FBE0FBA3E0FAA3E02FF9EA3EFA900003D2
:10354600122320FD9004F8E0FBA3E0FAA3E0F99033
:103556000003122320B5053F9004FBE0FBA3E0FA2D
:10356600A3E02FF9EA3EFA900004122320FF90040C
:10357600F8E0FBA3E0FAA3E0F9900004122320B5DB
:1035860007159005BDE014F09004FEE0FFA3E0A34C
:10359600CFF0A3EFF080149004FFE004F060030284
:1035A60034A69004FEE004F00234A6900500E07014
:1035B60002A3E07008127384E49005B0F090050051
:1035C600E0FFA3E09004FECFF0A3EFF0900502E049
:1035D600FEA3E0FF9004FEE0FCA3E0FDC39FEC9E8B
:1035E600502FEDAE047803C333CE33CED8F9FF9017
:1035F60004FBE0FBA3E0FAA3E02FF9EA3EFA12642B
:10360600999004FFE004F070C39004FEE004F0809B
:10361600BB900502E0FEA3E0FF900500E06E70039C
:10362600A3E06F6059E49004FEF0A3F09004FEE07E
:10363600FCA3E0FDC39406EC94005042900503E021
:1036460024FFFF900502E034FFFEEF7803C333CE7C
:1036560033CED8F9FF9004FBE0FBA3E0FAA3E02FFA
:10366600F9EA3EFAE92DF9EA3CFAE412234D900410
:10367600FFE004F070B69004FEE004F080AE900423
:10368600FBE0FBA3E0FAA3E0F91223077004FF12A4
:0236960075D2EB
:01369800220F
:0B40C3009004F8EBF0A3EAF0A3E9F092
:1040CE0078FF7C047D017BFF7A7079FD7E007F0690
:1040DE001222E11275DE9004FEEFF01275DEAD07CE
:1040EE00E4FCECC39D40030241D0EC75F008A4FF44
:1040FE009004FBE0FBA3E0FAA3E02FF9EA35F0FA17
:10410E00900001122320FF9004F8E0FBA3E0FAA335
:10411E00E0F99000011223206F60030241CCEC7590
:10412E00F008A4FF9004FBE0FBA3E0FAA3E02FF954
:10413E00EA35F0FA900002122320FF9004F8E0FB1B
:10414E00A3E0FAA3E0F99000021223206F706FEC47
:10415E0075F008A4FF9004FBE0FBA3E0FAA3E02FA8
:10416E00F9EA35F0FA900003122320FF9004F8E0EC
:10417E00FBA3E0FAA3E0F99000031223206F703E38
:10418E00EC75F008A4FF9004FBE0FBA3E0FAA3E0BB
:10419E002FF9EA35F0FA900004122320FF9004F86C
:1041AE00E0FBA3E0FAA3E0F9900004122320B50788
:1041BE000D9005BDE014F09004FEECF080040C02AE
:1041CE0040F09004FEE0FCECC39D501CEC75F00832
:1041DE00A4FF9004FBE0FBA3E0FAA3E02FF9EA357D
:1041EE00F0FA1264990C80DF9004FEE06D6035E405
:1041FE00FCED24FFFFE434FFFEEF7803C333CE3330
:10420E00CED8F9FF9004FBE0FBA3E0FAA3E02FF970
:10421E00EA3EFAEC7E0029F9EE3AFAE412234D0C4E
:04422E00ECB406CD19
:014232002269
:106EFC00E4FF127650E49005BDF0EFB40107D2CD5B
:106F0C001269088003123D9E127656BF010312745B
:036F1C00EDC2972C
:016F1F00224F
:05000600E4FF0271039C
:107141007F01127103127644BF011212760EBF0144
:0E7151000C7F6F7E001269DCE4FF12764A228A
:10715F007F02127103127644BF011212760EBF0125
:0E716F000C7F707E00126828E4FF12764A2220
:10717D007F03127103127644BF011212760EBF0106
:0E718D000C7F717E00126828E4FF12764A2201
:10719B007F04127103127644BF011212760EBF01E7
:0E71AB000C7F727E00126828E4FF12764A22E2
:1071B9007F05127103127644BF011212760EBF01C8
:0E71C9000C7F737E00126828E4FF12764A22C3
:1071D7007F06127103127644BF011212760EBF01A9
:0E71E7000C7F747E00126828E4FF12764A22A4
:1071F5007F07127103127644BF011212760EBF018A
:0E7205000C7F757E00126828E4FF12764A2284
:107213007F08127103127644BF011212760EBF016A
:0E7223000C7F767E00126828E4FF12764A2265
:107231007F09127103127644BF011212760EBF014B
:0E7241000C7F777E00126828E4FF12764A2246
:05001E007F0A027103DE
:0576F2007F0B02710393
:0576F7007F0C0271038D
:0D000E007F0D127103E4FF1274F8D2CD22B1
:10661B0012765CBF0108123D9E7F021276621276E3
:10662B005CEF64037031127614EF7012900008F077
:10663B00900007F0900006F0900005F08011E490B8
:10664B00000CF090000BF090000AF0900009F01293
:0A665B005EC6E4FF127662025F5390
:1068620012765CBF0108123D9E7F0212766212769A
:106872005CBF0321127614EF700A90000AF09000B8
:1068820009F08009E4900008F0900007F0125EC65B
:08689200E4FF127662025F537D
:10689A0012765CBF0108123D9E7F02127662127662
:1068AA005CBF0321127614EF700A90000CF090007E
:1068BA000BF08009E4900006F0900005F0125EC625
:0868CA00E4FF127662025F5345
:106F200012765CBF0108123D9E7F021276621276D5
:106F30005CBF030DE490000DF0125EC6E4FF127614
:046F400062025F5337
:106B400012765CBF0108123D9E7F021276621276B9
:106B50005CBF0311E4900004F0900003F0125EC6E5
:086B6000E4FF127662025F53AC
:106A0900127650EFB401057F010275D212765CBF90
:106A19000108123D9E7F0212766212765CBF030D59
:106A2900E4900002F0125EC2E4FF127662125F5334
:016A3900223A
:1073BE007F01127122E4900527F0A3F0A3F0A3043D
:0273CE00F022AB
:1073D0007F02127122E4900531F0A3F0A3F0A30420
:0273E000F02299
:1073E2007F03127122E490053CF0A3F0A3F0A30402
:0273F200F02287
:1073F4007F04127122E4900548F0A3F0A3F0A304E3
:02740400F02274
:107406007F01127122E490052CF0A3F0A3F0A304EF
:02741600F02262
:107418007F02127122E4900537F0A3F0A3F0A304D1
:02742800F02250
:10742A007F03127122E4900543F0A3F0A3F0A304B2
:02743A00F0223E
:10743C007F04127122E490054EF0A3F0A3F0A30494
:02744C00F0222C
:0576FC007F0102712274
:057701007F020271226D
:08753D00E4FF1275E4026A3A52
:08754500E4FF1275EA026A3A44
:057706007F0102712269
:05770B007F0202712263
:057710007F030271225D
:057715007F0402712257
:05771A007F0502712251
:05771F007F0102712250
:057724007F020271224A
:057729007F0302712244
:05772E007F040271223E
:0E74D1007F011271221276389003A0EFF02294
:057733007F020271223B
:057738007F0102712237
:05773D007F0202712231
:10728800E4FFFEFDFC127534AC06AD077E277F10C7
:0A729800122393AC06AD0702622337
:08754D00E4FF1276560272ED14
:08755500E4FF1276500272ED12
:10652F001276929004D0EFF0D394145031E0FAC366
:10653F00940450028019EAD3941250139004D0E0BF
:10654F00C3132485F582E43403F583E0FF80027FD3
:10655F00FF1266AF30A4077F3C7E001269DC900407
:0F656F00D0E0D394144006126B17125EC6C2CD53
:01657E0022FA
:10705C0012765CBF01081262DE7F02127662127633
:10706C005CBF030DE4900004F0125EC6E4FF1276E0
:02707C0062228E
:10707E0012765CBF01081262DE7F02127662127611
:10708E005CBF030DE4900003F0125EC6E4FF1276BF
:02709E0062226C
:1070A00012765CBF01081262DE7F021276621276EF
:1070B0005CBF030DE4900002F0125EC6E4FF12769E
:0270C00062224A
:1000260012765CBF01081262DE7F021276621276D9
:0D0036005CBF0308125EC1E4FF1276622277
:106B680012765CBF010E7B017A0579311262E47FEF
:106B78000212766212765CBF030DE4900004F012F4
:086B88005EC6E4FF12766222F2
:106B900012765CBF010E7B017A0579311262E47FC7
:106BA0000212766212765CBF030DE4900003F012CD
:086BB0005EC6E4FF12766222CA
:106BB80012765CBF010E7B017A0579311262E47F9F
:106BC8000212766212765CBF030DE4900002F012A6
:086BD8005EC6E4FF12766222A2
:106F670012765CBF010E7B017A0579311262E47FEC
:106F77000212766212765CBF0308125EC1E4FF124A
:036F87007662220D
:106BE00012765CBF010E7B017A05793C1262E47F6C
:106BF0000212766212765CBF030DE4900004F0127C
:086C00005EC6E4FF1276622279
:106C080012765CBF010E7B017A05793C1262E47F43
:106C18000212766212765CBF030DE4900003F01254
:086C28005EC6E4FF1276622251
:106C300012765CBF010E7B017A05793C1262E47F1B
:106C40000212766212765CBF030DE4900002F0122D
:086C50005EC6E4FF1276622229
:106F8A0012765CBF010E7B017A05793C1262E47FBE
:106F9A000212766212765CBF0308125EC1E4FF1227
:036FAA00766222EA
:106C580012765CBF010E7B017A0579481262E47FE7
:106C68000212766212765CBF030DE4900004F01203
:086C78005EC6E4FF1276622201
:106C800012765CBF010E7B017A0579481262E47FBF
:106C90000212766212765CBF030DE4900003F012DC
:086CA0005EC6E4FF12766222D9
:106CA80012765CBF010E7B017A0579481262E47F97
:106CB8000212766212765CBF030DE4900002F012B5
:086CC8005EC6E4FF12766222B1
:106FAD0012765CBF010E7B017A0579481262E47F8F
:106FBD000212766212765CBF0308125EC1E4FF1204
:036FCD00766222C7
:106CD00012765CBF010E7B017A05792C1262E47F8B
:106CE0000212766212765CBF030DE4900004F0128B
:086CF0005EC6E4FF1276622289
:106CF80012765CBF010E7B017A05792C1262E47F63
:106D08000212766212765CBF030DE4900003F01263
:086D18005EC6E4FF1276622260
:106D200012765CBF010E7B017A05792C1262E47F3A
:106D30000212766212765CBF030DE4900002F0123C
:086D40005EC6E4FF1276622238
:106FD00012765CBF010E7B017A05792C1262E47F88
:106FE0000212766212765CBF0308125EC1E4FF12E1
:036FF000766222A4
:106D480012765CBF010E7B017A0579371262E47F07
:106D58000212766212765CBF030DE4900004F01212
:086D68005EC6E4FF1276622210
:106D700012765CBF010E7B017A0579371262E47FDF
:106D80000212766212765CBF030DE4900003F012EB
:086D90005EC6E4FF12766222E8
:106D980012765CBF010E7B017A0579371262E47FB7
:106DA8000212766212765CBF030DE4900002F012C4
:086DB8005EC6E4FF12766222C0
:106FF30012765CBF010E7B017A0579371262E47F5A
:107003000212766212765CBF0308125EC1E4FF12BD
:0370130076622280
:106DC00012765CBF010E7B017A0579431262E47F83
:106DD0000212766212765CBF030DE4900004F0129A
:086DE0005EC6E4FF1276622298
:106DE80012765CBF010E7B017A0579431262E47F5B
:106DF8000212766212765CBF030DE4900003F01273
:086E08005EC6E4FF127662226F
:106E100012765CBF010E7B017A0579431262E47F32
:106E20000212766212765CBF030DE4900002F0124B
:086E30005EC6E4FF1276622247
:1070160012765CBF010E7B017A0579431262E47F2A
:107026000212766212765CBF0308125EC1E4FF129A
:037036007662225D
:106E380012765CBF010E7B017A05794E1262E47FFF
:106E48000212766212765CBF030DE4900004F01221
:086E58005EC6E4FF127662221F
:106E600012765CBF010E7B017A05794E1262E47FD7
:106E70000212766212765CBF030DE4900003F012FA
:086E80005EC6E4FF12766222F7
:106E880012765CBF010E7B017A05794E1262E47FAF
:106E98000212766212765CBF030DE4900002F012D3
:086EA8005EC6E4FF12766222CF
:1070390012765CBF010E7B017A05794E1262E47FFC
:107049000212766212765CBF0308125EC1E4FF1277
:037059007662223A
:08755D00E4FF1275D80272ED83
:08756500E4FF1275DE026A3A30
:08756D00E4FF1275F00272ED5B
:08757500E4FF1275F60272ED4D
:08757D00E4FF1275FC0272ED3F
:10724F00E49004D0F01276029004D0EFF075F003C2
:0D725F00A4FF1270C29004D0E0FF0272ED97
:08758500E4FF1276080272ED2A
:10744E00E4FF127620EFC3940A50030272ED12731A
:01745E001A13
:01745F00220A
:08758D00E4FF1276260272ED04
:08759500E4FF12762C0272EDF6
:08759D00E4FF1276320272EDE8
:1067EE00E49004D0F01276389004D0EFF01272EDEF
:1067FE009003A0E0FF9004D0E06F601D12628290C3
:10680E0004D0E09003A0F0127644BF010C7F797E95
:09681E00001269DCE4FF12764A65
:01682700224E
:1068D200E49004D0F012763E9004D0EFF0126A3ABF
:1068E200127644BF010D9004D0E02442FFE433FE4F
:1068F2001268281276E6BF010C7F797E00126828A2
:05690200E4FF1276EC39
:01690700226D
:1065CD00E49004D0F0A3F01275F09004D0EFF01227
:1065DD00761A9004D1EFF0900056E0B4340A30A44E
:1065ED00077F687E001269DCD2CD9004D1E0700384
:1065FD00D2972212765CBF0107D2977F0212766284
:0D660D0012765CBF0307C297E4FF127662AD
:01661A00225D
:057742007F0602712228
:0875A500E4FF12760E0272ED04
:057747007F0702712222
:0875AD00E4FF1276140272EDF6
:05774C007F080271221C
:0875B500E4FF12761A0272EDE8
:057751007F0E02710330
:107346007F01127122E4900392F0A3F0900376F08D
:057356009005D8F022B3
:107460007F02127122E490039EF0A3F0900391F04A
:0174700022F9
:10599200900376E0707A12765CBF0113126B179057
:1059A20000027480F0A3F0125EC67F0212766212C9
:1059B200765CBF030B126B17125EC6E4FF127662AF
:1059C200900392E0FCA3E0FD7B017A0479D090057C
:1059D2001A7408F07FA01260F47FAA127519E4907D
:1059E20004D8F09004D8E0FFC39408501774D02F65
:1059F200F582E43404F583E0FF1275199004D8E0CF
:105A020004F080DF7F551275199003767401F0223D
:105A1200900376E0FFB40224900393E02408F09010
:105A22000392E03400F0E0B4150CA3E0B4600790F8
:105A320003767403F022E4900376F022EFB40312AB
:105A4200126B179000017480F0A3F0A3F0A3F01280
:025A52005EC62E
:015A5400222F
:105D0600900391E0B4013190039EE0FCA3E0FD7B9B
:105D1600017A03799590050F7408F07FA012644507
:105D260090039FE02408F090039EE03400F0E49096
:105D36000391F07FAA12751990039EE07002A3E00A
:105D4600700A126B179000017480801A90039EE00F
:105D5600B41517A3E0B46012126B1790000174809B
:105D6600F0A3F0A3F0A3F0025EC612765CBF0113A7
:105D7600126B179000027480F0A3F0125EC67F02C9
:105D860012766212765CBF030B126B17125EC6E4C4
:055D9600FF12766222FD
:102141004106010041060A00410607004106080058
:10215100410602004105FF0041060C004106040052
:102161004106000041060600410605004106030044
:0821710041060B0041060900C4
:1074A400438901758C3C758AB0D2AFD2A9D28C22A3
:0E74DF00438910758DFF758B9CD2AFD2AB2206
:03000B0002478623
:10478600C0E0C0F0C083C082C0D075D000C000C0F9
:0D47960001C002C003C004C005C006C0077A
:1047A30090051EE4F0A3F0C28D758C3C758AB0129F
:1047B30075CC90051EEFF012765090051FEFF09028
:1047C3000601E004F0E0B40A1990060AE004F09050
:1047D3000606E004F0900601E4F0900605E06002AE
:1047E30014F090060AE0C394044002E4F090060635
:1047F300E0C394184002E4F0900603E0600214F072
:10480300900607E0B40104A3E004F01276CEBF01E2
:1048130014900602E004F0E0D3947840081276D4B2
:10482300900602E4F0900609E0B4011590060BE04F
:1048330004F0E0D394784009900609E4F090060B65
:10484300F090051EE0FFB45F159005FFE004F0E073
:10485300B4140B90060CE004F09005FFE4F0EF6451
:104863005F602590051EE0FF6431601CEF646960A2
:1048730017EF646A6012900604E004F0E0D394C872
:104883004006E4F0FF1275D290051EE07015A3E018
:10489300B40210900600E004F0E0C3940A4004B2AE
:0348A300CDE4F071
:1048A600D007D006D005D004D003D002D001D00066
:0B48B600D0D0D082D083D0F0D0E03210
:03001B000264DE9E
:1064DE00C0E0C0F0C083C082C0D075D000C000C084
:0D64EE0001C002C003C004C005C006C00705
:1064FB00E4FF1275CCC28F758DFF758B9CEFB42E9C
:09650B00051231BD8003124B3171
:10651400D007D006D005D004D003D002D001D000DB
:0B652400D0D0D082D083D0F0D0E03285
:05765C0090060AE0FFAA
:017661002206
:0676620090060AEFF02281
:06766800900607EFF0227E
:05766E00900608E0FF9A
:0176730022F4
:06767400E4900608F0227C
:05767A0090060CE0FF8A
:01767F0022E8
:0676800090060CEFF02261
:06768600E4900604F0226E
:06768C00900608EFF02259
:05769200900606E0FF78
:0176970022D0
:0B74F800900606EFF0E4900601F02281
:05769800900605E0FF73
:01769D0022CA
:0B750300900605EFF0E4900601F02276
:05769E00900603E0FF6F
:0176A30022C4
:0676A400900603EFF02246
:0676AA00E4900602F0224C
:0676B000E490060BF0223D
:0676B600900609EFF0222E
:0576BC00900609E0FF4B
:0176C10022A6
:0B2179004805DF140F09040C220006CB
:0466F700E0FD7F8AB9
:1066FB00D2A0EF54FEFFE4FEEF30E004D2A1800203
:10670B00C2A1D2A2C2A2EFC313FF0EEEB408E9E4FA
:10671B00FEED30E004D2A18002C2A1D2A2C2A2ED52
:0A672B00C313FD0EEEB408E9C2A08E
:016735002241
:10673600D2A0EF4401FFE4FDEF30E004D2A18002D5
:10674600C2A1D2A2C2A2EFC313FF0DEDB408E9E4C1
:10675600FDEEC313FE30A1054480FE8004EE547F97
:0E676600FED2A2C2A20DEDB408E7C2A0AF069B
:016774002202
:105F5300E4FF74DF2FF582E43405F583E0FE75F08A
:105F63000A84FDEE75F00A8474E72FF582E43405A4
:105F7300F583E5F0F0EDC454F0FE74E72FF582E409
:105F83003405F583E02EF00FEFB408C6E4FD7F8EF1
:105F93001266FB7D807F801266FB9005E8E0FD7F43
:105FA3008C1266FBA3E0FD7F881266FBA3E0FD7FF6
:105FB300861266FB9005EE1266F79005EBE0FD7F17
:105FC300841266FBA3E0FD7F821266FBA3E0FD7FE4
:0F5FD300801266FBA31266F77D807F8E0266FB4D
:10606E007F8C1267369005E8EFF07F88126736A3B3
:10607E00EFF07F86126736A3EFF07F84126736A3A8
:10608E00EFF07F82126736A3EFF07F80126736EF54
:10609E00547FA3F07F8A126736A3EFF0E4FF74E714
:1060AE002FF582E43405F583E0FEC4540FFDEE5463
:1060BE000FFE74DF2FF582E43405F583EEF0ED75F7
:1060CE00F00AA4FE74DF2FF582E43405F583E02E8A
:0660DE00F00FEFB408C84A
:0160E4002299
:0B750E00C2A0C2A2E4FD7F800266FB69
:1021840041059D0041059C004105A2004105A500B3
:102194004105AC0041059100410590004305A900AB
:1021A40000004205A300464205A7007842058D00C1
:1021B4000042058B000042059A000042059E00463D
:1021C4004205A000784205AE000041058F0041059C
:1021D400AD004105A6004105920041059600430566
:0A21E400930000004305970000007F
:0775C500D2AFD2A8D2882248
:030003000275BDC6
:0875BD00C2A8208E02D28E321A
:10726C00E490059DF090059CF09005A5F09005A28A
:0C727C00F09005ACF0900590F0A3F0221B
:104B310030B2059005A580039005A2E004F0900530
:104B410091E004F0E0D394A07480948F4007C28E6A
:104B5100D2A802726C900590E0146035146069145B
:104B61007003024BF024036003024C609005A5E042
:104B7100D394004003024C609005A2E0D3944650C8
:104B810003024C67900590E004F0E49005A5F080E5
:104B9100329005A5E0FFFD9005A2E02DFDE433FC78
:104BA100D3ED948CEC648094804003024C60EFD38D
:104BB10094015003024C6730A802C2A8900590E00E
:104BC10004F0E49005A2F0229005A2E0D394014004
:104BD100139005A5E090059DF0E49005A5F09005E2
:104BE10090E004F09005A5E0D3941940798070908D
:104BF10005A5E0D39401405C9005A2E0FF90059CDF
:104C0100F0E49005A2F09005907402F09005ACE0FC
:104C1100131313541FFE24A9F582E43405F583E030
:104C2100FD25E0F090059DE0D39F400E74A92EF57F
:104C310082E43405F583E04401F09005ACE004F032
:104C4100E0D39417400EC28E12726C90058F7401DE
:104C5100F0D2A8229005A2E0D39419400980001255
:074C6100726CD2A8C28E2282
:1044F400E49004F8F01275CC9004F8EFF090058F76
:10450400E06401600302463EF0C2A89005A6E014F0
:10451400602704600302463C9005A9E0900593F0EF
:104524009005AAE0900594F09005ABE0900595F015
:104534009005A67401F002463C9005A9E0FF9005A1
:1045440093E06F60030246249005AAE0FE90059470
:10455400E06E60030246249005ABE0FD900595E013
:104564006D6003024624900597E06F7012A3E06E1D
:10457400700DA3E0B50508900592E07023800090CB
:1045840005A9E0900597F09005AAE0900598F090B1
:1045940005ABE0900599F09005AD7401F01276AA90
:1045A4009005927401F0127686900598E0FFE4FC81
:1045B400FDFE780812240FC004C005C006C0079091
:1045C4000597E0FFE4FCFDFE781012240FD003D021
:1045D40002D001D000EF4BFBEE4AFAED49F9EC486A
:1045E400F8900599E0FFEB4FFFEAFEE9FDE8FC7B5C
:1045F400017A0479F912564DEF600D900596740115
:10460400F0FF12764A127686E49005A9F0A3F0A38F
:10461400F0900593F0A3F0A3F0E49005A6F08018C1
:104624009005A9E0900593F09005AAE0900594F018
:0A4634009005ABE0900595F0D2A8C8
:01463E002259
:1031BD0030B2059005A580039005A2E004F09005BE
:1031CD0091E004F0E0D394A07480948F4006C28EF9
:1031DD00D2A88027900590E014605A147003023233
:1031ED00D114700302331C24036003023463900571
:1031FD00A5E0D394004007D2A8C28E02726C900550
:10320D008DE0FEA3E0FF7C007D0F122381EF243CB7
:10321D00FFE43EFE9005A2E0D39FEC9E50030234E6
:10322D006A900590E004F09005A3EEF0A3EFF0E4B2
:10323D00A3F00232CC90058BE0FEA3E0FF7C007D75
:10324D000F122381EF2478FFE43EFE9005A5E0F9EF
:10325D00FD9005A2E02DFDE433FCD3ED9FEC9E40E7
:10326D0022E9701C90058CE004F0700690058BE04F
:10327D0004F090058EE004F0700690058DE004F0EA
:10328D00023463E9D39401500302346A90058BE054
:10329D00FEA3E0FF7C007D0F122381EF2478FFE475
:1032AD003E9005A7F0A3EFF0E490058BF0A3F0A3FB
:1032BD00F0A3F030A802C2A8900590E004F0E490CD
:1032CD0005A2F0229005A2E0D3940040139005A52D
:1032DD00E090059DF0E49005A5F0900590E004F0D8
:1032ED009005A3E0FEA3E0FF9005A8E02FFF900559
:1032FD00A7E03EFEEF7803CEC313CE13D8F9FF90AF
:10330D0005A5E0D39FE49E500302346A0234639016
:10331D0005A5E0D3940050030234389005A2E0FFD8
:10332D0090059CF0E49005A2F09005907402F09049
:10333D0005ACE0131313541FFE24A9F582E43405E4
:10334D00F583E025E0F090059DE0FDD39F400E74E0
:10335D00A92EF582E43405F583E04401F09005AC27
:10336D00E004F0E0D394175003023438C28E900578
:10337D009CE02DFEE43390059AF0A3CEF012726C12
:10338D009005AFE004F070069005AEE004F09005F6
:10339D00A7E0FEA3E0FF9005A1E02FF09005A0E0CF
:1033AD003EF0E0C313FEA3E013FF9005A7EEF0A3DC
:1033BD00EFF09005A0EEF0A3EFF0D39005AFE09401
:1033CD00019005AEE09400405F90059EE0FEA3E005
:1033DD00FF9005A3E0FCA3E0FD9FFFEC9EFED3EF65
:1033ED00941EEE9400401590059FE09DFF90059E64
:1033FD00E09CFED3EF941EEE9400502C9005A3E0BC
:10340D00FEA3E0FF90059FE02FF090059EE03EF0BB
:10341D00E0C313FEA3E013FF9005A3EEF0A3EFF0BE
:10342D0090059EEEF0A3EFF0D2A8229005A3E0FE4A
:10343D00A3E0FF9005A8E02FFF9005A7E03EFEEF6B
:10344D007803CEC313CE13D8F9FF9005A2E0D39F16
:0E345D00E49E4009800012726CD2A8C28E223A
:0576C2009005ADE0FFA2
:0176C70022A0
:0676C800E49005ADF02284
:0576CE00900592E0FFB1
:0176D3002294
:0676D400E4900592F02293
:0576DA00900596E0FFA1
:0176DF002288
:0676E000E4900596F02283
:0875340090059AE0FEA3E0FFC0
:01753C00222C
:1021EE004805BE00000000000000004105CB004481
:1021FE0005C7000000004105BD004105B0004105C6
:02220E00C60008
:10004600E49004E3F0A3F09004E7F09004F0F0A34A
:10005600F0A3F0A3F0A3F0A3F0A3F0A3F01275CCE5
:100066009004F0EFF01276389004F1EFF012763E3D
:100076009004F2EFF01275D89004F3EFF01275DEEB
:100086009004F4EFF01275DE9004E7EFF01276209C
:100096009004F5EFF01275F09004F6EFF01275F695
:1000A6009004F7EFF01244F41276C2EF6401600395
:1000B600020F9E900598E0FFE4FCFDFE78081224EE
:1000C6000FC004C005C006C007900597E0FFE4FC1A
:1000D600FDFE781012240FD003D002D001D000EF1D
:1000E6004BFBEE4AFAED49F9EC48F8900599E0FF2A
:1000F600EB4FFFEAFEE9FDE8FC9004DF12248C904A
:1001060004F0E024CE24FC4003020C2924FC400326
:10011600020CE924FC4003020DA924FC4003020E54
:100126006924E47003020F3A1470030204BE245FCC
:100136006003020F9BE4FF127680900599E0FF545E
:10014600F060030202CF900597E0C4540FFE9004BE
:10015600F5E06E60030202CFEEC3940A400302028A
:10016600CF9004F1E0B4010CEF540F2477F582E44C
:100176003403800D900599E0540F2446F582E4344B
:1001860000F583E09004E8F0900597E0FFC4540F73
:100196009004E9F0EF540FA3F0900598E0FFC454E3
:1001A6000F9004EBF0EF540FA3F0900597E0900446
:1001B600EDF0900598E09004EEF0900599E0FF9040
:1001C60004EFF09004E8E0FE64337003020253EE9D
:1001D600607B9004F7E09005B0F0D394014047901F
:1001E60004E8E0FD9005BAE4F0A3EDF0EF540FA3A8
:1001F600F09004F6E09005B1F0E49004E5F0900488
:10020600E5E0FF24E8F582E43404F583E0FE74B209
:100216002FF582E43405F583EEF09004E5E004F072
:10022600E0B408DA80567B017A0479E89004E8E0C5
:10023600FD90050AE4F0A3EDF0900599E0540F90C7
:10024600050CF09004F6E0FF123A38802F9004FB7C
:100256007401F0A37400F0A37456F07B017A04795C
:10026600E812346B7B017A0479E8900599E0540F23
:100276009004FCF07F9212386E020AE09004F4E0DB
:10028600FF9005BDE0C39F5003E004F0126B177B9F
:10029600017A0479E8900599E0540F9004FCF07F08
:1002A6009112386E9004FB7401F0A37404F0A374E9
:1002B600E8F07B017A007956125572124394125E69
:1002C600C67F5F1275D2020F9B7B017A0479D790A5
:1002D60004DFE0FCA3E0FDA3E0FEA3E0FF12615B08
:1002E600EF3395E0FE9004E3F0A3EFF04E700302C7
:1002F6000F9B9004DFE0FCA3E0FDA3E0FEA3E0FF7C
:100306009005C7E0F8A3E0F9A3E0FAA3E0FBC31267
:1003160023FE70091276BCEF601F020F9B9004DF6C
:10032600E0FCA3E0FDA3E0FEA3E0FF9005C71224D6
:100336008C1276B07F011276B69004E3E0FEA3E05D
:10034600FF64014E70089004E87433F08018EF647F
:10035600024E70089004E87434F0800A900599E023
:10036600540F9004E8F078E97C047D017B017A045F
:1003760079D77E007F041222E1900599E0FF900470
:10038600EFF09004E8E0C3943250279004F1E0B413
:10039600010CEF540F2477F582E43403800D9005A9
:1003A60099E0540F2446F582E43400F583E0900486
:1003B600E8F09004E8E0FF64337003020442EF6063
:1003C6007B9004F7E09005B0F0D394014047900588
:1003D600BAE4F0A3EFF0900599E0540F9005BCF055
:1003E6009004F6E09005B1F0E49004E5F09004E5A1
:1003F600E0FF24E8F582E43404F583E0FE74B22FCE
:10040600F582E43405F583EEF09004E5E004F0E0CF
:10041600B408DA80667B017A0479E89004E8E0FDA6
:1004260090050AE4F0A3EDF0900599E0540F9005CD
:100436000CF09004F6E0FF123A38803F9004F4E0A6
:10044600FF9005BDE0C39F5003E004F07B017A04F2
:1004560079E8900599E0540F9004FCF07F921238E9
:100466006E9004FB7401F0A37400F0A37456F07B45
:10047600017A0479E812346B020AE0126B177B01E9
:100486007A0479E8900599E0540F9004FCF07F9186
:1004960012386E9004FB7401F0A37404F0A374E8A0
:1004A600F07B017A007956125572124394125EC699
:1004B6007F5F1275D2020C23E4FF127680900599B5
:1004C600E0FF54F06003020842900597E0C4540F21
:1004D600FE9004F5E06E6003020842EEC3940A4003
:1004E600030208429004F1E0B4010CEF540F2477A4
:1004F600F582E43403800D900599E0540F2446F507
:1005060082E43400F583E09004E8F0900597E0FF7C
:10051600C4540F9004E9F0EF540FA3F0900598E04F
:10052600FFC4540F9004EBF0EF540FA3F09005971F
:10053600E09004EDF0900598E09004EEF0900599B7
:10054600E0FF9004EFF09004F3E06401600302061C
:10055600C19004E8E0FE643370030205E1EE607BBF
:100566009004F7E09005B0F0D3940140479004E87A
:10057600E0FD9005BAE4F0A3EDF0EF540FA3F09080
:1005860004F6E09005B1F0E49004E5F09004E5E0AF
:10059600FF24E8F582E43404F583E0FE74B22FF517
:1005A60082E43405F583EEF09004E5E004F0E0B46F
:1005B60008DA80567B017A0479E89004E8E0FD9039
:1005C600050AE4F0A3EDF0900599E0540F90050CB0
:1005D600F09004F6E0FF123A38802F7B017A047916
:1005E600E8900599E0540F9004FCF07F9212386E63
:1005F6009004FB7401F0A37400F0A37456F07B0121
:100606007A0479E812346B020AE09004F4E0FF9071
:1006160005BDE0C39F5003E004F07B017A0479E84E
:10062600900599E0540F9004FCF07F9112386E907B
:1006360004FB7401F0A37400F0A37456F07B017AF6
:100646000479E81240C39004F4E09004E5F09004C5
:10065600E5E0FFD394014026EF24FEFFE434FFFEDD
:10066600EF7803C333CE33CED8F92456F974003E5F
:10067600FA7B011265889004E5E014F080D0E490DE
:1006860004E5F09004E5E0FFC39406501474562F79
:10069600F582E43400F583E4F09004E5E004F080AC
:1006A600E29004FB7401F0A37404F0A374E8F07BF9
:1006B600017A007956125572020AE09004F3E0645A
:1006C600026003020F9B9004E8E0FF64336003EFCF
:1006D600702F7B017A0479E8900599E0540F900415
:1006E600FCF07F9212386E9004FB7401F0A3740044
:1006F600F0A37456F07B017A0479E812346B020A8F
:10070600E0E49004E6F09004F4E0FF9004E6E0FEF6
:10071600C39F40030207BBEE75F008A4FFAEF024AA
:1007260057F58274003EF583E0FD9004E9E0FCEDA8
:100736006C707974582FF58274003EF583E0FF9053
:1007460004EAE0FEEF6E70649004E6E075F008A43B
:10075600FFAEF02459F58274003EF583E0FD900467
:10076600EBE0FCED6C7045745A2FF58274003EF593
:1007760083E0FF9004ECE0FEEFB506309004E6E07F
:10078600A3F075F008A42456F9740035F0FA7B013D
:10079600C0039004FBEBF0A37404F0A374E8F0D05C
:1007A60003125572124394125EC680099004E6E065
:1007B60004F002070C9004F4E0FF9004E7E06F6099
:1007C60003020F9B9004E6F09004F4E0FD9004E62B
:1007D600E0FFC39D4003020F9BEF75F008A424566B
:1007E600F582740035F0F583E070499005BDE0C3ED
:1007F6009D5003E004F07B017A0479E8900599E0C6
:10080600540F9004FCF07F9112386E9004E6E07568
:10081600F008A42456F9740035F0FA7B01C0039061
:1008260004FBEBF0A37404F0A374E8F0D0031255B4
:1008360072020AE09004E6E004F0808C7B017A0400
:1008460079D79004DFE0FCA3E0FDA3E0FEA3E0FF80
:1008560012615BEF3395E0FE9004E3F0A3EFF04EF8
:100866007003020F9B9004DFE0FCA3E0FDA3E0FE13
:10087600A3E0FF9005C7E0F8A3E0F9A3E0FAA3E040
:10088600FBC31223FE70091276BCEF601F020F9B9A
:100896009004DFE0FCA3E0FDA3E0FEA3E0FF9005EB
:1008A600C712248C1276B07F011276B69004E3E06C
:1008B600FEA3E0FF64014E70089004E87433F080F4
:1008C60018EF64024E70089004E87434F0800A90C1
:1008D6000599E0540F9004E8F078E97C047D017BEB
:1008E600017A0479D77E007F041222E1900599E00F
:1008F600FF9004EFF09004E8E0C394325027900490
:10090600F1E0B4010CEF540F2477F582E434038050
:100916000D900599E0540F2446F582E43400F583E2
:10092600E09004E8F09004F3E064016003020A9D9D
:100936009004E8E0FF643370030209C0EF607B9027
:1009460004F7E09005B0F0D3940140479005BAE46F
:10095600F0A3EFF0900599E0540F9005BCF09004D9
:10096600F6E09005B1F0E49004E5F09004E5E0FFD0
:1009760024E8F582E43404F583E0FE74B22FF582B0
:10098600E43405F583EEF09004E5E004F0E0B40805
:10099600DA80567B017A0479E89004E8E0FD900558
:1009A6000AE4F0A3EDF0900599E0540F90050CF0E1
:1009B6009004F6E0FF123A38802F7B017A0479E83A
:1009C600900599E0540F9004FCF07F9212386E90D7
:1009D60004FB7401F0A37400F0A37456F07B017A53
:1009E6000479E812346B020AE09004F4E0FF900503
:1009F600BDE0C39F5003E004F07B017A0479E890E0
:100A06000599E0540F9004FCF07F9112386E900423
:100A1600FB7401F0A37400F0A37456F07B017A0412
:100A260079E81240C39004F4E09004E5F09004E500
:100A3600E0FFD394014026EF24FEFFE434FFFEEFEF
:100A46007803C333CE33CED8F92456F974003EFA70
:100A56007B011265889004E5E014F080D0E49004F0
:100A6600E5F09004E5E0FFC39406501474562FF5A4
:100A760082E43400F583E4F09004E5E004F080E2DB
:100A86009004FB7401F0A37404F0A374E8F07B01F6
:100A96007A007956020C109004F3E06402600302B7
:100AA6000C239004E8E0FF64336003EF70357B01AC
:100AB6007A0479E8900599E0540F9004FCF07F924F
:100AC60012386E9004FB7401F0A37400F0A3745600
:100AD600F07B017A0479E812346B124394125EC6F5
:100AE600020F9BE49004E6F09004F4E0FF9004E625
:100AF600E0FEC39F4003020B9DEE75F008A4FFAE17
:100B0600F02457F58274003EF583E0FD9004E9E099
:100B1600FCED6C707974582FF58274003EF583E015
:100B2600FF9004EAE0FEEF6E70649004E6E075F074
:100B360008A4FFAEF02459F58274003EF583E0FD6B
:100B46009004EBE0FCED6C7045745A2FF58274004E
:100B56003EF583E0FF9004ECE0FEEFB5063090042E
:100B6600E6E0A3F075F008A42456F9740035F0FA0F
:100B76007B01C0039004FBEBF0A37404F0A374E8BC
:100B8600F0D003125572124394125EC68009900487
:100B9600E6E004F0020AEE9004F4E0FF9004E7E0D9
:100BA6006F707A9004E6F09004F4E0FD9004E6E0BD
:100BB600FFC39D5068EF75F008A42456F5827400B3
:100BC60035F0F583E0704E9005BDE0C39D5003E01F
:100BD60004F07B017A0479E8900599E0540F9004BB
:100BE600FCF07F9112386E9004E6E075F008A424BC
:100BF60056F9740035F0FA7B01C0039004FBEBF064
:100C0600A37404F0A374E8F0D0031255721243944F
:100C1600125EC680089004E6E004F0808A1276C868
:100C2600020F9B7F351275D278CF7C047D017B0144
:100C36007A0579277E007F041222E1900598E0FF6D
:100C4600E4FCFDFE780812240FC004C005C006C0EF
:100C560007900597E0FFE4FCFDFE781012240FD004
:100C660003D002D001D000EF4BFBEE4AFAED49F972
:100C7600EC48F8900599E0FFEB4FFFEAFEE9FDE846
:100C8600FC9004D312248C7B017A0479CF12511B79
:100C96005003020F9B1274C390052AE06409703D4D
:100CA600900529E06409702F900528E0B409229088
:100CB6000527E004F0E4A3F0A3F0900527E0B415BF
:100CC6000AE4F090052A04F0020F9B90052A020F11
:100CD60014900528020F1D900529020F2A90052A57
:100CE600020F357F391275D278CF7C047D017B01E6
:100CF6007A0579317E007F041222E1900598E0FFA3
:100D0600E4FCFDFE780812240FC004C005C006C02E
:100D160007900597E0FFE4FCFDFE781012240FD043
:100D260003D002D001D000EF4BFBEE4AFAED49F9B1
:100D3600EC48F8900599E0FFEB4FFFEAFEE9FDE885
:100D4600FC9004D312248C7B017A0479CF124C6870
:100D56005003020F9B1274C3900534E06409703D82
:100D6600900533E06409702F900532E0B4092290B3
:100D76000531E004F0E4A3F0A3F0900531E0B415EA
:100D86000AE4F090053404F0020F9B900534020F3C
:100D960014900532020F1D900533020F2A90053478
:100DA600020F357F3D1275D278CF7C047D017B0121
:100DB6007A05793C7E007F041222E1900598E0FFD7
:100DC600E4FCFDFE780812240FC004C005C006C06E
:100DD60007900597E0FFE4FCFDFE781012240FD083
:100DE60003D002D001D000EF4BFBEE4AFAED49F9F1
:100DF600EC48F8900599E0FFEB4FFFEAFEE9FDE8C5
:100E0600FC9004D312248C7B017A0479CF1248C15A
:100E16005003020F9B1274C390053FE06409703DB6
:100E260090053EE06409702F90053DE0B4092290DC
:100E3600053CE004F0E4A3F0A3F090053CE0B41513
:100E46000AE4F090053F04F0020F9B90053F020F65
:100E56001490053D020F1D90053E020F2A90053F96
:100E6600020F357F411275D278CF7C047D017B015C
:100E76007A0579487E007F041222E1900598E0FF0A
:100E8600E4FCFDFE780812240FC004C005C006C0AD
:100E960007900597E0FFE4FCFDFE781012240FD0C2
:100EA60003D002D001D000EF4BFBEE4AFAED49F930
:100EB600EC48F8900599E0FFEB4FFFEAFEE9FDE804
:100EC600FC9004D312248C7B017A0479CF1249F961
:100ED6005003020F9B1274C390054BE06409704CDB
:100EE60090054AE064097039900549E0B4092590F7
:100EF6000548E004F0E4A3F0A3F0900548E0B4153B
:100F06000AE4F090054B04F0020F9B90054B740128
:100F1600F0020F9B900549E004F0E4A3F0A3F080F3
:100F26007490054AE004F0E4A3F0806990054BE074
:100F360004F08061E4FF12764A9005CB7401F090CC
:100F460004F1E0B40124A3E0FF900599E0540F24D6
:100F560077F582E43403F583EFF07B017A03797742
:100F660090050F7410F07D2080249004F2E0FF902D
:100F76000599E0540F2446F582E43400F583EFF03A
:100F86007B017A00794690050F7410F07D307C1550
:0E0F96007FA01264451276C8124233023F4714
:0576E6009005CBE0FF60
:0176EB00227C
:0676EC009005CBEFF02237
:1063E1009005B1E09004CFF07B017A0579B2900578
:1063F100BAE0FEA3E0FDAC06A3E0FE9005B0E0D359
:106401009400403030A4199004CFE0FF90050AECCD
:10641100F0A3EDF0A3EEF0123A389005C67401F046
:10642100A2A4E433FF9005C6E06F6008E4F0900594
:04643100B0E014F0D3
:016435002244
:105BCE00FFFFFFFFFFFFFFFFFFFFFFFFFFFFFFFFD7
:105BDE00FFFFFFFFFFFFFFFFFFFFFFFFFFFFFFFFC7
:105BEE00FFFFFFFFFFFFFFFFFFFFFFFFFFFFFFFFB7
:105BFE00FFFFFFFFFFFFFFFFFFFFFFFFFFFFFFFFA7
:105C0E00FFFFFFFFFFFFFFFFFFFFFFFFFFFFFFFF96
:105C1E00FFFFFFFFFFFFFFFFFFFFFFFFFFFFFFFF86
:105C2E00FFFFFFFFFFFFFFFFFFFFFFFFFFFFFFFF76
:105C3E00FFFFFFFFFFFFFFFFFFFFFFFFFFFFFFFF66
:105C4E00FFFFFFFFFFFFFFFFFFFFFFFFFFFFFFFF56
:105C5E00FFFFFFFFFFFFFFFFFFFFFFFFFFFFFFFF46
:03775600DFFE2231
:10735B00AE07AF061EEF600C7FF51277567FF51266
:05736B00775680EE22C0
:10733000D2B400D2B50000000000C2B400000000CA
:0673400000C2B5000022AE
:10747100C2B400D2B50000000000D2B40000000088
:0174810022E8
:10677500E4FEEFA806088002C333D8FC30E704D254
:10678500B48002C2B400D2B50000000000C2B50E4C
:10679500EEB408DE0000D2B40000D2B5000000302F
:0C67A500B404C20A8002D20AC2B500008F
:0167B10022C5
:106ED700E4FFD2B4FE00C2B50000000000D2B50046
:106EE70000EF25E0FF30B4010F00000EEEB408E517
:046EF700C2B5000020
:016EFB002274
