:030000000260207B
:0C602000787FE4F6D8FD758121026067EE
:106B2100126FFB12756F1275AA1276901275D91237
:106B3100738B12758E75B10CE4F5B212628D123C35
:0C6B41002B120FC212004612676680F58E
:0F757F004F4B535049005350494F4B004F4B0057
:101CD6004105D7004405DA000000004105D3004164
:101CE60005DE004105D9004305CFFF757F4305CCCE
:101CF600FF75854305D4FF758B4105D8004105D294
:011D060000DC
:03002300025BB5C8
:0D5BB500C0E0C0F0C083C082C0D075D00831
:105BC20090051DE4F0209803025C64C298E599F008
:105BD200127697BF6922900376E0B4011B90051DEF
:105BE200E0FFB4AA089003767402F08075EF645562
:105BF2007070900376F0806A127697EF646A706232
:105C020090051DE0FFB4AA189005D8E07012900329
:105C12009474AAF09005D27401F09005D8F08042F5
:105C22009005D8E06401703A9005D2E02494F582A0
:105C3200E43403F583EFF09005D2E004F0E0B40A17
:105C420021E4F09005D8F0900394E0B4AA0F9003F9
:105C52009DE0B455089003917401F080057F5512C0
:095C620075E4309904C299C209ED
:0B5C6B00D0D0D082D083D0F0D0E03247
:03004300025EFF5B
:0D5EFF00C0E0C0F0C083C082C0D075D008E4
:105F0C00E4FFE59A30E069539AFEAF9B9005D7E029
:105F1C00640170309005D9E0FEB401139005D3E014
:105F2C00FD04F074DA2DF582E43405F583EFF0EF1F
:105F3C00B44F11EE700E9005D904F09005D3F0908B
:105F4C0005DAEFF09005D3E0B402259005D7E4F024
:105F5C009005D9F078DA7C057D019005D4E0FBA39F
:105F6C00E0FAA3E0F9122668EF70059005DE04F064
:0A5F7C00E59A30E105539AFDC209D1
:0B5F8600D0D0D082D083D0F0D0E03229
:0975E4002009FDEFD209F59922FE
:1069F400900613EBF0A3EAF0A3E9F0900613E0FB92
:106A0400A3E0FAA3E0F912232D6017900613A3E480
:106A140075F00112240EA9F0FA12232DFF1275E469
:036A240080D922F4
:0975ED002009FDEFD209F59B22F3
:106A2700900616EBF0A3EAF0A3E9F0900616E0FB58
:106A3700A3E0FAA3E0F912232D6017900616A3E44A
:106A470075F00112240EA9F0FA12232DFF1275ED2D
:036A570080D922C1
:0975F6002009FDEFD209F59922EC
:106A5A00900619EBF0A3EAF0A3E9F0900619E0FB1F
:106A6A00A3E0FAA3E0F912232D6017900619A3E414
:106A7A0075F00112240EA9F0FA12232DFF1275F6F1
:036A8A0080D9228E
:106FFB00E5A2543FF5A253BAFE759850759A507599
:10700B00D7C875D6FE758E14438E01D2AC75AF0101
:03701B00D2AF22CF
:0B6400009003A1EBF0A3EAF0A3E9F089
:10640B009003CC7401F0A37403F0A374A4F0900375
:10641B00A1E0F9A3E0FAA3E090060DC9F0A3EAF01E
:10642B00A3E9F09003CCE0F9A3E0FAA3E090061007
:10643B00C9F0A3EAF0A3E9F07B017A0379CF1266E6
:0A644B00D47B017A0379CF0269F4D3
:102E8B000000000000FF6FB30102661400FF000694
:102E9B000203011500FF71F80304021900FF7216FB
:102EAB000405031D00FF72340506041F00FF725258
:102EBB000607052000FF72700708062100FF728EBF
:102ECB000809072600FF72AC090A082A00FF72CA1C
:102EDB000A0B092C00FF72E80B0C0A0B00FF001EFB
:102EEB000C0D0B0C00FF77BD0D0E0C0D00FF77C208
:102EFB000E660D0E00FF000E0F0F0F1201FF668AFC
:102F0B001010100F01FF69191111111001FF6951F8
:102F1B001212121401FF6FD71313131101FF6BF76A
:102F2B001414141301FF6AC01516183502FF7489A7
:102F3B001617153902FF749B1718163D02FF74AD57
:102F4B001815174102FF74BF191A1C4503FF74D1E2
:102F5B001A1B194903FF74E31B1C1A4D03FF74F56D
:102F6B001C191B5103FF75071D1E1E5204FF77C74B
:102F7B001E1D1D5304FF77CC1F1F1F1F05FF760857
:102F8B002020202006FF76102122645407FF77D1E2
:102F9B002223215507FF77D62324225607FF77DB01
:102FAB002425235707FF77E02560245807FF77E593
:102FBB002627295908FF77EA2728265A08FF77EF93
:102FCB002829275B08FF77F42926285C08FF77F967
:102FDB002A2B2B2A09FF759C2B2A2A5E09FF77FEC9
:102FEB002C2D2D000AFF78032D2C2C000AFF7808BE
:102FFB002E2E2E2E0BFF733F2F2F2F2F0CFF7618FD
:10300B00303030300DFF7620313131310EFF6550CD
:10301B003232323515FF71133333333215FF7135BD
:10302B003434343315FF71573535353415FF0026DD
:10303B003636363916FF6C1F3737373616FF6C4767
:10304B003838383716FF6C6F3939393816FF701E20
:10305B003A3A3A3D17FF6C973B3B3B3A17FF6CBF35
:10306B003C3C3C3B17FF6CE73D3D3D3C17FF704143
:10307B003E3E3E4118FF6D0F3F3F3F3E18FF6D3701
:10308B004040403F18FF6D5F4141414018FF706465
:10309B004242424519FF6D874343434219FF6DAFCF
:1030AB004444444319FF6DD74545454419FF708788
:1030BB00464646491AFF6DFF474747461AFF6E279C
:1030CB00484848471AFF6E4F494949481AFF70AAAA
:1030DB004A4A4A4D1BFF6E774B4B4B4A1BFF6E9F69
:1030EB004C4C4C4B1BFF6EC74D4D4D4C1BFF70CDCD
:1030FB004E4E4E511CFF6EEF4F4F4F4E1CFF6F1736
:10310B005050504F1CFF6F3F515151501CFF70F0EE
:10311B00525252521DFF7628535353531EFF763093
:10312B005454545421FF76385555555522FF76404B
:10313B005656565623FF76485757575724FF730654
:10314B005858585825FF76505959595926FF751913
:10315B005A5A5A5A27FF76585B5B5B5B28FF76609F
:10316B005C5C5C5C29FF76685D5D5D5D2AFF68A534
:10317B005E5E5E5E2BFF69895F5F5F5F5FFF663C34
:10318B006062256107FF780D6161616160FF767098
:10319B006264606307FF78126363636362FF767830
:1031AB006421626507FF78176565656564FF768046
:1031BB0066010E6600FF781C6768686966FF73FD21
:1031CB006867676A66FF752B6969696967FF5AF2F9
:0831DB006A6A6A6A68FF5E6A15
:101D070041052200410554004105230045052700F0
:101D170000000100450531000000010045053C00B9
:101D270000000100450548000000010045052C00A2
:101D3700000001004505370000000100450543008C
:101D47000000010045054E00000001004105360175
:101D5700410542014105410041054D004105530040
:101D6700410556014105590041055C0941055E07DA
:101D770041055F0141056000410561004105550BC3
:101D87004105580041055B0041055D0041055702CB
:101D970041055A0041052001410562014105210124
:10271D00E49004D2F0A3F0A3F0A3F0A3F030B30C37
:10272D0030B60930B70630A503022B2112758E3055
:10273D00B30C30B60930B70630A503022B21127742
:10274D005120B3099004D2E4F0A37438F020B609F7
:10275D009004D2E4F0A37434F020B7099004D2E4CD
:10276D00F0A3742CF020A5099004D2E4F0A3741CFE
:10277D00F09004D2E07004A3E064386003022AB63E
:10278D0012773F7F0112773330B303022AB69004DC
:10279D00D5E06003022AB6127721EF70069005236B
:1027AD00E06013127721EF64017048900523E0FF7C
:1027BD006004645F703D1277399004D4EFF0C394D8
:1027CD001440C59005237402F0E49004D2F0A3F0F8
:1027DD00D2CDC2977F011271BA1276D9BF010A7F8D
:1027ED006F7E00126A93022A007F787E001268DFE6
:1027FD00022A00900523E0FF6442600FEF644360FE
:10280D000AEF64446005EF6445702F127739900428
:10281D00D4EFF0C3940A5003022795E49004D2F04C
:10282D00A3F07B017A05792C1253FF40077F797E47
:10283D0000126A9312758E022A00900523E0FF6440
:10284D0046600FEF6447600AEF64486005EF644926
:10285D00702F1277399004D4EFF0C3940A5003020D
:10286D002795E49004D2F0A3F07B017A0579371215
:10287D0052DB40077F797E00126A9312758E022A11
:10288D0000900523E0FF644A600FEF644B600AEF90
:10289D00644C6005EF644D702F1277399004D4EFBE
:1028AD00F0C3940A5003022795E49004D2F0A3F0EC
:1028BD007B017A057943124F5F40077F797E0012C5
:1028CD006A9312758E022A00900523E0FF644E6014
:1028DD000FEF644F600AEF64506005EF6451702F85
:1028ED001277399004D4EFF0C3940A500302279560
:1028FD00E49004D2F0A3F07B017A05794E12508A50
:10290D0040077F797E00126A9312758E022A00901D
:10291D000523E0B40C2B1277399004D4EFF0C39457
:10292D00145003022795E49004D2F0A3F0900523F0
:10293D00742FF01277219004D6EFF01273A4022AAF
:10294D0000900523E0B40D2B1277399004D4EFF0ED
:10295D00C394145003022795E49004D2F0A3F09091
:10296D0005237430F012771B9004D6EFF01273A488
:10297D00022A00900523E0B40E1F1277399004D47B
:10298D00EFF0C394145003022795E49004D2F0A302
:10299D00F09005237431F0805A900523E0B466243D
:1029AD001277399004D4EFF0C39414500302279595
:1029BD00E49004D2F0A3F09005237467F07F011228
:1029CD0071D9802F900523E0B42A34127739900401
:1029DD00D4EFF0C394145003022795E49004D2F081
:1029ED00A3F0900523745DF01277039004D6EFF0F9
:1029FD001273A49004D57401F012773F02279590BD
:102A0D000523E0642D70251277399004D4EFF0C3BF
:102A1D0094145003022795E49004D2F0A3F07F792B
:102A2D00FE126A93126455125DD28067900523E001
:102A3D00642C60030227951277399004D4EFF0C30C
:102A4D0094145003022795E49004D2F0A3F07F79FB
:102A5D00FE126A93126455126869125DD27B017A77
:102A6D0003797790050F7410F07D207C157FA012EF
:102A7D0064B912758E7B017A00794690050F74103A
:102A8D00F07D307C157FA01264B912758E12634BE8
:102A9D0012758E75C760E4900523F09004D504F08F
:102AAD0012773F75C13002279530B3FD30B6FA303D
:102ABD00B7F730A5F412758E30B3FD30B6FA30B7D6
:102ACD00F730A5F4E4FF127733E4FF12774B90054E
:102ADD0023E0645E60231276D9EF6011900523E048
:102AED00D3940E40047F0180067F0080027F01EFAA
:102AFD0060077F787E001268DF9004D5E070079044
:102B0D00052204F08005E4900522F09004D2E0FE49
:082B1D00A3E0FF227E0F7FFF01
:012B2500228D
:104E3300E49004D0F0A3F0FF12271D9004D0EEF00D
:104E4300A3EFF01277A59004D0E0640F7003A3E002
:104E5300F46003024F34EF64016003024F349005A2
:104E630023E0FF601C640B6018EF640C6013EF64B5
:104E73000D600EEF640E6009EF642D6004EFB42C37
:104E83002A900599E0540FFFBF0808900554E004E9
:104E9300F08005E4900554F0900554E0D39403406A
:104EA3000A7F14127757E4900554F01277AB127708
:104EB30063EF6005E4900522F0900599E0540FFF3D
:104EC300640860069005227401F0EF24FE60292433
:104ED300FE603524FC604124077056127769EF7039
:104EE300509004D0F0A3741CF0900523E0B4310675
:104EF30012744F12758E8034127769EF70339004F9
:104F0300D0F0A37434F08024127769EF70239004F7
:104F1300D0F0A3742CF08014127763EF7013127720
:104F230069EF700D9004D0F0A37438F07F05127709
:104F33006F9004D0E0FEA3E0FFEE701DEF24D46079
:104F43001224F8600B24FC600D241C700C7F0322D8
:0B4F53007F02227F01227F00227FFFEF
:014F5E002230
:100FC200E4FF9004CFF0124E33EF147003021309C2
:100FD2001470030218081470030212DB2403600366
:100FE200021CAB127721EF7006900523E06012120B
:100FF2007721EF64017022900523E0FF6003B45F64
:10100200181277399004CFEFF0C394145003021CE6
:10101200AB9005237402021165900523E0FF644240
:10102200600FEF6443600AEF64446005EF6445704B
:101032002D1277399004CFEFF0C3940A40657B01FB
:101042007A05792C1253FF405712770FBF010C7F9C
:10105200797E00126A93E4FF12771502113090052F
:1010620023E0FF6446600FEF6447600AEF64486064
:1010720005EF644970301277399004CFEFF0C394D2
:101082000A40207B017A0579371252DB401212772F
:101092000FBF010C7F797E00126A93E4FF1277156D
:1010A200021130021136900523E0FF644A600FEF0F
:1010B200644B600AEF644C6005EF644D702E12774A
:1010C200399004CFEFF0C3940A401F7B017A05796F
:1010D20043124F5F401212770FBF010C7F797E00DF
:1010E200126A93E4FF12771580448048900523E04A
:1010F200FF644E600FEF644F600AEF64506005EFCB
:10110200645170431277399004CFEFF0C3940A40D0
:10111200237B017A05794E12508A401212770FBF53
:10112200010C7F797E00126A93E4FF127715127523
:101132008E0212D5900523E075F008A4248EF58264
:10114200E5F0342E021CA3900523E0B40B1E1277A7
:10115200399004CFEFF0C394145003021CAB9005F6
:1011620023742EF07F061275CE0212D5900523E06D
:10117200B40C1E1277399004CFEFF0C394145003CD
:10118200021CAB900523742FF07F061275CE02125B
:10119200D5900523E0B40D1E1277399004CFEFF0FD
:1011A200C394145003021CAB9005237430F07F06E5
:1011B2001275CE0212D5900523E0B40E1E127739B5
:1011C2009004CFEFF0C394145003021CAB9005239C
:1011D2007431F07F061275CE0212D5900523E0B469
:1011E200661E1277399004CFEFF0C39414500302B5
:1011F2001CAB9005237467F07F061275CE0212D5E0
:10120200900523E0B42A1E1277399004CFEFF0C381
:1012120094145003021CAB900523745DF07F0612F8
:1012220075CE0212D5900523E0642D701F12773916
:101232009004CFEFF0C394145003021CAB7F797E6D
:1012420000126A93126455125DD2805E900523E00B
:10125200642C70671277399004CFEFF0C394145066
:1012620003021CAB7F797E00126A931264551268E6
:1012720069125DD27B017A03797790050F7410F0C1
:101282007D207C157FA01264B912758E7B017A00D5
:10129200794690050F7410F07D307C157FA01264A2
:1012A200B912758E12634B12758E75C7607F061266
:1012B20075CE12773F75C130021CAB900523E075E5
:1012C200F008A4248EF582E5F0342EF583E49390A1
:1012D2000523F012773F021CAB900523E0B45F14A4
:1012E200127721EF600E1260ACE49005B0F0127438
:1012F2004F021CAB900523E075F008A4248FF58201
:10130200E5F0342E021CA3900523E01224BE13C57F
:101312000F13D71013E61113F512140813141A142D
:1013220016961F16AA2017A82F179430142C3214C1
:101332003E331450341462351474361486371498BC
:101342003814AA3914BC3A14CE3B14E03C14F23DD2
:1013520015043E15163F152840153A41154C421505
:101362005E4315704415824515944615A64715B877
:101372004815CA4915DC4A15EE4B16004C16124D9B
:1013820016244E16364F164850165A51166B5216E0
:10139200815316BE5416D25516E75616F957170D35
:1013A2005817215917355A17465B17575C17685D4E
:1013B200177C5E178F5F17BB6117CE6317E165005D
:1013C2000017F59005E0E0B46305E4F00217F5902C
:1013D20005E002178A9005E1E0B40C02801C90053A
:1013E200E102178A9005E2E0B41F02800D9005E247
:1013F20002178A9005E6E0B407067401F00217F5B9
:101402009005E602178A9005E3E0B41705E4F002BE
:1014120017F59005E302178A9005E4E0B43B05E472
:10142200F00217F59005E402178A900527E0B4143C
:1014320005E4F00217F590052702178A900528E0C7
:10144200B40905E4F00217F590052802178A900501
:1014520029E0B40905E4F00217F590052902178A7C
:1014620090052AE0B40905E4F00217F590052A0276
:10147200178A900531E0B41405E4F00217F59005DF
:101482003102178A900532E0B40905E4F00217F53B
:1014920090053202178A900533E0B40905E4F002A0
:1014A20017F590053302178A900534E0B40905E474
:1014B200F00217F590053402178A90053CE0B41447
:1014C20005E4F00217F590053C02178A90053DE00D
:1014D200B40905E4F00217F590053D02178A90055C
:1014E2003EE0B40905E4F00217F590053E02178AC2
:1014F20090053FE0B40905E4F00217F590053F02BC
:10150200178A900548E0B41405E4F00217F5900537
:101512004802178A900549E0B40905E4F00217F57C
:1015220090054902178A90054AE0B40905E4F002E1
:1015320017F590054A02178A90054BE0B40905E4B5
:10154200F00217F590054B02178A90052CE0B414AF
:1015520005E4F00217F590052C02178A90052DE09C
:10156200B40905E4F00217F590052D02178A9005DB
:101572002EE0B40905E4F00217F590052E02178A51
:1015820090052FE0B40905E4F00217F590052F024B
:10159200178A900537E0B41405E4F00217F59005B8
:1015A2003702178A900538E0B40905E4F00217F50E
:1015B20090053802178A900539E0B40905E4F00273
:1015C20017F590053902178A90053AE0B40905E447
:1015D200F00217F590053A02178A900543E0B41419
:1015E20005E4F00217F590054302178A900544E0DE
:1015F200B40905E4F00217F590054402178A900534
:1016020045E0B40905E4F00217F590054502178A92
:10161200900546E0B40905E4F00217F5900546028C
:10162200178A90054EE0B41405E4F00217F5900510
:101632004E02178A90054FE0B40905E4F00217F54F
:1016420090054F02178A900550E0B40905E4F002B4
:1016520017F590055002178A900551E0B40904E489
:10166200F08006900551E004F0900536E0B40106E2
:101672007402F00217F29005367401F00217F2902C
:101682000542E0B463057401F08006900542E0046F
:10169200F00217F2900541E0B46304E4F080069092
:1016A2000541E004F00217F290054DE0B46304E452
:1016B200F0800690054DE004F00217F2900553E029
:1016C200B40704E4F08006900553E004F00217F238
:1016D200900556E0B409057401F08006900556E0C5
:1016E20004F00217F2900559E0700404F08005E45A
:1016F200900559F00217F290055CE0B40904E4F099
:10170200800690055CE004F00217F290055EE0B4FA
:101712000704E4F0800690055EE004F00217F29000
:101722000555E0B40A04E4F08006900555E004F0A3
:101732000217F2900558E0B40B05E4F00217F59099
:101742000558804490055BE0B40B05E4F00217F500
:1017520090055B803390055DE0B40B05E4F0021761
:10176200F590055D8022900557E0B401057402F002
:1017720080069005577401F0807690055AE0B426F1
:1017820004E4F0806E90055AE004F08066125A2C50
:101792008061900562E0B401057402F08006900554
:1017A200627401F0804A900520E0B40104E4F08004
:1017B200069005207401F0803790055FE0B40104C3
:1017C200E4F0800690055F7401F08024900560E0EB
:1017D200B40104E4F080069005607401F080119079
:1017E2000561E0B40104E4F080069005617401F043
:1017F200125DD2900523E075F008A4248CF582E5F1
:10180200F0342E021CA3900523E01224BE18C40F4C
:1018120018D61018E91118FC12190F131921141BEC
:101822003C1F1B50201C462F1C32301933321942E8
:1018320033195134196035196F36197E37198D38BD
:10184200199C3919AB3A19BA3B19C93C19D83D1937
:10185200E73E19F63F1A05401A14411A23421A327A
:10186200431A41441A50451A5F461A6D471A7C487A
:101872001A8B491A994A1AA74B1AB54C1AC34D1A10
:10188200D14E1AE34F1AF1501AFF511B11521B2766
:10189200531B64541B78551B8D561B9F571BB35803
:1018A2001BC7591BDB5A1BE85B1BF55C1C065D1C46
:1018B2001A5E1C2D5F1C59611C6C631C7F65000045
:1018C2001C939005E0E070067463F0021C9390058F
:1018D200E0021C289005E1E0B40106740CF0021C41
:1018E200939005E1021C289005E2E0B40106741F02
:1018F200F0021C939005E2021C289005E6E0B40178
:10190200067407F0021C939005E6021C289005E37A
:10191200E070067417F0021C939005E3021C2890F5
:1019220005E4E07006743BF0021C939005E4021C8F
:1019320028900527E07003021AD7900527021C2879
:10194200900528E07003021B05900528021C2890D0
:101952000529E07003021B05900529021C28900549
:101962002AE07003021B0590052A021C289005310B
:10197200E07003021AD7900531021C28900532E06C
:101982007003021B05900532021C28900533E0709B
:1019920003021B05900533021C28900534E07003F6
:1019A200021B05900534021C2890053CE0700302DE
:1019B2001AD790053C021C2890053DE07003021BDB
:1019C2000590053D021C2890053EE07003021B05B0
:1019D20090053E021C2890053FE07003021B059013
:1019E200053F021C28900548E07003021AD79005B3
:1019F20048021C28900549E07003021B0590054926
:101A0200021C2890054AE07003021B0590054A0259
:101A12001C2890054BE07003021B0590054B021C2D
:101A22002890052CE07003021AD790052C021C287E
:101A320090052DE07003021B0590052D021C2890D5
:101A4200052EE07003021B0590052E021C2890054E
:101A52002FE07003021B0590052F021C289005370A
:101A6200E070028070900537021C28900538E07003
:101A720003021B05900538021C28900539E070030B
:101A8200021B05900539021C2890053AE07002807D
:101A92007290053A021C28900543E070028036904D
:101AA2000543021C28900544E070028056900544CC
:101AB200021C28900545E070028048900545021CF2
:101AC20028900546E07002803A900546021C289054
:101AD200054EE070067414F0021C9390054E021C31
:101AE2002890054FE07002801A90054F021C289042
:101AF2000550E07002800C900550021C28900551A0
:101B0200E070067409F0021C93900551021C2890A3
:101B12000536E0B401067402F0021C90900536749A
:101B220001F0021C90900542E0B401057463F0805C
:101B320006900542E014F0021C90900541E0700509
:101B42007463F08006900541E014F0021C90900549
:101B52004DE070057463F0800690054DE014F002CC
:101B62001C90900553E070057407F08006900553B1
:101B7200E014F0021C90900556E0B401057409F0DF
:101B82008006900556E014F0021C90900559E07012
:101B92000404F08005E4900559F0021C9090055C65
:101BA200E070057409F0800690055CE014F0021CF8
:101BB2009090055EE070057407F0800690055EE087
:101BC20014F0021C90900555E07005740AF080062E
:101BD200900555E014F0021C90900558E0700280C8
:101BE20018900558804090055BE07002800B9005CC
:101BF2005B803390055DE07006740BF0021C9390DD
:101C0200055D8022900557E0B401057402F080065C
:101C12009005577401F0807690055AE0700574269D
:101C2200F0806E90055AE014F080661255138061C0
:101C3200900562E0B401057402F0800690056274BA
:101C420001F0804A900520E0B40104E4F08006909F
:101C520005207401F0803790055FE0B40104E4F0E0
:101C6200800690055F7401F08024900560E0B40165
:101C720004E4F080069005607401F0801190056123
:101C8200E0B40104E4F080069005617401F0125D95
:101C9200D2900523E075F008A4248DF582E5F03496
:101CA2002EF583E493900523F0900523E075F00868
:101CB200A42490F582E5F0342EF583E493FB7401BD
:101CC20093FA740293F9900524EBF0A3EAF0A3E9E6
:041CD200F00224E414
:0D758E007F047E347DDCDDFEDEFADFF600DA
:01759B0022CD
:04742700AB07AA06FF
:0F742B00E4FCECC39BE49A500612758E0C80F3C0
:01743A00222F
:05769700900523E0FF57
:01769C0022CB
:06769D00900523EFF0222E
:0576A300900536E0FF38
:0176A80022BF
:0576A900900542E0FF26
:0176AE0022B9
:0576AF00900541E0FF21
:0176B40022B3
:0576B50090054DE0FF0F
:0176BA0022AD
:0576BB00900553E0FF03
:0176C00022A7
:0576C100900556E0FFFA
:0176C60022A1
:0576C700900559E0FFF1
:0176CC00229B
:0576CD0090055CE0FFE8
:0176D2002295
:0576D30090055EE0FFE0
:0176D800228F
:0576D90090055FE0FFD9
:0176DE002289
:0576DF00900560E0FFD2
:0176E4002283
:0576E500900561E0FFCB
:0176EA00227D
:0576EB00900555E0FFD1
:0176F0002277
:0576F100900558E0FFC8
:0176F6002271
:0576F70090055BE0FFBF
:0176FC00226B
:0576FD0090055DE0FFB7
:017702002264
:05770300900557E0FFB6
:01770800225E
:0577090090055AE0FFAD
:01770E002258
:05770F00900522E0FFDF
:017714002252
:06771500900522EFF022B6
:05771B00900562E0FF93
:017720002246
:05772100900520E0FFCF
:017726002240
:105DD200900536E09005EFF0900542E09005F0F076
:105DE200900541E09005F1F090054DE09005F2F04C
:105DF200900553E09005F3F0900556E09005F4F01D
:105E0200900559E09005F5F090055CE09005F6F0FC
:105E120090055EE09005F7F090055FE09005F8F0E0
:105E2200900560E09005F9F0900561E09005FAF0C8
:105E3200900555E09005FBF0900557E09005FCF0C9
:105E4200900520E09005FDF0900562E09005FEF0DF
:105E52007B017A0579EF90050F7410F07D407C1577
:085E62007FA01264B902758EE5
:103C2B007B017A03797790051A7410F07D207C154F
:103C3B007FA01261BD12758E7B017A0079469005CB
:103C4B001A7410F07D307C157FA01261BD12758E39
:103C5B007B017A0579EF90051A7410F07D407C1585
:103C6B007FA01261BD12758E9005EFE0FF900536B7
:103C7B00F09005F0E0900542F09005F1E0900541E1
:103C8B00F09005F2E090054DF09005F3E0900553B0
:103C9B00F09005F4E0900556F09005F5E09005598D
:103CAB00F09005F6E090055CF09005F7E090055E6E
:103CBB00F09005F8E090055FF09005F9E090056055
:103CCB00F09005FAE0900561F09005FBE09005554A
:103CDB00F09005FCE0900557F09005FDE090052075
:103CEB00F09005FEE0900562F0EFD3940240069051
:103CFB0005367401F09005F0E0D39463400690050F
:103D0B00427401F09005F1E0D394634006900541B5
:103D1B007401F09005F2E0D39463400690054D7466
:103D2B0001F09005F3E0D394074005E4900553F0C0
:103D3B009005F4E0D3940940069005567401F09079
:103D4B0005F5E0D394014005E4900559F09005F694
:103D5B00E0D39409400690055C7409F09005F7E0F8
:103D6B00D39407400690055E7407F09005F8E0D3F6
:103D7B0094014005E490055FF09005F9E0D39401C0
:103D8B004005E4900560F09005FAE0D394014005FE
:103D9B00E4900561F09005FBE0D3940A4006900592
:103DAB0055740AF09005FCE0D39402400690055739
:103DBB007402F09005FDE0D3940140069005207449
:103DCB0001F09005FEE0D394024006900562740169
:0D3DDB00F090055CE075F003A4FF02717923
:106455009005367401F0900542F0E4900541F09006
:10646500054DF0900553F090055604F0E49005595C
:10647500F090055C7409F090055E7407F0A3740153
:10648500F0E4A3F0A3F0900555740AF0E4900558E4
:10649500F090055BF090055DF09005577402F0E40F
:0564A50090055AF022F1
:106869007F109003777401F0A3DFFC900046740158
:10687900F0E4A3F0A37403F0A37405F0A37402F089
:10688900A314F0A3F0A37406F0A37401F0A3F0A37A
:0B689900F0A3F0A3F0A3F0A3F0A3F025
:0168A40022D1
:10719A0000000000000000000000000000000000E5
:1071AA0000000000000000000000000000000000D5
:101DA7005500313F065B4F666D7D077F6F777C3946
:101DB7005E797176385C733E480387010204081028
:101DC70020408042038F4000603000010000000087
:101DD70000000000000000000000000000000000FC
:101DE70000000000000000000000000000000000EC
:101DF7000000000000000000000000006320005603
:101E070000000000000000000000000000000000CB
:101E170000000000000000000000000000000000BB
:101E270000000000000000000000000000000000AB
:101E3700000000000000000000000000000000009B
:10212700410000004103A0005003770101010101B4
:1021370001010101010101010101015000460100F6
:102147000305020101060101010101010101420329
:102157009200004103760042039E00004103910074
:106B4D00C282E4FDFCC280EF30E004D2818002C23B
:106B5D008100000000D280EFC313FF0DBD00010CBA
:0A6B6D00ED64084C70DFC280C281A5
:016B770022FB
:106B7800C283E4FDFCC280EF30E004D2818002C20F
:106B88008100000000D280EFC313FF0DBD00010C8F
:0A6B9800ED64084C70DFC280C2817A
:016BA20022D0
:106BA300C2CCE4FDFCC280EF30E004D2818002C29B
:106BB3008100000000D280EFC313FF0DBD00010C64
:0A6BC300ED64084C70DFC280C2814F
:016BCD0022A5
:0973BB00AE077F401273C47FC0CD
:0D73C400D282000000000000C282026B4D6A
:0C7359001273C4D2827F401273657FC0A3
:0D736500D283000000000000C283026B789C
:0C737200127365D2837F4012737E7FC0CF
:0D737E00D2CC000000000000C2CC026BA3C6
:055C7600E4900001F0C4
:105C7B001276D31273BB90000CE0900010F09000E2
:105C8B000BE090000FF090000AE090000EF09000F7
:105C9B0009E0FF90000DE0900009F090000DEFF08F
:105CAB00E4FB74012BF582E43400F583E0FF126B07
:105CBB004D74092BF582E43400F583E0FF126B4D34
:105CCB000BEBB408DDEE2488FF127359E4FB74115F
:105CDB002BF582E43400F583E0FF126B7874192BFB
:105CEB00F582E43400F583E0FF126B780BEBB4081C
:105CFB00DDEE2488FF127372E4FB74212BF582E432
:105D0B003400F583E0FF126BA374292BF582E43486
:105D1B0000F583E0FF126BA30BEBB408DDEE2488D8
:065D2B00FF12737ED2CCD2
:015D3100224F
:10671E001273BBE4FBAF06126B4DAF06126B4D0B43
:10672E00EBB408F17F8F127359E4FBAF06126B784E
:10673E00AF06126B780BEBB408F17F8F127372E415
:10674E00FBAF06126BA3AF06126BA30BEBB408F1F3
:07675E007F8F12737ED2CC85
:016765002211
:10628D00E49004CFF0E4FFE4FE9004CFE02487F522
:10629D0082E43403F583E0FDEF75F008A42401F5E5
:1062AD0082E43400F583E5822EF582E43583F583AF
:1062BD00EDF00EEEB408D20FEFB406CB125C7B906E
:1062CD0004CFE0B401077F7B7E00126A937F1E121C
:0E62DD0074779004CFE004F0E0C3940840A76B
:0162EB002290
:10747700EFD39400400B7EFF7DFFDDFEDEFA1F8019
:01748700EF15
:0174880022E1
:106BCE00E4FFE4FEEF75F008A42401F582E434003E
:106BDE00F583E5822EF582E43583F583E4F00EEE3F
:086BEE00B408E10FEFB406DA70
:016BF600227C
:0A75B8007F78900056E4F0A3DFFC9A
:0175C20022A6
:1069BF00E4FF127727EF6401702A126BCE9000006C
:1069CF00E05403FF2401F582E43400F5837440F0B2
:1069DF00125C7BE4FF12772D900000E004F0E0B42E
:0469EF000402E4F0CA
:0169F3002281
:103F99001276DFEF600302403E126BCE126137905A
:103FA9000033E0900008F0900031E0900007F090B5
:103FB90005E0E0FF75F00A842431F582E43400F568
:103FC90083E0900006F0EF75F00A84743125F0F56E
:103FD90082E43400F583E0900005F09005E1E0FF0C
:103FE90075F00A842431F582E43400F583E0900009
:103FF9000AF0EF75F00A84743125F0F582E4340093
:10400900F583E0900009F09005E2E0FF75F00A847D
:104019002431F582E43400F583E090000CF0EF756B
:10402900F00A84743125F0F582E43400F583E090D8
:10403900000B0240D7126BCE126137900033E0902B
:10404900000CF0900031E090000BF09005E0E0FFEB
:1040590075F00A842431F582E43400F583E0900098
:104069000AF0EF75F00A84743125F0F582E4340022
:10407900F583E0900009F09005E1E0FF75F00A840E
:104089002431F582E43400F583E0900008F0EF75FF
:10409900F00A84743125F0F582E43400F583E09068
:1040A9000007F09005E2E0FF75F00A842431F582FB
:1040B900E43400F583E0900006F0EF75F00A8474AB
:1040C9003125F0F582E43400F583E0900005F090A5
:1040D90005E6E02431F582E43400F583E090000D33
:1040E900F09005E3E0FF75F00A842431F582E434A9
:1040F90000F583E0900004F0EF75F00A847431252F
:10410900F0F582E43400F583E0900003F09005E4D3
:10411900E0FF75F00A842431F582E43400F583E088
:10412900900002F0EF75F00A84743125F0F582E40D
:094139003400F583E0125C7722EA
:1071BA00AD07126BCE900040E0900002F074312DC2
:0F71CA00F582E43400F583E0900001F0025C7B75
:1071D900AD07126BCE90003FE0900002F074312DA4
:0F71E900F582E43400F583E0900001F0025C7B56
:10743B00126BCE900031E0900002F0900001743797
:04744B00F0025C7B74
:1073D100126BCE900031E0900002F0900040E090FE
:0673E1000001F0025C7BDC
:1073A400AD07126BCE74312DF582E43400F583E021
:0773B400900001F0025C7B78
:106AF100AD07126BCEED75F00A842431F582E434D2
:106B010000F583E0900002F0ED75F00A8474312500
:106B1100F0F582E43400F583E0900001F0025C7B43
:1062EC00AB07AA06126BCE7C007D64AF03AE021224
:1062FC0023B974312FF58274003EF583E0900003CE
:10630C00F07C007D0AAF03AE021223B97C007D0A3B
:10631C001223B974312DF58274003CF583E09000A2
:10632C0002F0AE02AF037C007D0A1223B974312D4A
:0F633C00F58274003CF583E0900001F0025C7B79
:0663A7007B017A05792755
:1063AD00126BCE12232D2431F582E43400F583E0F7
:1063BD00900004F09000011223462431F582E4345C
:1063CD0000F583E0900003F0900002122346243183
:1063DD00F582E43400F583E0900002F090000312A2
:1063ED0023462431F582E43400F583E0900001F07A
:0363FD00025C7BC4
:10442E00126BCE9000AEE060179005097401F0A3F8
:10443E007400F0A374AEF07B017A0079301236BFAF
:10444E009000A6E060179005097401F0A37400F0C7
:10445E00A374A6F07B017A00792C1236BF90009ED1
:10446E00E060179005097401F0A37400F0A3749E28
:10447E00F07B017A0079281236BF900096E0601723
:10448E009005097401F0A37400F0A37496F07B01FB
:10449E007A0079241236BF90008EE06017900509DD
:1044AE007401F0A37400F0A3748EF07B017A00798E
:1044BE00201236BF900086E060179005097401F057
:1044CE00A37400F0A37486F07B017A00791C123677
:1044DE00BF90007EE060179005097401F0A3740090
:1044EE00F0A3747EF07B017A0079181236BF90002B
:1044FE0076E060179005097401F0A37400F0A374C0
:10450E0076F07B017A0079141236BF90006EE0606F
:10451E00179005097401F0A37400F0A3746EF07B7C
:10452E00017A0079101236BF900066E06017900590
:10453E00097401F0A37400F0A37466F07B017A0095
:10454E00790C1236BF90005EE06017900509740179
:10455E00F0A37400F0A3745EF07B017A0079081268
:10456E0036BF900056E060179005097401F0A374F1
:10457E0000F0A37456F07B017A0079041236BF2244
:1036BF00900506EBF0A3EAF0A3E9F0A3E0FBA3E08B
:1036CF00FAA3E0F99000011223462431F582E43485
:1036DF0000F583E0FF900506E0FBA3E0FAA3E0F915
:1036EF00EF122373900509E0FBA3E0FAA3E0F99032
:1036FF0000021223462431F582E43400F583E0FF03
:10370F00900506E0FBA3E0FAA3E0F990FFFFEF12AC
:10371F002385900509E0FBA3E0FAA3E0F9900003ED
:10372F001223462431F582E43400F583E0FF90053F
:10373F0006E0FBA3E0FAA3E0F990FFFEEF1223856A
:10374F00900509E0FBA3E0FAA3E0F990000412232F
:10375F00462431F582E43400F583E0FF900506E05E
:10376F00FBA3E0FAA3E0F990FFFDEF12238590058C
:10377F0009E0FBA3E0FAA3E0F990000512234654F9
:10378F000F24FD603614700302382224FD700302EB
:10379F00386714700302387A240660030238939056
:1037AF000506E0FBA3E0FAA3E024FDF9EA34FFFAF3
:1037BF0012232D4480122373023867900506E0FB15
:1037CF00A3E0FAA3E024FDF9EA34FFFA12232D4413
:1037DF0080122373900506E0FBA3E0FAA3E024FE1A
:1037EF00F9EA34FFFA12232D448012237390050651
:1037FF00E0FBA3E0FAA3E024FFF9EA34FFFA122377
:10380F002D4480122373900506E0FBA3E0FAA3E09A
:10381F00F98069900506E0FBA3E0FAA3E024FDF927
:10382F00EA34FFFA12232D4480122373900506E029
:10383F00FBA3E0FAA3E024FEF9EA34FFFA12232DEA
:10384F004480122373900506E0FBA3E0FAA3E02463
:10385F00FFF9EA34FFFA8024900506E0FBA3E0FAB3
:10386F00A3E024FEF9EA34FFFA8011900506E0FB8D
:10387F00A3E0FAA3E024FDF9EA34FFFA12232D4462
:05388F008012237322EA
:10560C009004F8EBF0A3EAF0A3E9F0A3E0FBA3E02D
:10561C00FAA3E0F912232DFF9004F8E0FBA3E0FAC3
:10562C00A3E0F9EF1223739004FBE0FBA3E0FAA3D1
:10563C00E0F9900001122346FF9004F8E0FBA3E090
:10564C00FAA3E0F9900001EF1223859004FBE0FB34
:10565C00A3E0FAA3E0F9900002122346FF9004F8AD
:10566C00E0FBA3E0FAA3E0F9900002EF122385908F
:10567C0004FBE0FBA3E0FAA3E0F99000031223463D
:10568C00FF9004F8E0FBA3E0FAA3E0F9900003EF2D
:10569C001223859004FBE0FBA3E0FAA3E0F9900051
:1056AC0004122346FF9004F8E0FBA3E0FAA3E0F910
:1056BC00900004EF1223859004FBE0FBA3E0FAA317
:1056CC00E0F9900007122346FF9004F8E0FBA3E0FA
:0B56DC00FAA3E0F9900005EF0223851F
:0965A0002456F974003EFA7B0157
:1065A90012232D9000081223859000011223469092
:1065B900000912238590000212234690000A122333
:1065C9008590000312234690000B12238590000446
:1065D90012234690000C1223859000051223469041
:0565E900000D022385F6
:0965EE002456F974003EFA7B0109
:1065F7009000081223461223739000091223469035
:10660700000112238590000A1223469000021223EC
:106617008590000B12234690000312238590000CEF
:1066270012234690000412238590000D12234690F2
:056637000005022385AF
:1041420078FC7C047D017BFF7A71799A7E007F087E
:10415200122307E4900504F0A3F01276C790050439
:10416200EFF01276BB900505EFF01276B59004FAE7
:10417200EFF01276AF9004FBEFF01277459004FB5C
:10418200E0FE9004FAE0FDC39E500AEF9D4006EE69
:104192006003E0701B9004FBE060030242BD9004E8
:1041A200FAE0FE70030242BDEFD39E50030242BD0D
:1041B200E49004F8F09004F8E0FFC3940A5022EF70
:1041C20075F008A42456F582740035F0F583E0708A
:1041D200089004F8E0A3F080089004F8E004F0806E
:1041E200D4E49004F8F09004F9E024FFFFE434FFF3
:1041F200FEEF7803C333CE33CED8F9FF9004F8E054
:10420200FD7A002FFFEA3EFE74562FF58274003EBF
:10421200F583E0FF74FC2DF582E43404F583EFF0BE
:104222009004F8E004F0E0B406BC9004F9E09004D5
:10423200F8F09004F8E0FFD39401401DEF24FEFF54
:10424200E434FFFEEF7803C333CE33CED8F91265E0
:10425200A09004F8E014F080D9E49004F8F09004FF
:10426200F8E0FF24FCF582E43404F583E0FE7456A2
:104272002FF582E43400F583EEF09004F8E004F0C8
:10428200E0B406DA12442E125C7BE4FF12774B9004
:104292000504E0B401257B017A007956900056E0CE
:1042A200FD90050AE4F0A3EDF090005BE0540F905E
:0B42B200050CF0900505E0FF123894A9
:0142BD0022DE
:103DE800E49004FFF0A3F01276B59004FAEFF01215
:103DF80076AF9004FBEFF01277459004FCEFF012D9
:103E080076A99004FDEFF01276A39004FEEFF0126D
:103E180076C1900500EFF09004FAE0FFA3E0FEC33E
:103E28009F500EA3E09E4009EF60069004FBE070EF
:103E38001A9004FAE06003023F98A3E0FF700302BF
:103E48003F98A3E0D39F5003023F98E49004F8F012
:103E5800A3F09004FDE024FFFFE434FFFE9004F893
:103E6800E0FCA3E0FDC39FEC9E501FEDAE04780379
:103E7800C333CE33CED8F91265EE9004F9E004F0DE
:103E880070D09004F8E004F080C89004FDE024FFAE
:103E9800FFE434FFFEEF7803C333CE33CED8F9FF07
:103EA8009004F8EEF0A3EFF09004FDE075F008A49C
:103EB800FF9004F8E0FCA3E0FDC39FEC95F0501CD4
:103EC80074562DF58274003CF583E4F09004F9E013
:103ED80004F070D49004F8E004F080CC12442E1260
:103EE8005C7BE4FF12774B900056E07004FF02768B
:103EF8009D9004FEE064026003023F98900500E094
:103F0800FFD3940140659005B0EFF0900056E0FFB4
:103F18009005BAE4F0A3EFF090005BE0540F900531
:103F2800BCF09004FFE09005B1F0E49004F8F0A331
:103F3800F09004F8E0FEA3E0FF2456F58274003EFA
:103F4800F583E0FD74B22FF582E43405F583EDF0D6
:103F58009004F9E004F070069004F8E004F090048E
:103F6800F8E07004A3E0640870C7227B017A007946
:103F780056900056E0FD90050AE4F0A3EDF090009D
:103F88005BE0540F90050CF09004FFE0FF123894AA
:013F98002206
:1060AC00E49004D0F01276A99004D0EFF0E4FDFC5B
:1060BC009004D0E024FFFFE434FFFEC3ED9FEC9E80
:1060CC005016EDAE047803C333CE33CED8F9126537
:1060DC00EE0DBD00010C80D89004D0E024FFFFE44D
:1060EC0034FFFEEF7803C333CE33CED8F9FDAC06C4
:1060FC009004D0E075F008A4FFC3ED9FEC95F05030
:10610C001374562DF58274003CF583E4F00DBD003C
:10611C00010C80DC9005BDE014F012442E125C7B67
:0A612C00900056E07004FF12769D0B
:016136002246
:105A2C0078D17C047D017BFF7A7179A27E007F06A0
:105A3C001223071276A99004D0EFF01276A9AD07C5
:105A4C00E4FCECC39D501CEC75F008A42456F582C4
:105A5C00740035F0F583E070079004D0ECF080030F
:105A6C000C80DFE4FC74562CF582E43400F583E002
:105A7C00FF74D12CF582E43404F583EFF00CECB414
:105A8C0006E3E4FC9004D0E0FFECC39F5015EC75EA
:105A9C00F008A42456F9740035F0FA7B011265F76E
:105AAC000C80E1E4FC74D12CF582E43404F583E041
:105ABC00FD9004D0E024FFFFE434FFFEEF7803C335
:105ACC0033CE33CED8F9FFEC7A002FFFEA3EFE74CA
:105ADC00562FF58274003EF583EDF00CECB406C540
:065AEC0012442E025C7B57
:1055130078D27C047D017BFF7A7179A87E007F06B7
:105523001223071276A99004D1EFF01276A9AD07E2
:10553300E49004D0F09004D0E0FFC39D5022EF75B7
:10554300F008A42456F582740035F0F583E0700862
:105553009004D0E0A3F080089004D0E004F080D55C
:10556300E49004D0F09004D1E024FFFFE434FFFE84
:10557300EF7803C333CE33CED8F9FF9004D0E0FDE8
:105583007A002FFFEA3EFE74562FF58274003EF533
:1055930083E0FF74D22DF582E43404F583EFF090B9
:1055A30004D0E004F0E0B406BC9004D1E09004D051
:1055B300F09004D0E0FFD39401401DEF24FEFFE4FC
:1055C30034FFFEEF7803C333CE33CED8F91265A090
:1055D3009004D0E014F080D9E49004D0F09004D08B
:1055E300E0FF24D2F582E43404F583E0FE74562F01
:1055F300F582E43400F583EEF09004D0E004F0E0AB
:09560300B406DA12442E025C7BAD
:0B3491009004F8EBF0A3EAF0A3E9F0D0
:10349C0078047C057D017BFF7A7179AE7E007F0616
:1034AC001223071276A9900500E4F0A3EFF0127630
:1034BC00A9900502E4F0A3EFF0E49004FEF0A3F071
:1034CC00900502E0FEA3E0FF9004FEE0FCA3E0FD0B
:1034DC00C39FEC9E40030235D7EDAE047803C33393
:1034EC00CE33CED8F9FF9004FBE0FBA3E0FAA3E0C7
:1034FC002FF9EA3EFA900001122346FD9004F8E001
:10350C00FBA3E0FAA3E0F99000011223466D6003DF
:10351C000235C39004FBE0FBA3E0FAA3E02FF9EA29
:10352C003EFA900002122346FF9004F8E0FBA3E061
:10353C00FAA3E0F99000021223466F707A9004FE11
:10354C00E0FEA3E07803C333CE33CED8F9FF90046A
:10355C00FBE0FBA3E0FAA3E02FF9EA3EFA900003AC
:10356C00122346FD9004F8E0FBA3E0FAA3E0F990E7
:10357C000003122346B5053F9004FBE0FBA3E0FAE1
:10358C00A3E02FF9EA3EFA900004122346FF9004C0
:10359C00F8E0FBA3E0FAA3E0F9900004122346B58F
:1035AC0007159005BDE014F09004FEE0FFA3E0A326
:1035BC00CFF0A3EFF080149004FFE004F06003025E
:1035CC0034CC9004FEE004F00234CC900500E070A2
:1035DC0002A3E0700812744FE49005B0F09005005F
:1035EC00E0FFA3E09004FECFF0A3EFF0900502E023
:1035FC00FEA3E0FF9004FEE0FCA3E0FDC39FEC9E65
:10360C00502FEDAE047803C333CE33CED8F9FF90F0
:10361C0004FBE0FBA3E0FAA3E02FF9EA3EFA126503
:10362C00F79004FFE004F070C39004FEE004F08017
:10363C00BB900502E0FEA3E0FF900500E06E700376
:10364C00A3E06F6059E49004FEF0A3F09004FEE058
:10365C00FCA3E0FDC39406EC94005042900503E0FB
:10366C0024FFFF900502E034FFFEEF7803C333CE56
:10367C0033CED8F9FF9004FBE0FBA3E0FAA3E02FD4
:10368C00F9EA3EFAE92DF9EA3CFAE41223739004C4
:10369C00FFE004F070B69004FEE004F080AE9004FD
:1036AC00FBE0FBA3E0FAA3E0F912232D7004FF1258
:0236BC00769DF9
:0136BE0022E9
:0B42BE009004F8EBF0A3EAF0A3E9F095
:1042C90078FF7C047D017BFF7A7179B47E007F06DB
:1042D9001223071276A99004FEEFF01276A9AD0712
:1042E900E4FCECC39D40030243CBEC75F008A4FF4A
:1042F9009004FBE0FBA3E0FAA3E02FF9EA35F0FA1A
:10430900900001122346FF9004F8E0FBA3E0FAA312
:10431900E0F99000011223466F60030243C7EC7570
:10432900F008A4FF9004FBE0FBA3E0FAA3E02FF957
:10433900EA35F0FA900002122346FF9004F8E0FBF8
:10434900A3E0FAA3E0F99000021223466F706FEC24
:1043590075F008A4FF9004FBE0FBA3E0FAA3E02FAB
:10436900F9EA35F0FA900003122346FF9004F8E0C9
:10437900FBA3E0FAA3E0F99000031223466F703E15
:10438900EC75F008A4FF9004FBE0FBA3E0FAA3E0BE
:104399002FF9EA35F0FA900004122346FF9004F849
:1043A900E0FBA3E0FAA3E0F9900004122346B50765
:1043B9000D9005BDE014F09004FEECF080040C02B1
:1043C90042EB9004FEE0FCECC39D501CEC75F00838
:1043D900A4FF9004FBE0FBA3E0FAA3E02FF9EA3580
:1043E900F0FA1265F70C80DF9004FEE06D6035E4A9
:1043F900FCED24FFFFE434FFFEEF7803C333CE3333
:10440900CED8F9FF9004FBE0FBA3E0FAA3E02FF973
:10441900EA3EFAEC7E0029F9EE3AFAE41223730C2B
:04442900ECB406CD1C
:01442D00226C
:106FB300E4FF12771BE49005BDF0EFB40107D2CDD7
:106FC3001269BF8003123F99127721BF0103127523
:036FD300B8C297AA
:016FD6002298
:05000600E4FF0271BAE5
:1071F8007F011271BA12770FBF01121276D9BF013F
:0E7208000C7F6F7E00126A93E4FF127715224E
:107216007F021271BA12770FBF01121276D9BF011F
:0E7226000C7F707E001268DFE4FF12771522E5
:107234007F031271BA12770FBF01121276D9BF0100
:0E7244000C7F717E001268DFE4FF12771522C6
:107252007F041271BA12770FBF01121276D9BF01E1
:0E7262000C7F727E001268DFE4FF12771522A7
:107270007F051271BA12770FBF01121276D9BF01C2
:0E7280000C7F737E001268DFE4FF1277152288
:10728E007F061271BA12770FBF01121276D9BF01A3
:0E729E000C7F747E001268DFE4FF1277152269
:1072AC007F071271BA12770FBF01121276D9BF0184
:0E72BC000C7F757E001268DFE4FF127715224A
:1072CA007F081271BA12770FBF01121276D9BF0165
:0E72DA000C7F767E001268DFE4FF127715222B
:1072E8007F091271BA12770FBF01121276D9BF0146
:0E72F8000C7F777E001268DFE4FF127715220C
:05001E007F0A0271BA27
:0577BD007F0B0271BA10
:0577C2007F0C0271BA0A
:0D000E007F0D1271BAE4FF1275C3D2CD222E
:10668A00127727BF0108123F997F0212772D1277DE
:10669A0027EF640370311276DFEF7012900008F072
:1066AA00900007F0900006F0900005F08011E49049
:1066BA00000CF090000BF090000AF0900009F01224
:0A66CA005C7BE4FF12772D025F9164
:10691900127727BF0108123F997F0212772D12774C
:1069290027BF03211276DFEF700A90000AF090006A
:1069390009F08009E4900008F0900007F0125C7BF0
:08694900E4FF12772D025F91BB
:10695100127727BF0108123F997F0212772D127714
:1069610027BF03211276DFEF700A90000CF0900030
:106971000BF08009E4900006F0900005F0125C7BBA
:08698100E4FF12772D025F9183
:106FD700127727BF0108123F997F0212772D127788
:106FE70027BF030DE490000DF0125C7BE4FF1277DE
:046FF7002D025F9177
:106BF700127727BF0108123F997F0212772D12776C
:106C070027BF0311E4900004F0900003F0125C7BAF
:086C1700E4FF12772D025F91EA
:106AC00012771BEFB401057F0102769D127727BF75
:106AD0000108123F997F0212772D127727BF030D0D
:106AE000E4900002F0125C77E4FF12772D125F91C0
:016AF0002283
:107489007F011271D9E4900527F0A3F0A3F0A304BA
:02749900F022DF
:10749B007F021271D9E4900531F0A3F0A3F0A3049D
:0274AB00F022CD
:1074AD007F031271D9E490053CF0A3F0A3F0A3047F
:0274BD00F022BB
:1074BF007F041271D9E4900548F0A3F0A3F0A30460
:0274CF00F022A9
:1074D1007F011271D9E490052CF0A3F0A3F0A3046D
:0274E100F02297
:1074E3007F021271D9E4900537F0A3F0A3F0A3044F
:0274F300F02285
:1074F5007F031271D9E4900543F0A3F0A3F0A30430
:02750500F02272
:107507007F041271D9E490054EF0A3F0A3F0A30411
:02751700F02260
:0577C7007F010271D9F1
:0577CC007F020271D9EB
:08760800E4FF1276AF026AF103
:08761000E4FF1276B5026AF1F5
:0577D1007F010271D9E7
:0577D6007F020271D9E1
:0577DB007F030271D9DB
:0577E0007F040271D9D5
:0577E5007F050271D9CF
:0577EA007F010271D9CE
:0577EF007F020271D9C8
:0577F4007F030271D9C2
:0577F9007F040271D9BC
:0E759C007F011271D91277039003A0EFF02245
:0577FE007F020271D9B9
:057803007F010271D9B4
:057808007F020271D9AE
:10733F00E4FFFEFDFC1275FFAC06AD077E277F1044
:0A734F001223B9AC06AD070262EC90
:08761800E4FF1277210273A4C4
:08762000E4FF12771B0273A4C2
:1065500012775D9004D0EFF0D394145031E0FAC379
:10656000940450028019EAD3941250139004D0E09E
:10657000C3132485F582E43403F583E0FF80027FB2
:10658000FF12671E30A4077F3C7E00126A939004BE
:0F659000D0E0D394144006126BCE125C7BC2CDC8
:01659F0022D9
:10711300127727BF01081263A77F0212772D127718
:1071230027BF030DE4900004F0125C7BE4FF1277A9
:027133002D220B
:10713500127727BF01081263A77F0212772D1277F6
:1071450027BF030DE4900003F0125C7BE4FF127788
:027155002D22E9
:10715700127727BF01081263A77F0212772D1277D4
:1071670027BF030DE4900002F0125C7BE4FF127767
:027177002D22C7
:10002600127727BF01081263A77F0212772D127776
:0D00360027BF0308125C76E4FF12772D222D
:106C1F00127727BF010E7B017A0579311263AD7FA1
:106C2F000212772D127727BF030DE4900004F012A4
:086C3F005C7BE4FF12772D22BB
:106C4700127727BF010E7B017A0579311263AD7F79
:106C57000212772D127727BF030DE4900003F0127D
:086C67005C7BE4FF12772D2293
:106C6F00127727BF010E7B017A0579311263AD7F51
:106C7F000212772D127727BF030DE4900002F01256
:086C8F005C7BE4FF12772D226B
:10701E00127727BF010E7B017A0579311263AD7F9E
:10702E000212772D127727BF0308125C76E4FF1247
:03703E00772D2289
:106C9700127727BF010E7B017A05793C1263AD7F1E
:106CA7000212772D127727BF030DE4900004F0122C
:086CB7005C7BE4FF12772D2243
:106CBF00127727BF010E7B017A05793C1263AD7FF6
:106CCF000212772D127727BF030DE4900003F01205
:086CDF005C7BE4FF12772D221B
:106CE700127727BF010E7B017A05793C1263AD7FCE
:106CF7000212772D127727BF030DE4900002F012DE
:086D07005C7BE4FF12772D22F2
:10704100127727BF010E7B017A05793C1263AD7F70
:107051000212772D127727BF0308125C76E4FF1224
:03706100772D2266
:106D0F00127727BF010E7B017A0579481263AD7F99
:106D1F000212772D127727BF030DE4900004F012B3
:086D2F005C7BE4FF12772D22CA
:106D3700127727BF010E7B017A0579481263AD7F71
:106D47000212772D127727BF030DE4900003F0128C
:086D57005C7BE4FF12772D22A2
:106D5F00127727BF010E7B017A0579481263AD7F49
:106D6F000212772D127727BF030DE4900002F01265
:086D7F005C7BE4FF12772D227A
:10706400127727BF010E7B017A0579481263AD7F41
:107074000212772D127727BF0308125C76E4FF1201
:03708400772D2243
:106D8700127727BF010E7B017A05792C1263AD7F3D
:106D97000212772D127727BF030DE4900004F0123B
:086DA7005C7BE4FF12772D2252
:106DAF00127727BF010E7B017A05792C1263AD7F15
:106DBF000212772D127727BF030DE4900003F01214
:086DCF005C7BE4FF12772D222A
:106DD700127727BF010E7B017A05792C1263AD7FED
:106DE7000212772D127727BF030DE4900002F012ED
:086DF7005C7BE4FF12772D2202
:10708700127727BF010E7B017A05792C1263AD7F3A
:107097000212772D127727BF0308125C76E4FF12DE
:0370A700772D2220
:106DFF00127727BF010E7B017A0579371263AD7FBA
:106E0F000212772D127727BF030DE4900004F012C2
:086E1F005C7BE4FF12772D22D9
:106E2700127727BF010E7B017A0579371263AD7F91
:106E37000212772D127727BF030DE4900003F0129B
:086E47005C7BE4FF12772D22B1
:106E4F00127727BF010E7B017A0579371263AD7F69
:106E5F000212772D127727BF030DE4900002F01274
:086E6F005C7BE4FF12772D2289
:1070AA00127727BF010E7B017A0579371263AD7F0C
:1070BA000212772D127727BF0308125C76E4FF12BB
:0370CA00772D22FD
:106E7700127727BF010E7B017A0579431263AD7F35
:106E87000212772D127727BF030DE4900004F0124A
:086E97005C7BE4FF12772D2261
:106E9F00127727BF010E7B017A0579431263AD7F0D
:106EAF000212772D127727BF030DE4900003F01223
:086EBF005C7BE4FF12772D2239
:106EC700127727BF010E7B017A0579431263AD7FE5
:106ED7000212772D127727BF030DE4900002F012FC
:086EE7005C7BE4FF12772D2211
:1070CD00127727BF010E7B017A0579431263AD7FDD
:1070DD000212772D127727BF0308125C76E4FF1298
:0370ED00772D22DA
:106EEF00127727BF010E7B017A05794E1263AD7FB2
:106EFF000212772D127727BF030DE4900004F012D2
:086F0F005C7BE4FF12772D22E8
:106F1700127727BF010E7B017A05794E1263AD7F89
:106F27000212772D127727BF030DE4900003F012AA
:086F37005C7BE4FF12772D22C0
:106F3F00127727BF010E7B017A05794E1263AD7F61
:106F4F000212772D127727BF030DE4900002F01283
:086F5F005C7BE4FF12772D2298
:1070F000127727BF010E7B017A05794E1263AD7FAF
:107100000212772D127727BF0308125C76E4FF1274
:03711000772D22B6
:08762800E4FF1276A30273A433
:08763000E4FF1276A9026AF1E1
:08763800E4FF1276BB0273A40B
:08764000E4FF1276C10273A4FD
:08764800E4FF1276C70273A4EF
:10730600E49004D0F01276CD9004D0EFF075F0033F
:0D731600A4FF1271799004D0E0FF0273A46F
:08765000E4FF1276D30273A4DB
:10751900E4FF1276EBEFC3940A50030273A41273CB
:01752900D190
:01752A00223E
:08765800E4FF1276F10273A4B5
:08766000E4FF1276F70273A4A7
:08766800E4FF1276FD0273A499
:1068A500E49004D0F01277039004D0EFF01273A4B3
:1068B5009003A0E0FF9004D0E06F601D12634B9041
:1068C50004D0E09003A0F012770FBF010C7F797E12
:0968D50000126A93E4FF1277152A
:0168DE002297
:10698900E49004D0F01277099004D0EFF0126AF184
:1069990012770FBF010D9004D0E02442FFE433FECB
:1069A9001268DF1277B1BF010C7F797E001268DFB0
:0569B900E4FF1277B7B6
:0169BE0022B6
:10663C00E49004D0F0A3F01276BB9004D0EFF012EB
:10664C0076E59004D1EFF0900056E0B4340A30A413
:10665C00077F687E00126A93D2CD9004D1E070035C
:10666C00D29722127727BF0107D2977F0212772D7C
:0D667C00127727BF0307C297E4FF12772DA6
:0166890022EE
:05780D007F060271D9A5
:08767000E4FF1276D90273A4B5
:057812007F070271D99F
:08767800E4FF1276DF0273A4A7
:057817007F080271D999
:08768000E4FF1276E50273A499
:05781C007F0E0271BAAD
:1073FD007F011271D9E4900392F0A3F0900376F01F
:05740D009005D8F022FB
:10752B007F021271D9E490039EF0A3F0900391F0C7
:01753B00222D
:105AF200900376E0707A127727BF0113126BCE9073
:105B020000027480F0A3F0125C7B7F0212772D12E8
:105B12007727BF030B126BCE125C7BE4FF12772D4B
:105B2200900392E0FCA3E0FD7B017A0479D090051A
:105B32001A7408F07FA01261BD7FAA1275E4E49086
:105B420004D8F09004D8E0FFC39408501774D02F03
:105B5200F582E43404F583E0FF1275E49004D8E0A2
:105B620004F080DF7F551275E49003767401F02211
:105B7200900376E0FFB40224900393E02408F090AF
:105B82000392E03400F0E0B4150CA3E0B460079097
:105B920003767403F022E4900376F022EFB403124A
:105BA200126BCE9000017480F0A3F0A3F0A3F01268
:025BB2005C7B1A
:015BB40022CE
:105E6A00900391E0B4013190039EE0FCA3E0FD7B36
:105E7A00017A03799590050F7408F07FA01264B92E
:105E8A0090039FE02408F090039EE03400F0E49031
:105E9A000391F07FAA1275E490039EE07002A3E0DA
:105EAA00700A126BCE9000017480801A90039EE0F3
:105EBA00B41517A3E0B46012126BCE90000174807F
:105ECA00F0A3F0A3F0A3F0025C7B127727BF0113C3
:105EDA00126BCE9000027480F0A3F0125C7B7F02FA
:105EEA0012772D127727BF030B126BCE125C7BE45D
:055EFA00FF12772D22CC
:102167004106010041060A00410607004106080032
:10217700410602004105FF0041060C00410604002C
:10218700410600004106060041060500410603001E
:0821970041060B00410609009E
:10756F00438901758C3C758AB0D2AFD2A9D28C22D7
:0E75AA00438910758DFF758B9CD2AFD2AB223A
:03000B0002482088
:10482000C0E0C0F0C083C082C0D075D000C000C05E
:0D48300001C002C003C004C005C006C007DF
:10483D0090051EE4F0A3F0C28D758C3C758AB01204
:10484D00769790051EEFF012771B90051FEFF090F5
:10485D000601E004F0E0B40A1990060AE004F090B5
:10486D000606E004F0900601E4F0900605E0600213
:10487D0014F090060AE0C394044002E4F09006069A
:10488D00E0C394184002E4F0900603E0600214F0D7
:10489D00900607E0B40104A3E004F0127799BF017C
:1048AD0014900602E004F0E0D39478400812779F4C
:1048BD00900602E4F0900609E0B4011590060BE0B5
:1048CD0004F0E0D394784009900609E4F090060BCB
:1048DD00F090051EE0FFB45F159005FFE004F0E0D9
:1048ED00B4140B90060CE004F09005FFE4F0EF64B7
:1048FD005F602590051EE0FF6431601CEF64696008
:10490D0017EF646A6012900604E004F0E0D394C8D7
:10491D004006E4F0FF12769D90051EE07015A3E0B1
:10492D00B40210900600E004F0E0C3940A4004B213
:03493D00CDE4F0D6
:10494000D007D006D005D004D003D002D001D000CB
:0B495000D0D0D082D083D0F0D0E03275
:03001B000264FF7D
:1064FF00C0E0C0F0C083C082C0D075D000C000C063
:0D650F0001C002C003C004C005C006C007E3
:10651C00E4FF127697C28F758DFF758B9CEFB42EAE
:09652C00051231E38003124BCB90
:10653500D007D006D005D004D003D002D001D000BA
:0B654500D0D0D082D083D0F0D0E03264
:0577270090060AE0FFDE
:01772C00223A
:06772D0090060AEFF022B5
:06773300900607EFF022B2
:05773900900608E0FFCE
:01773E002228
:06773F00E4900608F022B0
:0577450090060CE0FFBE
:01774A00221C
:06774B0090060CEFF02295
:06775100E4900604F022A2
:06775700900608EFF0228D
:05775D00900606E0FFAC
:017762002204
:0B75C300900606EFF0E4900601F022B5
:05776300900605E0FFA7
:0177680022FE
:0B75CE00900605EFF0E4900601F022AB
:05776900900603E0FFA3
:01776E0022F8
:06776F00900603EFF0227A
:06777500E4900602F02280
:06777B00E490060BF02271
:06778100900609EFF02262
:05778700900609E0FF7F
:01778C0022DA
:0B219F004805DF140F09040C220006A5
:0467AE00E0FD7F8A01
:1067B200D2A0EF54FEFFE4FEEF30E004D2A180024B
:1067C200C2A1D2A2C2A2EFC313FF0EEEB408E9E443
:1067D200FEED30E004D2A18002C2A1D2A2C2A2ED9B
:0A67E200C313FD0EEEB408E9C2A0D7
:0167EC00228A
:1067ED00D2A0EF4401FFE4FDEF30E004D2A180021E
:1067FD00C2A1D2A2C2A2EFC313FF0DEDB408E9E40A
:10680D00FDEEC313FE30A1054480FE8004EE547FDF
:0E681D00FED2A2C2A20DEDB408E7C2A0AF06E3
:01682B00224A
:105F9100E4FF74DF2FF582E43405F583E0FE75F04C
:105FA1000A84FDEE75F00A8474E72FF582E4340566
:105FB100F583E5F0F0EDC454F0FE74E72FF582E4CB
:105FC1003405F583E02EF00FEFB408C6E4FD7F8EB3
:105FD1001267B27D807F801267B29005E8E0FD7F95
:105FE1008C1267B2A3E0FD7F881267B2A3E0FD7F48
:105FF100861267B29005EE1267AE9005EBE0FD7F69
:10600100841267B2A3E0FD7F821267B2A3E0FD7F35
:0F601100801267B2A31267AE7D807F8E0267B2E6
:106137007F8C1267ED9005E8EFF07F881267EDA37B
:10614700EFF07F861267EDA3EFF07F841267EDA370
:10615700EFF07F821267EDA3EFF07F801267EDEF1C
:10616700547FA3F07F8A1267EDA3EFF0E4FF74E793
:106177002FF582E43405F583E0FEC4540FFDEE5499
:106187000FFE74DF2FF582E43405F583EEF0ED752D
:10619700F00AA4FE74DF2FF582E43405F583E02EC0
:0661A700F00FEFB408C880
:0161AD0022CF
:0B75D900C2A0C2A2E4FD7F800267B2E6
:1021AA0041059D0041059C004105A2004105A5008D
:1021BA004105AC0041059100410590004305A90085
:1021CA0000004205A300464205A7007842058D009B
:1021DA000042058B000042059A000042059E004617
:1021EA004205A000784205AE000041058F00410576
:1021FA00AD004105A6004105920041059600430540
:0A220A009300000043059700000058
:07769000D2AFD2A8D288227C
:03000300027688FA
:08768800C2A8208E02D28E324E
:10732300E490059DF090059CF09005A5F09005A2D2
:0C733300F09005ACF0900590F0A3F02263
:104BCB0030B2059005A580039005A2E004F0900596
:104BDB0091E004F0E0D394A07480948F4007C28ED0
:104BEB00D2A8027323900590E01460351460691409
:104BFB007003024C8A24036003024CFA9005A5E073
:104C0B00D394004003024CFA9005A2E0D394465093
:104C1B0003024D01900590E004F0E49005A5F080AF
:104C2B00329005A5E0FFFD9005A2E02DFDE433FCDD
:104C3B00D3ED948CEC648094804003024CFAEFD358
:104C4B0094015003024D0130A802C2A8900590E0D8
:104C5B0004F0E49005A2F0229005A2E0D394014069
:104C6B00139005A5E090059DF0E49005A5F0900547
:104C7B0090E004F09005A5E0D394194079807090F2
:104C8B0005A5E0D39401405C9005A2E0FF90059C44
:104C9B00F0E49005A2F09005907402F09005ACE062
:104CAB00131313541FFE24A9F582E43405F583E096
:104CBB00FD25E0F090059DE0D39F400E74A92EF5E5
:104CCB0082E43405F583E04401F09005ACE004F098
:104CDB00E0D39417400EC28E12732390058F74018C
:104CEB00F0D2A8229005A2E0D394194009800012BB
:074CFB007323D2A8C28E2230
:10458E00E49004F8F01276979004F8EFF090058F0F
:10459E00E0640160030246D8F0C2A89005A6E014BC
:1045AE0060270460030246D69005A9E0900593F0BB
:1045BE009005AAE0900594F09005ABE0900595F07B
:1045CE009005A67401F00246D69005A9E0FF90056D
:1045DE0093E06F60030246BE9005AAE0FE9005943C
:1045EE00E06E60030246BE9005ABE0FD900595E0DF
:1045FE006D60030246BE900597E06F7012A3E06EE9
:10460E00700DA3E0B50508900592E0702380009030
:10461E0005A9E0900597F09005AAE0900598F09016
:10462E0005ABE0900599F09005AD7401F012777529
:10463E009005927401F0127751900598E0FFE4FC1A
:10464E00FDFE7808122435C004C005C006C00790D0
:10465E000597E0FFE4FCFDFE7810122435D003D060
:10466E0002D001D000EF4BFBEE4AFAED49F9EC48CF
:10467E00F8900599E0FFEB4FFFEAFEE9FDE8FC7BC1
:10468E00017A0479F91256E7EF600D9005967401E0
:10469E00F0FF127715127751E49005A9F0A3F0A35D
:1046AE00F0900593F0A3F0A3F0E49005A6F0801827
:1046BE009005A9E0900593F09005AAE0900594F07E
:0A46CE009005ABE0900595F0D2A82E
:0146D80022BF
:1031E30030B2059005A580039005A2E004F0900598
:1031F30091E004F0E0D394A07480948F4006C28ED3
:10320300D2A88027900590E014605A14700302320C
:10321300F7147003023342240360030234899005D8
:10322300A5E0D394004007D2A8C28E027323900571
:103233008DE0FEA3E0FF7C007D0F1223A7EF243C6B
:10324300FFE43EFE9005A2E0D39FEC9E50030234C0
:1032530090900590E004F09005A3EEF0A3EFF0E466
:10326300A3F00232F290058BE0FEA3E0FF7C007D29
:103273000F1223A7EF2478FFE43EFE9005A5E0F9A3
:10328300FD9005A2E02DFDE433FCD3ED9FEC9E40C1
:1032930022E9701C90058CE004F0700690058BE029
:1032A30004F090058EE004F0700690058DE004F0C4
:1032B300023489E9D39401500302349090058BE0E2
:1032C300FEA3E0FF7C007D0F1223A7EF2478FFE429
:1032D3003E9005A7F0A3EFF0E490058BF0A3F0A3D5
:1032E300F0A3F030A802C2A8900590E004F0E490A7
:1032F30005A2F0229005A2E0D3940040139005A507
:10330300E090059DF0E49005A5F0900590E004F0B1
:103313009005A3E0FEA3E0FF9005A8E02FFF900532
:10332300A7E03EFEEF7803CEC313CE13D8F9FF9088
:1033330005A5E0D39FE49E500302349002348990A4
:1033430005A5E0D39400500302345E9005A2E0FF8C
:1033530090059CF0E49005A2F09005907402F09023
:1033630005ACE0131313541FFE24A9F582E43405BE
:10337300F583E025E0F090059DE0FDD39F400E74BA
:10338300A92EF582E43405F583E04401F09005AC01
:10339300E004F0E0D39417500302345EC28E90052C
:1033A3009CE02DFEE43390059AF0A3CEF012732334
:1033B3009005AFE004F070069005AEE004F09005D0
:1033C300A7E0FEA3E0FF9005A1E02FF09005A0E0A9
:1033D3003EF0E0C313FEA3E013FF9005A7EEF0A3B6
:1033E300EFF09005A0EEF0A3EFF0D39005AFE094DB
:1033F300019005AEE09400405F90059EE0FEA3E0DF
:10340300FF9005A3E0FCA3E0FD9FFFEC9EFED3EF3E
:10341300941EEE9400401590059FE09DFF90059E3D
:10342300E09CFED3EF941EEE9400502C9005A3E095
:10343300FEA3E0FF90059FE02FF090059EE03EF095
:10344300E0C313FEA3E013FF9005A3EEF0A3EFF098
:1034530090059EEEF0A3EFF0D2A8229005A3E0FE24
:10346300A3E0FF9005A8E02FFF9005A7E03EFEEF45
:103473007803CEC313CE13D8F9FF9005A2E0D39FF0
:0E348300E49E40098000127323D2A8C28E225C
:05778D009005ADE0FFD6
:0177920022D4
:06779300E49005ADF022B8
:05779900900592E0FFE5
:01779E0022C8
:06779F00E4900592F022C7
:0577A500900596E0FFD5
:0177AA0022BC
:0677AB00E4900596F022B7
:0875FF0090059AE0FEA3E0FFF5
:017607002260
:102214004805BE00000000000000004105CB00445A
:1022240005C7000000004105BD004105B00041059F
:02223400C600E2
:10004600E49004E3F0A3F09004E7F09004F0F0A34A
:10005600F0A3F0A3F0A3F0A3F0A3F0A3F012769719
:100066009004F0EFF01277039004F1EFF0127709A5
:100076009004F2EFF01276A39004F3EFF01276A953
:100086009004F4EFF01276A99004E7EFF01276EB05
:100096009004F5EFF01276BB9004F6EFF01276C1FD
:1000A6009004F7EFF012458E12778DEF640160032E
:1000B600020FBC900598E0FFE4FCFDFE78081224D0
:1000C60035C004C005C006C007900597E0FFE4FCF4
:1000D600FDFE7810122435D003D002D001D000EFF7
:1000E6004BFBEE4AFAED49F9EC48F8900599E0FF2A
:1000F600EB4FFFEAFEE9FDE8FC9004DF1224B29024
:1001060004F0E024CE24FC4003020C4724FC400308
:10011600020D0724FC4003020DC724FC4003020E17
:100126008724E47003020F581470030204CD245F81
:100136006003020FB9E4FF12774B900599E0FF5474
:10014600F060030202D4900597E0C4540FFE9004B9
:10015600F5E06E60030202D4EEC3940A4003020285
:10016600D49004F1E0B4010CEF540F2477F582E447
:100176003403800D900599E0540F2446F582E4344B
:1001860000F583E09004E8F0900597E0FFC4540F73
:100196009004E9F0EF540FA3F0900598E0FFC454E3
:1001A6000F9004EBF0EF540FA3F0900597E0900446
:1001B600EDF0900598E09004EEF0900599E0FF9040
:1001C60004EFF09004E8E0FE64337003020258EE98
:1001D60070030202589004F7E0FED39401404C905D
:1001E60005B0EEF09004E8E0FD9005BAE4F0A3ED6A
:1001F600F0EF540FA3F09004F6E09005B1F0E49010
:1002060004E5F09004E5E0FF24E8F582E43404F523
:1002160083E0FE74B22FF582E43405F583EEF090A8
:1002260004E5E004F0E0B408DA80567B017A04794C
:10023600E89004E8E0FD90050AE4F0A3EDF09005EF
:1002460099E0540F90050CF09004F6E0FF123894F4
:10025600802F9004FB7401F0A37400F0A37456F091
:100266007B017A0479E81234917B017A0479E8906B
:100276000599E0540F9004FCF07F92123A61020A4D
:10028600FE9004F4E0FF9005BDE0C39F5003E00438
:10029600F0126BCE7B017A0479E8900599E0540F51
:1002A6009004FCF07F91123A619004FB7401F0A374
:1002B6007404F0A374E8F07B017A00795612560CA8
:1002C60012442E125C7B7F5F12769D020FB97B0172
:1002D6007A0479D79004DFE0FCA3E0FDA3E0FEA357
:1002E600E0FF126224EF3395E0FE9004E3F0A3EF03
:1002F600F04E7003020FB99004DFE0FCA3E0FDA30B
:10030600E0FEA3E0FF9005C7E0F8A3E0F9A3E0FA5A
:10031600A3E0FBC31224247009127787EF601F0243
:100326000FB99004DFE0FCA3E0FDA3E0FEA3E0FF2D
:100336009005C71224B212777B7F01127781900451
:10034600E3E0FEA3E0FF64014E70089004E8743316
:10035600F08018EF64024E70089004E87434F08060
:100366000A900599E0540F9004E8F078E97C047D42
:10037600017B017A0479D77E007F0412230790055A
:1003860099E0FF9004EFF09004E8E0C39432502720
:100396009004F1E0B4010CEF540F2477F582E434B5
:1003A60003800D900599E0540F2446F582E434004D
:1003B600F583E09004E8F09004E8E0FF643370030E
:1003C600020451EF70030204519004F7E0FFD39446
:1003D6000140519005B0EFF09004E8E0FF9005BAB7
:1003E600E4F0A3EFF0900599E0540F9005BCF0906F
:1003F60004F6E09005B1F0E49004E5F09004E5E041
:10040600FF24E8F582E43404F583E0FE74B22FF5A8
:1004160082E43405F583EEF09004E5E004F0E0B400
:1004260008DA80667B017A0479E89004E8E0FD90BA
:10043600050AE4F0A3EDF0900599E0540F90050C41
:10044600F09004F6E0FF123894803F9004F4E0FF49
:100456009005BDE0C39F5003E004F07B017A047968
:10046600E8900599E0540F9004FCF07F92123A61EF
:100476009004FB7401F0A37400F0A37456F07B01A2
:100486007A0479E8123491020AFE126BCE7B017A65
:100496000479E8900599E0540F9004FCF07F9112DE
:1004A6003A619004FB7401F0A37404F0A374E8F0BD
:1004B6007B017A00795612560C12442E125C7B7F11
:1004C6005F12769D020C41E4FF12774B900599E08E
:1004D600FF54F06003020856900597E0C4540FFEDF
:1004E6009004F5E06E6003020856EEC3940A4003DA
:1004F6000208569004F1E0B4010CEF540F2477F58E
:1005060082E43403800D900599E0540F2446F58269
:10051600E43400F583E09004E8F0900597E0FFC42A
:10052600540F9004E9F0EF540FA3F0900598E0FF04
:10053600C4540F9004EBF0EF540FA3F0900597E02E
:100546009004EDF0900598E09004EEF0900599E0A7
:10055600FF9004EFF09004F3E0640160030206D517
:100566009004E8E0FE643370030205F5EE700302C2
:1005760005F59004F7E0FED39401404C9005B0EEEB
:10058600F09004E8E0FD9005BAE4F0A3EDF0EF5436
:100596000FA3F09004F6E09005B1F0E49004E5F0C6
:1005A6009004E5E0FF24E8F582E43404F583E0FEF8
:1005B60074B22FF582E43405F583EEF09004E5E09D
:1005C60004F0E0B408DA80567B017A0479E89004F6
:1005D600E8E0FD90050AE4F0A3EDF0900599E054FB
:1005E6000F90050CF09004F6E0FF123894802F7BF4
:1005F600017A0479E8900599E0540F9004FCF07FA5
:1006060092123A619004FB7401F0A37400F0A37493
:1006160056F07B017A0479E8123491020AFE9004BE
:10062600F4E0FF9005BDE0C39F5003E004F07B01BA
:100636007A0479E8900599E0540F9004FCF07F91D4
:10064600123A619004FB7401F0A37400F0A374568F
:10065600F07B017A0479E81242BE9004F4E090043B
:10066600E5F09004E5E0FFD394014026EF24FEFF79
:10067600E434FFFEEF7803C333CE33CED8F92456E5
:10068600F974003EFA7B011265A99004E5E014F0C6
:1006960080D0E49004E5F09004E5E0FFC3940650B2
:1006A6001474562FF582E43400F583E4F09004E5E3
:1006B600E004F080E29004FB7401F0A37404F0A35C
:1006C60074E8F07B017A00795612560C020AFE9005
:1006D60004F3E064026003020FB99004E8E0FF64EB
:1006E600336003EF702F7B017A0479E8900599E077
:1006F600540F9004FCF07F92123A619004FB74014F
:10070600F0A37400F0A37456F07B017A0479E81222
:100716003491020AFEE49004E6F09004F4E0FF90BF
:1007260004E6E0FEC39F40030207CFEE75F008A47F
:10073600FFAEF02457F58274003EF583E0FD900489
:10074600E9E0FCED6C707974582FF58274003EF583
:1007560083E0FF9004EAE0FEEF6E70649004E6E04A
:1007660075F008A4FFAEF02459F58274003EF583B7
:10077600E0FD9004EBE0FCED6C7045745A2FF582B9
:1007860074003EF583E0FF9004ECE0FEEFB5063022
:100796009004E6E0A3F075F008A42456F974003539
:1007A600F0FA7B01C0039004FBEBF0A37404F0A302
:1007B60074E8F0D00312560C12442E125C7B8009AA
:1007C6009004E6E004F00207209004F4E0FF9004B1
:1007D600E7E06F6003020FB99004E6F09004F4E0DE
:1007E600FD9004E6E0FFC39D4003020FB9EF75F0EC
:1007F60008A42456F582740035F0F583E07049901C
:1008060005BDE0C39D5003E004F07B017A0479E85E
:10081600900599E0540F9004FCF07F91123A619094
:1008260004E6E075F008A42456F9740035F0FA7B66
:1008360001C0039004FBEBF0A37404F0A374E8F08A
:10084600D00312560C020AFE9004E6E004F0808CF7
:100856007B017A0479D79004DFE0FCA3E0FDA3E0F6
:10086600FEA3E0FF126224EF3395E0FE9004E3F06E
:10087600A3EFF04E7003020FB99004DFE0FCA3E093
:10088600FDA3E0FEA3E0FF9005C7E0F8A3E0F9A30F
:10089600E0FAA3E0FBC31224247009127787EF6005
:1008A6001F020FB99004DFE0FCA3E0FDA3E0FEA366
:1008B600E0FF9005C71224B212777B7F0112778181
:1008C6009004E3E0FEA3E0FF64014E70089004E8A4
:1008D6007433F08018EF64024E70089004E87434A4
:1008E600F0800A900599E0540F9004E8F078E97CCE
:1008F600047D017B017A0479D77E007F04122307E9
:10090600900599E0FF9004EFF09004E8E0C394327C
:1009160050279004F1E0B4010CEF540F2477F582D0
:10092600E43403800D900599E0540F2446F582E4E3
:100936003400F583E09004E8F09004F3E06401608D
:1009460003020ABB9004E8E0FF643370030209DE89
:10095600EF70030209DE9004F7E0FFD394014051E3
:100966009005B0EFF09004E8E0FF9005BAE4F0A33C
:10097600EFF0900599E0540F9005BCF09004F6E076
:100986009005B1F0E49004E5F09004E5E0FF24E87A
:10099600F582E43404F583E0FE74B22FF582E43484
:1009A60005F583EEF09004E5E004F0E0B408DA80A3
:1009B600567B017A0479E89004E8E0FD90050AE4A4
:1009C600F0A3EDF0900599E0540F90050CF090041B
:1009D600F6E0FF123894802F7B017A0479E89005BF
:1009E60099E0540F9004FCF07F92123A619004FB58
:1009F6007401F0A37400F0A37456F07B017A0479B5
:100A0600E8123491020AFE9004F4E0FF9005BDE07E
:100A1600C39F5003E004F07B017A0479E8900599BE
:100A2600E0540F9004FCF07F91123A619004FB743D
:100A360001F0A37400F0A37456F07B017A0479E800
:100A46001242BE9004F4E09004E5F09004E5E0FF65
:100A5600D394014026EF24FEFFE434FFFEEF780333
:100A6600C333CE33CED8F92456F974003EFA7B014F
:100A76001265A99004E5E014F080D0E49004E5F056
:100A86009004E5E0FFC39406501474562FF582E4F3
:100A96003400F583E4F09004E5E004F080E290048D
:100AA600FB7401F0A37404F0A374E8F07B017A00F0
:100AB6007956020C2E9004F3E064026003020C41A6
:100AC6009004E8E0FF64336003EF70357B017A043D
:100AD60079E8900599E0540F9004FCF07F92123A61
:100AE600619004FB7401F0A37400F0A37456F07BCC
:100AF600017A0479E812349112442E125C7B020FBB
:100B0600B9E49004E6F09004F4E0FF9004E6E0FE19
:100B1600C39F4003020BBBEE75F008A4FFAEF024A2
:100B260057F58274003EF583E0FD9004E9E0FCEDA4
:100B36006C707974582FF58274003EF583E0FF904F
:100B460004EAE0FEEF6E70649004E6E075F008A437
:100B5600FFAEF02459F58274003EF583E0FD900463
:100B6600EBE0FCED6C7045745A2FF58274003EF58F
:100B760083E0FF9004ECE0FEEFB506309004E6E07B
:100B8600A3F075F008A42456F9740035F0FA7B0139
:100B9600C0039004FBEBF0A37404F0A374E8F0D058
:100BA6000312560C12442E125C7B80099004E6E078
:100BB60004F0020B0C9004F4E0FF9004E7E06F7081
:100BC6007A9004E6F09004F4E0FD9004E6E0FFC3BA
:100BD6009D5068EF75F008A42456F582740035F030
:100BE600F583E0704E9005BDE0C39D5003E004F030
:100BF6007B017A0479E8900599E0540F9004FCF0A3
:100C06007F91123A619004E6E075F008A42456F943
:100C1600740035F0FA7B01C0039004FBEBF0A3747B
:100C260004F0A374E8F0D00312560C12442E125CA2
:100C36007B80089004E6E004F0808A127793020F26
:100C4600B97F3512769D78CF7C047D017B017A05CC
:100C560079277E007F04122307900598E0FFE4FCC5
:100C6600FDFE7808122435C004C005C006C00790F2
:100C76000597E0FFE4FCFDFE7810122435D003D082
:100C860002D001D000EF4BFBEE4AFAED49F9EC48F1
:100C9600F8900599E0FFEB4FFFEAFEE9FDE8FC90CE
:100CA60004D31224B27B017A0479CF1251B55003D2
:100CB600020FB912758E90052AE06409703D900501
:100CC60029E06409702F900528E0B40922900527D1
:100CD600E004F0E4A3F0A3F0900527E0B4150AE4DD
:100CE600F090052A04F0020FB990052A020F3290FF
:100CF6000528020F3B900529020F4890052A020F8E
:100D0600537F3912769D78CF7C047D017B017A056D
:100D160079317E007F04122307900598E0FFE4FCFA
:100D2600FDFE7808122435C004C005C006C0079031
:100D36000597E0FFE4FCFDFE7810122435D003D0C1
:100D460002D001D000EF4BFBEE4AFAED49F9EC4830
:100D5600F8900599E0FFEB4FFFEAFEE9FDE8FC900D
:100D660004D31224B27B017A0479CF124D025003C8
:100D7600020FB912758E900534E06409703D900536
:100D860033E06409702F900532E0B40922900531F2
:100D9600E004F0E4A3F0A3F0900531E0B4150AE412
:100DA600F090053404F0020FB9900534020F32902A
:100DB6000532020F3B900533020F48900534020FAF
:100DC600537F3D12769D78CF7C047D017B017A05A9
:100DD600793C7E007F04122307900598E0FFE4FC2F
:100DE600FDFE7808122435C004C005C006C0079071
:100DF6000597E0FFE4FCFDFE7810122435D003D001
:100E060002D001D000EF4BFBEE4AFAED49F9EC486F
:100E1600F8900599E0FFEB4FFFEAFEE9FDE8FC904C
:100E260004D31224B27B017A0479CF12495B5003B2
:100E3600020FB912758E90053FE06409703D90056A
:100E46003EE06409702F90053DE0B4092290053C10
:100E5600E004F0E4A3F0A3F090053CE0B4150AE446
:100E6600F090053F04F0020FB990053F020F329053
:100E7600053D020F3B90053E020F4890053F020FCD
:100E8600537F4112769D78CF7C047D017B017A05E4
:100E960079487E007F04122307900598E0FFE4FC62
:100EA600FDFE7808122435C004C005C006C00790B0
:100EB6000597E0FFE4FCFDFE7810122435D003D040
:100EC60002D001D000EF4BFBEE4AFAED49F9EC48AF
:100ED600F8900599E0FFEB4FFFEAFEE9FDE8FC908C
:100EE60004D31224B27B017A0479CF124A935003B9
:100EF600020FB912758E90054BE06409704C90058F
:100F06004AE064097039900549E0B409259005481E
:100F1600E004F0E4A3F0A3F0900548E0B4150AE479
:100F2600F090054B04F0020FB990054B7401F002E6
:100F36000FB9900549E004F0E4A3F0A3F0807490A3
:100F4600054AE004F0E4A3F0806990054BE004F064
:100F56008061E4FF1277159005CB7401F09004F1DF
:100F6600E0B40124A3E0FF900599E0540F2477F53F
:100F760082E43403F583EFF07B017A0379779005F9
:100F86000F7410F07D2080249004F2E0FF90059904
:100F9600E0540F2446F582E43400F583EFF07B013C
:100FA6007A00794690050F7410F07D307C157FA08D
:0C0FB6001264B9127793123DE802414228
:0577B1009005CBE0FF94
:0177B60022B0
:0677B7009005CBEFF0226B
:106766009005B1E09004CFF07B017A0579B29005EF
:10677600BAE0FEA3E0FDAC06A3E0FE30A429900536
:10678600B0E0D3940040209004CFE0FF90050AECDF
:10679600F0A3EDF0A3EEF01238947F0A7E00127497
:0767A600279005B0E014F09C
:0167AD0022C9
:105D3200FFFFFFFFFFFFFFFFFFFFFFFFFFFFFFFF71
:105D4200FFFFFFFFFFFFFFFFFFFFFFFFFFFFFFFF61
:105D5200FFFFFFFFFFFFFFFFFFFFFFFFFFFFFFFF51
:105D6200FFFFFFFFFFFFFFFFFFFFFFFFFFFFFFFF41
:105D7200FFFFFFFFFFFFFFFFFFFFFFFFFFFFFFFF31
:105D8200FFFFFFFFFFFFFFFFFFFFFFFFFFFFFFFF21
:105D9200FFFFFFFFFFFFFFFFFFFFFFFFFFFFFFFF11
:105DA200FFFFFFFFFFFFFFFFFFFFFFFFFFFFFFFF01
:105DB200FFFFFFFFFFFFFFFFFFFFFFFFFFFFFFFFF1
:105DC200FFFFFFFFFFFFFFFFFFFFFFFFFFFFFFFFE1
