:03000000025FD0CC
:0C5FD000787FE4F6D8FD7581210260178F
:106AD100126FAB12751F12755A1276401275891218
:106AE100733B12753E75B10CE4F5B212623D123C76
:0C6AF10012120FC212004612671680F548
:0F752F004F4B535049005350494F4B004F4B00A7
:101CD6004105D7004405DA000000004105D3004164
:101CE60005DE004105D9004305CFFF752F4305CC1E
:101CF600FF75354305D4FF753B4105D8004105D234
:011D060000DC
:03002300025B8FEE
:0D5B8F00C0E0C0F0C083C082C0D075D00857
:105B9C0090051DE4F0209803025C3EC298E599F054
:105BAC00127647BF6922900376E0B4011B90051D65
:105BBC00E0FFB4AA089003767402F08075EF645588
:105BCC007070900376F0806A127647EF646A7062A8
:105BDC0090051DE0FFB4AA189005D8E07012900350
:105BEC009474AAF09005D27401F09005D8F080421C
:105BFC009005D8E06401703A9005D2E02494F582C7
:105C0C00E43403F583EFF09005D2E004F0E0B40A3D
:105C1C0021E4F09005D8F0900394E0B4AA0F90031F
:105C2C009DE0B455089003917401F080057F5512E6
:095C3C007594309904C299C20963
:0B5C4500D0D0D082D083D0F0D0E0326D
:03004300025E1D3D
:0D5E1D00C0E0C0F0C083C082C0D075D008C6
:105E2A00E4FFE59A30E069539AFEAF9B9005D7E00C
:105E3A00640170309005D9E0FEB401139005D3E0F7
:105E4A00FD04F074DA2DF582E43405F583EFF0EF02
:105E5A00B44F11EE700E9005D904F09005D3F0906E
:105E6A0005DAEFF09005D3E0B402259005D7E4F007
:105E7A009005D9F078DA7C057D019005D4E0FBA382
:105E8A00E0FAA3E0F9122668EF70059005DE04F047
:0A5E9A00E59A30E105539AFDC209B4
:0B5EA400D0D0D082D083D0F0D0E0320C
:097594002009FDEFD209F599224E
:1069A400900613EBF0A3EAF0A3E9F0900613E0FBE2
:1069B400A3E0FAA3E0F912232D6017900613A3E4D1
:1069C40075F00112240EA9F0FA12232DFF1275940A
:0369D40080D92245
:09759D002009FDEFD209F59B2243
:1069D700900616EBF0A3EAF0A3E9F0900616E0FBA9
:1069E700A3E0FAA3E0F912232D6017900616A3E49B
:1069F70075F00112240EA9F0FA12232DFF12759DCE
:036A070080D92211
:0975A6002009FDEFD209F599223C
:106A0A00900619EBF0A3EAF0A3E9F0900619E0FB6F
:106A1A00A3E0FAA3E0F912232D6017900619A3E464
:106A2A0075F00112240EA9F0FA12232DFF1275A691
:036A3A0080D922DE
:106FAB00E5A2543FF5A253BAFE759850759A5075E9
:106FBB00D7C875D6FE758E14438E01D2AC75AF0152
:036FCB00D2AF2220
:0B63B0009003A1EBF0A3EAF0A3E9F0DA
:1063BB009003CC7401F0A37403F0A374A4F09003C6
:1063CB00A1E0F9A3E0FAA3E090060DC9F0A3EAF06F
:1063DB00A3E9F09003CCE0F9A3E0FAA3E090061058
:1063EB00C9F0A3EAF0A3E9F07B017A0379CF126637
:0A63FB00847B017A0379CF0269A4C4
:102E8B000000000000FF6F630102661400FF0006E4
:102E9B000203011500FF71A80304021900FF71C69C
:102EAB000405031D00FF71E40506041F00FF7202F9
:102EBB000607052000FF72200708062100FF723E5F
:102ECB000809072600FF725C090A082A00FF727ABC
:102EDB000A0B092C00FF72980B0C0A0B00FF001E4B
:102EEB000C0D0B0C00FF776D0D0E0C0D00FF7772A8
:102EFB000E660D0E00FF000E0F0F0F1201FF663A4C
:102F0B001010100F01FF68C91111111001FF690199
:102F1B001212121401FF6F871313131101FF6BA70A
:102F2B001414141301FF6A701516183502FF743947
:102F3B001617153902FF744B1718163D02FF745DF7
:102F4B001815174102FF746F191A1C4503FF748182
:102F5B001A1B194903FF74931B1C1A4D03FF74A50D
:102F6B001C191B5103FF74B71D1E1E5204FF7777EC
:102F7B001E1D1D5304FF777C1F1F1F1F05FF75B8F8
:102F8B002020202006FF75C02122645407FF778183
:102F9B002223215507FF77862324225607FF778BA1
:102FAB002425235707FF77902560245807FF779533
:102FBB002627295908FF779A2728265A08FF779F33
:102FCB002829275B08FF77A42926285C08FF77A907
:102FDB002A2B2B2A09FF754C2B2A2A5E09FF77AE69
:102FEB002C2D2D000AFF77B32D2C2C000AFF77B860
:102FFB002E2E2E2E0BFF72EF2F2F2F2F0CFF75C89F
:10300B00303030300DFF75D0313131310EFF65006E
:10301B003232323515FF70C33333333215FF70E55F
:10302B003434343315FF71073535353415FF00262D
:10303B003636363916FF6BCF3737373616FF6BF709
:10304B003838383716FF6C1F3939393816FF6FCEC1
:10305B003A3A3A3D17FF6C473B3B3B3A17FF6C6FD5
:10306B003C3C3C3B17FF6C973D3D3D3C17FF6FF1E4
:10307B003E3E3E4118FF6CBF3F3F3F3E18FF6CE7A3
:10308B004040403F18FF6D0F4141414018FF701405
:10309B004242424519FF6D374343434219FF6D5F6F
:1030AB004444444319FF6D874545454419FF703728
:1030BB00464646491AFF6DAF474747461AFF6DD73D
:1030CB00484848471AFF6DFF494949481AFF705A4B
:1030DB004A4A4A4D1BFF6E274B4B4B4A1BFF6E4F09
:1030EB004C4C4C4B1BFF6E774D4D4D4C1BFF707D6D
:1030FB004E4E4E511CFF6E9F4F4F4F4E1CFF6EC7D7
:10310B005050504F1CFF6EEF515151501CFF70A08F
:10311B00525252521DFF75D8535353531EFF75E035
:10312B005454545421FF75E85555555522FF75F0ED
:10313B005656565623FF75F85757575724FF72B6F6
:10314B005858585825FF76005959595926FF74C9B4
:10315B005A5A5A5A27FF76085B5B5B5B28FF76103F
:10316B005C5C5C5C29FF76185D5D5D5D2AFF6855D4
:10317B005E5E5E5E2BFF69395F5F5F5F5FFF65ECD5
:10318B006062256107FF77BD6161616160FF762039
:10319B006264606307FF77C26363636362FF7628D1
:1031AB006421626507FF77C76565656564FF7630E7
:1031BB0066010E6600FF77CC6768686966FF73ADC2
:1031CB006867676A66FF74DB6969696967FF5ACC70
:0831DB006A6A6A6A68FF5D88F8
:101D070041052200410554004105230045052700F0
:101D170000000100450531000000010045053C00B9
:101D270000000100450548000000010045052C00A2
:101D3700000001004505370000000100450543008C
:101D47000000010045054E00000001004105360175
:101D5700410542014105410041054D004105530040
:101D6700410556014105590041055C0641055E03E1
:101D770041055F0141056000410561004105550BC3
:101D87004105580041055B0041055D0041055702CB
:101D970041055A0041052001410562014105210124
:10271D00E49004D2F0A3F0A3F0A3F0A3F030B30C37
:10272D0030B60930B70630A503022B2112753E30A5
:10273D00B30C30B60930B70630A503022B21127742
:10274D000120B3099004D2E4F0A37438F020B60947
:10275D009004D2E4F0A37434F020B7099004D2E4CD
:10276D00F0A3742CF020A5099004D2E4F0A3741CFE
:10277D00F09004D2E07004A3E064386003022AB63E
:10278D001276EF7F011276E330B303022AB690047E
:10279D00D5E06003022AB61276D1EF7006900523BC
:1027AD00E060131276D1EF64017048900523E0FFCD
:1027BD006004645F703D1276E99004D4EFF0C39429
:1027CD001440C59005237402F0E49004D2F0A3F0F8
:1027DD00D2CDC2977F0112716A127689BF010A7F2D
:1027ED006F7E00126A43022A007F787E0012688F86
:1027FD00022A00900523E0FF6442600FEF644360FE
:10280D000AEF64446005EF6445702F1276E9900479
:10281D00D4EFF0C3940A5003022795E49004D2F04C
:10282D00A3F07B017A05792C1253D940077F797E6D
:10283D0000126A4312753E022A00900523E0FF64E0
:10284D0046600FEF6447600AEF64486005EF644926
:10285D00702F1276E99004D4EFF0C3940A5003025E
:10286D002795E49004D2F0A3F07B017A0579371215
:10287D0052B540077F797E00126A4312753E022AD7
:10288D0000900523E0FF644A600FEF644B600AEF90
:10289D00644C6005EF644D702F1276E99004D4EF0F
:1028AD00F0C3940A5003022795E49004D2F0A3F0EC
:1028BD007B017A057943124F3940077F797E0012EB
:1028CD006A4312753E022A00900523E0FF644E60B4
:1028DD000FEF644F600AEF64506005EF6451702F85
:1028ED001276E99004D4EFF0C3940A5003022795B1
:1028FD00E49004D2F0A3F07B017A05794E12506476
:10290D0040077F797E00126A4312753E022A0090BD
:10291D000523E0B40C2B1276E99004D4EFF0C394A8
:10292D00145003022795E49004D2F0A3F0900523F0
:10293D00742FF01276D19004D6EFF0127354022A50
:10294D0000900523E0B40D2B1276E99004D4EFF03E
:10295D00C394145003022795E49004D2F0A3F09091
:10296D0005237430F01276CB9004D6EFF012735429
:10297D00022A00900523E0B40E1F1276E99004D4CC
:10298D00EFF0C394145003022795E49004D2F0A302
:10299D00F09005237431F0805A900523E0B466243D
:1029AD001276E99004D4EFF0C394145003022795E6
:1029BD00E49004D2F0A3F09005237467F07F011228
:1029CD007189802F900523E0B42A341276E99004A2
:1029DD00D4EFF0C394145003022795E49004D2F081
:1029ED00A3F0900523745DF01276B39004D6EFF04A
:1029FD001273549004D57401F01276EF022795905E
:102A0D000523E0642D70251276E99004D4EFF0C310
:102A1D0094145003022795E49004D2F0A3F07F792B
:102A2D00FE126A43126405125CF08067900523E084
:102A3D00642C60030227951276E99004D4EFF0C35D
:102A4D0094145003022795E49004D2F0A3F07F79FB
:102A5D00FE126A43126405126819125CF07B017A4A
:102A6D0003797790050F7410F07D207C157FA012EF
:102A7D00646912753E7B017A00794690050F7410DA
:102A8D00F07D307C157FA012646912753E1262FBD9
:102A9D0012753E75C760E4900523F09004D504F0DF
:102AAD001276EF75C13002279530B3FD30B6FA308E
:102ABD00B7F730A5F412753E30B3FD30B6FA30B726
:102ACD00F730A5F4E4FF1276E3E4FF1276FB9005F0
:102ADD0023E0645E6023127689EF6011900523E098
:102AED00D3940E40047F0180067F0080027F01EFAA
:102AFD0060077F787E0012688F9004D5E070079094
:102B0D00052204F08005E4900522F09004D2E0FE49
:082B1D00A3E0FF227E0F7FFF01
:012B2500228D
:104E0D00E49004D0F0A3F0FF12271D9004D0EEF033
:104E1D00A3EFF01277559004D0E0640F7003A3E078
:104E2D00F46003024F0EEF64016003024F0E900514
:104E3D0023E0FF601C640B6018EF640C6013EF64DB
:104E4D000D600EEF640E6009EF642D6004EFB42C5D
:104E5D002A900599E0540FFFBF0808900554E0040F
:104E6D00F08005E4900554F0900554E0D394034090
:104E7D000A7F14127707E4900554F012775B1277CE
:104E8D0013EF6005E4900522F0900599E0540FFFB3
:104E9D00640860069005227401F0EF24FE60292459
:104EAD00FE603524FC604124077056127719EF70AF
:104EBD00509004D0F0A3741CF0900523E0B431069B
:104ECD001273FF12753E8034127719EF7033900410
:104EDD00D0F0A37434F08024127719EF702390046E
:104EED00D0F0A3742CF08014127713EF7013127797
:104EFD0019EF700D9004D0F0A37438F07F05127780
:104F0D001F9004D0E0FEA3E0FFEE701DEF24D460EF
:104F1D001224F8600B24FC600D241C700C7F0322FE
:0B4F2D007F02227F01227F00227FFF15
:014F38002256
:100FC200E4FF9004CFF0124E0DEF147003021309E8
:100FD2001470030218081470030212DB2403600366
:100FE200021CAB1276D1EF7006900523E06012125C
:100FF20076D1EF64017022900523E0FF6003B45FB5
:10100200181276E99004CFEFF0C394145003021C37
:10101200AB9005237402021165900523E0FF644240
:10102200600FEF6443600AEF64446005EF6445704B
:101032002D1276E99004CFEFF0C3940A40657B014C
:101042007A05792C1253D940571276BFBF010C7F13
:10105200797E00126A43E4FF1276C50211309005D0
:1010620023E0FF6446600FEF6447600AEF64486064
:1010720005EF644970301276E99004CFEFF0C39423
:101082000A40207B017A0579371252B54012127656
:10109200BFBF010C7F797E00126A43E4FF1276C55E
:1010A200021130021136900523E0FF644A600FEF0F
:1010B200644B600AEF644C6005EF644D702E12764B
:1010C200E99004CFEFF0C3940A401F7B017A0579BF
:1010D20043124F3940121276BFBF010C7F797E0056
:1010E200126A43E4FF1276C580448048900523E0EB
:1010F200FF644E600FEF644F600AEF64506005EFCB
:10110200645170431276E99004CFEFF0C3940A4021
:10111200237B017A05794E12506440121276BFBFCA
:10112200010C7F797E00126A43E4FF1276C51275C4
:101132003E0212D5900523E075F008A4248EF582B4
:10114200E5F0342E021CA3900523E0B40B1E1276A8
:10115200E99004CFEFF0C394145003021CAB900546
:1011620023742EF07F0612757E0212D5900523E0BD
:10117200B40C1E1276E99004CFEFF0C3941450031E
:10118200021CAB900523742FF07F0612757E0212AB
:10119200D5900523E0B40D1E1276E99004CFEFF04E
:1011A200C394145003021CAB9005237430F07F06E5
:1011B20012757E0212D5900523E0B40E1E1276E956
:1011C2009004CFEFF0C394145003021CAB9005239C
:1011D2007431F07F0612757E0212D5900523E0B4B9
:1011E200661E1276E99004CFEFF0C3941450030206
:1011F2001CAB9005237467F07F0612757E0212D530
:10120200900523E0B42A1E1276E99004CFEFF0C3D2
:1012120094145003021CAB900523745DF07F0612F8
:10122200757E0212D5900523E0642D701F1276E9B7
:101232009004CFEFF0C394145003021CAB7F797E6D
:1012420000126A43126405125CF0805E900523E08E
:10125200642C70671276E99004CFEFF0C3941450B7
:1012620003021CAB7F797E00126A43126405126886
:1012720019125CF07B017A03797790050F7410F0F4
:101282007D207C157FA012646912753E7B017A0075
:10129200794690050F7410F07D307C157FA01264A2
:1012A2006912753E1262FB12753E75C7607F0612A7
:1012B200757E1276EF75C130021CAB900523E07586
:1012C200F008A4248EF582E5F0342EF583E49390A1
:1012D2000523F01276EF021CAB900523E0B45F14F5
:1012E2001276D1EF600E12605CE49005B0F01273DA
:1012F200FF021CAB900523E075F008A4248FF58251
:10130200E5F0342E021CA3900523E01224BE13C57F
:101312000F13D71013E61113F512140813141A142D
:1013220016961F16AA2017A82F179430142C3214C1
:101332003E331450341462351474361486371498BC
:101342003814AA3914BC3A14CE3B14E03C14F23DD2
:1013520015043E15163F152840153A41154C421505
:101362005E4315704415824515944615A64715B877
:101372004815CA4915DC4A15EE4B16004C16124D9B
:1013820016244E16364F164850165A51166B5216E0
:10139200815316BE5416D25516E75616F957170D35
:1013A2005817215917355A17465B17575C17685D4E
:1013B200177C5E178F5F17BB6117CE6317E165005D
:1013C2000017F59005E0E0B46305E4F00217F5902C
:1013D20005E002178A9005E1E0B40C02801C90053A
:1013E200E102178A9005E2E0B41F02800D9005E247
:1013F20002178A9005E6E0B407067401F00217F5B9
:101402009005E602178A9005E3E0B41705E4F002BE
:1014120017F59005E302178A9005E4E0B43B05E472
:10142200F00217F59005E402178A900527E0B4143C
:1014320005E4F00217F590052702178A900528E0C7
:10144200B40905E4F00217F590052802178A900501
:1014520029E0B40905E4F00217F590052902178A7C
:1014620090052AE0B40905E4F00217F590052A0276
:10147200178A900531E0B41405E4F00217F59005DF
:101482003102178A900532E0B40905E4F00217F53B
:1014920090053202178A900533E0B40905E4F002A0
:1014A20017F590053302178A900534E0B40905E474
:1014B200F00217F590053402178A90053CE0B41447
:1014C20005E4F00217F590053C02178A90053DE00D
:1014D200B40905E4F00217F590053D02178A90055C
:1014E2003EE0B40905E4F00217F590053E02178AC2
:1014F20090053FE0B40905E4F00217F590053F02BC
:10150200178A900548E0B41405E4F00217F5900537
:101512004802178A900549E0B40905E4F00217F57C
:1015220090054902178A90054AE0B40905E4F002E1
:1015320017F590054A02178A90054BE0B40905E4B5
:10154200F00217F590054B02178A90052CE0B414AF
:1015520005E4F00217F590052C02178A90052DE09C
:10156200B40905E4F00217F590052D02178A9005DB
:101572002EE0B40905E4F00217F590052E02178A51
:1015820090052FE0B40905E4F00217F590052F024B
:10159200178A900537E0B41405E4F00217F59005B8
:1015A2003702178A900538E0B40905E4F00217F50E
:1015B20090053802178A900539E0B40905E4F00273
:1015C20017F590053902178A90053AE0B40905E447
:1015D200F00217F590053A02178A900543E0B41419
:1015E20005E4F00217F590054302178A900544E0DE
:1015F200B40905E4F00217F590054402178A900534
:1016020045E0B40905E4F00217F590054502178A92
:10161200900546E0B40905E4F00217F5900546028C
:10162200178A90054EE0B41405E4F00217F5900510
:101632004E02178A90054FE0B40905E4F00217F54F
:1016420090054F02178A900550E0B40905E4F002B4
:1016520017F590055002178A900551E0B40904E489
:10166200F08006900551E004F0900536E0B40106E2
:101672007402F00217F29005367401F00217F2902C
:101682000542E0B463057401F08006900542E0046F
:10169200F00217F2900541E0B46304E4F080069092
:1016A2000541E004F00217F290054DE0B46304E452
:1016B200F0800690054DE004F00217F2900553E029
:1016C200B40704E4F08006900553E004F00217F238
:1016D200900556E0B409057401F08006900556E0C5
:1016E20004F00217F2900559E0700404F08005E45A
:1016F200900559F00217F290055CE0B40904E4F099
:10170200800690055CE004F00217F290055EE0B4FA
:101712000704E4F0800690055EE004F00217F29000
:101722000555E0B40A04E4F08006900555E004F0A3
:101732000217F2900558E0B40B05E4F00217F59099
:101742000558804490055BE0B40B05E4F00217F500
:1017520090055B803390055DE0B40B05E4F0021761
:10176200F590055D8022900557E0B401057402F002
:1017720080069005577401F0807690055AE0B426F1
:1017820004E4F0806E90055AE004F08066125A0676
:101792008061900562E0B401057402F08006900554
:1017A200627401F0804A900520E0B40104E4F08004
:1017B200069005207401F0803790055FE0B40104C3
:1017C200E4F0800690055F7401F08024900560E0EB
:1017D200B40104E4F080069005607401F080119079
:1017E2000561E0B40104E4F080069005617401F043
:1017F200125CF0900523E075F008A4248CF582E5D4
:10180200F0342E021CA3900523E01224BE18C40F4C
:1018120018D61018E91118FC12190F131921141BEC
:101822003C1F1B50201C462F1C32301933321942E8
:1018320033195134196035196F36197E37198D38BD
:10184200199C3919AB3A19BA3B19C93C19D83D1937
:10185200E73E19F63F1A05401A14411A23421A327A
:10186200431A41441A50451A5F461A6D471A7C487A
:101872001A8B491A994A1AA74B1AB54C1AC34D1A10
:10188200D14E1AE34F1AF1501AFF511B11521B2766
:10189200531B64541B78551B8D561B9F571BB35803
:1018A2001BC7591BDB5A1BE85B1BF55C1C065D1C46
:1018B2001A5E1C2D5F1C59611C6C631C7F65000045
:1018C2001C939005E0E070067463F0021C9390058F
:1018D200E0021C289005E1E0B40106740CF0021C41
:1018E200939005E1021C289005E2E0B40106741F02
:1018F200F0021C939005E2021C289005E6E0B40178
:10190200067407F0021C939005E6021C289005E37A
:10191200E070067417F0021C939005E3021C2890F5
:1019220005E4E07006743BF0021C939005E4021C8F
:1019320028900527E07003021AD7900527021C2879
:10194200900528E07003021B05900528021C2890D0
:101952000529E07003021B05900529021C28900549
:101962002AE07003021B0590052A021C289005310B
:10197200E07003021AD7900531021C28900532E06C
:101982007003021B05900532021C28900533E0709B
:1019920003021B05900533021C28900534E07003F6
:1019A200021B05900534021C2890053CE0700302DE
:1019B2001AD790053C021C2890053DE07003021BDB
:1019C2000590053D021C2890053EE07003021B05B0
:1019D20090053E021C2890053FE07003021B059013
:1019E200053F021C28900548E07003021AD79005B3
:1019F20048021C28900549E07003021B0590054926
:101A0200021C2890054AE07003021B0590054A0259
:101A12001C2890054BE07003021B0590054B021C2D
:101A22002890052CE07003021AD790052C021C287E
:101A320090052DE07003021B0590052D021C2890D5
:101A4200052EE07003021B0590052E021C2890054E
:101A52002FE07003021B0590052F021C289005370A
:101A6200E070028070900537021C28900538E07003
:101A720003021B05900538021C28900539E070030B
:101A8200021B05900539021C2890053AE07002807D
:101A92007290053A021C28900543E070028036904D
:101AA2000543021C28900544E070028056900544CC
:101AB200021C28900545E070028048900545021CF2
:101AC20028900546E07002803A900546021C289054
:101AD200054EE070067414F0021C9390054E021C31
:101AE2002890054FE07002801A90054F021C289042
:101AF2000550E07002800C900550021C28900551A0
:101B0200E070067409F0021C93900551021C2890A3
:101B12000536E0B401067402F0021C90900536749A
:101B220001F0021C90900542E0B401057463F0805C
:101B320006900542E014F0021C90900541E0700509
:101B42007463F08006900541E014F0021C90900549
:101B52004DE070057463F0800690054DE014F002CC
:101B62001C90900553E070057407F08006900553B1
:101B7200E014F0021C90900556E0B401057409F0DF
:101B82008006900556E014F0021C90900559E07012
:101B92000404F08005E4900559F0021C9090055C65
:101BA200E070057409F0800690055CE014F0021CF8
:101BB2009090055EE070057407F0800690055EE087
:101BC20014F0021C90900555E07005740AF080062E
:101BD200900555E014F0021C90900558E0700280C8
:101BE20018900558804090055BE07002800B9005CC
:101BF2005B803390055DE07006740BF0021C9390DD
:101C0200055D8022900557E0B401057402F080065C
:101C12009005577401F0807690055AE0700574269D
:101C2200F0806E90055AE014F080661254ED8061E7
:101C3200900562E0B401057402F0800690056274BA
:101C420001F0804A900520E0B40104E4F08006909F
:101C520005207401F0803790055FE0B40104E4F0E0
:101C6200800690055F7401F08024900560E0B40165
:101C720004E4F080069005607401F0801190056123
:101C8200E0B40104E4F080069005617401F0125C96
:101C9200F0900523E075F008A4248DF582E5F03478
:101CA2002EF583E493900523F0900523E075F00868
:101CB200A42490F582E5F0342EF583E493FB7401BD
:101CC20093FA740293F9900524EBF0A3EAF0A3E9E6
:041CD200F00224E414
:0D753E007F047E347DDCDDFEDEFADFF6002A
:01754B00221D
:0473D700AB07AA0650
:0F73DB00E4FCECC39BE49A500612753E0C80F361
:0173EA002280
:05764700900523E0FFA7
:01764C00221B
:06764D00900523EFF0227E
:05765300900536E0FF88
:01765800220F
:05765900900542E0FF76
:01765E002209
:05765F00900541E0FF71
:017664002203
:0576650090054DE0FF5F
:01766A0022FD
:05766B00900553E0FF53
:0176700022F7
:05767100900556E0FF4A
:0176760022F1
:05767700900559E0FF41
:01767C0022EB
:05767D0090055CE0FF38
:0176820022E5
:0576830090055EE0FF30
:0176880022DF
:0576890090055FE0FF29
:01768E0022D9
:05768F00900560E0FF22
:0176940022D3
:05769500900561E0FF1B
:01769A0022CD
:05769B00900555E0FF21
:0176A00022C7
:0576A100900558E0FF18
:0176A60022C1
:0576A70090055BE0FF0F
:0176AC0022BB
:0576AD0090055DE0FF07
:0176B20022B5
:0576B300900557E0FF07
:0176B80022AF
:0576B90090055AE0FFFE
:0176BE0022A9
:0576BF00900522E0FF30
:0176C40022A3
:0676C500900522EFF02207
:0576CB00900562E0FFE4
:0176D0002297
:0576D100900520E0FF20
:0176D6002291
:105CF000900536E09005EFF0900542E09005F0F059
:105D0000900541E09005F1F090054DE09005F2F02E
:105D1000900553E09005F3F0900556E09005F4F0FF
:105D2000900559E09005F5F090055CE09005F6F0DF
:105D300090055EE09005F7F090055FE09005F8F0C3
:105D4000900560E09005F9F0900561E09005FAF0AB
:105D5000900555E09005FBF0900557E09005FCF0AC
:105D6000900520E09005FDF0900562E09005FEF0C2
:105D70007B017A0579EF90050F7410F07D407C155A
:085D80007FA012646902753E68
:103C12007B017A03797790051A7410F07D207C1568
:103C22007FA012616D12753E7B017A007946900584
:103C32001A7410F07D307C157FA012616D12753EF2
:103C42007B017A0579EF90051A7410F07D407C159E
:103C52007FA012616D12753E9005EFE0FF90053670
:103C6200F09005F0E0900542F09005F1E0900541FA
:103C7200F09005F2E090054DF09005F3E0900553C9
:103C8200F09005F4E0900556F09005F5E0900559A6
:103C9200F09005F6E090055CF09005F7E090055E87
:103CA200F09005F8E090055FF09005F9E09005606E
:103CB200F09005FAE0900561F09005FBE090055563
:103CC200F09005FCE0900557F09005FDE09005208E
:103CD200F09005FEE0900562F0EFD394024006906A
:103CE20005367401F09005F0E0D394634006900528
:103CF200427401F09005F1E0D394634006900541CF
:103D02007401F09005F2E0D39463400690054D747F
:103D120001F09005F3E0D394074005E4900553F0D9
:103D22009005F4E0D3940940069005567401F09092
:103D320005F5E0D394014005E4900559F09005F6AD
:103D4200E0D39409400690055C7406F09005F7E014
:103D5200D39407400690055E7403F09005F8E0D313
:103D620094014005E490055FF09005F9E0D39401D9
:103D72004005E4900560F09005FAE0D39401400517
:103D8200E4900561F09005FBE0D3940A40069005AB
:103D920055740AF09005FCE0D39402400690055752
:103DA2007402F09005FDE0D3940140069005207462
:103DB20001F09005FEE0D394024006900562740182
:023DC200F022ED
:106405009005367401F0900542F0E4900541F09056
:10641500054DF0900553F090055604F0E4900559AC
:10642500F090055C7406F090055E7403F0A37401AA
:10643500F0E4A3F0A3F0900555740AF0E490055834
:10644500F090055BF090055DF09005577402F0E45F
:0564550090055AF02241
:106819007F109003777401F0A3DFFC9000467401A8
:10682900F0E4A3F0A37403F0A37405F0A37402F0D9
:10683900A314F0A3F0A37406F0A37401F0A3F0A3CA
:0B684900F0A3F0A3F0A3F0A3F0A3F075
:016854002221
:10714A000000000000000000000000000000000035
:10715A000000000000000000000000000000000025
:101DA7005500313F065B4F666D7D077F6F777C3946
:101DB7005E797176385C733E480387010204081028
:101DC70020408042038F4000603000010000000087
:101DD70000000000000000000000000000000000FC
:101DE70000000000000000000000000000000000EC
:101DF7000000000000000000000000006320005603
:101E070000000000000000000000000000000000CB
:101E170000000000000000000000000000000000BB
:101E270000000000000000000000000000000000AB
:101E3700000000000000000000000000000000009B
:10212700410000004103A0005003770101010101B4
:1021370001010101010101010101015000460100F6
:102147000305020101060101010101010101420329
:102157009200004103760042039E00004103910074
:106AFD00C282E4FDFCC280EF30E004D2818002C28C
:106B0D008100000000D280EFC313FF0DBD00010C0A
:0A6B1D00ED64084C70DFC280C281F5
:016B2700224B
:106B2800C283E4FDFCC280EF30E004D2818002C25F
:106B38008100000000D280EFC313FF0DBD00010CDF
:0A6B4800ED64084C70DFC280C281CA
:016B52002220
:106B5300C2CCE4FDFCC280EF30E004D2818002C2EB
:106B63008100000000D280EFC313FF0DBD00010CB4
:0A6B7300ED64084C70DFC280C2819F
:016B7D0022F5
:09736B00AE077F401273747FC06D
:0D737400D282000000000000C282026AFD0B
:0C730900127374D2827F401273157FC093
:0D731500D283000000000000C283026B283C
:0C732200127315D2837F4012732E7FC0BF
:0D732E00D2CC000000000000C2CC026B5366
:055EAF00E4900001F089
:105EB40012768312736BE4FB74012BF582E43400D5
:105EC400F583E0FF126AFD74092BF582E43400F5D2
:105ED40083E0FF126AFD0BEBB408DDEE2488FF12A9
:105EE4007309E4FB74112BF582E43400F583E0FFBD
:105EF400126B2874192BF582E43400F583E0FF1249
:105F04006B280BEBB408DDEE2488FF127322E4FB4C
:105F140074212BF582E43400F583E0FF126B537493
:105F2400292BF582E43400F583E0FF126B530BEB6D
:0C5F3400B408DDEE2488FF12732ED2CCDE
:015F4000223E
:1066CE0012736BE4FBAF06126AFDAF06126AFD0B86
:1066DE00EBB408F17F8F127309E4FBAF06126B283F
:1066EE00AF06126B280BEBB408F17F8F127322E406
:1066FE00FBAF06126B53AF06126B530BEBB408F1E4
:07670E007F8F12732ED2CC25
:016715002261
:10623D00E49004CFF0E4FFE4FE9004CFE02487F572
:10624D0082E43403F583E0FDEF75F008A42401F535
:10625D0082E43400F583E5822EF582E43583F583FF
:10626D00EDF00EEEB408D20FEFB406CB125EB49083
:10627D0004CFE0B401077F7B7E00126A437F1E12BC
:0E628D0074279004CFE004F0E0C3940840A70B
:01629B0022E0
:10742700EFD39400400B7EFF7DFFDDFEDEFA1F8069
:01743700EF65
:017438002231
:106B7E00E4FFE4FEEF75F008A42401F582E434008E
:106B8E00F583E5822EF582E43583F583E4F00EEE8F
:086B9E00B408E10FEFB406DAC0
:016BA60022CC
:0A7568007F78900056E4F0A3DFFCEA
:0175720022F6
:10696F00E4FF1276D7EF6401702A126B7E9000005D
:10697F00E05403FF2401F582E43400F5837440F002
:10698F00125EB4E4FF1276DD900000E004F0E0B494
:04699F000402E4F01A
:0169A30022D1
:103F730012768FEF6003024018126B7E1260E79097
:103F83000033E0900008F0900031E0900007F090DB
:103F930005E0E0FF75F00A842431F582E43400F58E
:103FA30083E0900006F0EF75F00A84743125F0F594
:103FB30082E43400F583E0900005F09005E1E0FF32
:103FC30075F00A842431F582E43400F583E090002F
:103FD3000AF0EF75F00A84743125F0F582E43400B9
:103FE300F583E0900009F09005E2E0FF75F00A84A4
:103FF3002431F582E43400F583E090000CF0EF7592
:10400300F00A84743125F0F582E43400F583E090FE
:10401300000B0240B1126B7E1260E7900033E09018
:10402300000CF0900031E090000BF09005E0E0FF11
:1040330075F00A842431F582E43400F583E09000BE
:104043000AF0EF75F00A84743125F0F582E4340048
:10405300F583E0900009F09005E1E0FF75F00A8434
:104063002431F582E43400F583E0900008F0EF7525
:10407300F00A84743125F0F582E43400F583E0908E
:104083000007F09005E2E0FF75F00A842431F58221
:10409300E43400F583E0900006F0EF75F00A8474D1
:1040A3003125F0F582E43400F583E0900005F090CB
:1040B30005E6E02431F582E43400F583E090000D59
:1040C300F09005E3E0FF75F00A842431F582E434CF
:1040D30000F583E0900004F0EF75F00A8474312555
:1040E300F0F582E43400F583E0900003F09005E4FA
:1040F300E0FF75F00A842431F582E43400F583E0AF
:10410300900002F0EF75F00A84743125F0F582E433
:094113003400F583E0125EB022D5
:10716A00AD07126B7E900040E0900002F074312D62
:0F717A00F582E43400F583E0900001F0025EB48A
:10718900AD07126B7E90003FE0900002F074312D44
:0F719900F582E43400F583E0900001F0025EB46B
:1073EB00126B7E900031E0900002F0900001743738
:0473FB00F0025EB48A
:10738100126B7E900031E0900002F0900040E0909E
:067391000001F0025EB4F1
:10735400AD07126B7E74312DF582E43400F583E0C1
:07736400900001F0025EB48D
:106AA100AD07126B7EED75F00A842431F582E43472
:106AB10000F583E0900002F0ED75F00A8474312551
:106AC100F0F582E43400F583E0900001F0025EB459
:10629C00AB07AA06126B7E7C007D64AF03AE0212C4
:1062AC0023B974312FF58274003EF583E09000031E
:1062BC00F07C007D0AAF03AE021223B97C007D0A8C
:1062CC001223B974312DF58274003CF583E09000F3
:1062DC0002F0AE02AF037C007D0A1223B974312D9B
:0F62EC00F58274003CF583E0900001F0025EB48F
:066357007B017A057927A5
:10635D00126B7E12232D2431F582E43400F583E097
:10636D00900004F09000011223462431F582E434AC
:10637D0000F583E0900003F09000021223462431D3
:10638D00F582E43400F583E0900002F090000312F2
:10639D0023462431F582E43400F583E0900001F0CA
:0363AD00025EB4D9
:10440800126B7E9000AEE060179005097401F0A36E
:104418007400F0A374AEF07B017A0079301236BFD5
:104428009000A6E060179005097401F0A37400F0ED
:10443800A374A6F07B017A00792C1236BF90009EF7
:10444800E060179005097401F0A37400F0A3749E4E
:10445800F07B017A0079281236BF900096E0601749
:104468009005097401F0A37400F0A37496F07B0121
:104478007A0079241236BF90008EE0601790050903
:104488007401F0A37400F0A3748EF07B017A0079B4
:10449800201236BF900086E060179005097401F07D
:1044A800A37400F0A37486F07B017A00791C12369D
:1044B800BF90007EE060179005097401F0A37400B6
:1044C800F0A3747EF07B017A0079181236BF900051
:1044D80076E060179005097401F0A37400F0A374E6
:1044E80076F07B017A0079141236BF90006EE06096
:1044F800179005097401F0A37400F0A3746EF07BA3
:10450800017A0079101236BF900066E060179005B6
:10451800097401F0A37400F0A37466F07B017A00BB
:10452800790C1236BF90005EE0601790050974019F
:10453800F0A37400F0A3745EF07B017A007908128E
:1045480036BF900056E060179005097401F0A37417
:1045580000F0A37456F07B017A0079041236BF226A
:1036BF00900506EBF0A3EAF0A3E9F0A3E0FBA3E08B
:1036CF00FAA3E0F99000011223462431F582E43485
:1036DF0000F583E0FF900506E0FBA3E0FAA3E0F915
:1036EF00EF122373900509E0FBA3E0FAA3E0F99032
:1036FF0000021223462431F582E43400F583E0FF03
:10370F00900506E0FBA3E0FAA3E0F990FFFFEF12AC
:10371F002385900509E0FBA3E0FAA3E0F9900003ED
:10372F001223462431F582E43400F583E0FF90053F
:10373F0006E0FBA3E0FAA3E0F990FFFEEF1223856A
:10374F00900509E0FBA3E0FAA3E0F990000412232F
:10375F00462431F582E43400F583E0FF900506E05E
:10376F00FBA3E0FAA3E0F990FFFDEF12238590058C
:10377F0009E0FBA3E0FAA3E0F990000512234654F9
:10378F000F24FD603614700302382224FD700302EB
:10379F00386714700302387A240660030238939056
:1037AF000506E0FBA3E0FAA3E024FDF9EA34FFFAF3
:1037BF0012232D4480122373023867900506E0FB15
:1037CF00A3E0FAA3E024FDF9EA34FFFA12232D4413
:1037DF0080122373900506E0FBA3E0FAA3E024FE1A
:1037EF00F9EA34FFFA12232D448012237390050651
:1037FF00E0FBA3E0FAA3E024FFF9EA34FFFA122377
:10380F002D4480122373900506E0FBA3E0FAA3E09A
:10381F00F98069900506E0FBA3E0FAA3E024FDF927
:10382F00EA34FFFA12232D4480122373900506E029
:10383F00FBA3E0FAA3E024FEF9EA34FFFA12232DEA
:10384F004480122373900506E0FBA3E0FAA3E02463
:10385F00FFF9EA34FFFA8024900506E0FBA3E0FAB3
:10386F00A3E024FEF9EA34FFFA8011900506E0FB8D
:10387F00A3E0FAA3E024FDF9EA34FFFA12232D4462
:05388F008012237322EA
:1055E6009004F8EBF0A3EAF0A3E9F0A3E0FBA3E054
:1055F600FAA3E0F912232DFF9004F8E0FBA3E0FAEA
:10560600A3E0F9EF1223739004FBE0FBA3E0FAA3F7
:10561600E0F9900001122346FF9004F8E0FBA3E0B6
:10562600FAA3E0F9900001EF1223859004FBE0FB5A
:10563600A3E0FAA3E0F9900002122346FF9004F8D3
:10564600E0FBA3E0FAA3E0F9900002EF12238590B5
:1056560004FBE0FBA3E0FAA3E0F990000312234663
:10566600FF9004F8E0FBA3E0FAA3E0F9900003EF53
:105676001223859004FBE0FBA3E0FAA3E0F9900077
:1056860004122346FF9004F8E0FBA3E0FAA3E0F936
:10569600900004EF1223859004FBE0FBA3E0FAA33D
:1056A600E0F9900007122346FF9004F8E0FBA3E020
:0B56B600FAA3E0F9900005EF02238545
:096550002456F974003EFA7B01A7
:1065590012232D90000812238590000112234690E2
:10656900000912238590000212234690000A122383
:106579008590000312234690000B12238590000496
:1065890012234690000C1223859000051223469091
:05659900000D02238546
:09659E002456F974003EFA7B0159
:1065A7009000081223461223739000091223469085
:1065B700000112238590000A12234690000212233D
:1065C7008590000B12234690000312238590000C40
:1065D70012234690000412238590000D1223469043
:0565E700000502238500
:10411C0078FC7C047D017BFF7A71794A7E007F08F4
:10412C00122307E4900504F0A3F0127677900504AF
:10413C00EFF012766B900505EFF01276659004FAAD
:10414C00EFF012765F9004FBEFF01276F59004FB23
:10415C00E0FE9004FAE0FDC39E500AEF9D4006EE8F
:10416C006003E0701B9004FBE06003024297900434
:10417C00FAE0FE7003024297EFD39E50030242977F
:10418C00E49004F8F09004F8E0FFC3940A5022EF96
:10419C0075F008A42456F582740035F0F583E070B0
:1041AC00089004F8E0A3F080089004F8E004F08094
:1041BC00D4E49004F8F09004F9E024FFFFE434FF19
:1041CC00FEEF7803C333CE33CED8F9FF9004F8E07A
:1041DC00FD7A002FFFEA3EFE74562FF58274003EE6
:1041EC00F583E0FF74FC2DF582E43404F583EFF0E5
:1041FC009004F8E004F0E0B406BC9004F9E09004FC
:10420C00F8F09004F8E0FFD39401401DEF24FEFF7A
:10421C00E434FFFEEF7803C333CE33CED8F9126506
:10422C00509004F8E014F080D9E49004F8F0900475
:10423C00F8E0FF24FCF582E43404F583E0FE7456C8
:10424C002FF582E43400F583EEF09004F8E004F0EE
:10425C00E0B406DA124408125EB4E4FF1276FB9066
:10426C000504E0B401257B017A007956900056E0F4
:10427C00FD90050AE4F0A3EDF090005BE0540F9084
:0B428C00050CF0900505E0FF123A5E03
:014297002204
:103DC400E49004FFF0A3F01276659004FAEFF01289
:103DD400765F9004FBEFF01276F59004FCEFF0129E
:103DE40076599004FDEFF01276539004FEEFF01232
:103DF4007671900500EFF09004FAE0FFA3E0FEC3B3
:103E04009F500EA3E09E4009EF60069004FBE07013
:103E14001A9004FAE06003023F72A3E0FF70030209
:103E24003F72A3E0D39F5003023F72E49004F8F082
:103E3400A3F09004FDE024FFFFE434FFFE9004F8B7
:103E4400E0FCA3E0FDC39FEC9E501FEDAE0478039D
:103E5400C333CE33CED8F912659E9004F9E004F052
:103E640070D09004F8E004F080C89004FDE024FFD2
:103E7400FFE434FFFEEF7803C333CE33CED8F9FF2B
:103E84009004F8EEF0A3EFF09004FDE075F008A4C0
:103E9400FF9004F8E0FCA3E0FDC39FEC95F0501CF8
:103EA40074562DF58274003CF583E4F09004F9E037
:103EB40004F070D49004F8E004F080CC12440812AA
:103EC4005EB4E4FF1276FB900056E07004FF0276C5
:103ED4004D9004FEE064026003023F72900500E02E
:103EE4009005B0F0D394014060900056E0FF900537
:103EF400BAE4F0A3EFF090005BE0540F9005BCF03F
:103F04009004FFE09005B1F0E49004F8F0A3F09081
:103F140004F8E0FEA3E0FF2456F58274003EF58326
:103F2400E0FD74B22FF582E43405F583EDF09004DE
:103F3400F9E004F070069004F8E004F09004F8E06E
:103F44007004A3E0640870C7227B017A007956905C
:103F54000056E0FD90050AE4F0A3EDF090005BE06C
:0E3F6400540F90050CF09004FFE0FF123A5E3F
:013F7200222C
:10605C00E49004D0F01276599004D0EFF0E4FDFCFB
:10606C009004D0E024FFFFE434FFFEC3ED9FEC9ED0
:10607C005016EDAE047803C333CE33CED8F9126587
:10608C009E0DBD00010C80D89004D0E024FFFFE4ED
:10609C0034FFFEEF7803C333CE33CED8F9FDAC0614
:1060AC009004D0E075F008A4FFC3ED9FEC95F05080
:1060BC001374562DF58274003CF583E4F00DBD008D
:1060CC00010C80DC9005BDE014F0124408125EB4A3
:0A60DC00900056E07004FF12764DAC
:0160E6002297
:105A060078D17C047D017BFF7A7179527E007F0616
:105A16001223071276599004D0EFF0127659AD078B
:105A2600E4FCECC39D501CEC75F008A42456F582EA
:105A3600740035F0F583E070079004D0ECF0800335
:105A46000C80DFE4FC74562CF582E43400F583E028
:105A5600FF74D12CF582E43404F583EFF00CECB43A
:105A660006E3E4FC9004D0E0FFECC39F5015EC7510
:105A7600F008A42456F9740035F0FA7B011265A7E4
:105A86000C80E1E4FC74D12CF582E43404F583E067
:105A9600FD9004D0E024FFFFE434FFFEEF7803C35B
:105AA60033CE33CED8F9FFEC7A002FFFEA3EFE74F0
:105AB600562FF58274003EF583EDF00CECB406C566
:065AC600124408025EB468
:1054ED0078D27C047D017BFF7A7179587E007F062E
:1054FD001223071276599004D1EFF0127659AD07A9
:10550D00E49004D0F09004D0E0FFC39D5022EF75DD
:10551D00F008A42456F582740035F0F583E0700888
:10552D009004D0E0A3F080089004D0E004F080D582
:10553D00E49004D0F09004D1E024FFFFE434FFFEAA
:10554D00EF7803C333CE33CED8F9FF9004D0E0FD0E
:10555D007A002FFFEA3EFE74562FF58274003EF559
:10556D0083E0FF74D22DF582E43404F583EFF090DF
:10557D0004D0E004F0E0B406BC9004D1E09004D077
:10558D00F09004D0E0FFD39401401DEF24FEFFE422
:10559D0034FFFEEF7803C333CE33CED8F912655006
:1055AD009004D0E014F080D9E49004D0F09004D0B1
:1055BD00E0FF24D2F582E43404F583E0FE74562F27
:1055CD00F582E43400F583EEF09004D0E004F0E0D1
:0955DD00B406DA124408025EB4BF
:0B3491009004F8EBF0A3EAF0A3E9F0D0
:10349C0078047C057D017BFF7A71795E7E007F0666
:1034AC00122307127659900500E4F0A3EFF0127680
:1034BC0059900502E4F0A3EFF0E49004FEF0A3F0C1
:1034CC00900502E0FEA3E0FF9004FEE0FCA3E0FD0B
:1034DC00C39FEC9E40030235D7EDAE047803C33393
:1034EC00CE33CED8F9FF9004FBE0FBA3E0FAA3E0C7
:1034FC002FF9EA3EFA900001122346FD9004F8E001
:10350C00FBA3E0FAA3E0F99000011223466D6003DF
:10351C000235C39004FBE0FBA3E0FAA3E02FF9EA29
:10352C003EFA900002122346FF9004F8E0FBA3E061
:10353C00FAA3E0F99000021223466F707A9004FE11
:10354C00E0FEA3E07803C333CE33CED8F9FF90046A
:10355C00FBE0FBA3E0FAA3E02FF9EA3EFA900003AC
:10356C00122346FD9004F8E0FBA3E0FAA3E0F990E7
:10357C000003122346B5053F9004FBE0FBA3E0FAE1
:10358C00A3E02FF9EA3EFA900004122346FF9004C0
:10359C00F8E0FBA3E0FAA3E0F9900004122346B58F
:1035AC0007159005BDE014F09004FEE0FFA3E0A326
:1035BC00CFF0A3EFF080149004FFE004F06003025E
:1035CC0034CC9004FEE004F00234CC900500E070A2
:1035DC0002A3E070081273FFE49005B0F0900500B0
:1035EC00E0FFA3E09004FECFF0A3EFF0900502E023
:1035FC00FEA3E0FF9004FEE0FCA3E0FDC39FEC9E65
:10360C00502FEDAE047803C333CE33CED8F9FF90F0
:10361C0004FBE0FBA3E0FAA3E02FF9EA3EFA126503
:10362C00A79004FFE004F070C39004FEE004F08067
:10363C00BB900502E0FEA3E0FF900500E06E700376
:10364C00A3E06F6059E49004FEF0A3F09004FEE058
:10365C00FCA3E0FDC39406EC94005042900503E0FB
:10366C0024FFFF900502E034FFFEEF7803C333CE56
:10367C0033CED8F9FF9004FBE0FBA3E0FAA3E02FD4
:10368C00F9EA3EFAE92DF9EA3CFAE41223739004C4
:10369C00FFE004F070B69004FEE004F080AE9004FD
:1036AC00FBE0FBA3E0FAA3E0F912232D7004FF1258
:0236BC00764D49
:0136BE0022E9
:0B4298009004F8EBF0A3EAF0A3E9F0BB
:1042A30078FF7C047D017BFF7A7179647E007F0651
:1042B3001223071276599004FEEFF0127659AD07D8
:1042C300E4FCECC39D40030243A5EC75F008A4FF96
:1042D3009004FBE0FBA3E0FAA3E02FF9EA35F0FA40
:1042E300900001122346FF9004F8E0FBA3E0FAA339
:1042F300E0F99000011223466F60030243A1EC75BD
:10430300F008A4FF9004FBE0FBA3E0FAA3E02FF97D
:10431300EA35F0FA900002122346FF9004F8E0FB1E
:10432300A3E0FAA3E0F99000021223466F706FEC4A
:1043330075F008A4FF9004FBE0FBA3E0FAA3E02FD1
:10434300F9EA35F0FA900003122346FF9004F8E0EF
:10435300FBA3E0FAA3E0F99000031223466F703E3B
:10436300EC75F008A4FF9004FBE0FBA3E0FAA3E0E4
:104373002FF9EA35F0FA900004122346FF9004F86F
:10438300E0FBA3E0FAA3E0F9900004122346B5078B
:104393000D9005BDE014F09004FEECF080040C02D7
:1043A30042C59004FEE0FCECC39D501CEC75F00884
:1043B300A4FF9004FBE0FBA3E0FAA3E02FF9EA35A6
:1043C300F0FA1265A70C80DF9004FEE06D6035E41F
:1043D300FCED24FFFFE434FFFEEF7803C333CE3359
:1043E300CED8F9FF9004FBE0FBA3E0FAA3E02FF99A
:1043F300EA3EFAEC7E0029F9EE3AFAE41223730C52
:04440300ECB406CD42
:014407002292
:106F6300E4FF1276CBE49005BDF0EFB40107D2CD78
:106F730012696F8003123F731276D1BF010312753A
:036F830068C2974A
:016F860022E8
:05000600E4FF02716A35
:1071A8007F0112716A1276BFBF0112127689BF0180
:0E71B8000C7F6F7E00126A43E4FF1276C52240
:1071C6007F0212716A1276BFBF0112127689BF0161
:0E71D6000C7F707E0012688FE4FF1276C522D7
:1071E4007F0312716A1276BFBF0112127689BF0142
:0E71F4000C7F717E0012688FE4FF1276C522B8
:107202007F0412716A1276BFBF0112127689BF0122
:0E7212000C7F727E0012688FE4FF1276C52298
:107220007F0512716A1276BFBF0112127689BF0103
:0E7230000C7F737E0012688FE4FF1276C52279
:10723E007F0612716A1276BFBF0112127689BF01E4
:0E724E000C7F747E0012688FE4FF1276C5225A
:10725C007F0712716A1276BFBF0112127689BF01C5
:0E726C000C7F757E0012688FE4FF1276C5223B
:10727A007F0812716A1276BFBF0112127689BF01A6
:0E728A000C7F767E0012688FE4FF1276C5221C
:107298007F0912716A1276BFBF0112127689BF0187
:0E72A8000C7F777E0012688FE4FF1276C522FD
:05001E007F0A02716A77
:05776D007F0B02716AB0
:057772007F0C02716AAA
:0D000E007F0D12716AE4FF127573D2CD22CE
:10663A001276D7BF0108123F737F021276DD1276F7
:10664A00D7EF6403703112768FEF7012900008F062
:10665A00900007F0900006F0900005F08011E49099
:10666A00000CF090000BF090000AF0900009F01274
:0A667A005EB4E4FF1276DD025F411A
:1068C9001276D7BF0108123F737F021276DD127666
:1068D900D7BF032112768FEF700A90000AF090005B
:1068E90009F08009E4900008F0900007F0125EB406
:0868F900E4FF1276DD025F41AD
:106901001276D7BF0108123F737F021276DD12762D
:10691100D7BF032112768FEF700A90000CF0900020
:106921000BF08009E4900006F0900005F0125EB4CF
:08693100E4FF1276DD025F4174
:106F87001276D7BF0108123F737F021276DD1276A1
:106F9700D7BF030DE490000DF0125EB4E4FF127644
:046FA700DD025F4167
:106BA7001276D7BF0108123F737F021276DD127685
:106BB700D7BF0311E4900004F0900003F0125EB415
:086BC700E4FF1276DD025F41DC
:106A70001276CBEFB401057F0102764D1276D7BFB7
:106A80000108123F737F021276DD1276D7BF030D25
:106A9000E4900002F0125EB0E4FF1276DD125F4176
:016AA00022D3
:107439007F01127189E4900527F0A3F0A3F0A3045A
:02744900F0222F
:10744B007F02127189E4900531F0A3F0A3F0A3043D
:02745B00F0221D
:10745D007F03127189E490053CF0A3F0A3F0A3041F
:02746D00F0220B
:10746F007F04127189E4900548F0A3F0A3F0A30400
:02747F00F022F9
:107481007F01127189E490052CF0A3F0A3F0A3040D
:02749100F022E7
:107493007F02127189E4900537F0A3F0A3F0A304EF
:0274A300F022D5
:1074A5007F03127189E4900543F0A3F0A3F0A304D0
:0274B500F022C3
:1074B7007F04127189E490054EF0A3F0A3F0A304B2
:0274C700F022B1
:057777007F0102718991
:05777C007F020271898B
:0875B800E4FF12765F026AA1F4
:0875C000E4FF127665026AA1E6
:057781007F0102718987
:057786007F0202718981
:05778B007F030271897B
:057790007F0402718975
:057795007F050271896F
:05779A007F010271896E
:05779F007F0202718968
:0577A4007F0302718962
:0577A9007F040271895C
:0E754C007F011271891276B39003A0EFF02236
:0577AE007F0202718959
:0577B3007F0102718955
:0577B8007F020271894F
:1072EF00E4FFFEFDFC1275AFAC06AD077E277F10E5
:0A72FF001223B9AC06AD0702629C31
:0875C800E4FF1276D1027354B6
:0875D000E4FF1276CB027354B4
:1065000012770D9004D0EFF0D394145031E0FAC319
:10651000940450028019EAD3941250139004D0E0EE
:10652000C3132485F582E43403F583E0FF80027F02
:10653000FF1266CE30A4077F3C7E00126A439004AF
:0F654000D0E0D394144006126B7E125EB4C2CD2D
:01654F002229
:1070C3001276D7BF01081263577F021276DD12765C
:1070D300D7BF030DE4900004F0125EB4E4FF127610
:0270E300DD22AC
:1070E5001276D7BF01081263577F021276DD12763A
:1070F500D7BF030DE4900003F0125EB4E4FF1276EF
:02710500DD2289
:107107001276D7BF01081263577F021276DD127617
:10711700D7BF030DE4900002F0125EB4E4FF1276CD
:02712700DD2267
:100026001276D7BF01081263577F021276DD127669
:0D003600D7BF0308125EAFE4FF1276DD2293
:106BCF001276D7BF010E7B017A05793112635D7F93
:106BDF00021276DD1276D7BF030DE4900004F01297
:086BEF005EB4E4FF1276DD2222
:106BF7001276D7BF010E7B017A05793112635D7F6B
:106C0700021276DD1276D7BF030DE4900003F0126F
:086C17005EB4E4FF1276DD22F9
:106C1F001276D7BF010E7B017A05793112635D7F42
:106C2F00021276DD1276D7BF030DE4900002F01248
:086C3F005EB4E4FF1276DD22D1
:106FCE001276D7BF010E7B017A05793112635D7F90
:106FDE00021276DD1276D7BF0308125EAFE4FF12FF
:036FEE0076DD222B
:106C47001276D7BF010E7B017A05793C12635D7F0F
:106C5700021276DD1276D7BF030DE4900004F0121E
:086C67005EB4E4FF1276DD22A9
:106C6F001276D7BF010E7B017A05793C12635D7FE7
:106C7F00021276DD1276D7BF030DE4900003F012F7
:086C8F005EB4E4FF1276DD2281
:106C97001276D7BF010E7B017A05793C12635D7FBF
:106CA700021276DD1276D7BF030DE4900002F012D0
:086CB7005EB4E4FF1276DD2259
:106FF1001276D7BF010E7B017A05793C12635D7F62
:10700100021276DD1276D7BF0308125EAFE4FF12DB
:0370110076DD2207
:106CBF001276D7BF010E7B017A05794812635D7F8B
:106CCF00021276DD1276D7BF030DE4900004F012A6
:086CDF005EB4E4FF1276DD2231
:106CE7001276D7BF010E7B017A05794812635D7F63
:106CF700021276DD1276D7BF030DE4900003F0127F
:086D07005EB4E4FF1276DD2208
:106D0F001276D7BF010E7B017A05794812635D7F3A
:106D1F00021276DD1276D7BF030DE4900002F01257
:086D2F005EB4E4FF1276DD22E0
:107014001276D7BF010E7B017A05794812635D7F32
:10702400021276DD1276D7BF0308125EAFE4FF12B8
:0370340076DD22E4
:106D37001276D7BF010E7B017A05792C12635D7F2E
:106D4700021276DD1276D7BF030DE4900004F0122D
:086D57005EB4E4FF1276DD22B8
:106D5F001276D7BF010E7B017A05792C12635D7F06
:106D6F00021276DD1276D7BF030DE4900003F01206
:086D7F005EB4E4FF1276DD2290
:106D87001276D7BF010E7B017A05792C12635D7FDE
:106D9700021276DD1276D7BF030DE4900002F012DF
:086DA7005EB4E4FF1276DD2268
:107037001276D7BF010E7B017A05792C12635D7F2B
:10704700021276DD1276D7BF0308125EAFE4FF1295
:0370570076DD22C1
:106DAF001276D7BF010E7B017A05793712635D7FAB
:106DBF00021276DD1276D7BF030DE4900004F012B5
:086DCF005EB4E4FF1276DD2240
:106DD7001276D7BF010E7B017A05793712635D7F83
:106DE700021276DD1276D7BF030DE4900003F0128E
:086DF7005EB4E4FF1276DD2218
:106DFF001276D7BF010E7B017A05793712635D7F5B
:106E0F00021276DD1276D7BF030DE4900002F01266
:086E1F005EB4E4FF1276DD22EF
:10705A001276D7BF010E7B017A05793712635D7FFD
:10706A00021276DD1276D7BF0308125EAFE4FF1272
:03707A0076DD229E
:106E27001276D7BF010E7B017A05794312635D7F26
:106E3700021276DD1276D7BF030DE4900004F0123C
:086E47005EB4E4FF1276DD22C7
:106E4F001276D7BF010E7B017A05794312635D7FFE
:106E5F00021276DD1276D7BF030DE4900003F01215
:086E6F005EB4E4FF1276DD229F
:106E77001276D7BF010E7B017A05794312635D7FD6
:106E8700021276DD1276D7BF030DE4900002F012EE
:086E97005EB4E4FF1276DD2277
:10707D001276D7BF010E7B017A05794312635D7FCE
:10708D00021276DD1276D7BF0308125EAFE4FF124F
:03709D0076DD227B
:106E9F001276D7BF010E7B017A05794E12635D7FA3
:106EAF00021276DD1276D7BF030DE4900004F012C4
:086EBF005EB4E4FF1276DD224F
:106EC7001276D7BF010E7B017A05794E12635D7F7B
:106ED700021276DD1276D7BF030DE4900003F0129D
:086EE7005EB4E4FF1276DD2227
:106EEF001276D7BF010E7B017A05794E12635D7F53
:106EFF00021276DD1276D7BF030DE4900002F01276
:086F0F005EB4E4FF1276DD22FE
:1070A0001276D7BF010E7B017A05794E12635D7FA0
:1070B000021276DD1276D7BF0308125EAFE4FF122C
:0370C00076DD2258
:0875D800E4FF12765302735424
:0875E000E4FF127659026AA1D2
:0875E800E4FF12766B027354FC
:0875F000E4FF127671027354EE
:0875F800E4FF127677027354E0
:1072B600E49004D0F012767D9004D0EFF075F003E0
:0D72C600A4FF1271299004D0E0FF02735460
:08760000E4FF127683027354CB
:1074C900E4FF12769BEFC3940A50030273541273BC
:0174D9008131
:0174DA00228F
:08760800E4FF1276A1027354A5
:08761000E4FF1276A702735497
:08761800E4FF1276AD02735489
:10685500E49004D0F01276B39004D0EFF0127354A4
:106865009003A0E0FF9004D0E06F601D1262FB90E2
:1068750004D0E09003A0F01276BFBF010C7F797EB3
:0968850000126A43E4FF1276C51B
:01688E0022E7
:10693900E49004D0F01276B99004D0EFF0126AA175
:106949001276BFBF010D9004D0E02442FFE433FE6C
:1069590012688F127761BF010C7F797E0012688FF0
:05696900E4FF12776756
:01696E002206
:1065EC00E49004D0F0A3F012766B9004D0EFF0128C
:1065FC0076959004D1EFF0900056E0B4340A30A4B4
:10660C00077F687E00126A43D2CD9004D1E07003FC
:10661C00D297221276D7BF0107D2977F021276DD6E
:0D662C001276D7BF0307C297E4FF1276DD98
:01663900223E
:0577BD007F0602718946
:08762000E4FF127689027354A5
:0577C2007F0702718940
:08762800E4FF12768F02735497
:0577C7007F080271893A
:08763000E4FF12769502735489
:0577CC007F0E02716A4E
:1073AD007F01127189E4900392F0A3F0900376F0BF
:0573BD009005D8F0224C
:1074DB007F02127189E490039EF0A3F0900391F068
:0174EB00227E
:105ACC00900376E0707A1276D7BF0113126B7E903A
:105ADC0000027480F0A3F0125EB47F021276DD1225
:105AEC0076D7BF030B126B7E125EB4E4FF1276DD29
:105AFC00900392E0FCA3E0FD7B017A0479D0900541
:105B0C001A7408F07FA012616D7FAA127594E4904C
:105B1C0004D8F09004D8E0FFC39408501774D02F29
:105B2C00F582E43404F583E0FF1275949004D8E018
:105B3C0004F080DF7F551275949003767401F02287
:105B4C00900376E0FFB40224900393E02408F090D5
:105B5C000392E03400F0E0B4150CA3E0B4600790BD
:105B6C0003767403F022E4900376F022EFB4031270
:105B7C00126B7E9000017480F0A3F0A3F0A3F012DE
:025B8C005EB405
:015B8E0022F4
:105D8800900391E0B4013190039EE0FCA3E0FD7B19
:105D9800017A03799590050F7408F07FA012646961
:105DA80090039FE02408F090039EE03400F0E49014
:105DB8000391F07FAA12759490039EE07002A3E00D
:105DC800700A126B7E9000017480801A90039EE026
:105DD800B41517A3E0B46012126B7E9000017480B2
:105DE800F0A3F0A3F0A3F0025EB41276D7BF0113BC
:105DF800126B7E9000027480F0A3F0125EB47F02F2
:105E08001276DD1276D7BF030B126B7E125EB4E4F6
:055E1800FF1276DD22FF
:102167004106010041060A00410607004106080032
:10217700410602004105FF0041060C00410604002C
:10218700410600004106060041060500410603001E
:0821970041060B00410609009E
:10751F00438901758C3C758AB0D2AFD2A9D28C2227
:0E755A00438910758DFF758B9CD2AFD2AB228A
:03000B000247FAAF
:1047FA00C0E0C0F0C083C082C0D075D000C000C085
:0D480A0001C002C003C004C005C006C00705
:1048170090051EE4F0A3F0C28D758C3C758AB0122A
:10482700764790051EEFF01276CB90051FEFF090BC
:104837000601E004F0E0B40A1990060AE004F090DB
:104847000606E004F0900601E4F0900605E0600239
:1048570014F090060AE0C394044002E4F0900606C0
:10486700E0C394184002E4F0900603E0600214F0FD
:10487700900607E0B40104A3E004F0127749BF01F2
:1048870014900602E004F0E0D39478400812774FC2
:10489700900602E4F0900609E0B4011590060BE0DB
:1048A70004F0E0D394784009900609E4F090060BF1
:1048B700F090051EE0FFB45F159005FFE004F0E0FF
:1048C700B4140B90060CE004F09005FFE4F0EF64DD
:1048D7005F602590051EE0FF6431601CEF6469602E
:1048E70017EF646A6012900604E004F0E0D394C8FE
:1048F7004006E4F0FF12764D90051EE07015A3E028
:10490700B40210900600E004F0E0C3940A4004B239
:03491700CDE4F0FC
:10491A00D007D006D005D004D003D002D001D000F1
:0B492A00D0D0D082D083D0F0D0E0329B
:03001B000264AFCD
:1064AF00C0E0C0F0C083C082C0D075D000C000C0B3
:0D64BF0001C002C003C004C005C006C00734
:1064CC00E4FF127647C28F758DFF758B9CEFB42E4F
:0964DC00051231E38003124BA507
:1064E500D007D006D005D004D003D002D001D0000B
:0B64F500D0D0D082D083D0F0D0E032B5
:0576D70090060AE0FF2F
:0176DC00228B
:0676DD0090060AEFF02206
:0676E300900607EFF02203
:0576E900900608E0FF1F
:0176EE002279
:0676EF00E4900608F02201
:0576F50090060CE0FF0F
:0176FA00226D
:0676FB0090060CEFF022E6
:06770100E4900604F022F2
:06770700900608EFF022DD
:05770D00900606E0FFFC
:017712002254
:0B757300900606EFF0E4900601F02205
:05771300900605E0FFF7
:01771800224E
:0B757E00900605EFF0E4900601F022FB
:05771900900603E0FFF3
:01771E002248
:06771F00900603EFF022CA
:06772500E4900602F022D0
:06772B00E490060BF022C1
:06773100900609EFF022B2
:05773700900609E0FFCF
:01773C00222A
:0B219F004805DF140F09040C220006A5
:04675E00E0FD7F8A51
:10676200D2A0EF54FEFFE4FEEF30E004D2A180029B
:10677200C2A1D2A2C2A2EFC313FF0EEEB408E9E493
:10678200FEED30E004D2A18002C2A1D2A2C2A2EDEB
:0A679200C313FD0EEEB408E9C2A027
:01679C0022DA
:10679D00D2A0EF4401FFE4FDEF30E004D2A180026E
:1067AD00C2A1D2A2C2A2EFC313FF0DEDB408E9E45A
:1067BD00FDEEC313FE30A1054480FE8004EE547F30
:0E67CD00FED2A2C2A20DEDB408E7C2A0AF0634
:0167DB00229B
:105F4100E4FF74DF2FF582E43405F583E0FE75F09C
:105F51000A84FDEE75F00A8474E72FF582E43405B6
:105F6100F583E5F0F0EDC454F0FE74E72FF582E41B
:105F71003405F583E02EF00FEFB408C6E4FD7F8E03
:105F81001267627D807F801267629005E8E0FD7F85
:105F91008C126762A3E0FD7F88126762A3E0FD7F38
:105FA100861267629005EE12675E9005EBE0FD7F59
:105FB10084126762A3E0FD7F82126762A3E0FD7F26
:0F5FC10080126762A312675E7D807F8E02676227
:1060E7007F8C12679D9005E8EFF07F8812679DA36C
:1060F700EFF07F8612679DA3EFF07F8412679DA361
:10610700EFF07F8212679DA3EFF07F8012679DEF0C
:10611700547FA3F07F8A12679DA3EFF0E4FF74E733
:106127002FF582E43405F583E0FEC4540FFDEE54E9
:106137000FFE74DF2FF582E43405F583EEF0ED757D
:10614700F00AA4FE74DF2FF582E43405F583E02E10
:06615700F00FEFB408C8D0
:01615D00221F
:0B758900C2A0C2A2E4FD7F8002676286
:1021AA0041059D0041059C004105A2004105A5008D
:1021BA004105AC0041059100410590004305A90085
:1021CA0000004205A300464205A7007842058D009B
:1021DA000042058B000042059A000042059E004617
:1021EA004205A000784205AE000041058F00410576
:1021FA00AD004105A6004105920041059600430540
:0A220A009300000043059700000058
:07764000D2AFD2A8D28822CC
:030003000276384A
:08763800C2A8208E02D28E329E
:1072D300E490059DF090059CF09005A5F09005A223
:0C72E300F09005ACF0900590F0A3F022B4
:104BA50030B2059005A580039005A2E004F09005BC
:104BB50091E004F0E0D394A07480948F4007C28EF6
:104BC500D2A80272D3900590E01460351460691480
:104BD5007003024C6424036003024CD49005A5E0E5
:104BE500D394004003024CD49005A2E0D3944650E0
:104BF50003024CDB900590E004F0E49005A5F080FD
:104C0500329005A5E0FFFD9005A2E02DFDE433FC03
:104C1500D3ED948CEC648094804003024CD4EFD3A4
:104C250094015003024CDB30A802C2A8900590E025
:104C350004F0E49005A2F0229005A2E0D39401408F
:104C4500139005A5E090059DF0E49005A5F090056D
:104C550090E004F09005A5E0D39419407980709018
:104C650005A5E0D39401405C9005A2E0FF90059C6A
:104C7500F0E49005A2F09005907402F09005ACE088
:104C8500131313541FFE24A9F582E43405F583E0BC
:104C9500FD25E0F090059DE0D39F400E74A92EF50B
:104CA50082E43405F583E04401F09005ACE004F0BE
:104CB500E0D39417400EC28E1272D390058F740103
:104CC500F0D2A8229005A2E0D394194009800012E1
:074CD50072D3D2A8C28E22A7
:10456800E49004F8F01276479004F8EFF090058F85
:10457800E0640160030246B2F0C2A89005A6E01408
:1045880060270460030246B09005A9E0900593F007
:104598009005AAE0900594F09005ABE0900595F0A1
:1045A8009005A67401F00246B09005A9E0FF9005B9
:1045B80093E06F60030246989005AAE0FE90059488
:1045C800E06E60030246989005ABE0FD900595E02B
:1045D8006D6003024698900597E06F7012A3E06E35
:1045E800700DA3E0B50508900592E0702380009057
:1045F80005A9E0900597F09005AAE0900598F0903D
:1046080005ABE0900599F09005AD7401F01277259F
:104618009005927401F0127701900598E0FFE4FC90
:10462800FDFE7808122435C004C005C006C00790F6
:104638000597E0FFE4FCFDFE7810122435D003D086
:1046480002D001D000EF4BFBEE4AFAED49F9EC48F5
:10465800F8900599E0FFEB4FFFEAFEE9FDE8FC7BE7
:10466800017A0479F91256C1EF600D90059674012C
:10467800F0FF1276C5127701E49005A9F0A3F0A324
:10468800F0900593F0A3F0A3F0E49005A6F080184D
:104698009005A9E0900593F09005AAE0900594F0A4
:0A46A8009005ABE0900595F0D2A854
:0146B20022E5
:1031E30030B2059005A580039005A2E004F0900598
:1031F30091E004F0E0D394A07480948F4006C28ED3
:10320300D2A88027900590E014605A14700302320C
:10321300F7147003023342240360030234899005D8
:10322300A5E0D394004007D2A8C28E0272D39005C2
:103233008DE0FEA3E0FF7C007D0F1223A7EF243C6B
:10324300FFE43EFE9005A2E0D39FEC9E50030234C0
:1032530090900590E004F09005A3EEF0A3EFF0E466
:10326300A3F00232F290058BE0FEA3E0FF7C007D29
:103273000F1223A7EF2478FFE43EFE9005A5E0F9A3
:10328300FD9005A2E02DFDE433FCD3ED9FEC9E40C1
:1032930022E9701C90058CE004F0700690058BE029
:1032A30004F090058EE004F0700690058DE004F0C4
:1032B300023489E9D39401500302349090058BE0E2
:1032C300FEA3E0FF7C007D0F1223A7EF2478FFE429
:1032D3003E9005A7F0A3EFF0E490058BF0A3F0A3D5
:1032E300F0A3F030A802C2A8900590E004F0E490A7
:1032F30005A2F0229005A2E0D3940040139005A507
:10330300E090059DF0E49005A5F0900590E004F0B1
:103313009005A3E0FEA3E0FF9005A8E02FFF900532
:10332300A7E03EFEEF7803CEC313CE13D8F9FF9088
:1033330005A5E0D39FE49E500302349002348990A4
:1033430005A5E0D39400500302345E9005A2E0FF8C
:1033530090059CF0E49005A2F09005907402F09023
:1033630005ACE0131313541FFE24A9F582E43405BE
:10337300F583E025E0F090059DE0FDD39F400E74BA
:10338300A92EF582E43405F583E04401F09005AC01
:10339300E004F0E0D39417500302345EC28E90052C
:1033A3009CE02DFEE43390059AF0A3CEF01272D385
:1033B3009005AFE004F070069005AEE004F09005D0
:1033C300A7E0FEA3E0FF9005A1E02FF09005A0E0A9
:1033D3003EF0E0C313FEA3E013FF9005A7EEF0A3B6
:1033E300EFF09005A0EEF0A3EFF0D39005AFE094DB
:1033F300019005AEE09400405F90059EE0FEA3E0DF
:10340300FF9005A3E0FCA3E0FD9FFFEC9EFED3EF3E
:10341300941EEE9400401590059FE09DFF90059E3D
:10342300E09CFED3EF941EEE9400502C9005A3E095
:10343300FEA3E0FF90059FE02FF090059EE03EF095
:10344300E0C313FEA3E013FF9005A3EEF0A3EFF098
:1034530090059EEEF0A3EFF0D2A8229005A3E0FE24
:10346300A3E0FF9005A8E02FFF9005A7E03EFEEF45
:103473007803CEC313CE13D8F9FF9005A2E0D39FF0
:0E348300E49E400980001272D3D2A8C28E22AD
:05773D009005ADE0FF26
:017742002224
:06774300E49005ADF02208
:05774900900592E0FF35
:01774E002218
:06774F00E4900592F02217
:05775500900596E0FF25
:01775A00220C
:06775B00E4900596F02207
:0875AF0090059AE0FEA3E0FF45
:0175B70022B1
:102214004805BE00000000000000004105CB00445A
:1022240005C7000000004105BD004105B00041059F
:02223400C600E2
:10004600E49004E3F0A3F09004E7F09004F0F0A34A
:10005600F0A3F0A3F0A3F0A3F0A3F0A3F012764769
:100066009004F0EFF01276B39004F1EFF01276B947
:100076009004F2EFF01276539004F3EFF0127659F3
:100086009004F4EFF01276599004E7EFF012769BA5
:100096009004F5EFF012766B9004F6EFF01276719D
:1000A6009004F7EFF012456812773DEF64016003A4
:1000B600020FBC900598E0FFE4FCFDFE78081224D0
:1000C60035C004C005C006C007900597E0FFE4FCF4
:1000D600FDFE7810122435D003D002D001D000EFF7
:1000E6004BFBEE4AFAED49F9EC48F8900599E0FF2A
:1000F600EB4FFFEAFEE9FDE8FC9004DF1224B29024
:1001060004F0E024CE24FC4003020C4724FC400308
:10011600020D0724FC4003020DC724FC4003020E17
:100126008724E47003020F581470030204CD245F81
:100136006003020FB9E4FF1276FB900599E0FF54C5
:10014600F060030202D4900597E0C4540FFE9004B9
:10015600F5E06E60030202D4EEC3940A4003020285
:10016600D49004F1E0B4010CEF540F2477F582E447
:100176003403800D900599E0540F2446F582E4344B
:1001860000F583E09004E8F0900597E0FFC4540F73
:100196009004E9F0EF540FA3F0900598E0FFC454E3
:1001A6000F9004EBF0EF540FA3F0900597E0900446
:1001B600EDF0900598E09004EEF0900599E0FF9040
:1001C60004EFF09004E8E0FE64337003020258EE98
:1001D60070030202589004F7E0FED39401404C905D
:1001E60005B0EEF09004E8E0FD9005BAE4F0A3ED6A
:1001F600F0EF540FA3F09004F6E09005B1F0E49010
:1002060004E5F09004E5E0FF24E8F582E43404F523
:1002160083E0FE74B22FF582E43405F583EEF090A8
:1002260004E5E004F0E0B408DA80567B017A04794C
:10023600E89004E8E0FD90050AE4F0A3EDF09005EF
:1002460099E0540F90050CF09004F6E0FF123A5E28
:10025600802F9004FB7401F0A37400F0A37456F091
:100266007B017A0479E81234917B017A0479E8906B
:100276000599E0540F9004FCF07F92123894020A1C
:10028600FE9004F4E0FF9005BDE0C39F5003E00438
:10029600F0126B7E7B017A0479E8900599E0540FA1
:1002A6009004FCF07F911238949004FB7401F0A343
:1002B6007404F0A374E8F07B017A0079561255E6CF
:1002C600124408125EB47F5F12764D020FB97B01AD
:1002D6007A0479D79004DFE0FCA3E0FDA3E0FEA357
:1002E600E0FF1261D4EF3395E0FE9004E3F0A3EF54
:1002F600F04E7003020FB99004DFE0FCA3E0FDA30B
:10030600E0FEA3E0FF9005C7E0F8A3E0F9A3E0FA5A
:10031600A3E0FBC31224247009127737EF601F0293
:100326000FB99004DFE0FCA3E0FDA3E0FEA3E0FF2D
:100336009005C71224B212772B7F011277319004F1
:10034600E3E0FEA3E0FF64014E70089004E8743316
:10035600F08018EF64024E70089004E87434F08060
:100366000A900599E0540F9004E8F078E97C047D42
:10037600017B017A0479D77E007F0412230790055A
:1003860099E0FF9004EFF09004E8E0C39432502720
:100396009004F1E0B4010CEF540F2477F582E434B5
:1003A60003800D900599E0540F2446F582E434004D
:1003B600F583E09004E8F09004E8E0FF643370030E
:1003C600020451EF70030204519004F7E0FFD39446
:1003D6000140519005B0EFF09004E8E0FF9005BAB7
:1003E600E4F0A3EFF0900599E0540F9005BCF0906F
:1003F60004F6E09005B1F0E49004E5F09004E5E041
:10040600FF24E8F582E43404F583E0FE74B22FF5A8
:1004160082E43405F583EEF09004E5E004F0E0B400
:1004260008DA80667B017A0479E89004E8E0FD90BA
:10043600050AE4F0A3EDF0900599E0540F90050C41
:10044600F09004F6E0FF123A5E803F9004F4E0FF7D
:100456009005BDE0C39F5003E004F07B017A047968
:10046600E8900599E0540F9004FCF07F92123894BE
:100476009004FB7401F0A37400F0A37456F07B01A2
:100486007A0479E8123491020AFE126B7E7B017AB5
:100496000479E8900599E0540F9004FCF07F9112DE
:1004A60038949004FB7401F0A37404F0A374E8F08C
:1004B6007B017A0079561255E6124408125EB47F23
:1004C6005F12764D020C41E4FF1276FB900599E02F
:1004D600FF54F06003020856900597E0C4540FFEDF
:1004E6009004F5E06E6003020856EEC3940A4003DA
:1004F6000208569004F1E0B4010CEF540F2477F58E
:1005060082E43403800D900599E0540F2446F58269
:10051600E43400F583E09004E8F0900597E0FFC42A
:10052600540F9004E9F0EF540FA3F0900598E0FF04
:10053600C4540F9004EBF0EF540FA3F0900597E02E
:100546009004EDF0900598E09004EEF0900599E0A7
:10055600FF9004EFF09004F3E0640160030206D517
:100566009004E8E0FE643370030205F5EE700302C2
:1005760005F59004F7E0FED39401404C9005B0EEEB
:10058600F09004E8E0FD9005BAE4F0A3EDF0EF5436
:100596000FA3F09004F6E09005B1F0E49004E5F0C6
:1005A6009004E5E0FF24E8F582E43404F583E0FEF8
:1005B60074B22FF582E43405F583EEF09004E5E09D
:1005C60004F0E0B408DA80567B017A0479E89004F6
:1005D600E8E0FD90050AE4F0A3EDF0900599E054FB
:1005E6000F90050CF09004F6E0FF123A5E802F7B28
:1005F600017A0479E8900599E0540F9004FCF07FA5
:10060600921238949004FB7401F0A37400F0A37462
:1006160056F07B017A0479E8123491020AFE9004BE
:10062600F4E0FF9005BDE0C39F5003E004F07B01BA
:100636007A0479E8900599E0540F9004FCF07F91D4
:100646001238949004FB7401F0A37400F0A374565E
:10065600F07B017A0479E81242989004F4E0900461
:10066600E5F09004E5E0FFD394014026EF24FEFF79
:10067600E434FFFEEF7803C333CE33CED8F92456E5
:10068600F974003EFA7B011265599004E5E014F016
:1006960080D0E49004E5F09004E5E0FFC3940650B2
:1006A6001474562FF582E43400F583E4F09004E5E3
:1006B600E004F080E29004FB7401F0A37404F0A35C
:1006C60074E8F07B017A0079561255E6020AFE902C
:1006D60004F3E064026003020FB99004E8E0FF64EB
:1006E600336003EF702F7B017A0479E8900599E077
:1006F600540F9004FCF07F921238949004FB74011E
:10070600F0A37400F0A37456F07B017A0479E81222
:100716003491020AFEE49004E6F09004F4E0FF90BF
:1007260004E6E0FEC39F40030207CFEE75F008A47F
:10073600FFAEF02457F58274003EF583E0FD900489
:10074600E9E0FCED6C707974582FF58274003EF583
:1007560083E0FF9004EAE0FEEF6E70649004E6E04A
:1007660075F008A4FFAEF02459F58274003EF583B7
:10077600E0FD9004EBE0FCED6C7045745A2FF582B9
:1007860074003EF583E0FF9004ECE0FEEFB5063022
:100796009004E6E0A3F075F008A42456F974003539
:1007A600F0FA7B01C0039004FBEBF0A37404F0A302
:1007B60074E8F0D0031255E6124408125EB48009BC
:1007C6009004E6E004F00207209004F4E0FF9004B1
:1007D600E7E06F6003020FB99004E6F09004F4E0DE
:1007E600FD9004E6E0FFC39D4003020FB9EF75F0EC
:1007F60008A42456F582740035F0F583E07049901C
:1008060005BDE0C39D5003E004F07B017A0479E85E
:10081600900599E0540F9004FCF07F911238949063
:1008260004E6E075F008A42456F9740035F0FA7B66
:1008360001C0039004FBEBF0A37404F0A374E8F08A
:10084600D0031255E6020AFE9004E6E004F0808C1E
:100856007B017A0479D79004DFE0FCA3E0FDA3E0F6
:10086600FEA3E0FF1261D4EF3395E0FE9004E3F0BF
:10087600A3EFF04E7003020FB99004DFE0FCA3E093
:10088600FDA3E0FEA3E0FF9005C7E0F8A3E0F9A30F
:10089600E0FAA3E0FBC31224247009127737EF6055
:1008A6001F020FB99004DFE0FCA3E0FDA3E0FEA366
:1008B600E0FF9005C71224B212772B7F0112773121
:1008C6009004E3E0FEA3E0FF64014E70089004E8A4
:1008D6007433F08018EF64024E70089004E87434A4
:1008E600F0800A900599E0540F9004E8F078E97CCE
:1008F600047D017B017A0479D77E007F04122307E9
:10090600900599E0FF9004EFF09004E8E0C394327C
:1009160050279004F1E0B4010CEF540F2477F582D0
:10092600E43403800D900599E0540F2446F582E4E3
:100936003400F583E09004E8F09004F3E06401608D
:1009460003020ABB9004E8E0FF643370030209DE89
:10095600EF70030209DE9004F7E0FFD394014051E3
:100966009005B0EFF09004E8E0FF9005BAE4F0A33C
:10097600EFF0900599E0540F9005BCF09004F6E076
:100986009005B1F0E49004E5F09004E5E0FF24E87A
:10099600F582E43404F583E0FE74B22FF582E43484
:1009A60005F583EEF09004E5E004F0E0B408DA80A3
:1009B600567B017A0479E89004E8E0FD90050AE4A4
:1009C600F0A3EDF0900599E0540F90050CF090041B
:1009D600F6E0FF123A5E802F7B017A0479E89005F3
:1009E60099E0540F9004FCF07F921238949004FB27
:1009F6007401F0A37400F0A37456F07B017A0479B5
:100A0600E8123491020AFE9004F4E0FF9005BDE07E
:100A1600C39F5003E004F07B017A0479E8900599BE
:100A2600E0540F9004FCF07F911238949004FB740C
:100A360001F0A37400F0A37456F07B017A0479E800
:100A46001242989004F4E09004E5F09004E5E0FF8B
:100A5600D394014026EF24FEFFE434FFFEEF780333
:100A6600C333CE33CED8F92456F974003EFA7B014F
:100A76001265599004E5E014F080D0E49004E5F0A6
:100A86009004E5E0FFC39406501474562FF582E4F3
:100A96003400F583E4F09004E5E004F080E290048D
:100AA600FB7401F0A37404F0A374E8F07B017A00F0
:100AB6007956020C2E9004F3E064026003020C41A6
:100AC6009004E8E0FF64336003EF70357B017A043D
:100AD60079E8900599E0540F9004FCF07F92123863
:100AE600949004FB7401F0A37400F0A37456F07B99
:100AF600017A0479E8123491124408125EB4020FA6
:100B0600B9E49004E6F09004F4E0FF9004E6E0FE19
:100B1600C39F4003020BBBEE75F008A4FFAEF024A2
:100B260057F58274003EF583E0FD9004E9E0FCEDA4
:100B36006C707974582FF58274003EF583E0FF904F
:100B460004EAE0FEEF6E70649004E6E075F008A437
:100B5600FFAEF02459F58274003EF583E0FD900463
:100B6600EBE0FCED6C7045745A2FF58274003EF58F
:100B760083E0FF9004ECE0FEEFB506309004E6E07B
:100B8600A3F075F008A42456F9740035F0FA7B0139
:100B9600C0039004FBEBF0A37404F0A374E8F0D058
:100BA600031255E6124408125EB480099004E6E08A
:100BB60004F0020B0C9004F4E0FF9004E7E06F7081
:100BC6007A9004E6F09004F4E0FD9004E6E0FFC3BA
:100BD6009D5068EF75F008A42456F582740035F030
:100BE600F583E0704E9005BDE0C39D5003E004F030
:100BF6007B017A0479E8900599E0540F9004FCF0A3
:100C06007F911238949004E6E075F008A42456F912
:100C1600740035F0FA7B01C0039004FBEBF0A3747B
:100C260004F0A374E8F0D0031255E6124408125EED
:100C3600B480089004E6E004F0808A127743020F3D
:100C4600B97F3512764D78CF7C047D017B017A051C
:100C560079277E007F04122307900598E0FFE4FCC5
:100C6600FDFE7808122435C004C005C006C00790F2
:100C76000597E0FFE4FCFDFE7810122435D003D082
:100C860002D001D000EF4BFBEE4AFAED49F9EC48F1
:100C9600F8900599E0FFEB4FFFEAFEE9FDE8FC90CE
:100CA60004D31224B27B017A0479CF12518F5003F8
:100CB600020FB912753E90052AE06409703D900551
:100CC60029E06409702F900528E0B40922900527D1
:100CD600E004F0E4A3F0A3F0900527E0B4150AE4DD
:100CE600F090052A04F0020FB990052A020F3290FF
:100CF6000528020F3B900529020F4890052A020F8E
:100D0600537F3912764D78CF7C047D017B017A05BD
:100D160079317E007F04122307900598E0FFE4FCFA
:100D2600FDFE7808122435C004C005C006C0079031
:100D36000597E0FFE4FCFDFE7810122435D003D0C1
:100D460002D001D000EF4BFBEE4AFAED49F9EC4830
:100D5600F8900599E0FFEB4FFFEAFEE9FDE8FC900D
:100D660004D31224B27B017A0479CF124CDC5003EF
:100D7600020FB912753E900534E06409703D900586
:100D860033E06409702F900532E0B40922900531F2
:100D9600E004F0E4A3F0A3F0900531E0B4150AE412
:100DA600F090053404F0020FB9900534020F32902A
:100DB6000532020F3B900533020F48900534020FAF
:100DC600537F3D12764D78CF7C047D017B017A05F9
:100DD600793C7E007F04122307900598E0FFE4FC2F
:100DE600FDFE7808122435C004C005C006C0079071
:100DF6000597E0FFE4FCFDFE7810122435D003D001
:100E060002D001D000EF4BFBEE4AFAED49F9EC486F
:100E1600F8900599E0FFEB4FFFEAFEE9FDE8FC904C
:100E260004D31224B27B017A0479CF1249355003D8
:100E3600020FB912753E90053FE06409703D9005BA
:100E46003EE06409702F90053DE0B4092290053C10
:100E5600E004F0E4A3F0A3F090053CE0B4150AE446
:100E6600F090053F04F0020FB990053F020F329053
:100E7600053D020F3B90053E020F4890053F020FCD
:100E8600537F4112764D78CF7C047D017B017A0534
:100E960079487E007F04122307900598E0FFE4FC62
:100EA600FDFE7808122435C004C005C006C00790B0
:100EB6000597E0FFE4FCFDFE7810122435D003D040
:100EC60002D001D000EF4BFBEE4AFAED49F9EC48AF
:100ED600F8900599E0FFEB4FFFEAFEE9FDE8FC908C
:100EE60004D31224B27B017A0479CF124A6D5003DF
:100EF600020FB912753E90054BE06409704C9005DF
:100F06004AE064097039900549E0B409259005481E
:100F1600E004F0E4A3F0A3F0900548E0B4150AE479
:100F2600F090054B04F0020FB990054B7401F002E6
:100F36000FB9900549E004F0E4A3F0A3F0807490A3
:100F4600054AE004F0E4A3F0806990054BE004F064
:100F56008061E4FF1276C59005CB7401F09004F130
:100F6600E0B40124A3E0FF900599E0540F2477F53F
:100F760082E43403F583EFF07B017A0379779005F9
:100F86000F7410F07D2080249004F2E0FF90059904
:100F9600E0540F2446F582E43400F583EFF07B013C
:100FA6007A00794690050F7410F07D307C157FA08D
:0C0FB600126469127743123DC402411C12
:057761009005CBE0FFE4
:017766002200
:067767009005CBEFF022BB
:106716009005B1E09004CFF07B017A0579B290053F
:10672600BAE0FEA3E0FDAC06A3E0FE30A429900586
:10673600B0E0D3940040209004CFE0FF90050AEC2F
:10674600F0A3EDF0A3EEF0123A5E7F0A7E0012731C
:07675600D79005B0E014F03C
:01675D002219
:105C5000FFFFFFFFFFFFFFFFFFFFFFFFFFFFFFFF54
:105C6000FFFFFFFFFFFFFFFFFFFFFFFFFFFFFFFF44
:105C7000FFFFFFFFFFFFFFFFFFFFFFFFFFFFFFFF34
:105C8000FFFFFFFFFFFFFFFFFFFFFFFFFFFFFFFF24
:105C9000FFFFFFFFFFFFFFFFFFFFFFFFFFFFFFFF14
:105CA000FFFFFFFFFFFFFFFFFFFFFFFFFFFFFFFF04
:105CB000FFFFFFFFFFFFFFFFFFFFFFFFFFFFFFFFF4
:105CC000FFFFFFFFFFFFFFFFFFFFFFFFFFFFFFFFE4
:105CD000FFFFFFFFFFFFFFFFFFFFFFFFFFFFFFFFD4
:105CE000FFFFFFFFFFFFFFFFFFFFFFFFFFFFFFFFC4
:0377D100DFFE22B6
:1073C200AE07AF061EEF600C7FF51277D17FF51284
:0573D20077D180EE22DE
:10739700D2B400D2B50000000000C2B40000000063
:0673A70000C2B500002247
